S01100002E2E2F5365616C426F742E733139AE
S32D0000C0000000002091F90000EDFC0000EDFC0000EDFC0000EDFC0000EDFC0000000000000000000000000000DB
S32D0000C02800000000EDFC0000EDFC000000000000EDFC0000EDFC0000EDFC0000EDFC0000EDFC0000EDFC0000A2
S32D0000C050EDFC0000EDFC0000EDFC0000EDFC0000EDFC0000EDFC0000EDFC0000EDFC0000EDFC0000EDFC0000A8
S32D0000C078EDFC0000EDFC0000EDFC0000EDFC0000EDFC0000EDFC0000EDFC0000EDFC0000EDFC0000EDFC000080
S32D0000C0A0EDFC0000EDFC0000EDFC0000EDFC0000EDFC0000EDFC0000EDFC0000EDFC0000EDFC0000EDFC000058
S32D0000C0C8EDFC0000EDFC0000EDFC0000EDFC0000EDFC0000EDFC0000EDFC0000EDFC0000EDFC0000EDFC000030
S32D0000C0F0EDFC00005D6D0100EDFC0000EDFC0000EDFC0000EDFC0000EDFC0000EDFC0000EDFC0000EDFC000026
S32D0000C118EDFC0000EDFC0000EDFC0000EDFC0000EDFC0000EDFC0000EDFC0000EDFC0000EDFC0000EDFC0000DF
S32D0000C140EDFC0000EDFC0000EDFC0000EDFC00001D350100EDFC0000EDFC0000EDFC0000EDFC0000EDFC00004D
S32D0000C168EDFC0000EDFC0000EDFC0000EDFC0000EDFC0000EDFC0000EDFC0000EDFC0000EDFC0000EDFC00008F
S32D0000C190EDFC0000EDFC0000EDFC00007D2F0100D12D0100A52E01003DFD000055300100EDFC0000EDFC0000B4
S32D0000C1B8EDFC0000EDFC0000EDFC0000EDFC0000EDFC0000EDFC0000EDFC0000EDFC0000EDFC0000EDFC00003F
S32D0000C41081F0004102E000BF83F0004330B54FEA41044FEA430594EA050F08BF90EA020F1FBF54EA000C55EAC6
S32D0000C438020C7FEA645C7FEA655C00F0E2804FEA5454D4EB5555B8BF6D420CDD2C4480EA020281EA030382EA0F
S32D0000C460000083EA010180EA020281EA0303362D88BF30BD11F0004F4FEA01314FF4801C4CEA113102D0404263
S32D0000C48861EB410113F0004F4FEA03334CEA133302D0524263EB430394EA050F00F0A780A4F10104D5F1200E8A
S32D0000C4B00DDB02FA0EFC22FA05F2801841F1000103FA0EF2801843FA05F359410EE0A5F120050EF1200E012A2D
S32D0000C4D803FA0EFC28BF4CF0020C43FA05F3C01851EBE37101F0004507D54FF0000EDCF1000C7EEB00006EEB67
S32D0000C5000101B1F5801F1BD3B1F5001F0CD349085FEA30004FEA3C0C04F101044FEA445212F5800F80F09A8000
S32D0000C528BCF1004F08BF5FEA500C50F1000041EB045141EA050130BD5FEA4C0C404141EB010111F4801FA4F114
S32D0000C5500104E9D191F0000F04BF01460020B1FA81F308BF2033A3F10B03B3F120020CDA0C3208DD02F1140C87
S32D0000C578C2F10C0201FA0CF021FA02F10CE002F11402D8BFC2F1200C01FA02F120FA0CFCDCBF41EA0C019040B1
S32D0000C5A0E41AA2BF01EB0451294330BD6FEA04041F3C1CDA0C340EDC04F11404C4F1200220FA04F001FA02F3B6
S32D0000C5C840EA030021FA04F345EA030130BDC4F10C04C4F1200220FA02F001FA04F340EA0300294630BD21FAA8
S32D0000C5F004F0294630BD94F0000F83F4801306BF81F480110134013D4EE77FEA645C18BF7FEA655C29D094EA1C
S32D0000C618050F08BF90EA020F05D054EA000C04BF1946104630BD91EA030F1EBF0021002030BD5FEA545C05D1A3
S32D0000C6404000494128BF41F0004130BD14F580043CBF01F5801130BD01F0004545F0FE4141F470014FF0000031
S32D0000C66830BD7FEA645C1ABF194610467FEA655C1CBF0B46024650EA013406BF52EA033591EA030F41F40021D7
S32D0000C69030BD00BF90F0000F04BF0021704730B54FF4806404F132044FF000054FF0000150E700BF90F0000F66
S32D0000C6B804BF0021704730B54FF4806404F1320410F0004548BF40424FF000013EE700BF42004FEAE2014FEAF9
S32D0000C6E031014FEA02701FBF12F07F4393F07F4F81F06051704792F0000F14BF93F07F4F704730B54FF460741B
S32D0000C70801F0004521F0004120E700BF50EA010208BF704730B54FF000050AE050EA010208BF704730B511F046
S32D0000C730004502D5404261EB41014FF4806404F132045FEA915C3FF4DCAE4FF003025FEADC0C18BF03325FEAA0
S32D0000C758DC0C18BF033202EBDC02C2F1200300FA03FC20FA02F001FA03FE40EA0E0021FA02F11444C1E600BF19
S32D0000C78070B54FF0FF0C4CF4E06C1CEA11541DBF1CEA135594EA0C0F95EA0C0F00F0DEF82C4481EA030621EAF3
S32D0000C7A84C5123EA4C5350EA013518BF52EA033541F4801143F4801338D0A0FB02CE4FF00005E1FB02E506F05F
S32D0000C7D00042E0FB03E54FF00006E1FB03569CF0000F18BF4EF0010EA4F1FF04B6F5007F64F5407404D25FEA0F
S32D0000C7F84E0E6D4146EB060642EAC62141EA55514FEAC52040EA5E504FEACE2EB4F1FD0C88BFBCF5E06F1ED8D2
S32D0000C820BEF1004F08BF5FEA500E50F1000041EB045170BD06F0004646EA010140EA020081EA0301B4EB5C0487
S32D0000C848C2BFD4EB0C0541EA045170BD41F480114FF0000E013C00F3AB8014F1360FDEBF002001F0004170BDF0
S32D0000C870C4F10004203C35DA0C341BDC04F11404C4F1200500FA05F320FA04F001FA05F240EA020001F0004207
S32D0000C89821F0004110EBD37021FA04F642EB06015EEA430E08BF20EAD37070BDC4F10C04C4F1200500FA04F32F
S32D0000C8C020FA05F001FA04F240EA020001F0004110EBD37041F100015EEA430E08BF20EAD37070BDC4F12005C7
S32D0000C8E800FA05F24EEA020E20FA04F301FA05F243EA020321FA04F001F0004121FA04F220EA020000EBD37028
S32D0000C9105EEA430E08BF20EAD37070BD94F0000F0FD101F00046400041EB010111F4801F08BF013CF7D041EA6D
S32D0000C938060195F0000F18BF704703F00046520043EB030313F4801F08BF013DF7D043EA0603704794EA0C0FF1
S32D0000C9600CEA135518BF95EA0C0F0CD050EA410618BF52EA4306D1D181EA030101F000414FF0000070BD50EA38
S32D0000C988410606BF1046194652EA430619D094EA0C0F02D150EA013613D195EA0C0F05D152EA03361CBF10467B
S32D0000C9B019460AD181EA030101F0004141F0FE4141F470014FF0000070BD41F0FE4141F4780170BD70B54FF04D
S32D0000C9D8FF0C4CF4E06C1CEA11541DBF1CEA135594EA0C0F95EA0C0F00F0A7F8A4EB050481EA030E52EA03359B
S32D0000CA004FEA013100F088804FEA03334FF0805545EA131343EA12634FEA022245EA111545EA10654FEA002676
S32D0000CA280EF000419D4208BF964244F1FD0404F5407402D25B084FEA3202B61A65EB03055B084FEA32024FF461
S32D0000CA5080104FF4002CB6EB020E75EB030E22BFB61A754640EA0C005B084FEA3202B6EB020E75EB030E22BF22
S32D0000CA78B61A754640EA5C005B084FEA3202B6EB020E75EB030E22BFB61A754640EA9C005B084FEA3202B6EBEA
S32D0000CAA0020E75EB030E22BFB61A754640EADC0055EA060E18D04FEA051545EA16754FEA06164FEAC30343EAAC
S32D0000CAC852734FEAC2025FEA1C1CC0D111F4801F0BD141EA00014FF000004FF0004CB6E711F4801F04BF0143AE
S32D0000CAF00020B4F1FD0C88BFBCF5E06F3FF6AFAEB5EB030C04BFB6EB020C5FEA500C50F1000041EB045170BDBC
S32D0000CB180EF0004E4EEA113114EB5C04C2BFD4EB0C0541EA045170BD41F480114FF0000E013C90E645EA060EC3
S32D0000CB408DE60CEA135594EA0C0F08BF95EA0C0F3FF43BAF94EA0C0F0AD150EA01347FF434AF95EA0C0F7FF499
S32D0000CB6825AF104619462CE795EA0C0F06D152EA03353FF4FDAE1046194622E750EA410618BF52EA43067FF432
S32D0000CB90C5AE50EA41047FF40DAF52EA43057FF4EBAE12E74FF0FF3C06E000BF4FF0010C02E000BF4FF0010C75
S32D0000CBB84DF804CD4FEA410C7FEA6C5C4FEA430C18BF7FEA6C5C1BD001B050EA410C0CBF52EA430C91EA030FEC
S32D0000CBE002BF90EA020F0020704710F1000F91EA030F58BF994208BF90422CBFD8176FEAE37040F0010070476E
S32D0000CC084FEA410C7FEA6C5C02D150EA013C07D14FEA430C7FEA6C5CD6D152EA033CD3D05DF8040B704700BFCD
S32D0000CC308446104662468C461946634600E000BF01B5FFF7B7FF002848BF10F1000F01BD4DF808EDFFF7F4FF13
S32D0000CC580CBF012000205DF808FB00BF4DF808EDFFF7EAFF34BF012000205DF808FB00BF4DF808EDFFF7E0FF18
S32D0000CC8094BF012000205DF808FB00BF4DF808EDFFF7CEFF94BF012000205DF808FB00BF4DF808EDFFF7C4FF40
S32D0000CCA834BF012000205DF808FB00BF4FEA410212F5001215D211D56FF47873B3EB625212D94FEAC12343F0D6
S32D0000CCD0004343EA505311F0004F23FA02F018BF404270474FF00000704750EA013005D111F0004008BF6FF016
S32D0000CCF8004070474FF00000704700BF4A0011D212F5001211D20DD56FF47873B3EB62520ED44FEAC12343F085
S32D0000CD20004343EA505323FA02F070474FF00000704750EA013002D14FF0FF3070474FF0000070474FEA410241
S32D0000CD48B2F1E04324BFB3F5001CDCF1FE5C0DD901F0004C4FEAC0024CEA5070B2F1004F40EB830008BF20F09E
S32D0000CD700100704711F0804F21D113F13872BCBF01F00040704741F480114FEA5252C2F11802C2F1200C10FAB1
S32D0000CD980CF320FA02F018BF40F001004FEAC1234FEAD32303FA0CFC40EA0C0023FA02F34FEA4303CCE77FEA26
S32D0000CDC0625307D150EA01331EBF4FF0FE4040F44000704701F0004040F0FE4040F40000704700BF80F00040CC
S32D0000CDE802E000BF81F0004142001FBF5FEA410392EA030F7FEA226C7FEA236C6AD04FEA1262D2EB1363C1BF06
S32D0000CE10D218414048404140B8BF5B42192B88BF704710F0004F40F4000020F07F4018BF404211F0004F41F4FA
S32D0000CE38000121F07F4118BF494292EA030F3FD0A2F1010241FA03FC10EB0C00C3F1200301FA03F100F000432B
S32D0000CE6002D5494260EB4000B0F5000F13D3B0F1807F06D340084FEA310102F10102FE2A51D2B1F1004F40EB94
S32D0000CE88C25008BF20F0010040EA03007047490040EB000010F4000FA2F10102EDD1B0FA80FCACF1080CB2EB5F
S32D0000CEB00C0200FA0CF0AABF00EBC25052421843BCBFD0401843704792F0000F81F4000106BF80F400000132EB
S32D0000CED8013BB5E74FEA41037FEA226C18BF7FEA236C21D092EA030F04D092F0000F08BF0846704790EA010FD7
S32D0000CF001CBF0020704712F07F4F04D1400028BF40F00040704712F100723CBF00F50000704700F0004343F0DC
S32D0000CF28FE4040F4000070477FEA226216BF08467FEA23630146420206BF5FEA412390EA010F40F480007047C1
S32D0000CF504FF0000304E000BF10F0004348BF40425FEA000C08BF704743F0964301464FF000001CE050EA010264
S32D0000CF7808BF70474FF000030AE000BF50EA010208BF704711F0004302D5404261EB41015FEA010C02BF84465B
S32D0000CFA00146002043F0B64308BFA3F18053A3F50003BCFA8CF2083AA3EBC25310DB01FA02FC634400FA02FC6B
S32D0000CFC8C2F12002BCF1004F20FA02F243EB020008BF20F00100704702F1200201FA02FCC2F1200250EA4C0034
S32D0000CFF021FA02F243EB020008BF20EADC7070474FF0FF0C1CEAD0521EBF1CEAD15392EA0C0F93EA0C0F6FD019
S32D0000D0181A4480EA010C400218BF5FEA41211ED04FF0006343EA501043EA5111A0FB01310CF00040B1F5000FE7
S32D0000D0403EBF490041EAD3715B0040EA010062F17F02FD2A1DD8B3F1004F40EBC25008BF20F00100704790F058
S32D0000D068000F0CF0004C08BF49024CEA502040EA51207F3AC2BFD2F1FF0340EAC250704740F400004FF0000388
S32D0000D090013A5DDC12F1190FDCBF00F000407047C2F10002410021FA02F1C2F1200200FA02FC5FEA310040F1D5
S32D0000D0B8000053EA4C0308BF20EADC70704792F0000F00F0004C02BF400010F4000F013AF9D040EA0C0093F04C
S32D0000D0E0000F01F0004C02BF490011F4000F013BF9D041EA0C018FE70CEAD15392EA0C0F18BF93EA0C0F0AD00B
S32D0000D10830F0004C18BF31F0004CD8D180EA010000F00040704790F0000F17BF90F0004F084691F0000F91F0BB
S32D0000D130004F14D092EA0C0F01D142020FD193EA0C0F03D14B0218BF084608D180EA010000F0004040F0FE4051
S32D0000D15840F40000704740F0FE4040F4400070474FF0FF0C1CEAD0521EBF1CEAD15392EA0C0F93EA0C0F69D044
S32D0000D180A2EB030280EA010C49024FEA402037D04FF0805343EA111143EA10130CF000408B4238BF5B0042F14E
S32D0000D1A87D024FF4000C8B4224BF5B1A40EA0C00B3EB510F24BFA3EB510340EA5C00B3EB910F24BFA3EB9103A4
S32D0000D1D040EA9C00B3EBD10F24BFA3EBD10340EADC001B0118BF5FEA1C1CE0D1FD2A3FF650AF8B4240EBC25018
S32D0000D1F808BF20F0010070470CF0004C4CEA50207F32C2BFD2F1FF0340EAC250704740F400004FF00003013AF1
S32D0000D22037E792F0000F00F0004C02BF400010F4000F013AF9D040EA0C0093F0000F01F0004C02BF490011F4C9
S32D0000D248000F013BF9D041EA0C0195E70CEAD15392EA0C0F08D142027FF47DAF93EA0C0F7FF470AF084676E7AE
S32D0000D27093EA0C0F04D14B023FF44CAF08466EE730F0004C18BF31F0004CCAD130F000427FF45CAF31F0004376
S32D0000D2987FF43CAF5FE700BF4FF0FF3C06E000BF4FF0010C02E000BF4FF0010C4DF804CD4FEA40024FEA41039F
S32D0000D2C07FEA226C18BF7FEA236C11D001B052EA530C18BF90EA010F58BFB2EB030088BFC81738BF6FEAE1706E
S32D0000D2E818BF40F0010070477FEA226C02D15FEA402C05D17FEA236CE4D15FEA412CE1D05DF8040B704700BF16
S32D0000D310844608466146FFE70FB5FFF7C9FF002848BF10F1000F0FBD4DF808EDFFF7F4FF0CBF012000205DF839
S32D0000D33808FB00BF4DF808EDFFF7EAFF34BF012000205DF808FB00BF4DF808EDFFF7E0FF94BF012000205DF8A9
S32D0000D36008FB00BF4DF808EDFFF7D2FF94BF012000205DF808FB00BF4DF808EDFFF7C8FF34BF012000205DF8B1
S32D0000D38808FB00BF4FEA4002B2F1FE4F0FD34FF09E03B3EB12620DD94FEA002343F0004310F0004F23FA02F060
S32D0000D3B018BF404270474FF00000704712F1610F01D1420205D110F0004008BF6FF0004070474FF00000704797
S32D0000D3D880B500AF41F24C10C1F6FF704FF4FA7106F09CFA41F24C10C1F6FF7040F6331106F0B2FA00F004F897
S32D0000D4004FF00003184680BDB0B5ADF5C56D06AF41F24440C1F6FF7044F64F71C0F22F0107F034F841F24440A0
S32D0000D428C1F6FF7042F62F71C0F24F0107F088F807F11003A3F10C031D464FF0050406E0284608F021FF05F1A4
S32D0000D450EC0504F1FF34B4F1FF3F0CBF00230123DBB2002BF0D107F5B06202F10C024FF0780310464FF00001C8
S32D0000D4781A460CF044F94AF6A403C0F2010307F5B06202F10C0293E8030082E8030007F5B26303F104034FF00B
S32D0000D4A000021A6003F104034FF000021A6003F104034FF000021A6003F104034AF6B802C0F2010207F5B463B9
S32D0000D4C892E80300186003F10403198003F102034FEA11421A7007F5B46303F107034FF000021A7003F10103CA
S32D0000D4F04FF000021A7003F101034FF000021A7003F101034FF000021A7003F101034FF000021A7003F1010302
S32D0000D5184FF000021A7003F101034FF000021A7003F101034FF000021A7003F101034FF000021A7003F10103D9
S32D0000D5404FF000021A7003F101034FF000021A7003F101034FF000021A7003F101034FF000021A7003F10103B1
S32D0000D5684AF6CC03C0F2010307F5B66202F1040293E8030082E8030007F5B66303F10C034FF000021A6003F111
S32D0000D59004034FF000021A6003F104034FF000021A6003F104034AF6E002C0F2010207F5B96307CA03C31A80DA
S32D0000D5B807F5BA6303F102034FF000021A8003F102034FF000021A8003F102034FF000021A8003F102034FF078
S32D0000D5E000021A8003F102034FF000021A8003F102034AF6F403C0F2010307F5BA6404F10C0493E8070084E8BA
S32D0000D60807004FF00003C7F8E8354FF00003C7F8EC354AF60812C0F2010207F5BE6392E80300186003F1040391
S32D0000D630197007F5BE6202F105024FF00F0310464FF000011A460CF05EF807F11003A3F10C034FF014020092FF
S32D0000D6584FF03C0201924FF03C02029207F5B06202F10C02039241F67012C0F21902049242F62F72C0F24F02E7
S32D0000D680059218464FF003014FF002024FF0140309F06CF800E000BF07F5C16207F5C06303F1040341F24440BF
S32D0000D6A8C1F6FF7011461A4607F0B2F8D7F80816D7F8042607F11003A3F10C0318464FF0000308F033FF03462F
S32D0000D6D0002B0CBF00230123DBB2002B02D000F0C7FBD8E7D7F80816D7F8042607F11003A3F10C0303F1EC037D
S32D0000D6F818464FF0000308F019FF0346002B0CBF00230123DBB2002B2BD041F2AC40C1F6FF700AF09DF807F14F
S32D0000D7201003A3F10C034FF0140200924FF03C0201924FF03C02029207F5B06202F10C02039241F67012C0F20E
S32D0000D7481902049242F62F72C0F24F02059218464FF003014FF002024FF0140309F002F895E7D7F80816D7F82A
S32D0000D770042607F11003A3F10C0303F5EC7318464FF0000308F0D6FE0346002B0CBF00230123DBB2002B02D0E0
S32D0000D79800F0AAFE7BE7D7F80816D7F8042607F11003A3F10C0303F5317318464FF0000308F0BCFE0346002B73
S32D0000D7C00CBF00230123DBB2002B1CD04FF01E0001F05AFC6FF01D004FF40C7100F0E2FE4FF01E004FF4E071E4
S32D0000D7E800F0DCFE4FF01E004FF0C40101F086FD4FF01E004FF4E07100F0D0FE47E7D7F80816D7F8042607F1B9
S32D0000D8101003A3F10C0303F56C7318464FF0000308F088FE0346002B0CBF00230123DBB2002B00F0BE814FF093
S32D0000D838010004F051FE41F24440C1F6FF706FF07F4106F055FE41F24440C1F6FF704FF0000106F075FEE84B80
S32D0000D860C7F80C368FE141F24440C1F6FF704AF61C01C0F201014FF000024FF0000307F0FFF841F24440C1F65C
S32D0000D888FF704AF62401C0F201014FF001024FF0000307F0F1F841F24440C1F6FF704AF62C01C0F201014FF049
S32D0000D8B002024FF0000307F0E3F841F22410C1F6FF7005F069FC034641F24440C1F6FF7019464FF000024FF046
S32D0000D8D8060307F011F941F22010C1F6FF7005F057FC034641F24440C1F6FF7019464FF001024FF0080307F03F
S32D0000D900FFF841F21C10C1F6FF7005F045FC034641F24440C1F6FF7019464FF002024FF0070307F0EDF841F227
S32D0000D9284440C1F6FF704AF63401C0F201014FF003024FF0000307F09FF841F24440C1F6FF704AF63C01C0F2DE
S32D0000D95001014FF004024FF0000307F091F841F24440C1F6FF704AF64401C0F201014FF005024FF0000307F00B
S32D0000D97883F841F2AC40C1F6FF700AF039FC034641F24440C1F6FF7019464FF003024FF0070307F0B1F841F2AD
S32D0000D9A0AC40C1F6FF700AF037FC034641F24440C1F6FF7019464FF004024FF0070307F09FF841F2AC40C1F6A3
S32D0000D9C8FF700AF035FC034641F24440C1F6FF7019464FF005024FF00D0307F08DF841F24440C1F6FF704AF6E4
S32D0000D9F05401C0F201014FF006024FF0000307F03FF841F24810C1F6FF7005F0C5FB034641F24440C1F6FF70BD
S32D0000DA1819464FF006024FF00A0307F06DF841F24440C1F6FF704AF66001C0F201014FF007024FF0000307F0DF
S32D0000DA401FF841F25810C1F6FF7004F00FFF034641F24440C1F6FF7019464FF007024FF00B0307F08FF841F213
S32D0000DA684440C1F6FF704AF66C01C0F201014FF008024FF0000306F0FFFF41F25C10C1F6FF7004F0EFFE034617
S32D0000DA9041F24440C1F6FF7019464FF008024FF00C0307F06FF841F24440C1F6FF704AF67801C0F201014FF0AE
S32D0000DAB809024FF0000306F0DFFF41F24010C1F6FF7005F02BFB034641F24440C1F6FF7019464FF009024FF04D
S32D0000DAE00C0306F0EDFF41F24440C1F6FF704AF68401C0F201014FF00A024FF0000306F0BFFF41F24410C1F652
S32D0000DB08FF7005F00BFB034641F24440C1F6FF7019464FF00A024FF00D0306F0CDFF41F24440C1F6FF704AF687
S32D0000DB309401C0F201014FF00B024FF0000306F09FFF41F29040C1F6FF7008F063FF034641F24440C1F6FF70B3
S32D0000DB5819464FF00B024FF0100306F0CDFF04F003FD02460B464FF00C0100914FF01001019141F24440C1F626
S32D0000DB80FF7006F0DDFF07F5C16207F5C06303F1040341F24440C1F6FF7011461A4606F03BFE034683F001037A
S32D0000DBA8DBB2002B7FF45BAE24E0D7F80816D7F8042607F11003A3F10C0303F5926303F10C0318464FF00003F3
S32D0000DBD008F0B0FC0346002B0CBF00230123DBB2002B3FF458AD4FF01E004FF00B0100F0D9FC4FF0020000F06F
S32D0000DBF807F84CE54BE500BF000000000000000080B584B002AF78607B68012B03D0022B00F0888002E141F2D1
S32D0000DC204C10C1F6FF70864905F0BAFE4FF000004FF07E5101F5C00104F06EFC4FF01E004FF0E00100F0AEFC5F
S32D0000DC4840F2212300937D487D497E4A7E4B00F003FF4FF028004FF40C7100F09FFC41F24C10C1F6FF7079496E
S32D0000DC7005F096FE40F2AB23009372487649774A724B00F0EDFE41F24C10C1F6FF70744905F086FE4FF000026C
S32D0000DC984FF07E5303F5F003CDE900236FF031006FF02A014FF4E07201F052FA41F23810C1F6FF70694902F059
S32D0000DCC017F95BA1D1E9000104F026FC41F23810C1F6FF7002F0BCF841F22810C1F6FF70614902F005F941F2B4
S32D0000DCE83010C1F6FF705A4902F0FEF84FF000004FF07E5101F5D00104F00AFC41F22810C1F6FF70524902F0F1
S32D0000DD10EFF841F23010C1F6FF70534902F0E8F845A1D1E9000104F0F7FB7BE041F24C10C1F6FF70424905F0E0
S32D0000DD3833FE4FF000004FF07E5101F5C00104F0E7FB4FF01E004FF0E00100F027FC40F22123009339483A4915
S32D0000DD603A4A3B4B00F07CFE4FF02D004FF028014FF4287200F0BAFC4FF014004FF0500140F2C91200F0E0FF0B
S32D0000DD8841F24C10C1F6FF70334905F005FE4FF000024FF08043CDE900236FF01D006FF01D014FF4C46201F0D5
S32D0000DDB0D3F941F23810C1F6FF702A4902F098F81BA1D1E9000104F0A7FB41F23810C1F6FF7002F03DF84FF0CF
S32D0000DDD8E00300931F481B49184A1D4B00F03CFE16481B494FF48C7200F022FD4FF0E003009312481649174A07
S32D0000DE00124B00F02DFE4FF000024FF08043CDE900234FF028004FF028014FF0A80201F09BF900BF07F108075D
S32D0000DE28BD4680BDAFF300809A9999999999F93F666666666666E63F00000C42000020420000B4420000A0418B
S32D0000DE50000082420000344200008C420000A0400000C8420000C8C200004842AFF3008090B585B002AF41F21E
S32D0000DE784440C1F6FF706FF07F4106F039FB41F24440C1F6FF706FF07F4106F059FB01F0B3FBED48ED494FF4F6
S32D0000DEA09A7200F0C9FC4FF014004FF0540100F079FBDBA1D1E9000104F02EFB4FF014004FF0BC0101F01EFA9C
S32D0000DEC84FF014004FF0480100F068FB4FF014004FF0380100F062FBD1A1D1E9000104F017FB01F0A9FB01F02D
S32D0000DEF067FC03467B607B68002B02DD7B68022B02DD4FF001037B60C9A1D1E9000104F003FB4FF014004FF0DA
S32D0000DF181C0100F043FB4FF4E0730093CC48CD49CD4ACE4B00F098FD4FF0320001F0A8F841F24C10C1F6FF70D1
S32D0000DF40C74905F02DFD6FF013004FF0640100F029FB4FF01E004FF0C40101F0D3F94FF000024FF07E5303F5F3
S32D0000DF68E003CDE900236FF022006FF022014FF4E07201F0EDF841F24C10C1F6FF70B84905F00AFD41F24C1020
S32D0000DF90C1F6FF70B54905F003FD4FF028004FF0700100F0FFFA4FF0E0030093B048B149A94AB14B00F054FD73
S32D0000DFB84FF028004FF0FC0100F0F0FA4FF0E0030093A348AA49A84AA84B00F045FD4FF03C004FF4B67100F03F
S32D0000DFE0E1FA4FF014004FF032014FF4937200F07BFF41F24440C1F6FF704AF61C11C0F201014FF00D024FF036
S32D0000E008000306F039FD84A1D1E9000104F080FA87A3D3E90023CDE900236FF027006FF027014FF4E07201F0F8
S32D0000E03093F841F23010C1F6FF708E4901F058FF77A1D1E9000104F067FA41F23010C1F6FF7001F0FDFE4FF093
S32D0000E05800024FF07E5303F5C003CDE900236FF022006FF022014FF4E07201F071F872A3D3E90023CDE9002335
S32D0000E0804FF014004FF014014FF01C0201F064F841F24C10C1F6FF70784905F081FC4FF01E004FF0A80100F004
S32D0000E0A87DFA41F24C10C1F6FF706C4905F074FC4FF4C47300936C486E496F4A6F4B00F0CBFC41F24440C1F6F4
S32D0000E0D0FF704AF62C11C0F201014FF00D024FF0000306F0CDFC4FF000024FF0804303F5C013CDE900234FF00D
S32D0000E0F828004FF028014FF4A86201F029F86FF013004FF0270100F049FA4FF014004FF02D014FF0AE0200F060
S32D0000E120E3FE4FF0280000F0AFFF41F24440C1F6FF704AF63C11C0F201014FF00D024FF0000306F09DFC41F27B
S32D0000E1484C10C1F6FF704D4905F026FC41F23810C1F6FF704A4901F0C7FE6FF031004FF4A57100F01BFA41F26F
S32D0000E1703810C1F6FF7001F06BFE41F24C10C1F6FF70424905F00CFC41F22810C1F6FF703F4901F0ADFE41F294
S32D0000E1983010C1F6FF703C4901F0A6FE00BF41F22010C1F6FF7004F0F3FF03464FF00102144618463549FFF7F4
S32D0000E1C0DBF80346002B02D14FF000031C46E3B2002BE8D16FF01D004FF0560100F0E2F941F22810C1F6FF708C
S32D0000E1E801F032FE41F23010C1F6FF7001F02CFE0DA1D1E9000104F08BF94FF01E004FF0620101F0D3F80EA3E7
S32D0000E210D3E90023CDE900233EE000BFAFF300809A9999999999B93F9A9999999999D93F9A9999999999C93F4C
S32D0000E238CDCCCCCCCCCCEC3F333333333333D33F333333333333F33F0000A04100007042000020420000B44231
S32D0000E260000034420000BE420000824200008E42000020410000F0410000A04200000C4200005C420000C8421C
S32D0000E28800004842000000000000A0C10000E03F6FF027006FF027014FF48C6200F058FF4FF01E004FF0160126
S32D0000E2B000F078F97868FFF7A7FC41F24C10C1F6FF707F4905F06CFB4FF000004FF07E5101F5C00104F020F97C
S32D0000E2D84FF01E004FF0E00100F060F94FF40773009376487649774A774B00F0B5FB4FF028004FF4447100F013
S32D0000E30051F94FF023004FF0820100F0FBFF7148714901F0BBF87B68012B03D0022B5BD0002BA6E041F24C1006
S32D0000E328C1F6FF706B4905F037FB6FF0130040F28D1100F033F94FF014004FF0C40100F0DDFF4FF000024FF0C5
S32D0000E3508043CDE900236FF013006FF013014FF4C47200F0F9FE41F23810C1F6FF705C4901F0BEFD4AA1D1E927
S32D0000E378000104F0CDF841F23810C1F6FF7001F063FD41F22810C1F6FF70544901F0ACFD41F23010C1F6FF706A
S32D0000E3A0514901F0A5FD40A1D1E9000104F0B4F841F22810C1F6FF704C4901F099FD41F23010C1F6FF70474910
S32D0000E3C801F092FD38A1D1E9000104F0A1F84CE041F24C10C1F6FF703E4905F0DDFA6FF01D004FF0540100F052
S32D0000E3F0D9F84FF014004FF0BA0100F083FF4FF000024FF08043CDE900236FF01D006FF01D014FF4C47200F0F1
S32D0000E4189FFE41F23810C1F6FF702F4901F064FD1DA1D1E9000104F073F841F23810C1F6FF7001F009FD4FF01F
S32D0000E44014004FF0E00100F0ADF84FF01E004FF0C40100F057FF18A3D3E90023CDE900234FF028004FF02801FC
S32D0000E4684FF40C7200F074FE00BF6FF01D004FF0380100F093F84FF019004FF0C40100F095FF4FF032004FF4A1
S32D0000E4900C7100F087F807F10C07BD4690BD00BFCDCCCCCCCCCCFC3F9A9999999999E93F666666666666E63F0C
S32D0000E4B89A9999999999F93F00000C42000020420000B4420000A041000082420000AF43000070410000C8426F
S32D0000E4E00000C8C2000048420000964200008C4280B500AF41F24C10C1F6FF70244905F04FFA4FF000004FF092
S32D0000E5087E5101F5C00104F003F841F24C10C1F6FF701E4905F040FA4FF000004FF07E5101F5C00103F0F4FF3B
S32D0000E53041F24C10C1F6FF70174905F031FA4FF000004FF07E5101F5C00103F0E5FF41F24C10C1F6FF7011499E
S32D0000E55805F022FA4FF000004FF07E5101F5C00103F0D6FF41F24C10C1F6FF700A4905F013FA41F24440C1F640
S32D0000E580FF704AF68811C0F2010106F063FB80BD00000C4200000000000034420000BE420000B442F0B585B04C
S32D0000E5A800AF7860396041F24410C1F6FF7004F0C9FD41F24010C1F6FF7004F0C3FD7868FEF7C6FC034641F24E
S32D0000E5D03010C1F6FF70194601F08AFC7868FEF7BBFC034641F22810C1F6FF70194601F07FFC03F0BDFF0246B9
S32D0000E5F80B4610461946FEF7A1FB0346FB6000BF41F24010C1F6FF7004F088FD044641F24410C1F6FF7004F0EE
S32D0000E62081FD0346E3181846FEF744F802460B46104619464FF000024FF08043FEF7CAF902460B4614461D46DC
S32D0000E6483868FEF733F802460B464FF001010E4620462946FEF702FB0346002B02D14FF000031E46F3B2002B32
S32D0000E67027D003F07DFF04460D46F868FEF72CF802460B4620462946FDF7C6FE02460B464FF001010C46104658
S32D0000E69819464FF000024FF0804303F5C013FEF7DDFA0346002B02D14FF000031C46E3B2002B02D04FF001035B
S32D0000E6C001E04FF00003002B9ED141F23010C1F6FF7001F0BDFB41F22810C1F6FF7001F0B7FB07F11407BD46E3
S32D0000E6E8F0BD00BFF0B587B000AFF860B9607A6041F24410C1F6FF7004F024FD41F24010C1F6FF7004F01EFD48
S32D0000E710B868FEF721FC034641F23010C1F6FF70194601F0E5FBF868FEF716FC034641F22810C1F6FF701946F7
S32D0000E73801F0DAFB03F018FF02460B4610461946FEF7FCFA03467B6100BF41F24010C1F6FF7004F0E3FC044600
S32D0000E76041F24410C1F6FF7004F0DCFC0346E3181846FDF79FFF02460B46104619464FF000024FF08043FEF758
S32D0000E78825F902460B4614461D467868FDF78EFF02460B464FF001010E4620462946FEF75DFA0346002B02D1F8
S32D0000E7B04FF000031E46F3B2002B27D003F0D8FE04460D467869FDF787FF02460B4620462946FDF721FE024644
S32D0000E7D80B464FF001010C46104619464FF000024FF0804303F5C013FEF738FA0346002B02D14FF000031C465A
S32D0000E800E3B2002B02D04FF0010301E04FF00003002B9ED141F23010C1F6FF7001F018FB41F22810C1F6FF702A
S32D0000E82801F012FB07F11C07BD46F0BD000000002DE9F04387B000AFF860B9607A6041F24410C1F6FF7004F0DE
S32D0000E8507DFC41F24010C1F6FF7004F077FC41F22810C1F6FF70F96801F042FB41F23010C1F6FF70B96801F046
S32D0000E8783BFB03F079FE02460B4610461946FEF75DFA03467B616EE0B868F968FEF7AAFA03461846FDF71CFFF5
S32D0000E8A004460D4641F24010C1F6FF7004F03AFC064641F24410C1F6FF7004F033FC0346F3181846FDF7F6FE24
S32D0000E8C802460B46104619464FF000024FF08043FEF77CF802460B46104619465CA3D3E90023FDF749FF024678
S32D0000E8F00B46904699467868FEF72EFB03461846FDF7EAFE02460B4640464946FEF762F802460B461046194628
S32D0000E91809F0D6FD02460B4620462946FDF72CFF02460B4614461D46F868FDF7D1FE02460B4620462946FDF79D
S32D0000E9406DFD02460B4610461946FEF7FBF903463B6141F22810C1F6FF70396901F0C8FA41F23010C1F6FF70A4
S32D0000E968396901F0C1FA41F24010C1F6FF7004F0D5FB044641F24410C1F6FF7004F0CEFB0346E3181846FDF77C
S32D0000E99091FE02460B46104619464FF000024FF08043FEF717F802460B4614461D467868FDF780FE02460B46F4
S32D0000E9B84FF001010E4620462946FEF74FF90346002B02D14FF000031E46F3B2002B27D003F0CAFD04460D467F
S32D0000E9E07869FDF779FE02460B4620462946FDF713FD02460B464FF001010C46104619464FF000024FF0804327
S32D0000EA0803F5C013FEF72AF90346002B02D14FF000031C46E3B2002B02D04FF0010301E04FF00003002B7FF47C
S32D0000EA302FAF41F23010C1F6FF7001F009FA41F22810C1F6FF7001F003FA07F11C07BD46BDE8F083AFF3008076
S32D0000EA586E861BF0F92109402DE9F04387B000AFF860B9607A603B6041F24410C1F6FF7004F068FB41F2401092
S32D0000EA80C1F6FF7004F062FB41F22810C1F6FF70F96801F02DFA41F23010C1F6FF70396801F026FA03F064FD48
S32D0000EAA802460B4610461946FEF748F903467B61CDE0B868F968FEF795F903461846FDF707FE04460D4641F276
S32D0000EAD04010C1F6FF7004F025FB064641F24410C1F6FF7004F01EFB0346F3181846FDF7E1FD02460B46104615
S32D0000EAF819464FF000024FF08043FDF767FF02460B46104619468CA3D3E90023FDF734FE02460B469046994624
S32D0000EB20B86BFEF719FA03461846FDF7D5FD02460B4640464946FDF74DFF02460B461046194609F0C1FC0246F5
S32D0000EB480B4620462946FDF717FE02460B4614461D46F868FDF7BCFD02460B4620462946FDF758FC02460B46BE
S32D0000EB7010461946FEF7E6F8034641F22810C1F6FF70194601F0B4F938687968FEF72EF903461846FDF7A0FD43
S32D0000EB9804460D4641F24010C1F6FF7004F0BEFA064641F24410C1F6FF7004F0B7FA0346F3181846FDF77AFDA2
S32D0000EBC002460B46104619464FF000024FF08043FDF700FF02460B461046194658A3D3E90023FDF7CDFD024675
S32D0000EBE80B4690469946B86BFEF7B2F903461846FDF76EFD02460B4640464946FDF7E6FE02460B46104619465C
S32D0000EC1009F05AFC02460B4620462946FDF7B0FD02460B4614461D467868FDF755FD02460B4620462946FDF79A
S32D0000EC38F1FB02460B4610461946FEF77FF8034641F23010C1F6FF70194601F04DF941F24010C1F6FF7004F0F3
S32D0000EC6061FA044641F24410C1F6FF7004F05AFA0346E3181846FDF71DFD02460B46104619464FF000024FF06E
S32D0000EC888043FDF7A3FE02460B4614461D46B86BFDF70CFD02460B464FF001010E4620462946FDF7DBFF034676
S32D0000ECB0002B02D14FF000031E46F3B2002B27D003F056FC04460D467869FDF705FD02460B4620462946FDF7B0
S32D0000ECD89FFB02460B464FF001010C46104619464FF000024FF0804303F5C013FDF7B6FF0346002B02D14FF056
S32D0000ED0000031C46E3B2002B02D04FF0010301E04FF00003002B7FF4D0AE41F23010C1F6FF7001F095F841F222
S32D0000ED282810C1F6FF7001F08FF807F11C07BD46BDE8F083AFF300806E861BF0F92109402DE9F04387B000AFFE
S32D0000ED50F860B9607A6041F24410C1F6FF7004F0F5F941F24010C1F6FF7004F0EFF9FB68C3F100031846FEF7C9
S32D0000ED78EFF8034641F22810C1F6FF70194601F0B3F8F868FEF7E4F8034641F23010C1F6FF70194601F0A8F8AE
S32D0000EDA06FE0BA68FB68D31A1846FDF783FC04460D4641F24010C1F6FF7004F0B3F9064641F24410C1F6FF70D4
S32D0000EDC804F0ACF90346F3181846FDF76FFC02460B46104619464FF000024FF08043FDF7F5FD02460B4610460D
S32D0000EDF019463BA3D3E90023FDF7C2FC02460B46904699467868FEF7A7F803461846FDF763FC02460B4640464C
S32D0000EE184946FDF7DBFD02460B461046194609F04FFB02460B4620462946FDF7A5FC02460B4614461D46F86827
S32D0000EE40FDF738FC02460B4620462946FDF7E6FA02460B4610461946FDF774FF03467B617B6983F0004341F293
S32D0000EE682810C1F6FF70194601F03EF841F23010C1F6FF70796901F037F841F24010C1F6FF7004F04BF90446D2
S32D0000EE9041F24410C1F6FF7004F044F90346E3184FEAD372D3184FEA63031A467B689A42ACBF00230123DBB2CC
S32D0000EEB8002B7FF472AF41F23010C1F6FF7000F0C3FF41F22810C1F6FF7000F0BDFF07F11C07BD46BDE8F083AF
S32D0000EEE06E861BF0F92109402DE9F04387B000AFF860B9607A6041F24410C1F6FF7004F025F941F24010C1F62F
S32D0000EF08FF7004F01FF9F868FEF722F8034641F22810C1F6FF70194600F0E6FFFB68C3F100031846FEF714F86A
S32D0000EF30034641F23010C1F6FF70194600F0D8FF6FE0BA68FB68D31A1846FDF7B3FB04460D4641F24010C1F613
S32D0000EF58FF7004F0E3F8064641F24410C1F6FF7004F0DCF80346F3181846FDF79FFB02460B46104619464FF0BF
S32D0000EF8000024FF08043FDF725FD02460B46104619463BA3D3E90023FDF7F2FB02460B46904699467868FDF73B
S32D0000EFA8D7FF03461846FDF793FB02460B4640464946FDF70BFD02460B461046194609F07FFA02460B462046D3
S32D0000EFD02946FDF7D5FB02460B4614461D46F868FDF768FB02460B4620462946FDF716FA02460B461046194613
S32D0000EFF8FDF7A4FE03467B6141F22810C1F6FF70796900F071FF7B6983F0004341F23010C1F6FF70194600F0DB
S32D0000F02067FF41F24010C1F6FF7004F07BF8044641F24410C1F6FF7004F074F80346E3184FEAD372D3184FEA0F
S32D0000F04863031A467B689A42ACBF00230123DBB2002B7FF472AF41F23010C1F6FF7000F0F3FE41F22810C1F67B
S32D0000F070FF7000F0EDFE07F11C07BD46BDE8F0836E861BF0F921094080B582B000AF786037E041F25810C1F639
S32D0000F098FF7003F0E7FB0346002B0BD07868FDF757FF034641F22810C1F6FF70194600F01BFF06E041F22810F9
S32D0000F0C0C1F6FF70234900F013FF41F25C10C1F6FF7003F0CBFB0346002B0BD07868FDF73BFF034641F23010F7
S32D0000F0E8C1F6FF70194600F0FFFE06E041F23010C1F6FF70154900F0F7FE41F25810C1F6FF7003F0AFFB03461F
S32D0000F110002B08D141F25C10C1F6FF7003F0A6FB0346002B02D04FF0010301E04FF00003002BAED141F22810B3
S32D0000F138C1F6FF7000F088FE41F23010C1F6FF7000F082FE07F10807BD4680BD000020C1F0B587B000AFF860F9
S32D0000F160B9607A6041F24410C1F6FF7003F0EEFF41F24010C1F6FF7003F0E8FFB868FDF7EBFE034641F23010C5
S32D0000F188C1F6FF70194600F0AFFEF868FDF7E0FE034641F22810C1F6FF70194600F0A4FE03F0E2F902460B46D3
S32D0000F1B010461946FDF7C6FD03467B6133E041F24440C1F6FF706FF07F4105F095F941F24440C1F6FF704FF0F2
S32D0000F1D8000105F0B5F941F24010C1F6FF7003F09DFF034641F24440C1F6FF7019464FF000024FF0000305F030
S32D0000F2005FFC41F24410C1F6FF7003F08BFF034641F24440C1F6FF7019464FF001024FF0000305F04DFC41F2E1
S32D0000F2284010C1F6FF7003F079FF044641F24410C1F6FF7003F072FF0346E3181846FDF735FA02460B461046C8
S32D0000F25019464FF000024FF08043FDF7BBFB02460B4614461D467868FDF724FA02460B464FF001010E46204668
S32D0000F2782946FDF7F3FC0346002B02D14FF000031E46F3B2002B23D003F06EF904460D467869FDF71DFA02463B
S32D0000F2A00B4620462946FDF7B7F802460B464FF001010C4610461946D7E90C23FDF7D2FC0346002B02D14FF05F
S32D0000F2C800031C46E3B2002B02D04FF0010301E04FF00003002B7FF46EAF41F23010C1F6FF7000F0B1FD41F296
S32D0000F2F02810C1F6FF7000F0ABFD07F11C07BD46F0BD00BF90B583B000AF7860396041F24410C1F6FF7003F038
S32D0000F31819FF41F24010C1F6FF7003F013FF7B68C3F100031846FDF713FE034641F22810C1F6FF70194600F0DB
S32D0000F340D7FD7868FDF708FE034641F23010C1F6FF70194600F0CCFD00BF41F24010C1F6FF7003F0DFFE044675
S32D0000F36841F24410C1F6FF7003F0D8FE0346E3184FEAD372D3184FEA63031A463B689A42ACBF00230123DBB297
S32D0000F390002BE2D141F23010C1F6FF7000F058FD41F22810C1F6FF7000F052FD07F10C07BD4690BD90B583B0F0
S32D0000F3B800AF7860396041F24410C1F6FF7003F0C1FE41F24010C1F6FF7003F0BBFE7868FDF7BEFD034641F248
S32D0000F3E02810C1F6FF70194600F082FD7B68C3F100031846FDF7B0FD034641F23010C1F6FF70194600F074FD98
S32D0000F40800BF41F24010C1F6FF7003F087FE044641F24410C1F6FF7003F080FE0346E3184FEAD372D3184FEAA8
S32D0000F430630319463A6813464FEA03139B1A4FEA43031A4648F29D23C5F2973383FB02034FEAA3104FEAE27393
S32D0000F458C31A3A68D31A9942ACBF00230123DBB2002BCED141F23010C1F6FF7000F0ECFC41F22810C1F6FF7034
S32D0000F48000F0E6FC07F10C07BD4690BDF0B585B000AF7860396041F2AC40C1F6FF7008F0CBFE0346FB604FF04E
S32D0000F4A801031C4678685249FDF744FF0346002B02D14FF000031C46E3B2002B01D04C4B7B603B6883F00043D7
S32D0000F4D041F22810C1F6FF70194600F009FD41F23010C1F6FF70396800F002FD4FF001031C467868F968FDF725
S32D0000F4F821FF0346002B02D14FF000031C46E3B2002B4AD000BF41F2AC40C1F6FF7008F08FFE03464FF00102ED
S32D0000F520144618467968FDF709FF0346002B02D14FF000031C46E3B2002B2AD141F2AC40C1F6FF7008F078FECF
S32D0000F54803461846FDF7C4F804460D46F868FDF7BFF802460B46104619464FF000024FF08043FCF755FF024676
S32D0000F5700B464FF001010E4620462946FDF790FB0346002B02D14FF000031E46F3B2002B02D04FF0010301E080
S32D0000F5984FF00003002BB6D117E000BF41F2AC40C1F6FF7008F044FE03464FF00102144618467968FDF7BEFE48
S32D0000F5C00346002B02D14FF000031C46E3B2002BE8D141F23010C1F6FF70084900F088FC41F22810C1F6FF70CA
S32D0000F5E8044900F081FC07F11407BD46F0BD00BF0000803F0000000098B500AF00BF41F24810C1F6FF7003F09B
S32D0000F610C3FD03464FF00102144618460649FDF7ABFE0346002B02D14FF000031C46E3B2002BE8D198BD00BF65
S32D0000F6380000C03F0000000098B500AF41F24810C1F6FF7003F0A4FD03464FF00102144618465749FDF76EFE21
S32D0000F6600346002B02D14FF000031C46E3B2002B26D041F24440C1F6FF704FF47F0104F005FF41F24440C1F6D5
S32D0000F688FF704FF47F0104F033FF41F24440C1F6FF704FF0FF0104F053FF41F24440C1F6FF704AF6F811C0F2C2
S32D0000F6B001014FF000024FF0010305F0E1F963E041F24810C1F6FF7003F066FD03461846FDF702F802460B465F
S32D0000F6D84FF001010C461046194633A3D3E90023FDF7BCFA0346002B02D14FF000031C46E3B2002B26D041F289
S32D0000F7004440C1F6FF704FF0FF0104F0BFFE41F24440C1F6FF704FF0FF0104F0EDFE41F24440C1F6FF704FF426
S32D0000F7287F0104F00DFF41F24440C1F6FF704AF61821C0F201014FF000024FF0010305F09BF91DE041F2444068
S32D0000F750C1F6FF704FF0000104F0CEFE41F24440C1F6FF706FF07F4104F0EEFE41F24440C1F6FF704AF6242127
S32D0000F778C0F201014FF000024FF0010305F07CF941F24810C1F6FF7003F002FD034641F24440C1F6FF70194699
S32D0000F7A04FF004024FF0010305F0AAF998BD00BF66666666666606400000C03FAFF3008098B500AF41F24810B5
S32D0000F7C8C1F6FF7003F0E4FC03464FF00102144618461D49FDF7AEFD0346002B02D14FF000031C46E3B2002B27
S32D0000F7F002D04FF0010323E041F24810C1F6FF7003F0CAFC03461846FCF766FF02460B464FF001010C461046E8
S32D0000F81819460BA3D3E90023FDF720FA0346002B02D14FF000031C46E3B2002B02D04FF0020301E04FF00203E2
S32D0000F840184698BDAFF3008066666666666606400000C03FAFF3008080B582B000AF786039607B68012B67D12C
S32D0000F8683A684FF6FF739A4262D141F21C10C1F6FF704FF0100103F079FC41F22010C1F6FF704FF0110103F000
S32D0000F89071FC41F22410C1F6FF704FF0120103F069FC41F22810C1F6FF704FF00001244A00F076FA41F2301094
S32D0000F8B8C1F6FF704FF001011F4A00F06DFA41F23810C1F6FF704FF002011C4A00F064FA41F24010C1F6FF70BB
S32D0000F8E04FF0020103F066F841F24410C1F6FF704FF0000103F05EF841F24810C1F6FF704FF0010103F036FC1A
S32D0000F90841F24C10C1F6FF704FF0000103F0E8FF41F25810C1F6FF704FF0090102F07EFE41F25C10C1F6FF70C5
S32D0000F9304FF0080102F076FE07F10807BD4680BD000040410000B04080B500AF4FF001004FF6FF71FFF780FFF5
S32D0000F95880BD00BF80B500AF41F21072C1F6FF7241F21C13C1F6FF73D31A194641F21C13C1F6FF731A460B46B1
S32D0000F98010464FF000011A4609F0BDFE80BD00BF0AF032FF00F0B0F9FFF7E0FF0AF004FF0AF0A0FE0AF038FF54
S32D0000F9A800F00CF84FF0000041F26011C1F6FF71FDF70EFD0346184609F07CFE80B500AF4FF4E043C4F2040313
S32D0000F9D04FF4E042C4F2040202F5805202F13802126842F4785203F5805303F138031A6000F02EF900F094F871
S32D0000F9F841F29033C1F6FF734FF058021A6041F29033C1F6FF731B684FF47A7202FB03F241F28C33C1F6FF73D1
S32D0000FA201A6041F28C33C1F6FF731B681A464FF4E043C4F2040303F5825303F104031B6803F070634FEA13635D
S32D0000FA4803F10103B2FBF3F31A4641F29433C1F6FF731A604FF4E043C4F204034FF4E042C4F2040202F58052FB
S32D0000FA7002F13C02126842F0225203F5805303F13C031A604FF4E043C4F204034FF4E042C4F2040202F5805292
S32D0000FA9802F13002126842F0006203F5805303F130031A604FF45043C4F203034FF480721A614FF0640002F0CA
S32D0000FAC0A3FB4FF45043C4F203034FF45042C4F20302526922F010025A614FF45043C4F203034FF000021A6071
S32D0000FAE84FF45043C4F203034FF010025A6103F081FC03F029FD41F28830C1F6FF7002F003FC41F24440C1F659
S32D0000FB10FF7004F009FB41F2883002F0E1FC80BD80B400AF4FF48043C4F206034FF000025A704FF48043C4F2FA
S32D0000FB3806034FF098021A704FF48043C4F206039B79DBB203F01003002B0CBF00230123DBB2002BF0D14FF4CE
S32D0000FB608043C4F206039B79DBB203F00C034FEA9303022B0CBF00230123DBB2002BEED14FF48043C4F2060308
S32D0000FB884FF018021A714FF48043C4F206034FF000025A714FF4E043C4F2040303F5825303F104034FF000026E
S32D0000FBB0C0F213121A604FF48043C4F206034FF054025A7100BF4FF48043C4F206039B79DBB203F02003002B4B
S32D0000FBD814BF00230123DBB2002BF0D100BF4FF48043C4F206039B79DBB203F04003002B14BF00230123DBB23F
S32D0000FC00002BF0D14FF48043C4F206034FF48042C4F206021278D2B202F03F02D2B21A704FF48043C4F206034E
S32D0000FC289B79DBB203F00C034FEA9303032B0CBF00230123DBB2002BEED14FF000031846BD4680BC704700BF30
S32D0000FC5080B400AF4FF44043C4F204034FF480725A634FF2C003C4F20F034FF2C002C4F20F02526942F4005255
S32D0000FC785A614FF2C003C4F20F034FF2C002C4F20F02126842F400521A604FF44043C4F2040340F20312C0F215
S32D0000FCA00A021A634FF46143CEF200034FF46142CEF20002D2F8882142F08062C3F888214FF46143CEF20003C6
S32D0000FCC84FF46142CEF20002926842F080629A60BD4680BC704700BF80B483B000AF7860FEE700BF80B400AF34
S32D0000FCF000BEBD4680BC704780B400AF4FF0E0224CF20003C0F20003C2F8083D4FF40053C4F205034CF2205215
S32D0000FD18DA814FF40053C4F205034DF62812DA814FF40053C4F205034FF0D2021A80BD4680BC704780B500AF5B
S32D0000FD404FF44043C4F20403D3F8A03003F48053002B0CBF00230123DBB2002B1FD04FF44043C4F204034FF403
S32D0000FD684042C4F20402D2F8A02022F48052C3F8A02041F2CC40C1F6FF7008F063FB4FF2C003C4F20F034FF27A
S32D0000FD90C002C4F20F02126822F400521A6080BD90B585B000AFF8600B467A60FB72FB68FA7A1A71FB684FF006
S32D0000FDB800025A714FF001031C4678682049FDF7D7FA0346002B02D14FF000031C46E3B2002B02D01A4B7B60E0
S32D0000FDE011E04FF001031C4678681849FDF7B0FA0346002B02D14FF000031C46E3B2002B01D0124B7B607868EC
S32D0000FE08FCF766FC02460B46104619460AA3D3E90023FCF7B1FC02460B4610461946FCF78DFF0246FB681A600B
S32D0000FE30FB68184607F11407BD4690BDAFF30080ABAAAAAAAAAA2040000040410000803F80B582B000AF7860D3
S32D0000FE587B685B79002B10D07B684FF000025A717B681B7941F28830C1F6FF7019464FF000024FF01E0302F051
S32D0000FE8091FA07F10807BD4680BD00BF80B584B000AF786039603B687F2B03DD4FF07F03FB7309E03B6813F14E
S32D0000FEA8800F03DA4FF08003FB7301E03B68FB737B685B79FA7B9A420FD07B68FA7B5A717B681A79FB7B41F275
S32D0000FED08830C1F6FF7011461A464FF01E0302F061FA07F11007BD4680BD00BF00000000B0B584B000AF786094
S32D0000FEF839604FF001031C4638684D49FDF71AFA0346002B02D14FF000031C46E3B2002B02D0474B3B6011E0C5
S32D0000FF204FF001031C4638684449FDF725FA0346002B02D14FF000031C46E3B2002B01D03E4B3B603868FCF79B
S32D0000FF48C7FB04460D467B681B681846FCF7C0FB02460B46104619464FF000024FF0804303F5B203FCF732FD5A
S32D0000FF7002460B4620462946FCF702FC02460B4610461946FCF7DEFE03463B604FF001031C4638682A49FDF757
S32D0000FF98E5F90346002B02D14FF000031C46E3B2002B14D03868FCF793FB02460B46104619461DA3D3E90023C0
S32D0000FFC0FCF7DEFB02460B4610461946FCF772FE0346FB6022E03868FCF77EFB02460B46104619464FF0000255
S32D0000FFE84FF0804303F5C003FCF7C6FB02460B46104619464FF000024FF0804303F5B203FCF7E4FC02460B46D0
S32D0001001010461946FCF74EFE0346FB607868F968FFF734FF07F11007BD46B0BDAFF3008052B81E85EB51F43F02
S32D000100380000C8C20000C84200000000AFF3008080B485B000AF02460B46FA71BB71BB79002B07D141F26413BA
S32D00010060C1F6FF734FF000021A7006E041F26413C1F6FF734FF001021A704FF03803FB7341F26413C1F6FF733D
S32D000100881A78FB7B1343FB734FF4C043C4F206034FF4C042C4F206029278D2B242F01002D2B29A704FF4C043CF
S32D000100B0C4F206034FF4C042C4F206029278D2B242F02002D2B29A704FF4C043C4F20603FA7B1A7107F11407D7
S32D000100D8BD4680BC704700BF80B483B000AF4FF001037B6004E000BF7B6803F101037B607B68312BCCBF0023CA
S32D000101000123DBB2002BF2D107F10C07BD4680BC704700BF80B582B000AF02460B46FA71BB7141F26513C1F6C9
S32D00010128FF731B7818464FF00001FFF789FF4FF4C043C4F20603DB78DBB203F00203002B14BF00230123DBB2D8
S32D00010150002BF0D14FF4C043C4F206034FF4C042C4F20602D278D2B242F00202D2B2DA704FF4C043C4F20603B5
S32D00010178FA791A714FF4C043C4F20603DB78DBB203F00203002B14BF00230123DBB2002BF0D14FF4C043C4F2C3
S32D000101A006034FF4C042C4F20602D278D2B242F00202D2B2DA704FF4C043C4F20603BA791A714FF4C043C4F293
S32D000101C80603DB78DBB203F00203002B14BF00230123DBB2002BF0D14FF4C043C4F206034FF4C042C4F2060261
S32D000101F0D278D2B242F00202D2B2DA704FF4C043C4F206034FF4C042C4F206029278D2B222F02002D2B29A70B6
S32D000102184FF4C043C4F206034FF4C042C4F206029278D2B222F01002D2B29A70FFF754FF07F10807BD4680BDDF
S32D0001024080B582B000AF0346FB71FB79184600F06BF807F10807BD4680BD00BF80B582B000AF02460B46FA717F
S32D00010268BB7100F039F8FB794FEA4303DBB21846FFF7E2FFBB791846FFF7DEFF00F03EF807F10807BD4680BD93
S32D0001029080B500AF4FF0FF0000F046F80346184680BD00BF80B584B000AF0346FB7100F017F8FB794FEA43038D
S32D000102B8DBB243F00103DBB2DBB21846FFF7BCFFFFF7E2FF0346FB7300F018F8FB7B184607F11007BD4680BD79
S32D000102E080B400AF4FF24003C4F20F034FF24002C4F20F02926842F480129A60BD4680BC704700BF80B400AF22
S32D000103084FF24003C4F20F034FF24002C4F20F02526842F480125A60BD4680BC704700BF80B485B000AF0346DE
S32D00010330FB714FF00003BB7303E0FB7B03F10103FB734FF44043C4F20A03DB6A4FF00003002BF2D14FF440433F
S32D00010358C4F20A034FF44042C4F20A02D26A42F00042DA624FF44043C4F20A03FA795A6300BF4FF44043C4F24C
S32D000103800A03DB6A03F40033002B14BF00230123DBB2002BF1D14FF44043C4F20A039B6BBB73BB7B184607F1CA
S32D000103A81407BD4680BC704780B582B000AF4FF4E043C4F204034FF4E042C4F2040202F5805202F13002126853
S32D000103D042F4805203F5805303F130031A604FF42043C4F204034FF480721A654FF24003C4F20F034FF24002A4
S32D000103F8C4F20F02526942F480125A61FFF77EFF4FF42043C4F204034FF400725A654FF42043C4F204034FF4E1
S32D0001042000729A654FF42043C4F204034FF40072DA654FF44043C4F20A034FF44062C8F200021A604FF440437B
S32D00010448C4F20A034FF00502C3F60062DA604FF000037B6007E04FF0FF00FFF7EDFE7B6803F101037B607B686B
S32D00010470092BCCBF00230123DBB2002BEFD104A1D1E9000102F048F807F10807BD4680BD9A9999999999B93F77
S32D0001049890B486B000AFF860B9607A60FA684FF42043C4F206039A4214D14FF4E043C4F204034FF4E042C4F2FB
S32D000104C0040202F5805202F13402126842F4806203F5805303F134031A6083E0FA684FF43043C4F206039A42FD
S32D000104E814D14FF4E043C4F204034FF4E042C4F2040202F5805202F13402126842F4006203F5805303F13403C2
S32D000105101A6067E0FA684FF44043C4F206039A4214D14FF4E043C4F204034FF4E042C4F2040202F5805202F153
S32D000105383402126842F4805203F5805303F134031A604BE0FA684FF45043C4F206039A4214D14FF4E043C4F26D
S32D0001056004034FF4E042C4F2040202F5805202F13402126842F4005203F5805303F134031A602FE0FA684FF42C
S32D000105882043C4F20E039A4214D14FF4E043C4F204034FF4E042C4F2040202F5805202F12802126842F480629D
S32D000105B003F5805303F128031A6013E04FF4E043C4F204034FF4E042C4F2040202F5805202F12802126842F4EB
S32D000105D8006203F5805303F128031A60FB68DB78DBB223F00C03DAB2FB68DA70FB684FF000029A70BB684FF47C
S32D000106007A7202FB03F27B684FEA031392FBF3F39CB2FB681B78DBB223F01F03FB75234603F4F8534FEA2323A8
S32D00010628DBB203F01F03DAB2FB7D1343DAB2FB681A70E2B2FB685A70BB684FF4FA4202FB03F27B684FEA0313A7
S32D0001065092FBF3F39AB2234619464FEAC121CB1A4FEA43139BB2D3189CB2FB689B7ADBB223F01F03FB75E3B2A0
S32D0001067803F01F03DAB2FB7D1343DAB2FB689A72FB68DB78DBB243F00C03DAB2FB68DA7007F11807BD4690BCC5
S32D000106A0704700BF80B483B000AF786000BF7B681B79DBB203F02003002B14BF00230123DBB2002BF3D17B684A
S32D000106C8DB79DBB2184607F10C07BD4680BC704780B483B000AF78600B46FB7000BF7B681B79DBB2DBB26FEA70
S32D000106F00303DBB24FEAD313DBB2002BF3D17B68FA78DA7107F10C07BD4680BC704700BF80B487B000AFF860DB
S32D00010718B9607A60FB687B6107E0BB68DAB27B691A707B6903F101037B617B68002B0CBF00230123DBB27A6835
S32D0001074002F1FF327A60002BEBD107F11C07BD4680BC704780B584B000AF786039607B681B6BFB60FA683B6842
S32D000107689A4264D07B681B79002B43D07B685A787B6803F1340310461946FA684FF0010301F0ACFB0346002B74
S32D000107900CBF00230123DBB2002B02D04FF001034BE07B684FF000021A717B685A6A7B681B6AD218FB689A4249
S32D000107B820D97B68DB78FB7214E07B681B6AFA68D318FB607B685A787B6803F1340310461946FA684FF0010355
S32D000107E001F080FBFB7A03F1FF33FB72FB7A012B94BF00230123DBB2002BE2D13B68002B19D07B685A787B6881
S32D0001080803F13403104619463A684FF0010301F057FA0346002B0CBF00230123DBB2002B02D04FF0010304E083
S32D000108307B683A681A634FF00003184607F11007BD4680BD80B584B000AF786078684FF00001FFF77FFF0346DB
S32D00010858FB73FB7B002B40F0AE807B681B78032B40F095807B685B79002B00F090807B684FF000021A637B68B5
S32D0001088003F1340318464FF000014FF40072FFF73FFF7B684FF0550283F832227B684FF0AA0283F833227B68CE
S32D000108A84FF0520283F834207B684FF0520283F835207B684FF0610283F836207B684FF0410283F837207B6809
S32D000108D04FF0720283F818227B684FF0720283F819227B684FF0410283F81A227B684FF0610283F81B227B6809
S32D000108F81B69DAB27B6883F81C227B681B699BB24FEA2323DAB27B6883F81D227B681B694FEA1343DAB27B6864
S32D0001092083F81E227B681B694FEA1363DAB27B6883F81F227B68DB68DAB27B6883F820227B68DB689BB24FEAAE
S32D000109482323DAB27B6883F821227B68DB684FEA1343DAB27B6883F822227B68DB684FEA1363DAB27B6883F86B
S32D0001097023227B6859787B6803F134027B685B69084611461A464FF0010301F0ABFA7B684FF000025A717B68FB
S32D000109985B7818464FF000014FF0000201F084FB0346002B0CBF00230123DBB2002B02D04FF00103FB73FB7BD7
S32D000109C0184607F11007BD4680BD00BF80B582B000AF78600B467B807B68002B08D07B681B78002B04D07B6824
S32D000109E8DB887A889A4202D04FF009030FE07B685B78184601F0ECFB034603F00103DBB2002B02D04FF0030398
S32D00010A1001E04FF00003184607F10807BD4680BD80B586B000AF78607B681A687B689B8810461946FFF7CAFF1E
S32D00010A380346FB75FB7D002B40F0C8807B689B7903F02003002B00F0C1807B689B7903F04003002B20D07B6827
S32D00010A601B6859787B6803F128027B689B69084611461A464FF0010301F034FA0346002B0CBF00230123DBB2B1
S32D00010A88002B02D04FF00103A1E07B689B7923F04003DAB27B689A717B681A687B68DB6910461946FFF752FE30
S32D00010AB00346FB75FB7D002B40F08C807B681B6A3B613B6903F10B033A6902F10B02127842F02002D2B21A7046
S32D00010AD83B6903F11C037A68D268D2B21A703B6903F11D037A68D26892B24FEA2222D2B21A703B6903F11E03B2
S32D00010B007A68D2684FEA1242D2B21A703B6903F11F037A68D2684FEA1262D2B21A703B6903F11A037A6812696C
S32D00010B28D2B21A703B6903F11B037A68126992B24FEA2222D2B21A703B6903F114037A6812694FEA1242D2B291
S32D00010B501A703B6903F115037A6812694FEA124292B24FEA2222D2B21A704FF00003FB603B6903F11603FA68D3
S32D00010B78D2B21A703B6903F11703FA6892B24FEA2222D2B21A703B6903F11803FA684FEA1242D2B21A703B6909
S32D00010BA003F11903FA684FEA1262D2B21A707B689B7923F02003DAB27B689A717B681B684FF001021A717B683C
S32D00010BC81B681846FFF73AFE0346FB75FB7D184607F11807BD4680BD80B584B000AF78607868FFF719FF0346E2
S32D00010BF0FB73FB7B002B03D17B684FF000021A60FB7B184607F11007BD4680BD80B588B000AF786039604FF066
S32D00010C1880033B614FF00F03FB604FF0FF337B614FF00203FB612AE04FF00103BB611AE0FB69BA6902FB03F318
S32D00010C403A6802FB03F27B68D31ABB60BB68002B09DBBA687B699A4205D2BB687B61FB693B61BB69FB60BB6979
S32D00010C6803F10103BB61BB69102B8CBF00230123DBB2002BDCD1FB694FEA4303FB61FB69B3F5807F8CBF00233B
S32D00010C900123DBB2002BCBD14FF48053C4F20B034FF48052C4F20B02D26A22F00802DA624FF48053C4F20B039D
S32D00010CB8DB6A1A464FF00F03CFF6F0731340BB614FF48053C4F20B033A694FEA52024FEA02224FEA02424FEA63
S32D00010CE01242F96801F1FF314FEA0111C9B21143BA690A4342F46022DA6203E04FF00A0001F0EEFB4FF4805374
S32D00010D08C4F20B035B6A03F00803002B14BF00230123DBB2002BEDD14FF48053C4F20B034FF48052C4F20B02C8
S32D00010D30D26A42F00802DA624FF48053C4F20B034FF48052C4F20B02126B42F480121A6307F12007BD4680BD0D
S32D00010D5880B582B000AF786039607B684FF000021A604FF48053C4F20B034FF40042C0F20012DA624FF48053D2
S32D00010D80C4F20B03DB6A03F08073002B0CBF00230123DBB2002BF1D14FF48053C4F20B034FF00002C3F8C020E8
S32D00010DA84FF48053C4F20B034FF481325A604FF48053C4F20B034FF028029A624FF48053C4F20B034FF0011227
S32D00010DD05A643B689B6818464CF66041C0F20501FFF714FF4FF48053C4F20B035B6A03F00303002B0CBF0023DD
S32D00010DF80123DBB2002BF1D14FF45043C4F2040340F243421A604FF45043C4F2040340F243425A604FF4504390
S32D00010E20C4F204034FF488629A604FF45043C4F2040340F24342DA604FF45043C4F2040340F243421A614FF433
S32D00010E485043C4F2040340F243425A614FF4E043C4F204034FF4E042C4F2040202F5805202F13002126842F4D7
S32D00010E70003203F5805303F130031A604FF48053C4F20B034FF6FF721A634FF48053C4F20B034FF0B302C0F228
S32D00010E987F025A634FF48053C4F20B034FF48052C4F20B02D26A42F00062DA624FF48053C4F20B03DB6A03F01D
S32D00010EC00063002B0CBF00230123DBB2002BF1D14FF48053C4F20B035B6A03F48033002B0CBF00230123DBB2D6
S32D00010EE8002B03D07B684FF001021A604FF48053C4F20B034FF48052C4F20B02126B42F080021A634FF000039C
S32D00010F10184607F10807BD4680BD00BF80B400AF4FF48053C4F20B035B6A1A4640F207331340002B0CBF002394
S32D00010F380123DBB21846BD4680BC704780B485B000AF78604FF48053C4F20B031B6B1A467B681340FB60FB68E1
S32D00010F60002B14BF00230123DBB2002BEED1FB68184607F11407BD4680BC704780B584B000AF78607B681B7876
S32D00010F8803F03F024AF60853C0F2010353F82230FB60FB68002B06D17B681B78002B02D04FF0010330E14FF44E
S32D00010FB08053C4F20B034FF48052C4F20B02126B42F080021A634FF48053C4F20B035B6A03F00103DBB2002BA7
S32D00010FD8F5D14FF48053C4F20B037A6852689A60FB6823F44003FB607B685B784FEA835303F44003FA681343E5
S32D00011000FB607B685B78022B03D1FB6843F40013FB607B685B78042B16D1FB6803F44033B3F5003F08D1FB68EB
S32D0001102823F44033FB60FB6843F44033FB6007E0FB6823F44033FB60FB6843F40033FB604FF48053C4F20B031B
S32D000110504FF48052C4F20B0252684FEA02424FEA12425A607B68DB68002B32D0FB6803F44033B3F5403F03D001
S32D00011078FB6843F40013FB607B681B7A002B03D0FB6843F01003FB607B68DB68012B03D9FB6843F02003FB6085
S32D000110A07B68DB68B3F1FF3F13D04FF48053C4F20B034FF48052C4F20B02526811467A68D2684FEA02420A438D
S32D000110C85A60FB6843F00203FB604FF48053C4F20B034FF000021A604FF48053C4F20B03FA68DA604FF00100FE
S32D000110F0C0F20E00FFF726FF0346012B0CBF00230123DBB2002B10D04FF48053C4F20B034FF48052C4F20B0225
S32D00011118126B42F4702242F001021A634FF0010372E04FF48053C4F20B031B6B03F08003002B0CBF0023012309
S32D00011140DBB2002B0ED04FF48053C4F20B034FF48052C4F20B02126B42F001121A634FF0010355E04FF480536B
S32D00011168C4F20B031B6B03F48033002B0CBF00230123DBB2002B0ED04FF48053C4F20B034FF48052C4F20B02DF
S32D00011190126B42F001121A634FF0FF3338E0FB6803F44033002B25D04FF48053C4F20B031B691A467B681A615F
S32D000111B8FB6803F44033B3F5803F17D14FF48053C4F20B035B691A467B685A614FF48053C4F20B039B691A4612
S32D000111E07B689A614FF48053C4F20B03DB691A467B68DA614FF48053C4F20B034FF48052C4F20B02126B42F005
S32D0001120801021A634FF00003184607F11007BD4680BD00BF80B592B000AF786039604FF00003FB633B68BB6391
S32D0001123041F27C13C1F6FF737B637B6B002B03D140F6012300F0A0BC41F28033C1F6FF733B633B6B002B03D1E9
S32D0001125840F60B2300F094BC3B6B1B68FB62FB6A002B03D140F60B2300F08ABC7B6841F20432934200F0388274
S32D0001128041F2043293421BD841F20132934238D041F20132934207D8032B00F03D84092B00F0298400F066BCEF
S32D000112A841F20232934200F0128241F20332934200F0BE8300F05ABC41F20732934200F04B8341F207329342A3
S32D000112D00BD841F20532934200F0348241F20632934200F0108300F045BC41F20832934200F0B68241F209329B
S32D000112F8934200F0C48200F039BC786B4AF6FC41C0F20101FFF724FD0346FB63FB6B002B40F030844FF000034E
S32D0001132087F847304FF0000387F82B304FF0000387F82A304FF0000387F829304FF0000387F846304FF00003DE
S32D0001134887F828304FF000033B724FF000037B724FF00003FB604FF000033B744FF000037B6107F10803184674
S32D00011370FFF704FE0346002B0CBF00230123DBB2002B03D04FF00103FB63FCE340F24C4001F0A6F84FF008032E
S32D000113983B724FF000037B724FF4D573FB604FF000033B744FF000037B6107F108031846FFF7E0FD03463B6439
S32D000113C03B6C002B0BD1BA69FB689A4203D04FF00103FB63D7E34FF0010387F846304FF0010387F8283097F8DF
S32D000113E82830002B00F0C6804FF037033B724FF000037B724FF00003FB604FF000033B744FF000037B6107F124
S32D0001141008031846FFF7B2FD03463B643B6C002B03D04FF00103FB63ADE34FF069033B724FF000037B724FF01B
S32D000114380003FB604FF000033B744FF000037B6107F108031846FFF795FD0346002B0CBF00230123DBB2002BF1
S32D0001146003D04FF00103FB638DE3BB6903F44013002B00F083804FF000033B644FF00A0001F02EF83B6C03F111
S32D0001148801033B644FF037033B724FF000037B724FF00003FB604FF000033B744FF000037B6107F10803184630
S32D000114B0FFF764FD0346002B0CBF00230123DBB2002B03D04FF00103FB6336E04FF069033B724FF000037B7267
S32D000114D897F84630002B05D04FF00003C4F23003FB6002E04FF44013FB604FF000033B744FF000037B6107F180
S32D0001150008031846FFF73AFD0346002B0CBF00230123DBB2002B03D04FF00103FB630CE0BB69002B05DB3B6CB2
S32D00011528632B02D84FF0010301E04FF00003002BA0D1FB6B002B40F01F833B6C632B04D94FF0000387F846307E
S32D0001155014E04FF0010387F8473097F84630002B0CD04FF0000387F84630BB6903F08043002B03D04FF00103E1
S32D0001157887F8463097F82A30002B03D07B6B4FF007021A6097F82930002B03D07B6B4FF008021A6097F82B3047
S32D000115A0002B03D07B6B4FF004021A6097F84730002B0BD07B6B4FF002021A6097F84630002B03D07B6B4FF0A2
S32D000115C803021A6097F82B30002B0FD097F84730002B0BD07B6B4FF005021A6097F84630002B03D07B6B4FF0A7
S32D000115F006021A604FF45043C4F204034FF000021A604FF45043C4F204034FF000025A604FF45043C4F20403DB
S32D000116184FF000029A604FF45043C4F204034FF00002DA604FF45043C4F204034FF000021A614FF45043C4F27F
S32D0001164004034FF000025A61FB6A9A68FB6A5B6810461946FFF7DAFA4FF45043C4F2040340F243421A604FF463
S32D000116685043C4F2040340F243425A604FF45043C4F204034FF488629A604FF45043C4F2040340F24342DA6054
S32D000116904FF45043C4F2040340F243421A614FF45043C4F2040340F243425A614FF4E043C4F204034FF4E042D9
S32D000116B8C4F2040202F5805202F13002126842F4003203F5805303F130031A6057E2B86BFFF750FC03463B6485
S32D000116E03B6C002B00F04E824FF00203FB6349E2BB6B002B03D14FF00C03FB6343E24FF48053C4F20B03DB6A67
S32D0001170803F47F434FEA13234FEA43033B644FF48053C4F20B03DB6A03F0F0034FEA131303F101023B6C02FB6D
S32D0001173003F33B64FB6A9A683B6CB2FBF3F2BB6B1A6020E2BB6B002B03D14FF00C03FB6319E2BB6B1B68002B13
S32D0001175803D14FF00C03FB6311E2FFF7DBFB0346002B14BF00230123DBB2002B70D04FF45043C4F204034FF0CB
S32D0001178000021A604FF45043C4F204034FF000025A604FF45043C4F204034FF000029A604FF45043C4F20403CF
S32D000117A84FF00002DA604FF45043C4F204034FF000021A614FF45043C4F204034FF000025A61FB6A9A68BB6B2C
S32D000117D01B6810461946FFF719FA4FF45043C4F2040340F243421A604FF45043C4F2040340F243425A604FF49E
S32D000117F85043C4F204034FF488629A604FF45043C4F2040340F24342DA604FF45043C4F2040340F243421A6102
S32D000118204FF45043C4F2040340F243425A614FF4E043C4F204034FF4E042C4F2040202F5805202F130021268E8
S32D0001184842F4003203F5805303F130031A6096E140F60A23FB6392E1BB6B002B03D14FF00C03FB638BE14FF472
S32D000118708053C4F20B035B684FEAC3434FEAD343BA6B13607FE1BB6B002B03D14FF00C03FB6378E1FFF742FB0C
S32D000118980346002B14BF00230123DBB2002B2AD0BB6B1A6840F6FF739A4203D94FF00C03FB6364E14FF48053D2
S32D000118C0C4F20B034FF48052C4F20B02526822F4FE5222F03F025A604FF48053C4F20B034FF48052C4F20B027E
S32D000118E852681146BA6B12684FEAC2424FEAD2420A435A6043E140F60A23FB633FE1BB6B002B03D14FF00C0318
S32D00011910FB6338E14FF48053C4F20B039B6A03F006034FEA53033B643B6C002B04D1BB6B4FF000021A6026E199
S32D000119383B6C012B04D1BB6B4FF001021A601EE13B6C102B04D1BB6B4FF002021A6016E14FF00503FB6312E1CE
S32D00011960BB6B002B03D14FF00C03FB630BE1FFF7D5FA0346002B14BF00230123DBB2002B56D0BB6B1B68002B96
S32D0001198816D14FF48053C4F20B034FF48052C4F20B02926A22F006029A624FF48053C4F20B034FF48052C4F2E0
S32D000119B00B02926A9A62E6E0BB6B1B68012B18D14FF48053C4F20B034FF48052C4F20B02926A22F006029A62BB
S32D000119D84FF48053C4F20B034FF48052C4F20B02926A42F002029A62C9E0BB6B1B68022B16D14FF48053C4F2CE
S32D00011A000B034FF48052C4F20B02926A22F006029A624FF48053C4F20B034FF48052C4F20B02926A9A62AEE087
S32D00011A284FF00503FB63AAE040F60A23FB63A6E0BB6B002B03D14FF00C03FB639FE04FF48053C4F20B034FF4AC
S32D00011A508052C4F20B02D26A42F00062DA624FF48053C4F20B03DB6A03F00063002B0CBF00230123DBB2002B5C
S32D00011A78F1D14FF48053C4F20B031B6B03F08003002B0CBF00230123DBB2002B0FD04FF48053C4F20B034FF4B6
S32D00011AA08052C4F20B02126B42F080021A637B6B4FF000021A604FF48053C4F20B035B6A03F48033002B0CBFF4
S32D00011AC800230123DBB2002B08D07B6B1B68002B08D17B6B4FF001021A6003E07B6B4FF000021A607B6B1A681D
S32D00011AF0BB6B1A6047E0BB6B4FF01C021A60BB6B03F104034FF004021A60BB6B03F108034FF41E721A6036E09B
S32D00011B184FF00200FFF712FA4FF48053C4F20B031B6B03F4E003002B0CBF00230123DBB2002B0ED04FF4805338
S32D00011B40C4F20B034FF48052C4F20B02126B42F4E0021A634FF00403FB634FF48053C4F20B034FF48052C4F27F
S32D00011B680B02126B42F032021A6308E040F60923FB6304E000BF02E000BF00E000BFFB6B184607F14807BD4648
S32D00011B9080BD00BF80B489B000AF786039607B687B6141F27C13C1F6FF733B613B69002B02D14FF0000381E012
S32D00011BB83B691B68022B0BD03B691B68032B07D03B691B68072B03D03B691B68082B0DD14FF48053C4F20B0365
S32D00011BE05B6A03F00403002B0CBF00230123DBB2002BF1D13B68FB6156E0FB69B3F5007F28BF4FF40073FB60A8
S32D00011C08FB6803F103034FEA9303BB613CE04FF48053C4F20B031B6B03F4E003002B0CBF00230123DBB2002B1A
S32D00011C3010D04FF48053C4F20B034FF48052C4F20B02126B42F4E00242F020021A634FF0000333E04FF4805322
S32D00011C58C4F20B035B6A03F40063002B14BF00230123DBB2002BF1D14FF48053C4F20B031B6A1A467B691A609E
S32D00011C807B6903F104037B61BB6903F1FF33BB61BB69002B0CBF00230123DBB2002BBAD1FA69FB68D31AFB6161
S32D00011CA8FB69002B0CBF00230123DBB2002BA0D14FF00103184607F12407BD4680BC704780B58EB000AFB9604E
S32D00011CD07A600246FA73BB7341F26813C1F6FF737B63FB7B002B02D1BB7B002B02D14FF0040381E040F20043AF
S32D00011CF8C1F6FF731B78DBB203F00103DBB2002B02D04FF0030373E0BB68002B02D14FF000036DE07B6B1B7B2F
S32D00011D20002B03D17B684FEA43237B60BB7B012B2CD14FF011033B754FF000037B757B68BB614FF001033B77B0
S32D00011D48BB7B3B6207F1140341F202301946FFF761FA0346002B14BF00230123DBB2002B3ED0B8684FF400714D
S32D00011D70FFF710FF0346002B0CBF00230123DBB2002B31D04FF00003BB732DE04FF012033B754FF000037B754D
S32D00011D987B68BB614FF001033B77BB7B3B6207F1140341F202301946FFF734FA0346002B14BF00230123DBB243
S32D00011DC0002B11D0BB7B4FEA4323B8681946FFF7E1FE0346002B0CBF00230123DBB2002B02D04FF00003BB733F
S32D00011DE8BB7B002B02D04FF0010301E04FF00003184607F13807BD4680BD00BF80B487B000AF786039607B6831
S32D00011E10FB603B687B6155E07B69B3F5007F28BF4FF400733B617A693B69D31A7B613B6903F103034FEA930393
S32D00011E383B613BE04FF48053C4F20B031B6B03F4E003002B0CBF00230123DBB2002B10D04FF48053C4F20B03DB
S32D00011E604FF48052C4F20B02126B42F4E00242F010021A634FF0FF332EE04FF48053C4F20B035B6A03F480632D
S32D00011E88002B14BF00230123DBB2002BF1D14FF48053C4F20B03FA6812681A62FB6803F10403FB603B6903F1E9
S32D00011EB0FF333B613B69002B0CBF00230123DBB2002BBBD17B69002B0CBF00230123DBB2002BA1D14FF0010382
S32D00011ED8184607F11C07BD4680BC704780B58EB000AFB9607A600246FA73BB7341F26813C1F6FF737B63FB7B49
S32D00011F00002B02D1BB7B002B02D14FF00403CAE040F20043C1F6FF731B78DBB203F00103DBB2002B02D04FF012
S32D00011F280303BCE040F20043C1F6FF731B78DBB203F00403002B0CBF00230123DBB2002B02D04FF00203AAE09B
S32D00011F50BB68002B02D14FF00003A4E07B6B1B7B002B03D17B684FEA43237B60BB7B012B2CD14FF018033B753A
S32D00011F784FF000037B757B68BB614FF000033B77BB7B3B6207F1140341F202301946FFF741F90346002B14BFF8
S32D00011FA000230123DBB2002B3ED0B8684FF40071FFF728FF0346002B0CBF00230123DBB2002B31D04FF0000393
S32D00011FC8BB732DE04FF019033B754FF000037B757B68BB614FF000033B77BB7B3B6207F1140341F202301946D9
S32D00011FF0FFF714F90346002B14BF00230123DBB2002B11D0BB7B4FEA4323B8681946FFF7F9FE0346002B0CBF18
S32D0001201800230123DBB2002B02D04FF00003BB734FF00D033B754FF000037B757B6B1B69BB614FF000033B77AD
S32D000120404FF000033B6207F1140341F202301946FFF7E4F80346002B0CBF00230123DBB2002B02D04FF001039A
S32D000120681DE07A6A48F20803CFF6D9731340002B02D04FF0010312E07B6A03F4F853B3F5106F0CBF002301232D
S32D00012090DBB2002BC8D1BB7B002B02D04FF0010301E04FF00003184607F13807BD4680BD80B58CB000AF0B46F1
S32D000120B83A600246FA71BB7141F26813C1F6FF73BB62FB79002B02D04FF004037AE04FF0010387F82F3040F228
S32D000120E00043C1F6FF731B78DBB203F00103DBB2002B02D04FF0030368E0BB79032B5FD801A252F823F000BFDF
S32D00012108192101002321010035210100472101004FF0000387F82F3052E0BB6A9A683B681A604FF0000387F811
S32D000121302F3049E03B684FF400721A804FF0000387F82F3040E04FF009033B724FF000037B72BB6A1B69FB609B
S32D000121584FF000033B744FF000037B6107F1080341F202301946FFF755F80346002B0CBF00230123DBB2002B01
S32D0001218002D04FF0010321E07B6A03F44003002B11D13B6A4FEA934303F07F0303F101027B6A4FEA132303F087
S32D000121A8030303F1FF3302FA03F23B681A604FF0000387F82F3003E04FF0040387F82F3097F82F30184607F163
S32D000121D03007BD4680BD00BF80B483B000AF0346FB71FB79002B02D04FF0010305E040F20043C1F6FF731B7815
S32D000121F8DBB2184607F10C07BD4680BC704700BF80B483B000AF78604FF4E043C4F204034FF4E042C4F20402DB
S32D0001222002F5805202F13802126842F0010203F5805303F138031A604FF00003C4F204037A689A604FF0000359
S32D00012248C4F204034FF005025A604FF00003C4F204034FF00002C4F20402126842F001021A6000BF4FF0000384
S32D00012270C4F204031B6803F08003002B14BF00230123DBB2002BF1D14FF00003C4F204034FF00002C4F20402CE
S32D00012298126822F001021A6007F10C07BD4680BC704700BF80B582B000AF786039607B68012B0AD13A684FF6F6
S32D000122C0FF739A4205D141F28830C1F6FF7000F00FF807F10807BD4680BD00BF80B500AF4FF001004FF6FF71E4
S32D000122E8FFF7E0FF80BD00BF80B483B000AF78607B684FF000021A707B68184607F10C07BD4680BC704700BF59
S32D0001231080B582B000AF78607B681B7883F00103DBB2002B36D04FF4E043C4F2040303F5805303F128034FF4B5
S32D0001233800621A604FF45043C4F204034FF440721A624FF45043C4F204034FF440725A6241F28C33C1F6FF7337
S32D000123601B684FEAD372D3184FEA63034FF43040C4F20E0019464FF46142FEF78DF84FF0640000F0ADF87B6872
S32D000123884FF001021A704FF0010301E04FF00003184607F10807BD4680BD00BF80B582B000AF7860F970BA700F
S32D000123B07B704FF43040C4F20E004FF07F01FEF78BF94FF43040C4F20E004FF00801FEF783F9FB784FF430400E
S32D000123D8C4F20E001946FEF77BF9BB784FF43040C4F20E001946FEF773F97B784FF43040C4F20E001946FEF722
S32D000124006BF94FF43040C4F20E004FF0FF01FEF763F907F10807BD4680BD00BF80B487B000AFF860B9607A60D7
S32D00012428FA6844F6D353C1F26203A3FB02134FEA9312BB68D3187B61FA6844F6D353C1F26203A3FB02134FEA6A
S32D0001245093134FF47A7101FB03F3D31AFB60FB684FEAC33244F6D353C1F26203A3FB02134FEA93127B68D318E7
S32D000124783B613B694FEAD3337A69D3187B613B694FEA43434FEA53433B614FF45043C4F203031B681A467B69E5
S32D000124A09A4211D34FF45043C4F203031B681A467B699A420BD14FF45043C4F203035B681A463B699A4202D233
S32D000124C84FF0010301E04FF00003002BDDD107F11C07BD4680BC704780B584B000AF78604FF45043C4F2030313
S32D000124F01B68FB604FF45043C4F203035B68BB607B681846F968BA68FFF788FF07F11007BD4680BD00000000DF
S32D0001251880B584B000AFC7E900014FF45043C4F203031B68FB604FF45043C4F203035B68BB60D7E900010AA37D
S32D00012540D3E90023FAF71CF902460B4610461946FAF7D8FB03461846F968BA68FFF75EFF07F11007BD4680BDA9
S32D000125680000000000408F4080B584B000AF4FF45043C4F203031B68FB604FF45043C4F203035B68BB60F868DD
S32D00012590FAF780F802460B46C7E90023B868FAF779F802460B46104619464FF000024FF0804303F56003FAF7E8
S32D000125B80DFA02460B46D7E90001F9F72BFF02460B46C7E90023D7E900231046194607F11007BD4680BD00BF67
S32D000125E080B483B000AF4FF45043C4F203031B684FF47A7202FB03F37B604FF45043C4F203035B684FF47A7220
S32D0001260802FB03F34FEAD3337A68D3187B607B68184607F10C07BD4680BC704780B582B000AF78600B46FB70DD
S32D00012630FB787868194600F007F87B68184607F10807BD4680BD00BF80B483B000AF78600B46FB707B68FA7894
S32D000126581A707B681B781A464AF60863C0F201039B5C042B00F2F98001A252F823F000BF8D260100EB2601007C
S32D0001268049270100A7270100052801004FF41043C4F204037A68127811464AF64C62C0F2010252F8212040F247
S32D000126A8031143F822104FF47043C4F20F034FF47042C4F20F02526911467A68127810464AF64C62C0F2010291
S32D000126D052F8202002F01F024FF0010000FA02F26FEA02020A405A61BBE04FF42043C4F204037A6812781146ED
S32D000126F84AF64C62C0F2010252F8212040F2031143F822104FF24003C4F20F034FF24002C4F20F02526911462A
S32D000127207A68127810464AF64C62C0F2010252F8202002F01F024FF0010000FA02F26FEA02020A405A618CE08C
S32D000127484FF43043C4F204037A68127811464AF64C62C0F2010252F8212040F2031143F822104FF28003C4F2D1
S32D000127700F034FF28002C4F20F02526911467A68127810464AF64C62C0F2010252F8202002F01F024FF001004A
S32D0001279800FA02F26FEA02020A405A615DE04FF44043C4F204037A68127811464AF64C62C0F2010252F8212011
S32D000127C040F2031143F822104FF2C003C4F20F034FF2C002C4F20F02526911467A68127810464AF64C62C0F22D
S32D000127E8010252F8202002F01F024FF0010000FA02F26FEA02020A405A612EE04FF45043C4F204037A68127885
S32D0001281011464AF64C62C0F2010252F8212040F2031143F822104FF47143C4F20F034FF47142C4F20F0252692A
S32D0001283811467A68127810464AF64C62C0F2010252F8202002F01F024FF0010000FA02F26FEA02020A405A6188
S32D0001286000BF07F10C07BD4680BC704780B485B000AF78604FF00003FB607B681B781A464AF60863C0F20103C5
S32D000128889B5C042B00F2868001A252F823F000BFAD280100DD2801000D2901003D2901006D2901004FF470433D
S32D000128B0C4F20F031B691A467B681B7819464AF64C63C0F2010353F8213003F01F034FF0010101FA03F313409D
S32D000128D8FB605FE04FF24003C4F20F031B691A467B681B7819464AF64C63C0F2010353F8213003F01F034FF09D
S32D00012900010101FA03F31340FB6047E04FF28003C4F20F031B691A467B681B7819464AF64C63C0F2010353F8AB
S32D00012928213003F01F034FF0010101FA03F31340FB602FE04FF2C003C4F20F031B691A467B681B7819464AF666
S32D000129504C63C0F2010353F8213003F01F034FF0010101FA03F31340FB6017E04FF47143C4F20F031B691A46C8
S32D000129787B681B7819464AF64C63C0F2010353F8213003F01F034FF0010101FA03F31340FB6000BFFB68002BD8
S32D000129A00CBF00230123DBB2184607F11407BD4680BC704780B584B000AF78600B46FB704FF00B03FB73FA7829
S32D000129C8FB7B786811461A4600F0ECF87B68184607F11007BD4680BD80B485B000AF78607B68A3F11003002BCA
S32D000129F001DA03F11F034FEA6313FB60FB68012B48D0022B00F08980002B40F0C9804FF46142CEF200024FF461
S32D00012A186143CEF20003D3F8803119467B68A3F110004FF01F03C8F200030340002B05DA03F1FF3363F01F03C0
S32D00012A4003F101034FF0010000FA03F30B43C2F880314FF46142CEF200024FF46143CEF200031B6819467B686F
S32D00012A68A3F110004FF01F03C8F200030340002B05DA03F1FF3363F01F0303F101034FF0010000FA03F30B431F
S32D00012A90136085E04FF46142CEF200024FF46143CEF20003D3F8843119467B68A3F110004FF01F03C8F2000369
S32D00012AB80340002B05DA03F1FF3363F01F0303F101034FF0010000FA03F30B43C2F884314FF46142CEF200027A
S32D00012AE04FF46143CEF200035B6819467B68A3F110004FF01F03C8F200030340002B05DA03F1FF3363F01F036E
S32D00012B0803F101034FF0010000FA03F30B43536042E04FF46142CEF200024FF46143CEF20003D3F8883119461E
S32D00012B307B68A3F110004FF01F03C8F200030340002B05DA03F1FF3363F01F0303F101034FF0010000FA03F3C1
