S01100002E2E2F5365616C426F742E733139AE
S32D0000C000000000209DFC0000F9FF0000F9FF0000F9FF0000F9FF0000F9FF000000000000000000000000000081
S32D0000C02800000000F9FF0000F9FF000000000000F9FF0000F9FF0000F9FF0000F9FF0000F9FF0000F9FF00002A
S32D0000C050F9FF0000F9FF0000F9FF0000F9FF0000F9FF0000F9FF0000F9FF0000F9FF0000F9FF0000F9FF000012
S32D0000C078F9FF0000F9FF0000F9FF0000F9FF0000F9FF0000F9FF0000F9FF0000F9FF0000F9FF0000F9FF0000EA
S32D0000C0A0F9FF0000F9FF0000F9FF0000F9FF0000F9FF0000F9FF0000F9FF0000F9FF0000F9FF0000F9FF0000C2
S32D0000C0C8F9FF0000F9FF0000F9FF0000F9FF0000F9FF0000F9FF0000F9FF0000F9FF0000F9FF0000F9FF00009A
S32D0000C0F0F9FF0000DD730100F9FF0000F9FF0000F9FF0000F9FF0000F9FF0000F9FF0000F9FF0000F9FF000019
S32D0000C118F9FF0000F9FF0000F9FF0000F9FF0000F9FF0000F9FF0000F9FF0000F9FF0000F9FF0000F9FF000049
S32D0000C140F9FF0000F9FF0000F9FF0000F9FF00009D3B0100F9FF0000F9FF0000F9FF0000F9FF0000F9FF000040
S32D0000C168F9FF0000F9FF0000F9FF0000F9FF0000F9FF0000F9FF0000F9FF0000F9FF0000F9FF0000F9FF0000F9
S32D0000C190F9FF0000F9FF0000F9FF00008D320100E1300100B53101004900010065330100F9FF0000F9FF00000D
S32D0000C1B8F9FF0000F9FF0000F9FF0000F9FF0000F9FF0000F9FF0000F9FF0000F9FF0000F9FF0000F9FF0000A9
S32D0000C41081F0004102E000BF83F0004330B54FEA41044FEA430594EA050F08BF90EA020F1FBF54EA000C55EAC6
S32D0000C438020C7FEA645C7FEA655C00F0E2804FEA5454D4EB5555B8BF6D420CDD2C4480EA020281EA030382EA0F
S32D0000C460000083EA010180EA020281EA0303362D88BF30BD11F0004F4FEA01314FF4801C4CEA113102D0404263
S32D0000C48861EB410113F0004F4FEA03334CEA133302D0524263EB430394EA050F00F0A780A4F10104D5F1200E8A
S32D0000C4B00DDB02FA0EFC22FA05F2801841F1000103FA0EF2801843FA05F359410EE0A5F120050EF1200E012A2D
S32D0000C4D803FA0EFC28BF4CF0020C43FA05F3C01851EBE37101F0004507D54FF0000EDCF1000C7EEB00006EEB67
S32D0000C5000101B1F5801F1BD3B1F5001F0CD349085FEA30004FEA3C0C04F101044FEA445212F5800F80F09A8000
S32D0000C528BCF1004F08BF5FEA500C50F1000041EB045141EA050130BD5FEA4C0C404141EB010111F4801FA4F114
S32D0000C5500104E9D191F0000F04BF01460020B1FA81F308BF2033A3F10B03B3F120020CDA0C3208DD02F1140C87
S32D0000C578C2F10C0201FA0CF021FA02F10CE002F11402D8BFC2F1200C01FA02F120FA0CFCDCBF41EA0C019040B1
S32D0000C5A0E41AA2BF01EB0451294330BD6FEA04041F3C1CDA0C340EDC04F11404C4F1200220FA04F001FA02F3B6
S32D0000C5C840EA030021FA04F345EA030130BDC4F10C04C4F1200220FA02F001FA04F340EA0300294630BD21FAA8
S32D0000C5F004F0294630BD94F0000F83F4801306BF81F480110134013D4EE77FEA645C18BF7FEA655C29D094EA1C
S32D0000C618050F08BF90EA020F05D054EA000C04BF1946104630BD91EA030F1EBF0021002030BD5FEA545C05D1A3
S32D0000C6404000494128BF41F0004130BD14F580043CBF01F5801130BD01F0004545F0FE4141F470014FF0000031
S32D0000C66830BD7FEA645C1ABF194610467FEA655C1CBF0B46024650EA013406BF52EA033591EA030F41F40021D7
S32D0000C69030BD00BF90F0000F04BF0021704730B54FF4806404F132044FF000054FF0000150E700BF90F0000F66
S32D0000C6B804BF0021704730B54FF4806404F1320410F0004548BF40424FF000013EE700BF42004FEAE2014FEAF9
S32D0000C6E031014FEA02701FBF12F07F4393F07F4F81F06051704792F0000F14BF93F07F4F704730B54FF460741B
S32D0000C70801F0004521F0004120E700BF50EA010208BF704730B54FF000050AE050EA010208BF704730B511F046
S32D0000C730004502D5404261EB41014FF4806404F132045FEA915C3FF4DCAE4FF003025FEADC0C18BF03325FEAA0
S32D0000C758DC0C18BF033202EBDC02C2F1200300FA03FC20FA02F001FA03FE40EA0E0021FA02F11444C1E600BF19
S32D0000C78070B54FF0FF0C4CF4E06C1CEA11541DBF1CEA135594EA0C0F95EA0C0F00F0DEF82C4481EA030621EAF3
S32D0000C7A84C5123EA4C5350EA013518BF52EA033541F4801143F4801338D0A0FB02CE4FF00005E1FB02E506F05F
S32D0000C7D00042E0FB03E54FF00006E1FB03569CF0000F18BF4EF0010EA4F1FF04B6F5007F64F5407404D25FEA0F
S32D0000C7F84E0E6D4146EB060642EAC62141EA55514FEAC52040EA5E504FEACE2EB4F1FD0C88BFBCF5E06F1ED8D2
S32D0000C820BEF1004F08BF5FEA500E50F1000041EB045170BD06F0004646EA010140EA020081EA0301B4EB5C0487
S32D0000C848C2BFD4EB0C0541EA045170BD41F480114FF0000E013C00F3AB8014F1360FDEBF002001F0004170BDF0
S32D0000C870C4F10004203C35DA0C341BDC04F11404C4F1200500FA05F320FA04F001FA05F240EA020001F0004207
S32D0000C89821F0004110EBD37021FA04F642EB06015EEA430E08BF20EAD37070BDC4F10C04C4F1200500FA04F32F
S32D0000C8C020FA05F001FA04F240EA020001F0004110EBD37041F100015EEA430E08BF20EAD37070BDC4F12005C7
S32D0000C8E800FA05F24EEA020E20FA04F301FA05F243EA020321FA04F001F0004121FA04F220EA020000EBD37028
S32D0000C9105EEA430E08BF20EAD37070BD94F0000F0FD101F00046400041EB010111F4801F08BF013CF7D041EA6D
S32D0000C938060195F0000F18BF704703F00046520043EB030313F4801F08BF013DF7D043EA0603704794EA0C0FF1
S32D0000C9600CEA135518BF95EA0C0F0CD050EA410618BF52EA4306D1D181EA030101F000414FF0000070BD50EA38
S32D0000C988410606BF1046194652EA430619D094EA0C0F02D150EA013613D195EA0C0F05D152EA03361CBF10467B
S32D0000C9B019460AD181EA030101F0004141F0FE4141F470014FF0000070BD41F0FE4141F4780170BD70B54FF04D
S32D0000C9D8FF0C4CF4E06C1CEA11541DBF1CEA135594EA0C0F95EA0C0F00F0A7F8A4EB050481EA030E52EA03359B
S32D0000CA004FEA013100F088804FEA03334FF0805545EA131343EA12634FEA022245EA111545EA10654FEA002676
S32D0000CA280EF000419D4208BF964244F1FD0404F5407402D25B084FEA3202B61A65EB03055B084FEA32024FF461
S32D0000CA5080104FF4002CB6EB020E75EB030E22BFB61A754640EA0C005B084FEA3202B6EB020E75EB030E22BF22
S32D0000CA78B61A754640EA5C005B084FEA3202B6EB020E75EB030E22BFB61A754640EA9C005B084FEA3202B6EBEA
S32D0000CAA0020E75EB030E22BFB61A754640EADC0055EA060E18D04FEA051545EA16754FEA06164FEAC30343EAAC
S32D0000CAC852734FEAC2025FEA1C1CC0D111F4801F0BD141EA00014FF000004FF0004CB6E711F4801F04BF0143AE
S32D0000CAF00020B4F1FD0C88BFBCF5E06F3FF6AFAEB5EB030C04BFB6EB020C5FEA500C50F1000041EB045170BDBC
S32D0000CB180EF0004E4EEA113114EB5C04C2BFD4EB0C0541EA045170BD41F480114FF0000E013C90E645EA060EC3
S32D0000CB408DE60CEA135594EA0C0F08BF95EA0C0F3FF43BAF94EA0C0F0AD150EA01347FF434AF95EA0C0F7FF499
S32D0000CB6825AF104619462CE795EA0C0F06D152EA03353FF4FDAE1046194622E750EA410618BF52EA43067FF432
S32D0000CB90C5AE50EA41047FF40DAF52EA43057FF4EBAE12E74FF0FF3C06E000BF4FF0010C02E000BF4FF0010C75
S32D0000CBB84DF804CD4FEA410C7FEA6C5C4FEA430C18BF7FEA6C5C1BD001B050EA410C0CBF52EA430C91EA030FEC
S32D0000CBE002BF90EA020F0020704710F1000F91EA030F58BF994208BF90422CBFD8176FEAE37040F0010070476E
S32D0000CC084FEA410C7FEA6C5C02D150EA013C07D14FEA430C7FEA6C5CD6D152EA033CD3D05DF8040B704700BFCD
S32D0000CC308446104662468C461946634600E000BF01B5FFF7B7FF002848BF10F1000F01BD4DF808EDFFF7F4FF13
S32D0000CC580CBF012000205DF808FB00BF4DF808EDFFF7EAFF34BF012000205DF808FB00BF4DF808EDFFF7E0FF18
S32D0000CC8094BF012000205DF808FB00BF4DF808EDFFF7CEFF94BF012000205DF808FB00BF4DF808EDFFF7C4FF40
S32D0000CCA834BF012000205DF808FB00BF4FEA410212F5001215D211D56FF47873B3EB625212D94FEAC12343F0D6
S32D0000CCD0004343EA505311F0004F23FA02F018BF404270474FF00000704750EA013005D111F0004008BF6FF016
S32D0000CCF8004070474FF00000704700BF4A0011D212F5001211D20DD56FF47873B3EB62520ED44FEAC12343F085
S32D0000CD20004343EA505323FA02F070474FF00000704750EA013002D14FF0FF3070474FF0000070474FEA410241
S32D0000CD48B2F1E04324BFB3F5001CDCF1FE5C0DD901F0004C4FEAC0024CEA5070B2F1004F40EB830008BF20F09E
S32D0000CD700100704711F0804F21D113F13872BCBF01F00040704741F480114FEA5252C2F11802C2F1200C10FAB1
S32D0000CD980CF320FA02F018BF40F001004FEAC1234FEAD32303FA0CFC40EA0C0023FA02F34FEA4303CCE77FEA26
S32D0000CDC0625307D150EA01331EBF4FF0FE4040F44000704701F0004040F0FE4040F40000704700BF80F00040CC
S32D0000CDE802E000BF81F0004142001FBF5FEA410392EA030F7FEA226C7FEA236C6AD04FEA1262D2EB1363C1BF06
S32D0000CE10D218414048404140B8BF5B42192B88BF704710F0004F40F4000020F07F4018BF404211F0004F41F4FA
S32D0000CE38000121F07F4118BF494292EA030F3FD0A2F1010241FA03FC10EB0C00C3F1200301FA03F100F000432B
S32D0000CE6002D5494260EB4000B0F5000F13D3B0F1807F06D340084FEA310102F10102FE2A51D2B1F1004F40EB94
S32D0000CE88C25008BF20F0010040EA03007047490040EB000010F4000FA2F10102EDD1B0FA80FCACF1080CB2EB5F
S32D0000CEB00C0200FA0CF0AABF00EBC25052421843BCBFD0401843704792F0000F81F4000106BF80F400000132EB
S32D0000CED8013BB5E74FEA41037FEA226C18BF7FEA236C21D092EA030F04D092F0000F08BF0846704790EA010FD7
S32D0000CF001CBF0020704712F07F4F04D1400028BF40F00040704712F100723CBF00F50000704700F0004343F0DC
S32D0000CF28FE4040F4000070477FEA226216BF08467FEA23630146420206BF5FEA412390EA010F40F480007047C1
S32D0000CF504FF0000304E000BF10F0004348BF40425FEA000C08BF704743F0964301464FF000001CE050EA010264
S32D0000CF7808BF70474FF000030AE000BF50EA010208BF704711F0004302D5404261EB41015FEA010C02BF84465B
S32D0000CFA00146002043F0B64308BFA3F18053A3F50003BCFA8CF2083AA3EBC25310DB01FA02FC634400FA02FC6B
S32D0000CFC8C2F12002BCF1004F20FA02F243EB020008BF20F00100704702F1200201FA02FCC2F1200250EA4C0034
S32D0000CFF021FA02F243EB020008BF20EADC7070474FF0FF0C1CEAD0521EBF1CEAD15392EA0C0F93EA0C0F6FD019
S32D0000D0181A4480EA010C400218BF5FEA41211ED04FF0006343EA501043EA5111A0FB01310CF00040B1F5000FE7
S32D0000D0403EBF490041EAD3715B0040EA010062F17F02FD2A1DD8B3F1004F40EBC25008BF20F00100704790F058
S32D0000D068000F0CF0004C08BF49024CEA502040EA51207F3AC2BFD2F1FF0340EAC250704740F400004FF0000388
S32D0000D090013A5DDC12F1190FDCBF00F000407047C2F10002410021FA02F1C2F1200200FA02FC5FEA310040F1D5
S32D0000D0B8000053EA4C0308BF20EADC70704792F0000F00F0004C02BF400010F4000F013AF9D040EA0C0093F04C
S32D0000D0E0000F01F0004C02BF490011F4000F013BF9D041EA0C018FE70CEAD15392EA0C0F18BF93EA0C0F0AD00B
S32D0000D10830F0004C18BF31F0004CD8D180EA010000F00040704790F0000F17BF90F0004F084691F0000F91F0BB
S32D0000D130004F14D092EA0C0F01D142020FD193EA0C0F03D14B0218BF084608D180EA010000F0004040F0FE4051
S32D0000D15840F40000704740F0FE4040F4400070474FF0FF0C1CEAD0521EBF1CEAD15392EA0C0F93EA0C0F69D044
S32D0000D180A2EB030280EA010C49024FEA402037D04FF0805343EA111143EA10130CF000408B4238BF5B0042F14E
S32D0000D1A87D024FF4000C8B4224BF5B1A40EA0C00B3EB510F24BFA3EB510340EA5C00B3EB910F24BFA3EB9103A4
S32D0000D1D040EA9C00B3EBD10F24BFA3EBD10340EADC001B0118BF5FEA1C1CE0D1FD2A3FF650AF8B4240EBC25018
S32D0000D1F808BF20F0010070470CF0004C4CEA50207F32C2BFD2F1FF0340EAC250704740F400004FF00003013AF1
S32D0000D22037E792F0000F00F0004C02BF400010F4000F013AF9D040EA0C0093F0000F01F0004C02BF490011F4C9
S32D0000D248000F013BF9D041EA0C0195E70CEAD15392EA0C0F08D142027FF47DAF93EA0C0F7FF470AF084676E7AE
S32D0000D27093EA0C0F04D14B023FF44CAF08466EE730F0004C18BF31F0004CCAD130F000427FF45CAF31F0004376
S32D0000D2987FF43CAF5FE700BF4FF0FF3C06E000BF4FF0010C02E000BF4FF0010C4DF804CD4FEA40024FEA41039F
S32D0000D2C07FEA226C18BF7FEA236C11D001B052EA530C18BF90EA010F58BFB2EB030088BFC81738BF6FEAE1706E
S32D0000D2E818BF40F0010070477FEA226C02D15FEA402C05D17FEA236CE4D15FEA412CE1D05DF8040B704700BF16
S32D0000D310844608466146FFE70FB5FFF7C9FF002848BF10F1000F0FBD4DF808EDFFF7F4FF0CBF012000205DF839
S32D0000D33808FB00BF4DF808EDFFF7EAFF34BF012000205DF808FB00BF4DF808EDFFF7E0FF94BF012000205DF8A9
S32D0000D36008FB00BF4DF808EDFFF7D2FF94BF012000205DF808FB00BF4DF808EDFFF7C8FF34BF012000205DF8B1
S32D0000D38808FB00BF4FEA4002B2F1FE4F0FD34FF09E03B3EB12620DD94FEA002343F0004310F0004F23FA02F060
S32D0000D3B018BF404270474FF00000704712F1610F01D1420205D110F0004008BF6FF0004070474FF00000704797
S32D0000D3D880B500AF41F24C10C1F6FF704FF4FA7106F0DCFD41F24C10C1F6FF7040F6331106F0F2FD00F004F811
S32D0000D4004FF00003184680BDB0B5ADF5C56D06AF41F24C40C1F6FF7044F64F71C0F22F0107F074FB41F24C404D
S32D0000D428C1F6FF7042F62F71C0F24F0107F0C8FB3B461D464FF0050406E0284609F064FA05F1EC0504F1FF3436
S32D0000D450B4F1FF3F0CBF00230123DBB2002BF0D107F5B1624FF0780310464FF000011A460CF089FC4AF6247329
S32D0000D478C0F2010307F5B16293E8030082E8030007F5B2634FF000021A6003F104034FF000021A6003F1040359
S32D0000D4A04FF000021A6003F104034AF63872C0F2010207F5B26303F10C0392E80300186003F10403198003F178
S32D0000D4C802034FEA11421A7007F5B46303F103034FF000021A7003F101034FF000021A7003F101034FF0000247
S32D0000D4F01A7003F101034FF000021A7003F101034FF000021A7003F101034FF000021A7003F101034FF0000202
S32D0000D5181A7003F101034FF000021A7003F101034FF000021A7003F101034FF000021A7003F101034FF00002D9
S32D0000D5401A7003F101034FF000021A7003F101034FF000021A7003F101034AF64C73C0F2010307F5B66293E871
S32D0000D568030082E8030007F5B7634FF000021A6003F104034FF000021A6003F104034FF000021A6003F10403ED
S32D0000D5904AF66073C0F2010307F5B86202F1040293E8030082E8030007F5B86303F10C034FF000021A6003F1E1
S32D0000D5B804034FF000021A6003F104034FF000021A6003F104034AF67473C0F2010307F5BB6493E8070084E8EC
S32D0000D5E007004FF00003C7F8E4354FF00003C7F8E8354AF68872C0F2010207F5BC6303F10C0392E803001860DC
S32D0000D60803F10403197007F5BE6202F101024FF00F0310464FF000011A460CF0B0FB3A464FF0140300934FF0C8
S32D0000D6303C0301934FF03C03029307F5B163039341F67013C0F21903049342F62F73C0F24F03059310464FF016
S32D0000D65803014FF002024FF0140309F0C3FB00E000BF07F5C06202F1040207F5C06341F24C40C1F6FF7011463F
S32D0000D6801A4607F009FCD7F80426D7F800363946084611461A464FF0000309F08BFA0346002B0CBF0023012358
S32D0000D6A8DBB2002B02D000F06FFCD9E7D7F80426D7F80036394601F1EC01084611461A464FF0000309F072FAA7
S32D0000D6D00346002B0CBF00230123DBB2002B26D041F2B440C1F6FF700AF0F6FB3A464FF0140300934FF03C03D9
S32D0000D6F801934FF03C03029307F5B163039341F67013C0F21903049342F62F73C0F24F03059310464FF0030189
S32D0000D7204FF002024FF0140309F060FB9CE7D7F80426D7F80036394601F5EC71084611461A464FF0000309F05B
S32D0000D74835FA0346002B0CBF00230123DBB2002B02D000F0E9FF83E7D7F80426D7F80036394601F531710846CF
S32D0000D77011461A464FF0000309F01CFA0346002B0CBF00230123DBB2002B23D04FF00003C7F80C3614E028A152
S32D0000D798D1E9000105F044F8D7F80C2641F26013C1F6FF73D318184606F0B6F8D7F80C3603F10103C7F80C36B0
S32D0000D7C0D7F80C36072BCCBF00230123DBB2002BE1D1DBE7D7F80426D7F80036394601F56C71084611461A46A5
S32D0000D7E84FF0000309F0E2F90346002B0CBF00230123DBB2002B00F0C7814FF0010004F0F3FF41F24C40C1F6EB
S32D0000D810FF706FF07F4107F0AFF941F24C40C1F6FF704FF0000107F0CFF9054BC7F8083698E100BFAFF3008032
S32D0000D838333333333333C33F0000000041F24C40C1F6FF704AF69C61C0F201014FF000024FF0000307F050FCF2
S32D0000D86041F24C40C1F6FF704AF6A461C0F201014FF001024FF0000307F042FC41F24C40C1F6FF704AF6AC61D1
S32D0000D888C0F201014FF002024FF0000307F034FC41F22410C1F6FF7005F002FE034641F24C40C1F6FF70194603
S32D0000D8B04FF000024FF0060307F062FC41F22010C1F6FF7005F0F0FD034641F24C40C1F6FF7019464FF0010232
S32D0000D8D84FF0080307F050FC41F21C10C1F6FF7005F0DEFD034641F24C40C1F6FF7019464FF002024FF0070327
S32D0000D90007F03EFC41F24C40C1F6FF704AF6B461C0F201014FF003024FF0000307F0F0FB41F24C40C1F6FF708D
S32D0000D9284AF6BC61C0F201014FF004024FF0000307F0E2FB41F24C40C1F6FF704AF6C461C0F201014FF0050221
S32D0000D9504FF0000307F0D4FB41F2B440C1F6FF700AF08AFF034641F24C40C1F6FF7019464FF003024FF00703B7
S32D0000D97807F002FC41F2B440C1F6FF700AF088FF034641F24C40C1F6FF7019464FF004024FF0070307F0F0FBC1
S32D0000D9A041F2B440C1F6FF700AF086FF034641F24C40C1F6FF7019464FF005024FF00D0307F0DEFB41F24C40DC
S32D0000D9C8C1F6FF704AF6D461C0F201014FF006024FF0000307F090FB41F24810C1F6FF7005F05EFD034641F25A
S32D0000D9F04C40C1F6FF7019464FF006024FF00A0307F0BEFB41F24C40C1F6FF704AF6E061C0F201014FF0070253
S32D0000DA184FF0000307F070FB41F25810C1F6FF7005F0A8F8034641F24C40C1F6FF7019464FF007024FF00B03C4
S32D0000DA4007F0E0FB41F24C40C1F6FF704AF6EC61C0F201014FF008024FF0000307F050FB41F25C10C1F6FF702E
S32D0000DA6805F088F8034641F24C40C1F6FF7019464FF008024FF00C0307F0C0FB41F24C40C1F6FF704AF6F861C7
S32D0000DA90C0F201014FF009024FF0000307F030FB41F24010C1F6FF7005F0C4FC034641F24C40C1F6FF7019461B
S32D0000DAB84FF009024FF00C0307F03EFB41F24C40C1F6FF704AF60471C0F201014FF00A024FF0000307F010FB9B
S32D0000DAE041F24410C1F6FF7005F0A4FC034641F24C40C1F6FF7019464FF00A024FF00D0307F01EFB41F24C40E0
S32D0000DB08C1F6FF704AF61471C0F201014FF00B024FF0000307F0F0FA41F29840C1F6FF7009F0B4FA034641F28D
S32D0000DB304C40C1F6FF7019464FF00B024FF0100307F01EFB04F09CFE02460B464FF00C0100914FF01001019122
S32D0000DB5841F24C40C1F6FF7007F02EFB07F5C06202F1040207F5C06341F24C40C1F6FF7011461A4607F08CF94C
S32D0000DB80034683F00103DBB2002B7FF45BAE21E0D7F80416D7F800263B4603F5926303F10C0318464FF0000393
S32D0000DBA809F004F80346002B0CBF00230123DBB2002B3FF455AD4FF01E004FF00B0100F00DFE4FF0020000F013
S32D0000DBD003F849E548E500BF90B589B002AF78607B68012B03D0022B00F02B81A4E141F24C10C1F6FF70DB4902
S32D0000DBF806F012FA4FF000004FF07E5101F5C00104F00EFE4FF01E004FF0E00100F0E6FD40F221230093D24886
S32D0000DC20D249D34AD34B01F03BF84FF028004FF40C7100F0D7FD41F24C10C1F6FF70CE4906F0EEF940F2AB23C8
S32D0000DC480093C748CB49CC4ACC4B01F025F841F23810C1F6FF70CA4902F0CEFA4FF000024FF07E5303F5F00313
S32D0000DC70CDE900236FF036006FF02A014FF4E07201F0B2FB4FF000004FF07E5101F5C00104F0CAFD41F2381021
S32D0000DC98C1F6FF7002F060FAAF4805F03DFE41F22810C1F6FF70B74902F0A6FA41F23010C1F6FF70AD4902F021
S32D0000DCC09FFA04F0DDFD02460B46C7E9042330E004F0D6FD02460B4610461946D7E90423FEF79AFB02460B4630
S32D0000DCE81046194694A3D3E90023FEF76FFE02460B4610461946FEF7D9FF02464FF00703C8F200031340002BFA
S32D0000DD1005DA03F1FF3363F0070303F10103FB60FA6841F26013C1F6FF73D318184605F0F7FD04F0A5FD0246EF
S32D0000DD380B4610461946D7E90423FEF769FB02460B464FF001010C46104619464FF000024FF07E5303F5D0037A
S32D0000DD60FEF780FF0346002B02D14FF000031C46E3B2002BACD141F22810C1F6FF707D4902F03EFA41F2301005
S32D0000DD88C1F6FF707F4902F037FA04F075FD02460B46C7E9042330E004F06EFD02460B4610461946D7E90423E2
S32D0000DDB0FEF732FB02460B461046194660A3D3E90023FEF707FE02460B4610461946FEF771FF02464FF00703B5
S32D0000DDD8C8F200031340002B05DA03F1FF3363F0070303F10103BB60BA6841F26013C1F6FF73D318184605F03E
S32D0000DE008FFD04F03DFD02460B4610461946D7E90423FEF701FB02460B464FF001010C461046194648A3D3E98C
S32D0000DE280023FEF71BFF0346002B02D14FF000031C46E3B2002BAFD17AE041F24C10C1F6FF70464906F0E8F8FB
S32D0000DE504FF000004FF07E5101F5C00104F0E4FC4FF01E004FF0E00100F0BCFC40F2212300933D483D493E4A0B
S32D0000DE783E4B00F011FF4FF02D004FF028014FF4287200F04FFD4FF014004FF0500140F2C91201F075F841F285
S32D0000DEA04C10C1F6FF70344906F0BAF841F23810C1F6FF70344902F0A3F925A3D3E90023CDE900236FF01D0005
S32D0000DEC86FF01D014FF4C46201F08AFA20A1D1E9000104F0A5FC41F23810C1F6FF7002F03BF91D4805F018FD8A
S32D0000DEF04FF0C403009322481D491B4A1F4B00F0CFFE19481D494FF48C7200F0B5FD4FF028004FF0770101F056
S32D0000DF1895FB4FF000024FF08043CDE900234FF028004FF028014FF48C7201F059FA00BF07F11C07BD4690BDB1
S32D0000DF409A9999999999A93F666666666666E63F333333333333FB3F9A9999999999B93F6711FF1F00000C42CC
S32D0000DF68000020420000B4420000A041000082420000C84200008C420000A040000088410000C8C200007042D1
S32D0000DF9090B585B002AF41F24C40C1F6FF706FF07F4106F0E9FD41F24C40C1F6FF706FF07F4106F009FE01F066
S32D0000DFB86BFC41F26010C1F6FF7005F0ADFCF148F1494FF49A7200F053FD4FF014004FF0540100F003FCDCA118
S32D0000DFE0D1E9000104F020FC4FF014004FF028014FF0C40200F0C8FF4FF014004FF07B0100F0F0FBD4A1D1E9B9
S32D0000E008000104F00DFC01F05FFC01F01DFD03467B607B68002B02DD7B68022B02DD4FF001037B60D24805F068
S32D0000E03077FCCBA1D1E9000104F0F6FB4FF028004FF01C0100F0CEFB4FF08C030093D148D149D24AD24B00F00A
S32D0000E05823FE4FF07B030093CE48CF49CB4ACC4B00F01AFE41F24C40C1F6FF704AF69C71C0F201014FF00D0293
S32D0000E0804FF0000307F03CF8B7A3D3E90023CDE900234FF032004FF032014FF0700201F0A3F94FF0320001F070
S32D0000E0A80FF9ADA1D1E9000104F0BAFB41F24C40C1F6FF704AF6A871C0F201014FF00D024FF0000307F018F807
S32D0000E0D041F24C10C1F6FF70B24905F0A1FF41F24C10C1F6FF70AD4905F09AFF41F24C40C1F6FF704AF6B4715A
S32D0000E0F8C0F201014FF00D024FF0000306F0FCFF6FF018004FF0640100F068FB41F24C40C1F6FF704AF6C07101
S32D0000E120C0F201014FF00D024FF0000306F0E8FF4FF01E004FF0C40101F02CFA8CA3D3E90023CDE900236FF0F2
S32D0000E1482C006FF02C014FF4E07201F049F941F24C10C1F6FF70924905F05EFF854805F0DBFB41F24C10C1F669
S32D0000E170FF708E4905F054FF4FF028004FF0700100F030FB4FF0E003009389487F49894A814B00F085FD4FF023
S32D0000E19832004FF0380100F021FB4FF0E003009379488349804A774B00F076FD4FF03C0040F2512100F012FB56
S32D0000E1C06F4805F0ADFB4FF014004FF032014FF4937200F0A9FF41F24C40C1F6FF704AF6CC71C0F201014FF0E3
S32D0000E1E80D024FF0000306F087FF57A1D1E9000104F016FB5CA3D3E90023CDE900236FF027006FF027014FF47D
S32D0000E210E07201F0E9F841F23010C1F6FF705D4901F0EEFF4AA1D1E9000104F0FDFA41F23010C1F6FF7001F084
S32D0000E23893FF4FF000024FF07E5303F5C003CDE900236FF022006FF022014FF4E07201F0C7F83FA3D3E9002338
S32D0000E260CDE900234FF014004FF014014FF01C0201F0BAF841F24C10C1F6FF704F4905F0CFFE4FF01E004FF065
S32D0000E288A80100F0ABFA41F24C10C1F6FF70424905F0C2FE394805F03FFB4FF4C473009341484549454A464B41
S32D0000E2B000F0F6FC41F24C40C1F6FF704AF6DC71C0F201014FF00D024FF0000306F018FF4FF000024FF0804358
S32D0000E2D803F5C013CDE900234FF028004FF028014FF4A86201F07CF86FF027004FF0380100F074FA224805F038
S32D0000E3000FFB4FF014004FF02D014FF0AE0200F00BFF4FF0320000F0D7FF4FF000004FF07E5101F5A00104F02D
S32D0000E3287FFA41F24C40C1F6FF704AF6EC71C0F201014FF00D024FF0000306F0DDFE41F24C103FE0AFF30080E7
S32D0000E3509A9999999999B93F333333333333D33F9A9999999999C93F666666666666E63F9A9999999999E93FE5
S32D0000E3786111FF1F6211FF1F6311FF1F6411FF1F6511FF1F0000A041000070420000F0410000A0420000344281
S32D0000E3A00000BE420000B4410000824200008E4200002041000048420000B44200000C420000204200005C4297
S32D0000E3C80000C842C1F6FF70C84905F025FE41F23810C1F6FF70C64901F00EFF6FF031004FF49A7100F0FAF95F
S32D0000E3F041F23810C1F6FF7001F0B2FE41F24C10C1F6FF70BD4905F00BFE41F24C40C1F6FF704AF6FC71C0F2C0
S32D0000E41801014FF00D024FF0000306F06DFE41F22810C1F6FF70B44901F0E6FE41F23010C1F6FF70B04901F0FD
S32D0000E440DFFE00BF41F22010C1F6FF7005F02CF803464FF0010214461846AA49FEF78CFF0346002B02D14FF034
S32D0000E46800031C46E3B2002BE8D16FF018004FF0560100F0B3F941F22810C1F6FF7001F06BFE41F23010C1F6EA
S32D0000E490FF7001F065FE8AA1D1E9000104F0C4F94FF01E004FF0620101F0CCF886A3D3E90023CDE900236FF010
S32D0000E4B827006FF027014FF48C6200F091FF4FF01E004FF0160100F089F9874805F024FA7868FFF77DFB41F24F
S32D0000E4E04C10C1F6FF70884905F09AFD78A1D1E9000104F099F94FF01E004FF0E00100F071F94FF407730093AE
S32D0000E50880488149814A824B00F0C6FB4FF028004FF4447100F062F94FF023004FF0820101F034F87B487C4997
S32D0000E53001F0F4F87B68012B03D0022B5BD0002BA6E041F24C10C1F6FF706A4905F068FD6FF013004FF4B3715A
S32D0000E55800F044F94FF014004FF0C40101F016F84FF000024FF08043CDE900236FF013006FF013014FF4C47298
S32D0000E58000F032FF41F23810C1F6FF70654901F037FE51A1D1E9000104F046F941F23810C1F6FF7001F0DCFD8C
S32D0000E5A841F22810C1F6FF70514901F025FE41F23010C1F6FF705A4901F01EFE40A1D1E9000104F02DF941F2D4
S32D0000E5D02810C1F6FF70554901F012FE41F23010C1F6FF70444901F00BFE3DA1D1E9000104F01AF94CE041F201
S32D0000E5F84C10C1F6FF703D4905F00EFD6FF01D004FF0540100F0EAF84FF014004FF0BA0100F0BCFF4FF00002D2
S32D0000E6204FF08043CDE900236FF01D006FF01D014FF4C47200F0D8FE41F23810C1F6FF70384901F0DDFD24A107
S32D0000E648D1E9000104F0ECF841F23810C1F6FF7001F082FD4FF014004FF0E00100F0BEF84FF01E004FF0C40186
S32D0000E67000F090FF1CA3D3E90023CDE900234FF028004FF028014FF40C7200F0ADFE00BF6FF01D004FF03801A8
S32D0000E69800F0A4F84FF019004FF0C40100F0CEFF4FF032004FF40C7100F098F807F10C07BD4690BDAFF3008081
S32D0000E6C09A9999999999C93F9A9999999999E93F333333333333D33FCDCCCCCCCCCCFC3F666666666666E63FFD
S32D0000E6E89A9999999999F93F6611FF1F0000C84200004842000000000000A0C10000E03F00000C4200002042DC
S32D0000E7100000B4420000A041000082420000AF43000070410000C8C20000964200008C4280B500AF41F24C10FA
S32D0000E738C1F6FF70244905F06FFC4FF000004FF07E5101F5C00104F06BF841F24C10C1F6FF701E4905F060FCF8
S32D0000E7604FF000004FF07E5101F5C00104F05CF841F24C10C1F6FF70174905F051FC4FF000004FF07E5101F5A5
S32D0000E788C00104F04DF841F24C10C1F6FF70114905F042FC4FF000004FF07E5101F5C00104F03EF841F24C106A
S32D0000E7B0C1F6FF700A4905F033FC41F24C40C1F6FF704BF24C01C0F2010106F083FD80BD00000C42000000007A
S32D0000E7D8000034420000BE420000B442F0B585B000AF7860396041F24410C1F6FF7004F031FE41F24010C1F6A3
S32D0000E800FF7004F02BFE7868FEF7A6FB034641F23010C1F6FF70194601F0F2FC7868FEF79BFB034641F22810A9
S32D0000E828C1F6FF70194601F0E7FC04F025F802460B4610461946FEF781FA0346FB6000BF41F24010C1F6FF708E
S32D0000E85004F0F0FD044641F24410C1F6FF7004F0E9FD0346E3181846FDF724FF02460B46104619464FF00002A0
S32D0000E8784FF08043FEF7AAF802460B4614461D463868FDF713FF02460B464FF001010E4620462946FEF7E2F90A
S32D0000E8A00346002B02D14FF000031E46F3B2002B27D003F0E5FF04460D46F868FDF70CFF02460B462046294655
S32D0000E8C8FDF7A6FD02460B464FF001010C46104619464FF000024FF0804303F5C013FEF7BDF90346002B02D1AA
S32D0000E8F04FF000031C46E3B2002B02D04FF0010301E04FF00003002B9ED141F23010C1F6FF7001F025FC41F2E6
S32D0000E9182810C1F6FF7001F01FFC07F11407BD46F0BD00BFF0B587B000AFF860B9607A6041F24410C1F6FF7062
S32D0000E94004F08CFD41F24010C1F6FF7004F086FDB868FEF701FB034641F23010C1F6FF70194601F04DFCF86820
S32D0000E968FEF7F6FA034641F22810C1F6FF70194601F042FC03F080FF02460B4610461946FEF7DCF903467B6185
S32D0000E99000BF41F24010C1F6FF7004F04BFD044641F24410C1F6FF7004F044FD0346E3181846FDF77FFE02462E
S32D0000E9B80B46104619464FF000024FF08043FEF705F802460B4614461D467868FDF76EFE02460B464FF0010186
S32D0000E9E00E4620462946FEF73DF90346002B02D14FF000031E46F3B2002B27D003F040FF04460D467869FDF75D
S32D0000EA0867FE02460B4620462946FDF701FD02460B464FF001010C46104619464FF000024FF0804303F5C0132C
S32D0000EA30FEF718F90346002B02D14FF000031C46E3B2002B02D04FF0010301E04FF00003002B9ED141F23010C2
S32D0000EA58C1F6FF7001F080FB41F22810C1F6FF7001F07AFB07F11C07BD46F0BD000000002DE9F04387B000AF0D
S32D0000EA80F860B9607A6041F24410C1F6FF7004F0E5FC41F24010C1F6FF7004F0DFFC41F22810C1F6FF70F96831
S32D0000EAA801F0AAFB41F23010C1F6FF70B96801F0A3FB03F0E1FE02460B4610461946FEF73DF903467B616EE0A3
S32D0000EAD0B868F968FEF78AF903461846FDF7FCFD04460D4641F24010C1F6FF7004F0A2FC064641F24410C1F629
S32D0000EAF8FF7004F09BFC0346F3181846FDF7D6FD02460B46104619464FF000024FF08043FDF75CFF02460B4604
S32D0000EB20104619465CA3D3E90023FDF729FE02460B46904699467868FEF70EFA03461846FDF7CAFD02460B46F3
S32D0000EB4840464946FDF742FF02460B461046194609F0F6FF02460B4620462946FDF70CFE02460B4614461D4657
S32D0000EB70F868FDF7B1FD02460B4620462946FDF74DFC02460B4610461946FEF7DBF803463B6141F22810C1F6AD
S32D0000EB98FF70396901F030FB41F23010C1F6FF70396901F029FB41F24010C1F6FF7004F03DFC044641F244102B
S32D0000EBC0C1F6FF7004F036FC0346E3181846FDF771FD02460B46104619464FF000024FF08043FDF7F7FE024615
S32D0000EBE80B4614461D467868FDF760FD02460B464FF001010E4620462946FEF72FF80346002B02D14FF0000318
S32D0000EC101E46F3B2002B27D003F032FE04460D467869FDF759FD02460B4620462946FDF7F3FB02460B464FF098
S32D0000EC3801010C46104619464FF000024FF0804303F5C013FEF70AF80346002B02D14FF000031C46E3B2002BF5
S32D0000EC6002D04FF0010301E04FF00003002B7FF42FAF41F23010C1F6FF7001F071FA41F22810C1F6FF7001F05B
S32D0000EC886BFA07F11C07BD46BDE8F083AFF300806E861BF0F92109402DE9F04387B000AFF860B9607A603B602A
S32D0000ECB041F24410C1F6FF7004F0D0FB41F24010C1F6FF7004F0CAFB41F22810C1F6FF70F96801F095FA41F2C3
S32D0000ECD83010C1F6FF70396801F08EFA03F0CCFD02460B4610461946FEF728F803467B61CDE0B868F968FEF727
S32D0000ED0075F803461846FDF7E7FC04460D4641F24010C1F6FF7004F08DFB064641F24410C1F6FF7004F086FBCA
S32D0000ED280346F3181846FDF7C1FC02460B46104619464FF000024FF08043FDF747FE02460B46104619468CA313
S32D0000ED50D3E90023FDF714FD02460B4690469946B86BFEF7F9F803461846FDF7B5FC02460B4640464946FDF76C
S32D0000ED782DFE02460B461046194609F0E1FE02460B4620462946FDF7F7FC02460B4614461D46F868FDF79CFC85
S32D0000EDA002460B4620462946FDF738FB02460B4610461946FDF7C6FF034641F22810C1F6FF70194601F01CFA69
S32D0000EDC838687968FEF70EF803461846FDF780FC04460D4641F24010C1F6FF7004F026FB064641F24410C1F6A5
S32D0000EDF0FF7004F01FFB0346F3181846FDF75AFC02460B46104619464FF000024FF08043FDF7E0FD02460B4681
S32D0000EE181046194658A3D3E90023FDF7ADFC02460B4690469946B86BFEF792F803461846FDF74EFC02460B4632
S32D0000EE4040464946FDF7C6FD02460B461046194609F07AFE02460B4620462946FDF790FC02460B4614461D46D5
S32D0000EE687868FDF735FC02460B4620462946FDF7D1FA02460B4610461946FDF75FFF034641F23010C1F6FF70C8
S32D0000EE90194601F0B5F941F24010C1F6FF7004F0C9FA044641F24410C1F6FF7004F0C2FA0346E3181846FDF7B9
S32D0000EEB8FDFB02460B46104619464FF000024FF08043FDF783FD02460B4614461D46B86BFDF7ECFB02460B4642
S32D0000EEE04FF001010E4620462946FDF7BBFE0346002B02D14FF000031E46F3B2002B27D003F0BEFC04460D46EF
S32D0000EF087869FDF7E5FB02460B4620462946FDF77FFA02460B464FF001010C46104619464FF000024FF0804327
S32D0000EF3003F5C013FDF796FE0346002B02D14FF000031C46E3B2002B02D04FF0010301E04FF00003002B7FF4DF
S32D0000EF58D0AE41F23010C1F6FF7001F0FDF841F22810C1F6FF7001F0F7F807F11C07BD46BDE8F083AFF30080C5
S32D0000EF806E861BF0F92109402DE9F04387B000AFF860B9607A6041F24410C1F6FF7004F05DFA41F24010C1F655
S32D0000EFA8FF7004F057FAFB68C3F100031846FDF7CFFF034641F22810C1F6FF70194601F01BF9F868FDF7C4FFF8
S32D0000EFD0034641F23010C1F6FF70194601F010F96FE0BA68FB68D31A1846FDF763FB04460D4641F24010C1F690
S32D0000EFF8FF7004F01BFA064641F24410C1F6FF7004F014FA0346F3181846FDF74FFB02460B46104619464FF0FB
S32D0000F02000024FF08043FDF7D5FC02460B46104619463BA3D3E90023FDF7A2FB02460B46904699467868FDF73B
S32D0000F04887FF03461846FDF743FB02460B4640464946FDF7BBFC02460B461046194609F06FFD02460B46204630
S32D0000F0702946FDF785FB02460B4614461D46F868FDF718FB02460B4620462946FDF7C6F902460B461046194663
S32D0000F098FDF754FE03467B617B6983F0004341F22810C1F6FF70194601F0A6F841F23010C1F6FF70796901F05A
S32D0000F0C09FF841F24010C1F6FF7004F0B3F9044641F24410C1F6FF7004F0ACF90346E3184FEAD372D3184FEACC
S32D0000F0E863031A467B689A42ACBF00230123DBB2002B7FF472AF41F23010C1F6FF7001F02BF841F22810C1F6A8
S32D0000F110FF7001F025F807F11C07BD46BDE8F0836E861BF0F92109402DE9F04387B000AFF860B9607A6041F20F
S32D0000F1384410C1F6FF7004F08DF941F24010C1F6FF7004F087F9F868FDF702FF034641F22810C1F6FF7019460A
S32D0000F16001F04EF8FB68C3F100031846FDF7F4FE034641F23010C1F6FF70194601F040F86FE0BA68FB68D31AC1
S32D0000F1881846FDF793FA04460D4641F24010C1F6FF7004F04BF9064641F24410C1F6FF7004F044F90346F3187E
S32D0000F1B01846FDF77FFA02460B46104619464FF000024FF08043FDF705FC02460B46104619463BA3D3E90023D5
S32D0000F1D8FDF7D2FA02460B46904699467868FDF7B7FE03461846FDF773FA02460B4640464946FDF7EBFB02469A
S32D0000F2000B461046194609F09FFC02460B4620462946FDF7B5FA02460B4614461D46F868FDF748FA02460B46B0
S32D0000F22820462946FDF7F6F802460B4610461946FDF784FD03467B6141F22810C1F6FF70796900F0D9FF7B69FA
S32D0000F25083F0004341F23010C1F6FF70194600F0CFFF41F24010C1F6FF7004F0E3F8044641F24410C1F6FF70B5
S32D0000F27804F0DCF80346E3184FEAD372D3184FEA63031A467B689A42ACBF00230123DBB2002B7FF472AF41F204
S32D0000F2A03010C1F6FF7000F05BFF41F22810C1F6FF7000F055FF07F11C07BD46BDE8F0836E861BF0F921094023
S32D0000F2C890B585B000AF786003F0D6FA02460B46C7E9022337E041F25810C1F6FF7003F049FC0346002B0BD087
S32D0000F2F07868FDF731FE034641F22810C1F6FF70194600F07DFF06E041F22810C1F6FF70344900F075FF41F2BD
S32D0000F3185C10C1F6FF7003F02DFC0346002B0BD07868FDF715FE034641F23010C1F6FF70194600F061FF06E06C
S32D0000F34041F23010C1F6FF70264900F059FF41F25810C1F6FF7003F011FC0346002B08D141F25C10C1F6FF707C
S32D0000F36803F008FC0346002B24D003F085FA02460B4610461946D7E90223FDF749F802460B464FF001010C4612
S32D0000F390104619464FF000024FF07E5303F5C003FDF760FC0346002B02D14FF000031C46E3B2002B02D04FF082
S32D0000F3B8010301E04FF00003002B8CD141F22810C1F6FF7000F0C8FE41F23010C1F6FF7000F0C2FE07F11407D5
S32D0000F3E0BD4690BD000070C1F0B587B000AFF860B9607A6041F24410C1F6FF7004F02EF841F24010C1F6FF7038
S32D0000F40804F028F8B868FDF7A3FD034641F23010C1F6FF70194600F0EFFEF868FDF798FD034641F22810C1F69C
S32D0000F430FF70194600F0E4FE03F022FA02460B4610461946FDF77EFC03467B6133E041F24C40C1F6FF706FF0C7
S32D0000F4587F4105F08DFB41F24C40C1F6FF704FF0000105F0ADFB41F24010C1F6FF7003F0DDFF034641F24C4007
S32D0000F480C1F6FF7019464FF000024FF0000305F057FE41F24410C1F6FF7003F0CBFF034641F24C40C1F6FF7074
S32D0000F4A819464FF001024FF0000305F045FE41F24010C1F6FF7003F0B9FF044641F24410C1F6FF7003F0B2FF2C
S32D0000F4D00346E3181846FDF7EDF802460B46104619464FF000024FF08043FDF773FA02460B4614461D4678686B
S32D0000F4F8FDF7DCF802460B464FF001010E4620462946FDF7ABFB0346002B02D14FF000031E46F3B2002B23D0D1
S32D0000F52003F0AEF904460D467869FDF7D5F802460B4620462946FCF76FFF02460B464FF001010C461046194634
S32D0000F548D7E90C23FDF78AFB0346002B02D14FF000031C46E3B2002B02D04FF0010301E04FF00003002B7FF4AC
S32D0000F5706EAF41F23010C1F6FF7000F0F1FD41F22810C1F6FF7000F0EBFD07F11C07BD46F0BD00BF90B583B06E
S32D0000F59800AF7860396041F24410C1F6FF7003F059FF41F24010C1F6FF7003F053FF7B68C3F100031846FDF753
S32D0000F5C0CBFC034641F22810C1F6FF70194600F017FE7868FDF7C0FC034641F23010C1F6FF70194600F00CFE4D
S32D0000F5E800BF41F24010C1F6FF7003F01FFF044641F24410C1F6FF7003F018FF0346E3184FEAD372D3184FEA95
S32D0000F61063031A463B689A42ACBF00230123DBB2002BE2D141F23010C1F6FF7000F098FD41F22810C1F6FF70BB
S32D0000F63800F092FD07F10C07BD4690BD90B583B000AF7860396041F24410C1F6FF7003F001FF41F24010C1F658
S32D0000F660FF7003F0FBFE7868FDF776FC034641F22810C1F6FF70194600F0C2FD7B68C3F100031846FDF768FCA3
S32D0000F688034641F23010C1F6FF70194600F0B4FD00BF41F24010C1F6FF7003F0C7FE044641F24410C1F6FF705B
S32D0000F6B003F0C0FE0346E3184FEAD372D3184FEA630319463A6813464FEA03139B1A4FEA43031A4648F29D23F8
S32D0000F6D8C5F2973383FB02034FEAA3104FEAE273C31A3A68D31A9942ACBF00230123DBB2002BCED141F23010C3
S32D0000F700C1F6FF7000F02CFD41F22810C1F6FF7000F026FD07F10C07BD4690BDF0B585B000AF7860396041F270
S32D0000F728B440C1F6FF7009F0C3F80346FB604FF001031C4678685249FDF7FCFD0346002B02D14FF000031C4649
S32D0000F750E3B2002B01D04C4B7B603B6883F0004341F22810C1F6FF70194600F049FD41F23010C1F6FF703968CF
S32D0000F77800F042FD4FF001031C467868F968FDF7D9FD0346002B02D14FF000031C46E3B2002B4AD000BF41F2CD
S32D0000F7A0B440C1F6FF7009F087F803464FF00102144618467968FDF7C1FD0346002B02D14FF000031C46E3B253
S32D0000F7C8002B2AD141F2B440C1F6FF7009F070F803461846FCF77CFF04460D46F868FCF777FF02460B461046D5
S32D0000F7F019464FF000024FF08043FCF70DFE02460B464FF001010E4620462946FDF748FA0346002B02D14FF08C
S32D0000F81800031E46F3B2002B02D04FF0010301E04FF00003002BB6D117E000BF41F2B440C1F6FF7009F03CF871
S32D0000F84003464FF00102144618467968FDF776FD0346002B02D14FF000031C46E3B2002BE8D141F23010C1F681
S32D0000F868FF70084900F0C8FC41F22810C1F6FF70044900F0C1FC07F11407BD46F0BD00BF0000803F0000000032
S32D0000F89098B500AF00BF41F24810C1F6FF7003F003FE03464FF00102144618460649FDF763FD0346002B02D1BD
S32D0000F8B84FF000031C46E3B2002BE8D198BD00BF0000C03F0000000098B500AF41F24810C1F6FF7003F0E4FD71
S32D0000F8E003464FF00102144618465749FDF726FD0346002B02D14FF000031C46E3B2002B26D041F24C40C1F6E9
S32D0000F908FF704FF47F0105F0FDF841F24C40C1F6FF704FF47F0105F02BF941F24C40C1F6FF704FF0FF0105F0DB
S32D0000F9304BF941F24C40C1F6FF704BF2BC01C0F201014FF000024FF0010305F0D9FB63E041F24810C1F6FF7091
S32D0000F95803F0A6FD03461846FCF7BAFE02460B464FF001010C461046194633A3D3E90023FDF774F90346002B2E
S32D0000F98002D14FF000031C46E3B2002B26D041F24C40C1F6FF704FF0FF0105F0B7F841F24C40C1F6FF704FF040
S32D0000F9A8FF0105F0E5F841F24C40C1F6FF704FF47F0105F005F941F24C40C1F6FF704BF2DC01C0F201014FF0D2
S32D0000F9D000024FF0010305F093FB1DE041F24C40C1F6FF704FF0000105F0C6F841F24C40C1F6FF706FF07F4168
S32D0000F9F805F0E6F841F24C40C1F6FF704BF2E801C0F201014FF000024FF0010305F074FB41F24810C1F6FF70B6
S32D0000FA2003F042FD034641F24C40C1F6FF7019464FF004024FF0010305F0A2FB98BD00BF666666666666064021
S32D0000FA480000C03FAFF3008098B500AF41F24810C1F6FF7003F024FD03464FF00102144618461D49FDF766FCAF
S32D0000FA700346002B02D14FF000031C46E3B2002B02D04FF0010323E041F24810C1F6FF7003F00AFD0346184653
S32D0000FA98FCF71EFE02460B464FF001010C46104619460BA3D3E90023FDF7D8F80346002B02D14FF000031C4614
S32D0000FAC0E3B2002B02D04FF0020301E04FF00203184698BDAFF3008066666666666606400000C03FAFF300807D
S32D0000FAE890B583B000AF786039607B68012B40F0A4803A684FF6FF739A4240F09E8041F21C10C1F6FF704FF0AE
S32D0000FB10100103F0B7FC41F22010C1F6FF704FF0110103F0AFFC41F22410C1F6FF704FF0120103F0A7FC41F2F0
S32D0000FB382810C1F6FF704FF00001424A00F0B4FA41F23010C1F6FF704FF001013D4A00F0ABFA41F23810C1F6AF
S32D0000FB60FF704FF002013A4A00F0A2FA41F24010C1F6FF704FF0020103F0A4F841F24410C1F6FF704FF000014F
S32D0000FB8803F09CF841F24810C1F6FF704FF0010103F074FC41F24C10C1F6FF704FF0000104F0DEF941F2581018
S32D0000FBB0C1F6FF704FF0070102F0BCFE41F25C10C1F6FF704FF0060102F0B4FE41F26013C1F6FF731C462046C8
S32D0000FBD84FF0080103F096FD04F1010420464FF0090103F08FFD04F1010420464FF00A0103F088FD04F10104ED
S32D0000FC0020464FF00C0103F081FD04F1010420464FF00D0103F07AFD04F1010420464FF00E0103F073FD04F196
S32D0000FC28010420464FF0160103F06CFD04F1010318464FF0170103F065FD07F10C07BD4690BD00BF00004041F3
S32D0000FC500000B04080B500AF4FF001004FF6FF71FFF742FF80BD00BF80B500AF41F21872C1F6FF7241F21C135F
S32D0000FC78C1F6FF73D31A194641F21C13C1F6FF731A460B4610464FF000011A460AF077F880BD00BF0BF0ECF873
S32D0000FCA000F0B0F9FFF7E0FF0BF0BEF80BF05AF80BF0F2F800F00CF84FF0000041F26811C1F6FF71FDF788FB68
S32D0000FCC8034618460AF036F880B500AF4FF4E043C4F204034FF4E042C4F2040202F5805202F13802126842F471
S32D0000FCF0785203F5805303F138031A6000F02EF900F094F841F29833C1F6FF734FF058021A6041F29833C1F626
S32D0000FD18FF731B684FF47A7202FB03F241F29433C1F6FF731A6041F29433C1F6FF731B681A464FF4E043C4F2E8
S32D0000FD40040303F5825303F104031B6803F070634FEA136303F10103B2FBF3F31A4641F29C33C1F6FF731A603E
S32D0000FD684FF4E043C4F204034FF4E042C4F2040202F5805202F13C02126842F0225203F5805303F13C031A6097
S32D0000FD904FF4E043C4F204034FF4E042C4F2040202F5805202F13002126842F0006203F5805303F130031A6099
S32D0000FDB84FF45043C4F203034FF480721A614FF0640002F0A5FB4FF45043C4F203034FF45042C4F203025269C9
S32D0000FDE022F010025A614FF45043C4F203034FF000021A604FF45043C4F203034FF010025A6103F03BFE03F00C
S32D0000FE08E3FE41F29030C1F6FF7002F005FC41F24C40C1F6FF7004F0C3FC41F2883002F0E3FC80BD80B400AF6B
S32D0000FE304FF48043C4F206034FF000025A704FF48043C4F206034FF098021A704FF48043C4F206039B79DBB246
S32D0000FE5803F01003002B0CBF00230123DBB2002BF0D14FF48043C4F206039B79DBB203F00C034FEA9303022B5C
S32D0000FE800CBF00230123DBB2002BEED14FF48043C4F206034FF018021A714FF48043C4F206034FF000025A7151
S32D0000FEA84FF4E043C4F2040303F5825303F104034FF00002C0F213121A604FF48043C4F206034FF054025A718A
S32D0000FED000BF4FF48043C4F206039B79DBB203F02003002B14BF00230123DBB2002BF0D100BF4FF48043C4F290
S32D0000FEF806039B79DBB203F04003002B14BF00230123DBB2002BF0D14FF48043C4F206034FF48042C4F20602B6
S32D0000FF201278D2B202F03F02D2B21A704FF48043C4F206039B79DBB203F00C034FEA9303032B0CBF00230123ED
S32D0000FF48DBB2002BEED14FF000031846BD4680BC704700BF80B400AF4FF44043C4F204034FF480725A634FF226
S32D0000FF70C003C4F20F034FF2C002C4F20F02526942F400525A614FF2C003C4F20F034FF2C002C4F20F02126800
S32D0000FF9842F400521A604FF44043C4F2040340F20312C0F20A021A634FF46143CEF200034FF46142CEF20002E2
S32D0000FFC0D2F8882142F08062C3F888214FF46143CEF200034FF46142CEF20002926842F080629A60BD4680BC8F
S32D0000FFE8704700BF80B483B000AF7860FEE700BF80B400AF00BEBD4680BC704780B400AF4FF0E0224CF20003E7
S32D00010010C0F20003C2F8083D4FF40053C4F205034CF22052DA814FF40053C4F205034DF62812DA814FF40053EC
S32D00010038C4F205034FF0D2021A80BD4680BC704780B500AF4FF44043C4F20403D3F8A03003F48053002B0CBF76
S32D0001006000230123DBB2002B1FD04FF44043C4F204034FF44042C4F20402D2F8A02022F48052C3F8A02041F25F
S32D00010088D440C1F6FF7008F01DFD4FF2C003C4F20F034FF2C002C4F20F02126822F400521A6080BD00000000CE
S32D000100B090B585B000AFF8600B467A60FB72FB68FA7A1A71FB684FF000025A714FF001031C4678682049FDF755
S32D000100D84FF90346002B02D14FF000031C46E3B2002B02D01A4B7B6011E04FF001031C4678681849FDF728F908
S32D000101000346002B02D14FF000031C46E3B2002B01D0124B7B607868FCF7DEFA02460B46104619460AA3D3E9BA
S32D000101280023FCF729FB02460B4610461946FCF705FE0246FB681A60FB68184607F11407BD4690BDAFF30080BF
S32D00010150ABAAAAAAAAAA2040000040410000803F80B582B000AF78607B685B79002B10D07B684FF000025A7144
S32D000101787B681B7941F29030C1F6FF7019464FF000024FF01E0302F091FA07F10807BD4680BD00BF80B584B0DC
S32D000101A000AF786039603B687F2B03DD4FF07F03FB7309E03B6813F1800F03DA4FF08003FB7301E03B68FB7396
S32D000101C87B685B79FA7B9A420FD07B68FA7B5A717B681A79FB7B41F29030C1F6FF7011461A464FF01E0302F0F0
S32D000101F061FA07F11007BD4680BD00BF00000000B0B584B000AF786039604FF001031C4638684D49FDF792F865
S32D000102180346002B02D14FF000031C46E3B2002B02D0474B3B6011E04FF001031C4638684449FDF79DF8034678
S32D00010240002B02D14FF000031C46E3B2002B01D03E4B3B603868FCF73FFA04460D467B681B681846FCF738FAE6
S32D0001026802460B46104619464FF000024FF0804303F5B203FCF7AAFB02460B4620462946FCF77AFA02460B4623
S32D0001029010461946FCF756FD03463B604FF001031C4638682A49FDF75DF80346002B02D14FF000031C46E3B2DF
S32D000102B8002B14D03868FCF70BFA02460B46104619461DA3D3E90023FCF756FA02460B4610461946FCF7EAFC19
S32D000102E00346FB6022E03868FCF7F6F902460B46104619464FF000024FF0804303F5C003FCF73EFA02460B46B7
S32D00010308104619464FF000024FF0804303F5B203FCF75CFB02460B4610461946FCF7C6FC0346FB607868F968EF
S32D00010330FFF734FF07F11007BD46B0BDAFF3008052B81E85EB51F43F0000C8C20000C84200000000AFF3008002
S32D0001035880B485B000AF02460B46FA71BB71BB79002B07D141F26C13C1F6FF734FF000021A7006E041F26C13B9
S32D00010380C1F6FF734FF001021A704FF03803FB7341F26C13C1F6FF731A78FB7B1343FB734FF4C043C4F20603C5
S32D000103A84FF4C042C4F206029278D2B242F01002D2B29A704FF4C043C4F206034FF4C042C4F206029278D2B22D
S32D000103D042F02002D2B29A704FF4C043C4F20603FA7B1A7107F11407BD4680BC704700BF80B483B000AF4FF0FA
S32D000103F801037B6004E000BF7B6803F101037B607B68312BCCBF00230123DBB2002BF2D107F10C07BD4680BCC8
S32D00010420704700BF80B582B000AF02460B46FA71BB7141F26D13C1F6FF731B7818464FF00001FFF789FF4FF423
S32D00010448C043C4F20603DB78DBB203F00203002B14BF00230123DBB2002BF0D14FF4C043C4F206034FF4C042E3
S32D00010470C4F20602D278D2B242F00202D2B2DA704FF4C043C4F20603FA791A714FF4C043C4F20603DB78DBB2E5
S32D0001049803F00203002B14BF00230123DBB2002BF0D14FF4C043C4F206034FF4C042C4F20602D278D2B242F077
S32D000104C00202D2B2DA704FF4C043C4F20603BA791A714FF4C043C4F20603DB78DBB203F00203002B14BF00237A
S32D000104E80123DBB2002BF0D14FF4C043C4F206034FF4C042C4F20602D278D2B242F00202D2B2DA704FF4C04328
S32D00010510C4F206034FF4C042C4F206029278D2B222F02002D2B29A704FF4C043C4F206034FF4C042C4F20602A2
S32D000105389278D2B222F01002D2B29A70FFF754FF07F10807BD4680BD80B582B000AF0346FB71FB79184600F037
S32D000105606BF807F10807BD4680BD00BF80B582B000AF02460B46FA71BB7100F039F8FB794FEA4303DBB21846BE
S32D00010588FFF7E2FFBB791846FFF7DEFF00F03EF807F10807BD4680BD80B500AF4FF0FF0000F046F803461846A4
S32D000105B080BD00BF80B584B000AF0346FB7100F017F8FB794FEA4303DBB243F00103DBB2DBB21846FFF7BCFF74
S32D000105D8FFF7E2FF0346FB7300F018F8FB7B184607F11007BD4680BD80B400AF4FF24003C4F20F034FF2400291
S32D00010600C4F20F02926842F480129A60BD4680BC704700BF80B400AF4FF24003C4F20F034FF24002C4F20F021A
S32D00010628526842F480125A60BD4680BC704700BF80B485B000AF0346FB714FF00003BB7303E0FB7B03F1010324
S32D00010650FB734FF44043C4F20A03DB6A4FF00003002BF2D14FF44043C4F20A034FF44042C4F20A02D26A42F091
S32D000106780042DA624FF44043C4F20A03FA795A6300BF4FF44043C4F20A03DB6A03F40033002B14BF0023012320
S32D000106A0DBB2002BF1D14FF44043C4F20A039B6BBB73BB7B184607F11407BD4680BC704780B582B000AF4FF4FE
S32D000106C8E043C4F204034FF4E042C4F2040202F5805202F13002126842F4805203F5805303F130031A604FF4E3
S32D000106F02043C4F204034FF480721A654FF24003C4F20F034FF24002C4F20F02526942F480125A61FFF77EFFC0
S32D000107184FF42043C4F204034FF400725A654FF42043C4F204034FF400729A654FF42043C4F204034FF40072AC
S32D00010740DA654FF44043C4F20A034FF44062C8F200021A604FF44043C4F20A034FF00502C3F60062DA604FF044
S32D0001076800037B6007E04FF0FF00FFF7EDFE7B6803F101037B607B68092BCCBF00230123DBB2002BEFD104A1C2
S32D00010790D1E9000102F048F807F10807BD4680BD9A9999999999B93F90B486B000AFF860B9607A60FA684FF45E
S32D000107B82043C4F206039A4214D14FF4E043C4F204034FF4E042C4F2040202F5805202F13402126842F4806267
S32D000107E003F5805303F134031A6083E0FA684FF43043C4F206039A4214D14FF4E043C4F204034FF4E042C4F241
S32D00010808040202F5805202F13402126842F4006203F5805303F134031A6067E0FA684FF44043C4F206039A423D
S32D0001083014D14FF4E043C4F204034FF4E042C4F2040202F5805202F13402126842F4805203F5805303F1340306
S32D000108581A604BE0FA684FF45043C4F206039A4214D14FF4E043C4F204034FF4E042C4F2040202F5805202F114
S32D000108803402126842F4005203F5805303F134031A602FE0FA684FF42043C4F20E039A4214D14FF4E043C4F2E6
S32D000108A804034FF4E042C4F2040202F5805202F12802126842F4806203F5805303F128031A6013E04FF4E043C4
S32D000108D0C4F204034FF4E042C4F2040202F5805202F12802126842F4006203F5805303F128031A60FB68DB7809
S32D000108F8DBB223F00C03DAB2FB68DA70FB684FF000029A70BB684FF47A7202FB03F27B684FEA031392FBF3F352
S32D000109209CB2FB681B78DBB223F01F03FB75234603F4F8534FEA2323DBB203F01F03DAB2FB7D1343DAB2FB681D
S32D000109481A70E2B2FB685A70BB684FF4FA4202FB03F27B684FEA031392FBF3F39AB2234619464FEAC121CB1AE8
S32D000109704FEA43139BB2D3189CB2FB689B7ADBB223F01F03FB75E3B203F01F03DAB2FB7D1343DAB2FB689A729A
S32D00010998FB68DB78DBB243F00C03DAB2FB68DA7007F11807BD4690BC704700BF80B483B000AF786000BF7B6806
S32D000109C01B79DBB203F02003002B14BF00230123DBB2002BF3D17B68DB79DBB2184607F10C07BD4680BC7047ED
S32D000109E880B483B000AF78600B46FB7000BF7B681B79DBB2DBB26FEA0303DBB24FEAD313DBB2002BF3D17B687C
S32D00010A10FA78DA7107F10C07BD4680BC704700BF80B487B000AFF860B9607A60FB687B6107E0BB68DAB27B691C
S32D00010A381A707B6903F101037B617B68002B0CBF00230123DBB27A6802F1FF327A60002BEBD107F11C07BD46BB
S32D00010A6080BC704780B584B000AF786039607B681B6BFB60FA683B689A4264D07B681B79002B43D07B685A78A8
S32D00010A887B6803F1340310461946FA684FF0010301F0ACFB0346002B0CBF00230123DBB2002B02D04FF00103EC
S32D00010AB04BE07B684FF000021A717B685A6A7B681B6AD218FB689A4220D97B68DB78FB7214E07B681B6AFA68AB
S32D00010AD8D318FB607B685A787B6803F1340310461946FA684FF0010301F080FBFB7A03F1FF33FB72FB7A012B77
S32D00010B0094BF00230123DBB2002BE2D13B68002B19D07B685A787B6803F13403104619463A684FF0010301F0BC
S32D00010B2857FA0346002B0CBF00230123DBB2002B02D04FF0010304E07B683A681A634FF00003184607F1100765
S32D00010B50BD4680BD80B584B000AF786078684FF00001FFF77FFF0346FB73FB7B002B40F0AE807B681B78032B58
S32D00010B7840F095807B685B79002B00F090807B684FF000021A637B6803F1340318464FF000014FF40072FFF72F
S32D00010BA03FFF7B684FF0550283F832227B684FF0AA0283F833227B684FF0520283F834207B684FF0520283F8CC
S32D00010BC835207B684FF0610283F836207B684FF0410283F837207B684FF0720283F818227B684FF0720283F8C0
S32D00010BF019227B684FF0410283F81A227B684FF0610283F81B227B681B69DAB27B6883F81C227B681B699BB2FF
S32D00010C184FEA2323DAB27B6883F81D227B681B694FEA1343DAB27B6883F81E227B681B694FEA1363DAB27B6860
S32D00010C4083F81F227B68DB68DAB27B6883F820227B68DB689BB24FEA2323DAB27B6883F821227B68DB684FEAF9
S32D00010C681343DAB27B6883F822227B68DB684FEA1363DAB27B6883F823227B6859787B6803F134027B685B696D
S32D00010C90084611461A464FF0010301F0ABFA7B684FF000025A717B685B7818464FF000014FF0000201F084FB63
S32D00010CB80346002B0CBF00230123DBB2002B02D04FF00103FB73FB7B184607F11007BD4680BD00BF80B582B003
S32D00010CE000AF78600B467B807B68002B08D07B681B78002B04D07B68DB887A889A4202D04FF009030FE07B68A4
S32D00010D085B78184601F0ECFB034603F00103DBB2002B02D04FF0030301E04FF00003184607F10807BD4680BDDC
S32D00010D3080B586B000AF78607B681A687B689B8810461946FFF7CAFF0346FB75FB7D002B40F0C8807B689B79F8
S32D00010D5803F02003002B00F0C1807B689B7903F04003002B20D07B681B6859787B6803F128027B689B69084645
S32D00010D8011461A464FF0010301F034FA0346002B0CBF00230123DBB2002B02D04FF00103A1E07B689B7923F04D
S32D00010DA84003DAB27B689A717B681A687B68DB6910461946FFF752FE0346FB75FB7D002B40F08C807B681B6AD8
S32D00010DD03B613B6903F10B033A6902F10B02127842F02002D2B21A703B6903F11C037A68D268D2B21A703B699E
S32D00010DF803F11D037A68D26892B24FEA2222D2B21A703B6903F11E037A68D2684FEA1242D2B21A703B6903F1C5
S32D00010E201F037A68D2684FEA1262D2B21A703B6903F11A037A681269D2B21A703B6903F11B037A68126992B233
S32D00010E484FEA2222D2B21A703B6903F114037A6812694FEA1242D2B21A703B6903F115037A6812694FEA1242AF
S32D00010E7092B24FEA2222D2B21A704FF00003FB603B6903F11603FA68D2B21A703B6903F11703FA6892B24FEA35
S32D00010E982222D2B21A703B6903F11803FA684FEA1242D2B21A703B6903F11903FA684FEA1262D2B21A707B6875
S32D00010EC09B7923F02003DAB27B689A717B681B684FF001021A717B681B681846FFF73AFE0346FB75FB7D18468B
S32D00010EE807F11807BD4680BD80B584B000AF78607868FFF719FF0346FB73FB7B002B03D17B684FF000021A60DC
S32D00010F10FB7B184607F11007BD4680BD80B588B000AF786039604FF080033B614FF00F03FB604FF0FF337B61AB
S32D00010F384FF00203FB612AE04FF00103BB611AE0FB69BA6902FB03F33A6802FB03F27B68D31ABB60BB68002B40
S32D00010F6009DBBA687B699A4205D2BB687B61FB693B61BB69FB60BB6903F10103BB61BB69102B8CBF002301231E
S32D00010F88DBB2002BDCD1FB694FEA4303FB61FB69B3F5807F8CBF00230123DBB2002BCBD14FF48053C4F20B03CB
S32D00010FB04FF48052C4F20B02D26A22F00802DA624FF48053C4F20B03DB6A1A464FF00F03CFF6F0731340BB613F
S32D00010FD84FF48053C4F20B033A694FEA52024FEA02224FEA02424FEA1242F96801F1FF314FEA0111C9B21143DC
S32D00011000BA690A4342F46022DA6203E04FF00A0001F0EEFB4FF48053C4F20B035B6A03F00803002B14BF002399
S32D000110280123DBB2002BEDD14FF48053C4F20B034FF48052C4F20B02D26A42F00802DA624FF48053C4F20B03BF
S32D000110504FF48052C4F20B02126B42F480121A6307F12007BD4680BD80B582B000AF786039607B684FF00002CD
S32D000110781A604FF48053C4F20B034FF40042C0F20012DA624FF48053C4F20B03DB6A03F08073002B0CBF002352
S32D000110A00123DBB2002BF1D14FF48053C4F20B034FF00002C3F8C0204FF48053C4F20B034FF481325A604FF400
S32D000110C88053C4F20B034FF028029A624FF48053C4F20B034FF001125A643B689B6818464CF66041C0F2050174
S32D000110F0FFF714FF4FF48053C4F20B035B6A03F00303002B0CBF00230123DBB2002BF1D14FF45043C4F20403E6
S32D0001111840F243421A604FF45043C4F2040340F243425A604FF45043C4F204034FF488629A604FF45043C4F22D
S32D00011140040340F24342DA604FF45043C4F2040340F243421A614FF45043C4F2040340F243425A614FF4E04358
S32D00011168C4F204034FF4E042C4F2040202F5805202F13002126842F4003203F5805303F130031A604FF4805328
S32D00011190C4F20B034FF6FF721A634FF48053C4F20B034FF0B302C0F27F025A634FF48053C4F20B034FF480528C
S32D000111B8C4F20B02D26A42F00062DA624FF48053C4F20B03DB6A03F00063002B0CBF00230123DBB2002BF1D10D
S32D000111E04FF48053C4F20B035B6A03F48033002B0CBF00230123DBB2002B03D07B684FF001021A604FF480531A
S32D00011208C4F20B034FF48052C4F20B02126B42F080021A634FF00003184607F10807BD4680BD00BF80B400AFE4
S32D000112304FF48053C4F20B035B6A1A4640F207331340002B0CBF00230123DBB21846BD4680BC704780B485B04A
S32D0001125800AF78604FF48053C4F20B031B6B1A467B681340FB60FB68002B14BF00230123DBB2002BEED1FB680D
S32D00011280184607F11407BD4680BC704780B584B000AF78607B681B7803F03F024BF2CC33C0F2010353F82230AF
S32D000112A8FB60FB68002B06D17B681B78002B02D04FF0010330E14FF48053C4F20B034FF48052C4F20B02126B61
S32D000112D042F080021A634FF48053C4F20B035B6A03F00103DBB2002BF5D14FF48053C4F20B037A6852689A603A
S32D000112F8FB6823F44003FB607B685B784FEA835303F44003FA681343FB607B685B78022B03D1FB6843F4001339
S32D00011320FB607B685B78042B16D1FB6803F44033B3F5003F08D1FB6823F44033FB60FB6843F44033FB6007E053
S32D00011348FB6823F44033FB60FB6843F40033FB604FF48053C4F20B034FF48052C4F20B0252684FEA02424FEAE4
S32D0001137012425A607B68DB68002B32D0FB6803F44033B3F5403F03D0FB6843F40013FB607B681B7A002B03D0A8
S32D00011398FB6843F01003FB607B68DB68012B03D9FB6843F02003FB607B68DB68B3F1FF3F13D04FF48053C4F229
S32D000113C00B034FF48052C4F20B02526811467A68D2684FEA02420A435A60FB6843F00203FB604FF48053C4F2A5
S32D000113E80B034FF000021A604FF48053C4F20B03FA68DA604FF00100C0F20E00FFF726FF0346012B0CBF002319
S32D000114100123DBB2002B10D04FF48053C4F20B034FF48052C4F20B02126B42F4702242F001021A634FF0010305
S32D0001143872E04FF48053C4F20B031B6B03F08003002B0CBF00230123DBB2002B0ED04FF48053C4F20B034FF46D
S32D000114608052C4F20B02126B42F001121A634FF0010355E04FF48053C4F20B031B6B03F48033002B0CBF0023EE
S32D000114880123DBB2002B0ED04FF48053C4F20B034FF48052C4F20B02126B42F001121A634FF0FF3338E0FB689E
S32D000114B003F44033002B25D04FF48053C4F20B031B691A467B681A61FB6803F44033B3F5803F17D14FF4805335
S32D000114D8C4F20B035B691A467B685A614FF48053C4F20B039B691A467B689A614FF48053C4F20B03DB691A46C5
S32D000115007B68DA614FF48053C4F20B034FF48052C4F20B02126B42F001021A634FF00003184607F11007BD460B
S32D0001152880BD00BF80B592B000AF786039604FF00003FB633B68BB6341F28413C1F6FF737B637B6B002B03D1EA
S32D0001155040F6012300F0A0BC41F28833C1F6FF733B633B6B002B03D140F60B2300F094BC3B6B1B68FB62FB6ADD
S32D00011578002B03D140F60B2300F08ABC7B6841F20432934200F0388241F2043293421BD841F20132934238D06C
S32D000115A041F20132934207D8032B00F03D84092B00F0298400F066BC41F20232934200F0128241F20332934243
S32D000115C800F0BE8300F05ABC41F20732934200F04B8341F2073293420BD841F20532934200F0348241F206324A
S32D000115F0934200F0108300F045BC41F20832934200F0B68241F20932934200F0C48200F039BC786B4BF2C031AA
S32D00011618C0F20101FFF724FD0346FB63FB6B002B40F030844FF0000387F847304FF0000387F82B304FF0000326
S32D0001164087F82A304FF0000387F829304FF0000387F846304FF0000387F828304FF000033B724FF000037B721A
S32D000116684FF00003FB604FF000033B744FF000037B6107F108031846FFF704FE0346002B0CBF00230123DBB23B
S32D00011690002B03D04FF00103FB63FCE340F24C4001F0A6F84FF008033B724FF000037B724FF4D573FB604FF015
S32D000116B800033B744FF000037B6107F108031846FFF7E0FD03463B643B6C002B0BD1BA69FB689A4203D04FF0F5
S32D000116E00103FB63D7E34FF0010387F846304FF0010387F8283097F82830002B00F0C6804FF037033B724FF0C0
S32D0001170800037B724FF00003FB604FF000033B744FF000037B6107F108031846FFF7B2FD03463B643B6C002B56
S32D0001173003D04FF00103FB63ADE34FF069033B724FF000037B724FF00003FB604FF000033B744FF000037B6153
S32D0001175807F108031846FFF795FD0346002B0CBF00230123DBB2002B03D04FF00103FB638DE3BB6903F44013E9
S32D00011780002B00F083804FF000033B644FF00A0001F02EF83B6C03F101033B644FF037033B724FF000037B7248
S32D000117A84FF00003FB604FF000033B744FF000037B6107F108031846FFF764FD0346002B0CBF00230123DBB29B
S32D000117D0002B03D04FF00103FB6336E04FF069033B724FF000037B7297F84630002B05D04FF00003C4F230037E
S32D000117F8FB6002E04FF44013FB604FF000033B744FF000037B6107F108031846FFF73AFD0346002B0CBF002395
S32D000118200123DBB2002B03D04FF00103FB630CE0BB69002B05DB3B6C632B02D84FF0010301E04FF00003002B8E
S32D00011848A0D1FB6B002B40F01F833B6C632B04D94FF0000387F8463014E04FF0010387F8473097F84630002BF7
S32D000118700CD04FF0000387F84630BB6903F08043002B03D04FF0010387F8463097F82A30002B03D07B6B4FF01A
S32D0001189807021A6097F82930002B03D07B6B4FF008021A6097F82B30002B03D07B6B4FF004021A6097F847307C
S32D000118C0002B0BD07B6B4FF002021A6097F84630002B03D07B6B4FF003021A6097F82B30002B0FD097F84730AF
S32D000118E8002B0BD07B6B4FF005021A6097F84630002B03D07B6B4FF006021A604FF45043C4F204034FF00002A7
S32D000119101A604FF45043C4F204034FF000025A604FF45043C4F204034FF000029A604FF45043C4F204034FF000
S32D000119380002DA604FF45043C4F204034FF000021A614FF45043C4F204034FF000025A61FB6A9A68FB6A5B68D7
S32D0001196010461946FFF7DAFA4FF45043C4F2040340F243421A604FF45043C4F2040340F243425A604FF450433B
S32D00011988C4F204034FF488629A604FF45043C4F2040340F24342DA604FF45043C4F2040340F243421A614FF4C0
S32D000119B05043C4F2040340F243425A614FF4E043C4F204034FF4E042C4F2040202F5805202F13002126842F464
S32D000119D8003203F5805303F130031A6057E2B86BFFF750FC03463B643B6C002B00F04E824FF00203FB6349E25D
S32D00011A00BB6B002B03D14FF00C03FB6343E24FF48053C4F20B03DB6A03F47F434FEA13234FEA43033B644FF419
S32D00011A288053C4F20B03DB6A03F0F0034FEA131303F101023B6C02FB03F33B64FB6A9A683B6CB2FBF3F2BB6B78
S32D00011A501A6020E2BB6B002B03D14FF00C03FB6319E2BB6B1B68002B03D14FF00C03FB6311E2FFF7DBFB0346C3
S32D00011A78002B14BF00230123DBB2002B70D04FF45043C4F204034FF000021A604FF45043C4F204034FF00002E0
S32D00011AA05A604FF45043C4F204034FF000029A604FF45043C4F204034FF00002DA604FF45043C4F204034FF0AF
S32D00011AC800021A614FF45043C4F204034FF000025A61FB6A9A68BB6B1B6810461946FFF719FA4FF45043C4F289
S32D00011AF0040340F243421A604FF45043C4F2040340F243425A604FF45043C4F204034FF488629A604FF45043FB
S32D00011B18C4F2040340F24342DA604FF45043C4F2040340F243421A614FF45043C4F2040340F243425A614FF4E3
S32D00011B40E043C4F204034FF4E042C4F2040202F5805202F13002126842F4003203F5805303F130031A6096E1C2
S32D00011B6840F60A23FB6392E1BB6B002B03D14FF00C03FB638BE14FF48053C4F20B035B684FEAC3434FEAD343B2
S32D00011B90BA6B13607FE1BB6B002B03D14FF00C03FB6378E1FFF742FB0346002B14BF00230123DBB2002B2AD091
S32D00011BB8BB6B1A6840F6FF739A4203D94FF00C03FB6364E14FF48053C4F20B034FF48052C4F20B02526822F483
S32D00011BE0FE5222F03F025A604FF48053C4F20B034FF48052C4F20B0252681146BA6B12684FEAC2424FEAD2428D
S32D00011C080A435A6043E140F60A23FB633FE1BB6B002B03D14FF00C03FB6338E14FF48053C4F20B039B6A03F0E5
S32D00011C3006034FEA53033B643B6C002B04D1BB6B4FF000021A6026E13B6C012B04D1BB6B4FF001021A601EE136
S32D00011C583B6C102B04D1BB6B4FF002021A6016E14FF00503FB6312E1BB6B002B03D14FF00C03FB630BE1FFF781
S32D00011C80D5FA0346002B14BF00230123DBB2002B56D0BB6B1B68002B16D14FF48053C4F20B034FF48052C4F29A
S32D00011CA80B02926A22F006029A624FF48053C4F20B034FF48052C4F20B02926A9A62E6E0BB6B1B68012B18D1C0
S32D00011CD04FF48053C4F20B034FF48052C4F20B02926A22F006029A624FF48053C4F20B034FF48052C4F20B026F
S32D00011CF8926A42F002029A62C9E0BB6B1B68022B16D14FF48053C4F20B034FF48052C4F20B02926A22F0060261
S32D00011D209A624FF48053C4F20B034FF48052C4F20B02926A9A62AEE04FF00503FB63AAE040F60A23FB63A6E0EA
S32D00011D48BB6B002B03D14FF00C03FB639FE04FF48053C4F20B034FF48052C4F20B02D26A42F00062DA624FF41B
S32D00011D708053C4F20B03DB6A03F00063002B0CBF00230123DBB2002BF1D14FF48053C4F20B031B6B03F0800385
S32D00011D98002B0CBF00230123DBB2002B0FD04FF48053C4F20B034FF48052C4F20B02126B42F080021A637B6B02
S32D00011DC04FF000021A604FF48053C4F20B035B6A03F48033002B0CBF00230123DBB2002B08D07B6B1B68002B8F
S32D00011DE808D17B6B4FF001021A6003E07B6B4FF000021A607B6B1A68BB6B1A6047E0BB6B4FF01C021A60BB6B7B
S32D00011E1003F104034FF004021A60BB6B03F108034FF41E721A6036E04FF00200FFF712FA4FF48053C4F20B0344
S32D00011E381B6B03F4E003002B0CBF00230123DBB2002B0ED04FF48053C4F20B034FF48052C4F20B02126B42F4E3
S32D00011E60E0021A634FF00403FB634FF48053C4F20B034FF48052C4F20B02126B42F032021A6308E040F60923F4
S32D00011E88FB6304E000BF02E000BF00E000BFFB6B184607F14807BD4680BD00BF80B489B000AF786039607B6870
S32D00011EB07B6141F28413C1F6FF733B613B69002B02D14FF0000381E03B691B68022B0BD03B691B68032B07D0F8
S32D00011ED83B691B68072B03D03B691B68082B0DD14FF48053C4F20B035B6A03F00403002B0CBF00230123DBB214
S32D00011F00002BF1D13B68FB6156E0FB69B3F5007F28BF4FF40073FB60FB6803F103034FEA9303BB613CE04FF466
S32D00011F288053C4F20B031B6B03F4E003002B0CBF00230123DBB2002B10D04FF48053C4F20B034FF48052C4F219
S32D00011F500B02126B42F4E00242F020021A634FF0000333E04FF48053C4F20B035B6A03F40063002B14BF002380
S32D00011F780123DBB2002BF1D14FF48053C4F20B031B6A1A467B691A607B6903F104037B61BB6903F1FF33BB615E
S32D00011FA0BB69002B0CBF00230123DBB2002BBAD1FA69FB68D31AFB61FB69002B0CBF00230123DBB2002BA0D195
S32D00011FC84FF00103184607F12407BD4680BC704780B58EB000AFB9607A600246FA73BB7341F27013C1F6FF7359
S32D00011FF07B63FB7B002B02D1BB7B002B02D14FF0040381E040F20043C1F6FF731B78DBB203F00103DBB2002B28
S32D0001201802D04FF0030373E0BB68002B02D14FF000036DE07B6B1B7B002B03D17B684FEA43237B60BB7B012B45
S32D000120402CD14FF011033B754FF000037B757B68BB614FF001033B77BB7B3B6207F1140341F202301946FFF7AF
S32D0001206861FA0346002B14BF00230123DBB2002B3ED0B8684FF40071FFF710FF0346002B0CBF00230123DBB2AE
S32D00012090002B31D04FF00003BB732DE04FF012033B754FF000037B757B68BB614FF001033B77BB7B3B6207F183
S32D000120B8140341F202301946FFF734FA0346002B14BF00230123DBB2002B11D0BB7B4FEA4323B8681946FFF789
S32D000120E0E1FE0346002B0CBF00230123DBB2002B02D04FF00003BB73BB7B002B02D04FF0010301E04FF00003D9
S32D00012108184607F13807BD4680BD00BF80B487B000AF786039607B68FB603B687B6155E07B69B3F5007F28BFA5
S32D000121304FF400733B617A693B69D31A7B613B6903F103034FEA93033B613BE04FF48053C4F20B031B6B03F463
S32D00012158E003002B0CBF00230123DBB2002B10D04FF48053C4F20B034FF48052C4F20B02126B42F4E00242F027
S32D0001218010021A634FF0FF332EE04FF48053C4F20B035B6A03F48063002B14BF00230123DBB2002BF1D14FF4A7
S32D000121A88053C4F20B03FA6812681A62FB6803F10403FB603B6903F1FF333B613B69002B0CBF00230123DBB28C
S32D000121D0002BBBD17B69002B0CBF00230123DBB2002BA1D14FF00103184607F11C07BD4680BC704780B58EB0B9
S32D000121F800AFB9607A600246FA73BB7341F27013C1F6FF737B63FB7B002B02D1BB7B002B02D14FF00403CAE0DE
S32D0001222040F20043C1F6FF731B78DBB203F00103DBB2002B02D04FF00303BCE040F20043C1F6FF731B78DBB2B1
S32D0001224803F00403002B0CBF00230123DBB2002B02D04FF00203AAE0BB68002B02D14FF00003A4E07B6B1B7B75
S32D00012270002B03D17B684FEA43237B60BB7B012B2CD14FF018033B754FF000037B757B68BB614FF000033B7755
S32D00012298BB7B3B6207F1140341F202301946FFF741F90346002B14BF00230123DBB2002B3ED0B8684FF4007119
S32D000122C0FFF728FF0346002B0CBF00230123DBB2002B31D04FF00003BB732DE04FF019033B754FF000037B75D9
S32D000122E87B68BB614FF000033B77BB7B3B6207F1140341F202301946FFF714F90346002B14BF00230123DBB210
S32D00012310002B11D0BB7B4FEA4323B8681946FFF7F9FE0346002B0CBF00230123DBB2002B02D04FF00003BB73D1
S32D000123384FF00D033B754FF000037B757B6B1B69BB614FF000033B774FF000033B6207F1140341F20230194619
S32D00012360FFF7E4F80346002B0CBF00230123DBB2002B02D04FF001031DE07A6A48F20803CFF6D9731340002B74
S32D0001238802D04FF0010312E07B6A03F4F853B3F5106F0CBF00230123DBB2002BC8D1BB7B002B02D04FF00103F8
S32D000123B001E04FF00003184607F13807BD4680BD80B58CB000AF0B463A600246FA71BB7141F27013C1F6FF733D
S32D000123D8BB62FB79002B02D04FF004037AE04FF0010387F82F3040F20043C1F6FF731B78DBB203F00103DBB245
S32D00012400002B02D04FF0030368E0BB79032B5FD801A252F823F000BF292401003324010045240100572401003F
S32D000124284FF0000387F82F3052E0BB6A9A683B681A604FF0000387F82F3049E03B684FF400721A804FF0000372
S32D0001245087F82F3040E04FF009033B724FF000037B72BB6A1B69FB604FF000033B744FF000037B6107F1080322
S32D0001247841F202301946FFF755F80346002B0CBF00230123DBB2002B02D04FF0010321E07B6A03F44003002B90
S32D000124A011D13B6A4FEA934303F07F0303F101027B6A4FEA132303F0030303F1FF3302FA03F23B681A604FF04B
S32D000124C8000387F82F3003E04FF0040387F82F3097F82F30184607F13007BD4680BD00BF80B483B000AF034624
S32D000124F0FB71FB79002B02D04FF0010305E040F20043C1F6FF731B78DBB2184607F10C07BD4680BC704700BFDC
S32D0001251880B483B000AF78604FF4E043C4F204034FF4E042C4F2040202F5805202F13802126842F0010203F5C5
S32D00012540805303F138031A604FF00003C4F204037A689A604FF00003C4F204034FF005025A604FF00003C4F21E
S32D0001256804034FF00002C4F20402126842F001021A6000BF4FF00003C4F204031B6803F08003002B14BF00233F
S32D000125900123DBB2002BF1D14FF00003C4F204034FF00002C4F20402126822F001021A6007F10C07BD4680BC2F
S32D000125B8704700BF80B582B000AF786039607B68012B0AD13A684FF6FF739A4205D141F29030C1F6FF7000F0F9
S32D000125E00FF807F10807BD4680BD00BF80B500AF4FF001004FF6FF71FFF7E0FF80BD00BF80B483B000AF786027
S32D000126087B684FF000021A707B68184607F10C07BD4680BC704700BF80B582B000AF78607B681B7883F0010319
S32D00012630DBB2002B36D04FF4E043C4F2040303F5805303F128034FF400621A604FF45043C4F204034FF4407209
S32D000126581A624FF45043C4F204034FF440725A6241F29433C1F6FF731B684FEAD372D3184FEA63034FF4304032
S32D00012680C4F20E0019464FF46142FEF78DF84FF0640000F0ADF87B684FF001021A704FF0010301E04FF000035B
S32D000126A8184607F10807BD4680BD00BF80B582B000AF7860F970BA707B704FF43040C4F20E004FF07F01FEF708
S32D000126D08BF94FF43040C4F20E004FF00801FEF783F9FB784FF43040C4F20E001946FEF77BF9BB784FF430408F
S32D000126F8C4F20E001946FEF773F97B784FF43040C4F20E001946FEF76BF94FF43040C4F20E004FF0FF01FEF762
S32D0001272063F907F10807BD4680BD00BF80B487B000AFF860B9607A60FA6844F6D353C1F26203A3FB02134FEAFD
S32D000127489312BB68D3187B61FA6844F6D353C1F26203A3FB02134FEA93134FF47A7101FB03F3D31AFB60FB689C
S32D000127704FEAC33244F6D353C1F26203A3FB02134FEA93127B68D3183B613B694FEAD3337A69D3187B613B6968
S32D000127984FEA43434FEA53433B614FF45043C4F203031B681A467B699A4211D34FF45043C4F203031B681A465A
S32D000127C07B699A420BD14FF45043C4F203035B681A463B699A4202D24FF0010301E04FF00003002BDDD107F10E
S32D000127E81C07BD4680BC704780B584B000AF78604FF45043C4F203031B68FB604FF45043C4F203035B68BB60D9
S32D000128107B681846F968BA68FFF788FF07F11007BD4680BD0000000080B584B000AFC7E900014FF45043C4F2B4
S32D0001283803031B68FB604FF45043C4F203035B68BB60D7E900010AA3D3E90023F9F794FF02460B4610461946FF
S32D00012860FAF750FA03461846F968BA68FFF75EFF07F11007BD4680BD0000000000408F4080B584B000AF4FF4D8
S32D000128885043C4F203031B68FB604FF45043C4F203035B68BB60F868F9F7F8FE02460B46C7E90023B868F9F7C2
S32D000128B0F1FE02460B46104619464FF000024FF0804303F56003FAF785F802460B46D7E90001F9F7A3FD02467E
S32D000128D80B46C7E90023D7E900231046194607F11007BD4680BD00BF80B483B000AF4FF45043C4F203031B68DC
S32D000129004FF47A7202FB03F37B604FF45043C4F203035B684FF47A7202FB03F34FEAD3337A68D3187B607B686A
S32D00012928184607F10C07BD4680BC704780B582B000AF78600B46FB70FB787868194600F007F87B68184607F19D
S32D000129500807BD4680BD00BF80B483B000AF78600B46FB707B68FA781A707B681B781A464BF2CC43C0F20103E9
S32D000129789B5C042B00F2F98001A252F823F000BF9D290100FB290100592A0100B72A0100152B01004FF41043B7
S32D000129A0C4F204037A68127811464BF21052C0F2010252F8212040F2031143F822104FF47043C4F20F034FF4F5
S32D000129C87042C4F20F02526911467A68127810464BF21052C0F2010252F8202002F01F024FF0010000FA02F274
S32D000129F06FEA02020A405A61BBE04FF42043C4F204037A68127811464BF21052C0F2010252F8212040F2031170
S32D00012A1843F822104FF24003C4F20F034FF24002C4F20F02526911467A68127810464BF21052C0F2010252F81A
S32D00012A40202002F01F024FF0010000FA02F26FEA02020A405A618CE04FF43043C4F204037A68127811464BF2A5
S32D00012A681052C0F2010252F8212040F2031143F822104FF28003C4F20F034FF28002C4F20F02526911467A68E0
S32D00012A90127810464BF21052C0F2010252F8202002F01F024FF0010000FA02F26FEA02020A405A615DE04FF436
S32D00012AB84043C4F204037A68127811464BF21052C0F2010252F8212040F2031143F822104FF2C003C4F20F038E
S32D00012AE04FF2C002C4F20F02526911467A68127810464BF21052C0F2010252F8202002F01F024FF0010000FAFE
S32D00012B0802F26FEA02020A405A612EE04FF45043C4F204037A68127811464BF21052C0F2010252F8212040F2D3
S32D00012B30031143F822104FF47143C4F20F034FF47142C4F20F02526911467A68127810464BF21052C0F2010251
