S01100002E2E2F5365616C426F742E733139AE
S32D0000C000000000205DE30000B9E60000B9E60000B9E60000B9E60000B9E6000000000000000000000000000097
S32D0000C02800000000B9E60000B9E6000000000000B9E60000B9E60000B9E60000B9E60000B9E60000B9E60000F2
S32D0000C050B9E60000B9E60000B9E60000B9E60000B9E60000B9E60000B9E60000B9E60000B9E60000B9E600008C
S32D0000C078B9E60000B9E60000B9E60000B9E60000B9E60000B9E60000B9E60000B9E60000B9E60000B9E6000064
S32D0000C0A0B9E60000B9E60000B9E60000B9E60000B9E60000B9E60000B9E60000B9E60000B9E60000B9E600003C
S32D0000C0C8B9E60000B9E60000B9E60000B9E60000B9E60000B9E60000B9E60000B9E60000B9E60000B9E6000014
S32D0000C0F0B9E60000B5500100B9E60000B9E60000B9E60000B9E60000B9E60000B9E60000B9E60000B9E6000085
S32D0000C118B9E60000B9E60000B9E60000B9E60000B9E60000B9E60000B9E60000B9E60000B9E60000B9E60000C3
S32D0000C140B9E60000B9E60000B9E60000B9E600005D1B0100B9E60000B9E60000B9E60000B9E60000B9E60000C1
S32D0000C168B9E60000B9E60000B9E60000B9E60000B9E60000B9E60000B9E60000B9E60000B9E60000B9E6000073
S32D0000C190B9E60000B9E60000B9E60000BD15010011140100E514010009E7000095160100B9E60000B9E60000D7
S32D0000C1B8B9E60000B9E60000B9E60000B9E60000B9E60000B9E60000B9E60000B9E60000B9E60000B9E6000023
S32D0000C41081F0004102E000BF83F0004330B54FEA41044FEA430594EA050F08BF90EA020F1FBF54EA000C55EAC6
S32D0000C438020C7FEA645C7FEA655C00F0E2804FEA5454D4EB5555B8BF6D420CDD2C4480EA020281EA030382EA0F
S32D0000C460000083EA010180EA020281EA0303362D88BF30BD11F0004F4FEA01314FF4801C4CEA113102D0404263
S32D0000C48861EB410113F0004F4FEA03334CEA133302D0524263EB430394EA050F00F0A780A4F10104D5F1200E8A
S32D0000C4B00DDB02FA0EFC22FA05F2801841F1000103FA0EF2801843FA05F359410EE0A5F120050EF1200E012A2D
S32D0000C4D803FA0EFC28BF4CF0020C43FA05F3C01851EBE37101F0004507D54FF0000EDCF1000C7EEB00006EEB67
S32D0000C5000101B1F5801F1BD3B1F5001F0CD349085FEA30004FEA3C0C04F101044FEA445212F5800F80F09A8000
S32D0000C528BCF1004F08BF5FEA500C50F1000041EB045141EA050130BD5FEA4C0C404141EB010111F4801FA4F114
S32D0000C5500104E9D191F0000F04BF01460020B1FA81F308BF2033A3F10B03B3F120020CDA0C3208DD02F1140C87
S32D0000C578C2F10C0201FA0CF021FA02F10CE002F11402D8BFC2F1200C01FA02F120FA0CFCDCBF41EA0C019040B1
S32D0000C5A0E41AA2BF01EB0451294330BD6FEA04041F3C1CDA0C340EDC04F11404C4F1200220FA04F001FA02F3B6
S32D0000C5C840EA030021FA04F345EA030130BDC4F10C04C4F1200220FA02F001FA04F340EA0300294630BD21FAA8
S32D0000C5F004F0294630BD94F0000F83F4801306BF81F480110134013D4EE77FEA645C18BF7FEA655C29D094EA1C
S32D0000C618050F08BF90EA020F05D054EA000C04BF1946104630BD91EA030F1EBF0021002030BD5FEA545C05D1A3
S32D0000C6404000494128BF41F0004130BD14F580043CBF01F5801130BD01F0004545F0FE4141F470014FF0000031
S32D0000C66830BD7FEA645C1ABF194610467FEA655C1CBF0B46024650EA013406BF52EA033591EA030F41F40021D7
S32D0000C69030BD00BF90F0000F04BF0021704730B54FF4806404F132044FF000054FF0000150E700BF90F0000F66
S32D0000C6B804BF0021704730B54FF4806404F1320410F0004548BF40424FF000013EE700BF42004FEAE2014FEAF9
S32D0000C6E031014FEA02701FBF12F07F4393F07F4F81F06051704792F0000F14BF93F07F4F704730B54FF460741B
S32D0000C70801F0004521F0004120E700BF50EA010208BF704730B54FF000050AE050EA010208BF704730B511F046
S32D0000C730004502D5404261EB41014FF4806404F132045FEA915C3FF4DCAE4FF003025FEADC0C18BF03325FEAA0
S32D0000C758DC0C18BF033202EBDC02C2F1200300FA03FC20FA02F001FA03FE40EA0E0021FA02F11444C1E600BF19
S32D0000C78070B54FF0FF0C4CF4E06C1CEA11541DBF1CEA135594EA0C0F95EA0C0F00F0DEF82C4481EA030621EAF3
S32D0000C7A84C5123EA4C5350EA013518BF52EA033541F4801143F4801338D0A0FB02CE4FF00005E1FB02E506F05F
S32D0000C7D00042E0FB03E54FF00006E1FB03569CF0000F18BF4EF0010EA4F1FF04B6F5007F64F5407404D25FEA0F
S32D0000C7F84E0E6D4146EB060642EAC62141EA55514FEAC52040EA5E504FEACE2EB4F1FD0C88BFBCF5E06F1ED8D2
S32D0000C820BEF1004F08BF5FEA500E50F1000041EB045170BD06F0004646EA010140EA020081EA0301B4EB5C0487
S32D0000C848C2BFD4EB0C0541EA045170BD41F480114FF0000E013C00F3AB8014F1360FDEBF002001F0004170BDF0
S32D0000C870C4F10004203C35DA0C341BDC04F11404C4F1200500FA05F320FA04F001FA05F240EA020001F0004207
S32D0000C89821F0004110EBD37021FA04F642EB06015EEA430E08BF20EAD37070BDC4F10C04C4F1200500FA04F32F
S32D0000C8C020FA05F001FA04F240EA020001F0004110EBD37041F100015EEA430E08BF20EAD37070BDC4F12005C7
S32D0000C8E800FA05F24EEA020E20FA04F301FA05F243EA020321FA04F001F0004121FA04F220EA020000EBD37028
S32D0000C9105EEA430E08BF20EAD37070BD94F0000F0FD101F00046400041EB010111F4801F08BF013CF7D041EA6D
S32D0000C938060195F0000F18BF704703F00046520043EB030313F4801F08BF013DF7D043EA0603704794EA0C0FF1
S32D0000C9600CEA135518BF95EA0C0F0CD050EA410618BF52EA4306D1D181EA030101F000414FF0000070BD50EA38
S32D0000C988410606BF1046194652EA430619D094EA0C0F02D150EA013613D195EA0C0F05D152EA03361CBF10467B
S32D0000C9B019460AD181EA030101F0004141F0FE4141F470014FF0000070BD41F0FE4141F4780170BD70B54FF04D
S32D0000C9D8FF0C4CF4E06C1CEA11541DBF1CEA135594EA0C0F95EA0C0F00F0A7F8A4EB050481EA030E52EA03359B
S32D0000CA004FEA013100F088804FEA03334FF0805545EA131343EA12634FEA022245EA111545EA10654FEA002676
S32D0000CA280EF000419D4208BF964244F1FD0404F5407402D25B084FEA3202B61A65EB03055B084FEA32024FF461
S32D0000CA5080104FF4002CB6EB020E75EB030E22BFB61A754640EA0C005B084FEA3202B6EB020E75EB030E22BF22
S32D0000CA78B61A754640EA5C005B084FEA3202B6EB020E75EB030E22BFB61A754640EA9C005B084FEA3202B6EBEA
S32D0000CAA0020E75EB030E22BFB61A754640EADC0055EA060E18D04FEA051545EA16754FEA06164FEAC30343EAAC
S32D0000CAC852734FEAC2025FEA1C1CC0D111F4801F0BD141EA00014FF000004FF0004CB6E711F4801F04BF0143AE
S32D0000CAF00020B4F1FD0C88BFBCF5E06F3FF6AFAEB5EB030C04BFB6EB020C5FEA500C50F1000041EB045170BDBC
S32D0000CB180EF0004E4EEA113114EB5C04C2BFD4EB0C0541EA045170BD41F480114FF0000E013C90E645EA060EC3
S32D0000CB408DE60CEA135594EA0C0F08BF95EA0C0F3FF43BAF94EA0C0F0AD150EA01347FF434AF95EA0C0F7FF499
S32D0000CB6825AF104619462CE795EA0C0F06D152EA03353FF4FDAE1046194622E750EA410618BF52EA43067FF432
S32D0000CB90C5AE50EA41047FF40DAF52EA43057FF4EBAE12E74FF0FF3C06E000BF4FF0010C02E000BF4FF0010C75
S32D0000CBB84DF804CD4FEA410C7FEA6C5C4FEA430C18BF7FEA6C5C1BD001B050EA410C0CBF52EA430C91EA030FEC
S32D0000CBE002BF90EA020F0020704710F1000F91EA030F58BF994208BF90422CBFD8176FEAE37040F0010070476E
S32D0000CC084FEA410C7FEA6C5C02D150EA013C07D14FEA430C7FEA6C5CD6D152EA033CD3D05DF8040B704700BFCD
S32D0000CC308446104662468C461946634600E000BF01B5FFF7B7FF002848BF10F1000F01BD4DF808EDFFF7F4FF13
S32D0000CC580CBF012000205DF808FB00BF4DF808EDFFF7EAFF34BF012000205DF808FB00BF4DF808EDFFF7E0FF18
S32D0000CC8094BF012000205DF808FB00BF4DF808EDFFF7CEFF94BF012000205DF808FB00BF4DF808EDFFF7C4FF40
S32D0000CCA834BF012000205DF808FB00BF4FEA410212F5001215D211D56FF47873B3EB625212D94FEAC12343F0D6
S32D0000CCD0004343EA505311F0004F23FA02F018BF404270474FF00000704750EA013005D111F0004008BF6FF016
S32D0000CCF8004070474FF00000704700BF4A0011D212F5001211D20DD56FF47873B3EB62520ED44FEAC12343F085
S32D0000CD20004343EA505323FA02F070474FF00000704750EA013002D14FF0FF3070474FF0000070474FEA410241
S32D0000CD48B2F1E04324BFB3F5001CDCF1FE5C0DD901F0004C4FEAC0024CEA5070B2F1004F40EB830008BF20F09E
S32D0000CD700100704711F0804F21D113F13872BCBF01F00040704741F480114FEA5252C2F11802C2F1200C10FAB1
S32D0000CD980CF320FA02F018BF40F001004FEAC1234FEAD32303FA0CFC40EA0C0023FA02F34FEA4303CCE77FEA26
S32D0000CDC0625307D150EA01331EBF4FF0FE4040F44000704701F0004040F0FE4040F40000704700BF80F00040CC
S32D0000CDE802E000BF81F0004142001FBF5FEA410392EA030F7FEA226C7FEA236C6AD04FEA1262D2EB1363C1BF06
S32D0000CE10D218414048404140B8BF5B42192B88BF704710F0004F40F4000020F07F4018BF404211F0004F41F4FA
S32D0000CE38000121F07F4118BF494292EA030F3FD0A2F1010241FA03FC10EB0C00C3F1200301FA03F100F000432B
S32D0000CE6002D5494260EB4000B0F5000F13D3B0F1807F06D340084FEA310102F10102FE2A51D2B1F1004F40EB94
S32D0000CE88C25008BF20F0010040EA03007047490040EB000010F4000FA2F10102EDD1B0FA80FCACF1080CB2EB5F
S32D0000CEB00C0200FA0CF0AABF00EBC25052421843BCBFD0401843704792F0000F81F4000106BF80F400000132EB
S32D0000CED8013BB5E74FEA41037FEA226C18BF7FEA236C21D092EA030F04D092F0000F08BF0846704790EA010FD7
S32D0000CF001CBF0020704712F07F4F04D1400028BF40F00040704712F100723CBF00F50000704700F0004343F0DC
S32D0000CF28FE4040F4000070477FEA226216BF08467FEA23630146420206BF5FEA412390EA010F40F480007047C1
S32D0000CF504FF0000304E000BF10F0004348BF40425FEA000C08BF704743F0964301464FF000001CE050EA010264
S32D0000CF7808BF70474FF000030AE000BF50EA010208BF704711F0004302D5404261EB41015FEA010C02BF84465B
S32D0000CFA00146002043F0B64308BFA3F18053A3F50003BCFA8CF2083AA3EBC25310DB01FA02FC634400FA02FC6B
S32D0000CFC8C2F12002BCF1004F20FA02F243EB020008BF20F00100704702F1200201FA02FCC2F1200250EA4C0034
S32D0000CFF021FA02F243EB020008BF20EADC7070474FF0FF0C1CEAD0521EBF1CEAD15392EA0C0F93EA0C0F6FD019
S32D0000D0181A4480EA010C400218BF5FEA41211ED04FF0006343EA501043EA5111A0FB01310CF00040B1F5000FE7
S32D0000D0403EBF490041EAD3715B0040EA010062F17F02FD2A1DD8B3F1004F40EBC25008BF20F00100704790F058
S32D0000D068000F0CF0004C08BF49024CEA502040EA51207F3AC2BFD2F1FF0340EAC250704740F400004FF0000388
S32D0000D090013A5DDC12F1190FDCBF00F000407047C2F10002410021FA02F1C2F1200200FA02FC5FEA310040F1D5
S32D0000D0B8000053EA4C0308BF20EADC70704792F0000F00F0004C02BF400010F4000F013AF9D040EA0C0093F04C
S32D0000D0E0000F01F0004C02BF490011F4000F013BF9D041EA0C018FE70CEAD15392EA0C0F18BF93EA0C0F0AD00B
S32D0000D10830F0004C18BF31F0004CD8D180EA010000F00040704790F0000F17BF90F0004F084691F0000F91F0BB
S32D0000D130004F14D092EA0C0F01D142020FD193EA0C0F03D14B0218BF084608D180EA010000F0004040F0FE4051
S32D0000D15840F40000704740F0FE4040F4400070474FF0FF0C1CEAD0521EBF1CEAD15392EA0C0F93EA0C0F69D044
S32D0000D180A2EB030280EA010C49024FEA402037D04FF0805343EA111143EA10130CF000408B4238BF5B0042F14E
S32D0000D1A87D024FF4000C8B4224BF5B1A40EA0C00B3EB510F24BFA3EB510340EA5C00B3EB910F24BFA3EB9103A4
S32D0000D1D040EA9C00B3EBD10F24BFA3EBD10340EADC001B0118BF5FEA1C1CE0D1FD2A3FF650AF8B4240EBC25018
S32D0000D1F808BF20F0010070470CF0004C4CEA50207F32C2BFD2F1FF0340EAC250704740F400004FF00003013AF1
S32D0000D22037E792F0000F00F0004C02BF400010F4000F013AF9D040EA0C0093F0000F01F0004C02BF490011F4C9
S32D0000D248000F013BF9D041EA0C0195E70CEAD15392EA0C0F08D142027FF47DAF93EA0C0F7FF470AF084676E7AE
S32D0000D27093EA0C0F04D14B023FF44CAF08466EE730F0004C18BF31F0004CCAD130F000427FF45CAF31F0004376
S32D0000D2987FF43CAF5FE700BF4FF0FF3C06E000BF4FF0010C02E000BF4FF0010C4DF804CD4FEA40024FEA41039F
S32D0000D2C07FEA226C18BF7FEA236C11D001B052EA530C18BF90EA010F58BFB2EB030088BFC81738BF6FEAE1706E
S32D0000D2E818BF40F0010070477FEA226C02D15FEA402C05D17FEA236CE4D15FEA412CE1D05DF8040B704700BF16
S32D0000D310844608466146FFE70FB5FFF7C9FF002848BF10F1000F0FBD4DF808EDFFF7F4FF0CBF012000205DF839
S32D0000D33808FB00BF4DF808EDFFF7EAFF34BF012000205DF808FB00BF4DF808EDFFF7E0FF94BF012000205DF8A9
S32D0000D36008FB00BF4DF808EDFFF7D2FF94BF012000205DF808FB00BF4DF808EDFFF7C8FF34BF012000205DF8B1
S32D0000D38808FB00BF4FEA4002B2F1FE4F0FD34FF09E03B3EB12620DD94FEA002343F0004310F0004F23FA02F060
S32D0000D3B018BF404270474FF00000704712F1610F01D1420205D110F0004008BF6FF0004070474FF00000704797
S32D0000D3D880B500AF00F072F84FF00003184680BD80B500AF41F22840C1F6FF704FF0000105F0CEFA41F22840CF
S32D0000D400C1F6FF706FF07F4105F024FB4FF00A004FF00A0100F0FAFB41F22840C1F6FF7047F69811C0F20101D2
S32D0000D42805F0ACFD41F23810C1F6FF7004F096F9034641F22840C1F6FF70194605F0FEFC41F22840C1F6FF70FB
S32D0000D45047F6A811C0F2010105F094FD41F23810C1F6FF7004F07EF9034641F22840C1F6FF70194605F0E6FC32
S32D0000D47841F22840C1F6FF7047F6B811C0F2010105F07CFD41F27440C1F6FF7007F06AFC034641F22840C1F698
S32D0000D4A0FF70194605F0E8FC6FF009004FF00A0100F0ACFB4FF000004FF0804103F014FD80BD00BFB0B5ADF528
S32D0000D4C8C46D06AF41F22840C1F6FF7044F64F71C0F22F0105F05CFA41F22840C1F6FF7042F62F71C0F24F01CD
S32D0000D4F005F0B0FA3B461D464FF0050406E0284607F072F805F1EC0504F1FF34B4F1FF3F0CBF00230123DBB2FD
S32D0000D518002BF0D107F5B1624FF0780310464FF000011A4609F0A9F947F25253C0F26E03C7F8883507F5B06313
S32D0000D54003F10C034FF000021A6003F104034FF000021A6003F104034FF000021A6003F104034FF000021A60DD
S32D0000D56803F1040347F60822C0F2010207F5B26303F10C0307CA03C31A8007F5B46303F106034FF000021A804E
S32D0000D59003F102034FF000021A8003F102034FF000021A8003F102034FF000021A8003F102034FF000021A801D
S32D0000D5B803F1020347F61C22C0F2010207F5B66307CA03C31A7007F5B66303F109034FF000021A7003F101030E
S32D0000D5E04FF000021A7003F101034FF000021A7003F101034FF000021A7003F101034FF000021A7003F1010311
S32D0000D6084FF000021A7003F101034FF000021A7003F101034FF000021A7003F101034FF000021A7003F10103E8
S32D0000D6304FF000021A7003F101034FF000021A7003F1010347F63023C0F2010307F5B86202F1040293E8030073
S32D0000D65882E8030007F5B86303F10C034FF000021A6003F104034FF000021A6003F104034FF000021A6003F102
S32D0000D680040347F64422C0F2010207F5BB6392E80300186003F10403198007F5BA6303F10E034FF000021A8081
S32D0000D6A803F102034FF000021A8003F102034FF000021A8003F102034FF000021A8003F102034FF000021A8004
S32D0000D6D003F102034FF000021A8003F102034FF000021A8003F1020347F65823C0F2010307F5BC6404F10C04FC
S32D0000D6F893E8070084E807004FF00003C7F8F8354FF00003C7F8FC353A464FF0140300934FF03C0301934FF0F5
S32D0000D7203C03029307F5B163039341F67013C0F21903049342F62F73C0F24F03059310464FF003014FF00202F0
S32D0000D7484FF0140307F0BAF900E000BF07F5C06202F1040207F5C06341F22840C1F6FF7011461A4605F008FA6F
S32D0000D770D7F80426D7F800363946084611461A464FF0000307F082F80346002B0CBF00230123DBB2002B02D046
S32D0000D79800F04AF9D9E7D7F80426D7F80036394601F1EC01084611461A464FF0000307F069F80346002B0CBF36
S32D0000D7C000230123DBB2002B26D041F29040C1F6FF7008F0EDF93A464FF0140300934FF03C0301934FF03C0346
S32D0000D7E8029307F5B163039341F67013C0F21903049342F62F73C0F24F03059310464FF003014FF002024FF028
S32D0000D810140307F057F99CE7D7F80426D7F80036394601F5EC71084611461A464FF0000307F02CF80346002B63
S32D0000D8380CBF00230123DBB2002B02D000F0FCF883E7D7F80426D7F80036394601F53171084611461A464FF07F
S32D0000D860000307F013F80346002B0CBF00230123DBB2002B02D000F021F96AE7D7F80426D7F80036394601F5B7
S32D0000D8886C71084611461A464FF0000306F0FAFF0346002B0CBF00230123DBB2002B02D0FFF79EFD51E7D7F8B7
S32D0000D8B00416D7F800263B4603F5926303F10C0318464FF0000306F0E1FF0346002B0CBF00230123DBB2002B16
S32D0000D8D83FF43BAF41F22840C1F6FF7047F6CC11C0F2010105F04AFB4FF01E004FF48C7100F088F941F2284093
S32D0000D900C1F6FF7047F6D411C0F2010105F03AFB4FF01E004FF0710100F0C0FA41F22840C1F6FF7047F6CC1140
S32D0000D928C0F2010105F02AFB4FF01E004FF48C7100F068F941F22840C1F6FF7047F6E011C0F2010105F01AFB68
S32D0000D9504FF01E004FF0E20100F0F8FA41F22840C1F6FF7047F6CC11C0F2010105F00AFB4FF01E004FF48C7122
S32D0000D97800F048F941F22840C1F6FF7047F6E011C0F2010105F0FAFA4FF01E004FF0710100F0D8FA41F2284059
S32D0000D9A0C1F6FF7047F6CC11C0F2010105F0EAFA4FF01E004FF48C7100F028F941F22840C1F6FF7047F6E011EF
S32D0000D9C8C0F2010105F0DAFA4FF01E004FF0E20100F0B8FA41F22840C1F6FF7047F6EC11C0F2010105F0CAFA2B
S32D0000D9F041F22810C1F6FF7000F012FF41F23010C1F6FF7000F00CFF4FF000004FF0804103F06AFA41F22840B2
S32D0000DA18C1F6FF7047F6F411C0F2010105F0AEFA00F022FB91E600BF80B500AF00F0F4FA00F072F880BD00BFCC
S32D0000DA4080B500AF41F22840C1F6FF7047F66C21C0F2010105F096FA41F22840C1F6FF7047F6CC11C0F2010181
S32D0000DA6805F08CFA4FF014004FF0700100F0CAF841F22840C1F6FF7047F67C21C0F2010105F07CFA4FF0140053
S32D0000DA904FF0710100F05AFA41F22840C1F6FF7047F6CC11C0F2010105F06CFA4FF014004FF40C7100F0AAF8E4
S32D0000DAB880BD00BF80B582B000AF4FF000004FF07E5101F5C00103F00BFA0DE041F24010C1F6FF7003F07CFE2F
S32D0000DAE0034641F22840C1F6FF70194605F05EFA07F104023B4641F22840C1F6FF7011461A4605F03DF80346F8
S32D0000DB0883F00103DBB2002BE0D100F005F807F10807BD4680BD00BF80B500AF41F22840C1F6FF7047F6842195
S32D0000DB30C0F2010105F026FA4FF014004FF0A80100F064F84FF014004FF0710100F0A6F94FF014004FF0C4018D
S32D0000DB5800F058F84FF014004FF0710100F09AF94FF020004FF01E014FF0700200F0EEF84FF02A004FF02801C3
S32D0000DB804FF0700200F0E6F84FF032004FF030014FF0700200F0DEF84FF028004FF0A80100F034F84FF01E00D8
S32D0000DBA84FF0380100F02EF84FF014004FF0710100F0C8F94FF014004FF08C0100F022F84FF014004FF07101DF
S32D0000DBD000F064F94FF014004FF40C7100F016F86FF013004FF0C40100F010F84FF014004FF0710100F0AAF9C4
S32D0000DBF86FF013004FF4A87100F004F800F014FB80BD00BFF0B585B000AF7860396041F23C10C1F6FF7003F0B8
S32D0000DC20B5FD41F23810C1F6FF7003F0AFFD7868FFF792F9034641F23010C1F6FF70194600F03EFE7868FFF740
S32D0000DC4887F9034641F22810C1F6FF70194600F033FE03F071F902460B4610461946FFF76DF80346FB6000BF6B
S32D0000DC7041F23810C1F6FF7003F074FD044641F23C10C1F6FF7003F06DFD0346E3181846FEF710FD02460B46F8
S32D0000DC98104619464FF000024FF08043FEF796FE02460B4614461D463868FEF7FFFC02460B464FF001010E46C9
S32D0000DCC020462946FEF7CEFF0346002B02D14FF000031E46F3B2002B27D003F031F904460D46F868FEF7F8FCE8
S32D0000DCE802460B4620462946FEF792FB02460B464FF001010C46104619464FF000024FF0804303F5E013FEF71A
S32D0000DD10A9FF0346002B02D14FF000031C46E3B2002B02D04FF0010301E04FF00003002B9ED141F23010C1F696
S32D0000DD38FF7000F071FD41F22810C1F6FF7000F06BFD07F11407BD46F0BD00BFF0B587B000AFF860B9607A60AF
S32D0000DD6041F23C10C1F6FF7003F010FD41F23810C1F6FF7003F00AFDB868FFF7EDF8034641F23010C1F6FF7078
S32D0000DD88194600F099FDF868FFF7E2F8034641F22810C1F6FF70194600F08EFD03F0CCF802460B46104619469F
S32D0000DDB0FEF7C8FF03467B6100BF41F23810C1F6FF7003F0CFFC044641F23C10C1F6FF7003F0C8FC0346E3185C
S32D0000DDD81846FEF76BFC02460B46104619464FF000024FF08043FEF7F1FD02460B4614461D467868FEF75AFC6E
S32D0000DE0002460B464FF001010E4620462946FEF729FF0346002B02D14FF000031E46F3B2002B27D003F08CF8A9
S32D0000DE2804460D467869FEF753FC02460B4620462946FEF7EDFA02460B464FF001010C46104619464FF000029E
S32D0000DE504FF0804303F5E013FEF704FF0346002B02D14FF000031C46E3B2002B02D04FF0010301E04FF00003DC
S32D0000DE78002B9ED141F23010C1F6FF7000F0CCFC41F22810C1F6FF7000F0C6FC07F11C07BD46F0BD90B583B00B
S32D0000DEA000AF7860396041F23C10C1F6FF7003F06DFC41F23810C1F6FF7003F067FC7B68C3F100031846FFF74E
S32D0000DEC847F8034641F22810C1F6FF70194600F0F3FC7868FFF73CF8034641F23010C1F6FF70194600F0E8FCB6
S32D0000DEF000BF41F23810C1F6FF7003F033FC044641F23C10C1F6FF7003F02CFC0346E3184FEAD372D3184FEA92
S32D0000DF1863031A463B689A42ACBF00230123DBB2002BE2D141F23010C1F6FF7000F074FC41F22810C1F6FF70EF
S32D0000DF4000F06EFC07F10C07BD4690BD90B583B000AF7860396041F23C10C1F6FF7003F015FC41F23810C1F68B
S32D0000DF68FF7003F00FFC7868FEF7F2FF034641F22810C1F6FF70194600F09EFC7B68C3F100031846FEF7E4FFC5
S32D0000DF90034641F23010C1F6FF70194600F090FC00BF41F23810C1F6FF7003F0DBFB044641F23C10C1F6FF708E
S32D0000DFB803F0D4FB0346E3184FEAD372D3184FEA630319463A6813464FEA03139A1A4DF60563C4F67E0383FB6C
S32D0000DFE002034FEA63104FEAE273C31A3A68D31A9942ACBF00230123DBB2002BD1D141F23010C1F6FF7000F0F8
S32D0000E0080BFC41F22810C1F6FF7000F005FC07F10C07BD4690BD00BF98B500AF00BF41F24010C1F6FF7003F0F0
S32D0000E030D3FB03461846FEF74FFB02460B464FF001010C461046194607A3D3E90023FEF727FE0346002B02D143
S32D0000E0584FF000031C46E3B2002BE0D198BD00BF295C8FC2F528FC3F80B500AF41F22440C1F6FF704FF4DC7112
S32D0000E0804FF0C80203F076FF41F22440C1F6FF7040F20B214FF0C80203F06CFF41F22440C1F6FF704FF4DC7132
S32D0000E0A84FF0960203F062FF41F22440C1F6FF704FF4DC714FF0320203F058FF41F22440C1F6FF7040F24B21BA
S32D0000E0D04FF0640203F04EFF41F22440C1F6FF704FF4C4714FF0640203F044FF41F22440C1F6FF7040F25D11D0
S32D0000E0F84FF0640203F03AFF41F22440C1F6FF704FF4DC714FF0C80203F030FF41F22440C1F6FF7040F293210E
S32D0000E1204FF0C80203F026FF41F22440C1F6FF704FF4DC714FF0960203F01CFF41F22440C1F6FF704FF4DC7131
S32D0000E1484FF0320203F012FF41F22440C1F6FF7040F2BA214FF0640203F008FF41F22440C1F6FF7040F2932126
S32D0000E1704FF0640203F0FEFE41F22440C1F6FF7040F205114FF0640203F0F4FE41F22440C1F6FF704FF4DC7111
S32D0000E1984FF0640203F0EAFE41F22440C1F6FF7040F20B214FF0640203F0E0FE41F22440C1F6FF704FF45C717B
S32D0000E1C04FF0640203F0D6FE41F22440C1F6FF704FF4C4714FF0960203F0CCFE41F22440C1F6FF704FF4C471C7
S32D0000E1E84FF0320203F0C2FE41F22440C1F6FF704FF4A5714FF0640203F0B8FE41F22440C1F6FF704FF4F77117
S32D0000E2104FF0640203F0AEFE41F22440C1F6FF704FF4DC714FF0C80203F0A4FE80BD00BF80B500AF4FF014007E
S32D0000E2384FF07001FFF7E6FC41F22810C1F6FF70054900F039FB41F23010C1F6FF70034900F032FB80BD00BF2F
S32D0000E2600000C8C10000C84180B582B000AF786039607B68012B46D13A684FF6FF739A4241D141F21C10C1F6F4
S32D0000E288FF704FF0010103F091FA41F22010C1F6FF704FF0020103F089FA41F22410C1F6FF704FF0030103F036
S32D0000E2B081FA41F22810C1F6FF704FF00001144A00F056FA41F23010C1F6FF704FF001010F4A00F04DFA41F2B9
S32D0000E2D83810C1F6FF704FF01F0102F087FE41F23C10C1F6FF704FF0000102F07FFE41F24010C1F6FF704FF098
S32D0000E300010103F057FA07F10807BD4680BD00BF0000404180B500AF4FF001004FF6FF71FFF7A2FF80BD00BFB6
S32D0000E32880B500AF41F2F462C1F6FF7241F21C13C1F6FF73D31A194641F21C13C1F6FF731A460B4610464FF08A
S32D0000E35000011A4608F095FA80BD00BF09F00AFB00F0B0F9FFF7E0FF09F0DCFA09F078FA09F010FB00F00CF81D
S32D0000E3784FF0000041F24411C1F6FF71FFF728F80346184608F054FA80B500AF4FF4E043C4F204034FF4E0421A
S32D0000E3A0C4F2040202F5805202F13802126842F4785203F5805303F138031A6000F02EF900F094F841F2743342
S32D0000E3C8C1F6FF734FF058021A6041F27433C1F6FF731B684FF47A7202FB03F241F27033C1F6FF731A6041F298
S32D0000E3F07033C1F6FF731B681A464FF4E043C4F2040303F5825303F104031B6803F070634FEA136303F1010375
S32D0000E418B2FBF3F31A4641F27833C1F6FF731A604FF4E043C4F204034FF4E042C4F2040202F5805202F13C0224
S32D0000E440126842F0225203F5805303F13C031A604FF4E043C4F204034FF4E042C4F2040202F5805202F13002E4
S32D0000E468126842F0006203F5805303F130031A604FF45043C4F203034FF480721A614FF0640002F0A5FB4FF452
S32D0000E4905043C4F203034FF45042C4F20302526922F010025A614FF45043C4F203034FF000021A604FF45043C2
S32D0000E4B8C4F203034FF010025A6103F0BBFA03F063FB41F26C30C1F6FF7002F005FC41F22840C1F6FF7004F0D8
S32D0000E4E0A9F841F2883002F0E3FC80BD80B400AF4FF48043C4F206034FF000025A704FF48043C4F206034FF0BD
S32D0000E50898021A704FF48043C4F206039B79DBB203F01003002B0CBF00230123DBB2002BF0D14FF48043C4F2E3
S32D0000E53006039B79DBB203F00C034FEA9303022B0CBF00230123DBB2002BEED14FF48043C4F206034FF018026E
S32D0000E5581A714FF48043C4F206034FF000025A714FF4E043C4F2040303F5825303F104034FF00002C0F2131236
S32D0000E5801A604FF48043C4F206034FF054025A7100BF4FF48043C4F206039B79DBB203F02003002B14BF002372
S32D0000E5A80123DBB2002BF0D100BF4FF48043C4F206039B79DBB203F04003002B14BF00230123DBB2002BF0D18F
S32D0000E5D04FF48043C4F206034FF48042C4F206021278D2B202F03F02D2B21A704FF48043C4F206039B79DBB2E0
S32D0000E5F803F00C034FEA9303032B0CBF00230123DBB2002BEED14FF000031846BD4680BC704700BF80B400AF35
S32D0000E6204FF44043C4F204034FF480725A634FF2C003C4F20F034FF2C002C4F20F02526942F400525A614FF282
S32D0000E648C003C4F20F034FF2C002C4F20F02126842F400521A604FF44043C4F2040340F20312C0F20A021A63CE
S32D0000E6704FF46143CEF200034FF46142CEF20002D2F8882142F08062C3F888214FF46143CEF200034FF46142AF
S32D0000E698CEF20002926842F080629A60BD4680BC704700BF80B483B000AF7860FEE700BF80B400AF00BEBD469F
S32D0000E6C080BC704780B400AF4FF0E0224CF20003C0F20003C2F8083D4FF40053C4F205034CF22052DA814FF47E
S32D0000E6E80053C4F205034DF62812DA814FF40053C4F205034FF0D2021A80BD4680BC704780B500AF4FF440437A
S32D0000E710C4F20403D3F8A03003F48053002B0CBF00230123DBB2002B1FD04FF44043C4F204034FF44042C4F2D7
S32D0000E7380402D2F8A02022F48052C3F8A02041F2B040C1F6FF7007F0F9FF4FF2C003C4F20F034FF2C002C4F203
S32D0000E7600F02126822F400521A6080BD0000000090B585B000AFF8600B467A60FB72FB68FA7A1A71FB684FF0C4
S32D0000E78800025A714FF001031C4678682049FEF7EFFD0346002B02D14FF000031C46E3B2002B02D01A4B7B600A
S32D0000E7B011E04FF001031C4678681849FEF7C8FD0346002B02D14FF000031C46E3B2002B01D0124B7B60786816
S32D0000E7D8FDF77EFF02460B46104619460AA3D3E90023FDF7C9FF02460B4610461946FEF7A5FA0246FB681A6005
S32D0000E800FB68184607F11407BD4690BDAFF30080ABAAAAAAAAAA2040000040410000803F80B582B000AF786019
S32D0000E8287B685B79002B10D07B684FF000025A717B681B7941F26C30C1F6FF7019464FF000024FF01E0302F0B3
S32D0000E85091FA07F10807BD4680BD00BF80B584B000AF786039603B687F2B03DD4FF07F03FB7309E03B6813F194
S32D0000E878800F03DA4FF08003FB7301E03B68FB737B685B79FA7B9A420FD07B68FA7B5A717B681A79FB7B41F2BB
S32D0000E8A06C30C1F6FF7011461A464FF01E0302F061FA07F11007BD4680BD00BF00000000B0B584B000AF7860F6
S32D0000E8C839604FF001031C4638684D49FEF732FD0346002B02D14FF000031C46E3B2002B02D0474B3B6011E0EF
S32D0000E8F04FF001031C4638684449FEF73DFD0346002B02D14FF000031C46E3B2002B01D03E4B3B603868FDF7C5
S32D0000E918DFFE04460D467B681B681846FDF7D8FE02460B46104619464FF000024FF0804303F5B203FEF74AF854
S32D0000E94002460B4620462946FDF71AFF02460B4610461946FEF7F6F903463B604FF001031C4638682A49FEF76B
S32D0000E968FDFC0346002B02D14FF000031C46E3B2002B14D03868FDF7ABFE02460B46104619461DA3D3E90023CF
S32D0000E990FDF7F6FE02460B4610461946FEF78AF90346FB6022E03868FDF796FE02460B46104619464FF000024E
S32D0000E9B84FF0804303F5C003FDF7DEFE02460B46104619464FF000024FF0804303F5B203FDF7FCFF02460B46DE
S32D0000E9E010461946FEF766F90346FB607868F968FFF734FF07F11007BD46B0BDAFF3008052B81E85EB51F43F35
S32D0000EA080000C8C20000C84200000000AFF3008080B485B000AF02460B46FA71BB71BB79002B07D141F248131D
S32D0000EA30C1F6FF734FF000021A7006E041F24813C1F6FF734FF001021A704FF03803FB7341F24813C1F6FF73BC
S32D0000EA581A78FB7B1343FB734FF4C043C4F206034FF4C042C4F206029278D2B242F01002D2B29A704FF4C04316
S32D0000EA80C4F206034FF4C042C4F206029278D2B242F02002D2B29A704FF4C043C4F20603FA7B1A7107F114071E
S32D0000EAA8BD4680BC704700BF80B483B000AF4FF001037B6004E000BF7B6803F101037B607B68312BCCBF002311
S32D0000EAD00123DBB2002BF2D107F10C07BD4680BC704700BF80B582B000AF02460B46FA71BB7141F24913C1F62D
S32D0000EAF8FF731B7818464FF00001FFF789FF4FF4C043C4F20603DB78DBB203F00203002B14BF00230123DBB220
S32D0000EB20002BF0D14FF4C043C4F206034FF4C042C4F20602D278D2B242F00202D2B2DA704FF4C043C4F20603FC
S32D0000EB48FA791A714FF4C043C4F20603DB78DBB203F00203002B14BF00230123DBB2002BF0D14FF4C043C4F20A
S32D0000EB7006034FF4C042C4F20602D278D2B242F00202D2B2DA704FF4C043C4F20603BA791A714FF4C043C4F2DA
S32D0000EB980603DB78DBB203F00203002B14BF00230123DBB2002BF0D14FF4C043C4F206034FF4C042C4F20602A8
S32D0000EBC0D278D2B242F00202D2B2DA704FF4C043C4F206034FF4C042C4F206029278D2B222F02002D2B29A70FD
S32D0000EBE84FF4C043C4F206034FF4C042C4F206029278D2B222F01002D2B29A70FFF754FF07F10807BD4680BD27
S32D0000EC1080B582B000AF0346FB71FB79184600F06BF807F10807BD4680BD00BF80B582B000AF02460B46FA71C6
S32D0000EC38BB7100F039F8FB794FEA4303DBB21846FFF7E2FFBB791846FFF7DEFF00F03EF807F10807BD4680BDDA
S32D0000EC6080B500AF4FF0FF0000F046F80346184680BD00BF80B584B000AF0346FB7100F017F8FB794FEA4303D4
S32D0000EC88DBB243F00103DBB2DBB21846FFF7BCFFFFF7E2FF0346FB7300F018F8FB7B184607F11007BD4680BDC0
S32D0000ECB080B400AF4FF24003C4F20F034FF24002C4F20F02926842F480129A60BD4680BC704700BF80B400AF69
S32D0000ECD84FF24003C4F20F034FF24002C4F20F02526842F480125A60BD4680BC704700BF80B485B000AF034626
S32D0000ED00FB714FF00003BB7303E0FB7B03F10103FB734FF44043C4F20A03DB6A4FF00003002BF2D14FF4404386
S32D0000ED28C4F20A034FF44042C4F20A02D26A42F00042DA624FF44043C4F20A03FA795A6300BF4FF44043C4F293
S32D0000ED500A03DB6A03F40033002B14BF00230123DBB2002BF1D14FF44043C4F20A039B6BBB73BB7B184607F111
S32D0000ED781407BD4680BC704780B582B000AF4FF4E043C4F204034FF4E042C4F2040202F5805202F1300212689A
S32D0000EDA042F4805203F5805303F130031A604FF42043C4F204034FF480721A654FF24003C4F20F034FF24002EB
S32D0000EDC8C4F20F02526942F480125A61FFF77EFF4FF42043C4F204034FF400725A654FF42043C4F204034FF428
S32D0000EDF000729A654FF42043C4F204034FF40072DA654FF44043C4F20A034FF44062C8F200021A604FF44043C3
S32D0000EE18C4F20A034FF00502C3F60062DA604FF000037B6007E04FF0FF00FFF7EDFE7B6803F101037B607B68B2
S32D0000EE40092BCCBF00230123DBB2002BEFD104A1D1E9000102F048F807F10807BD4680BD9A9999999999B93FBE
S32D0000EE6890B486B000AFF860B9607A60FA684FF42043C4F206039A4214D14FF4E043C4F204034FF4E042C4F242
S32D0000EE90040202F5805202F13402126842F4806203F5805303F134031A6083E0FA684FF43043C4F206039A4244
S32D0000EEB814D14FF4E043C4F204034FF4E042C4F2040202F5805202F13402126842F4006203F5805303F1340309
S32D0000EEE01A6067E0FA684FF44043C4F206039A4214D14FF4E043C4F204034FF4E042C4F2040202F5805202F19B
S32D0000EF083402126842F4805203F5805303F134031A604BE0FA684FF45043C4F206039A4214D14FF4E043C4F2B4
S32D0000EF3004034FF4E042C4F2040202F5805202F13402126842F4005203F5805303F134031A602FE0FA684FF473
S32D0000EF582043C4F20E039A4214D14FF4E043C4F204034FF4E042C4F2040202F5805202F12802126842F48062E4
S32D0000EF8003F5805303F128031A6013E04FF4E043C4F204034FF4E042C4F2040202F5805202F12802126842F432
S32D0000EFA8006203F5805303F128031A60FB68DB78DBB223F00C03DAB2FB68DA70FB684FF000029A70BB684FF4C3
S32D0000EFD07A7202FB03F27B684FEA031392FBF3F39CB2FB681B78DBB223F01F03FB75234603F4F8534FEA2323F0
S32D0000EFF8DBB203F01F03DAB2FB7D1343DAB2FB681A70E2B2FB685A70BB684FF4FA4202FB03F27B684FEA0313EF
S32D0000F02092FBF3F39AB2234619464FEAC121CB1A4FEA43139BB2D3189CB2FB689B7ADBB223F01F03FB75E3B2E7
S32D0000F04803F01F03DAB2FB7D1343DAB2FB689A72FB68DB78DBB243F00C03DAB2FB68DA7007F11807BD4690BC0C
S32D0000F070704700BF80B483B000AF786000BF7B681B79DBB203F02003002B14BF00230123DBB2002BF3D17B6891
S32D0000F098DB79DBB2184607F10C07BD4680BC704780B483B000AF78600B46FB7000BF7B681B79DBB2DBB26FEAB7
S32D0000F0C00303DBB24FEAD313DBB2002BF3D17B68FA78DA7107F10C07BD4680BC704700BF80B487B000AFF86022
S32D0000F0E8B9607A60FB687B6107E0BB68DAB27B691A707B6903F101037B617B68002B0CBF00230123DBB27A687D
S32D0000F11002F1FF327A60002BEBD107F11C07BD4680BC704780B584B000AF786039607B681B6BFB60FA683B6889
S32D0000F1389A4264D07B681B79002B43D07B685A787B6803F1340310461946FA684FF0010301F0ACFB0346002BBB
S32D0000F1600CBF00230123DBB2002B02D04FF001034BE07B684FF000021A717B685A6A7B681B6AD218FB689A4290
S32D0000F18820D97B68DB78FB7214E07B681B6AFA68D318FB607B685A787B6803F1340310461946FA684FF001039C
S32D0000F1B001F080FBFB7A03F1FF33FB72FB7A012B94BF00230123DBB2002BE2D13B68002B19D07B685A787B68C8
S32D0000F1D803F13403104619463A684FF0010301F057FA0346002B0CBF00230123DBB2002B02D04FF0010304E0CB
S32D0000F2007B683A681A634FF00003184607F11007BD4680BD80B584B000AF786078684FF00001FFF77FFF034622
S32D0000F228FB73FB7B002B40F0AE807B681B78032B40F095807B685B79002B00F090807B684FF000021A637B68FC
S32D0000F25003F1340318464FF000014FF40072FFF73FFF7B684FF0550283F832227B684FF0AA0283F833227B6815
S32D0000F2784FF0520283F834207B684FF0520283F835207B684FF0610283F836207B684FF0410283F837207B6850
S32D0000F2A04FF0720283F818227B684FF0720283F819227B684FF0410283F81A227B684FF0610283F81B227B6850
S32D0000F2C81B69DAB27B6883F81C227B681B699BB24FEA2323DAB27B6883F81D227B681B694FEA1343DAB27B68AB
S32D0000F2F083F81E227B681B694FEA1363DAB27B6883F81F227B68DB68DAB27B6883F820227B68DB689BB24FEAF6
S32D0000F3182323DAB27B6883F821227B68DB684FEA1343DAB27B6883F822227B68DB684FEA1363DAB27B6883F8B2
S32D0000F34023227B6859787B6803F134027B685B69084611461A464FF0010301F0ABFA7B684FF000025A717B6842
S32D0000F3685B7818464FF000014FF0000201F084FB0346002B0CBF00230123DBB2002B02D04FF00103FB73FB7B1E
S32D0000F390184607F11007BD4680BD00BF80B582B000AF78600B467B807B68002B08D07B681B78002B04D07B686B
S32D0000F3B8DB887A889A4202D04FF009030FE07B685B78184601F0ECFB034603F00103DBB2002B02D04FF00303DF
S32D0000F3E001E04FF00003184607F10807BD4680BD80B586B000AF78607B681A687B689B8810461946FFF7CAFF66
S32D0000F4080346FB75FB7D002B40F0C8807B689B7903F02003002B00F0C1807B689B7903F04003002B20D07B686E
S32D0000F4301B6859787B6803F128027B689B69084611461A464FF0010301F034FA0346002B0CBF00230123DBB2F8
S32D0000F458002B02D04FF00103A1E07B689B7923F04003DAB27B689A717B681A687B68DB6910461946FFF752FE77
S32D0000F4800346FB75FB7D002B40F08C807B681B6A3B613B6903F10B033A6902F10B02127842F02002D2B21A708D
S32D0000F4A83B6903F11C037A68D268D2B21A703B6903F11D037A68D26892B24FEA2222D2B21A703B6903F11E03F9
S32D0000F4D07A68D2684FEA1242D2B21A703B6903F11F037A68D2684FEA1262D2B21A703B6903F11A037A681269B4
S32D0000F4F8D2B21A703B6903F11B037A68126992B24FEA2222D2B21A703B6903F114037A6812694FEA1242D2B2D9
S32D0000F5201A703B6903F115037A6812694FEA124292B24FEA2222D2B21A704FF00003FB603B6903F11603FA681A
S32D0000F548D2B21A703B6903F11703FA6892B24FEA2222D2B21A703B6903F11803FA684FEA1242D2B21A703B6950
S32D0000F57003F11903FA684FEA1262D2B21A707B689B7923F02003DAB27B689A717B681B684FF001021A717B6883
S32D0000F5981B681846FFF73AFE0346FB75FB7D184607F11807BD4680BD80B584B000AF78607868FFF719FF034629
S32D0000F5C0FB73FB7B002B03D17B684FF000021A60FB7B184607F11007BD4680BD80B588B000AF786039604FF0AD
S32D0000F5E880033B614FF00F03FB604FF0FF337B614FF00203FB612AE04FF00103BB611AE0FB69BA6902FB03F360
S32D0000F6103A6802FB03F27B68D31ABB60BB68002B09DBBA687B699A4205D2BB687B61FB693B61BB69FB60BB69C0
S32D0000F63803F10103BB61BB69102B8CBF00230123DBB2002BDCD1FB694FEA4303FB61FB69B3F5807F8CBF002382
S32D0000F6600123DBB2002BCBD14FF48053C4F20B034FF48052C4F20B02D26A22F00802DA624FF48053C4F20B03E4
S32D0000F688DB6A1A464FF00F03CFF6F0731340BB614FF48053C4F20B033A694FEA52024FEA02224FEA02424FEAAA
S32D0000F6B01242F96801F1FF314FEA0111C9B21143BA690A4342F46022DA6203E04FF00A0001F0EEFB4FF48053BB
S32D0000F6D8C4F20B035B6A03F00803002B14BF00230123DBB2002BEDD14FF48053C4F20B034FF48052C4F20B0210
S32D0000F700D26A42F00802DA624FF48053C4F20B034FF48052C4F20B02126B42F480121A6307F12007BD4680BD54
S32D0000F72880B582B000AF786039607B684FF000021A604FF48053C4F20B034FF40042C0F20012DA624FF4805319
S32D0000F750C4F20B03DB6A03F08073002B0CBF00230123DBB2002BF1D14FF48053C4F20B034FF00002C3F8C0202F
S32D0000F7784FF48053C4F20B034FF481325A604FF48053C4F20B034FF028029A624FF48053C4F20B034FF001126E
S32D0000F7A05A643B689B6818464CF66041C0F20501FFF714FF4FF48053C4F20B035B6A03F00303002B0CBF002324
S32D0000F7C80123DBB2002BF1D14FF45043C4F2040340F243421A604FF45043C4F2040340F243425A604FF45043D7
S32D0000F7F0C4F204034FF488629A604FF45043C4F2040340F24342DA604FF45043C4F2040340F243421A614FF47B
S32D0000F8185043C4F2040340F243425A614FF4E043C4F204034FF4E042C4F2040202F5805202F13002126842F41E
S32D0000F840003203F5805303F130031A604FF48053C4F20B034FF6FF721A634FF48053C4F20B034FF0B302C0F26F
S32D0000F8687F025A634FF48053C4F20B034FF48052C4F20B02D26A42F00062DA624FF48053C4F20B03DB6A03F064
S32D0000F8900063002B0CBF00230123DBB2002BF1D14FF48053C4F20B035B6A03F48033002B0CBF00230123DBB21D
S32D0000F8B8002B03D07B684FF001021A604FF48053C4F20B034FF48052C4F20B02126B42F080021A634FF00003E3
S32D0000F8E0184607F10807BD4680BD00BF80B400AF4FF48053C4F20B035B6A1A4640F207331340002B0CBF0023DC
S32D0000F9080123DBB21846BD4680BC704780B485B000AF78604FF48053C4F20B031B6B1A467B681340FB60FB6828
S32D0000F930002B14BF00230123DBB2002BEED1FB68184607F11407BD4680BC704780B584B000AF78607B681B78BD
S32D0000F95803F03F0247F6A053C0F2010353F82230FB60FB68002B06D17B681B78002B02D04FF0010330E14FF400
S32D0000F9808053C4F20B034FF48052C4F20B02126B42F080021A634FF48053C4F20B035B6A03F00103DBB2002BEE
S32D0000F9A8F5D14FF48053C4F20B037A6852689A60FB6823F44003FB607B685B784FEA835303F44003FA6813432C
S32D0000F9D0FB607B685B78022B03D1FB6843F40013FB607B685B78042B16D1FB6803F44033B3F5003F08D1FB6833
S32D0000F9F823F44033FB60FB6843F44033FB6007E0FB6823F44033FB60FB6843F40033FB604FF48053C4F20B0363
S32D0000FA204FF48052C4F20B0252684FEA02424FEA12425A607B68DB68002B32D0FB6803F44033B3F5403F03D048
S32D0000FA48FB6843F40013FB607B681B7A002B03D0FB6843F01003FB607B68DB68012B03D9FB6843F02003FB60CC
S32D0000FA707B68DB68B3F1FF3F13D04FF48053C4F20B034FF48052C4F20B02526811467A68D2684FEA02420A43D4
S32D0000FA985A60FB6843F00203FB604FF48053C4F20B034FF000021A604FF48053C4F20B03FA68DA604FF0010045
S32D0000FAC0C0F20E00FFF726FF0346012B0CBF00230123DBB2002B10D04FF48053C4F20B034FF48052C4F20B026C
S32D0000FAE8126B42F4702242F001021A634FF0010372E04FF48053C4F20B031B6B03F08003002B0CBF0023012351
S32D0000FB10DBB2002B0ED04FF48053C4F20B034FF48052C4F20B02126B42F001121A634FF0010355E04FF48053B2
S32D0000FB38C4F20B031B6B03F48033002B0CBF00230123DBB2002B0ED04FF48053C4F20B034FF48052C4F20B0226
S32D0000FB60126B42F001121A634FF0FF3338E0FB6803F44033002B25D04FF48053C4F20B031B691A467B681A61A6
S32D0000FB88FB6803F44033B3F5803F17D14FF48053C4F20B035B691A467B685A614FF48053C4F20B039B691A4659
S32D0000FBB07B689A614FF48053C4F20B03DB691A467B68DA614FF48053C4F20B034FF48052C4F20B02126B42F04C
S32D0000FBD801021A634FF00003184607F11007BD4680BD00BF80B592B000AF786039604FF00003FB633B68BB63D9
S32D0000FC0041F26013C1F6FF737B637B6B002B03D140F6012300F0A0BC41F26433C1F6FF733B633B6B002B03D168
S32D0000FC2840F60B2300F094BC3B6B1B68FB62FB6A002B03D140F60B2300F08ABC7B6841F20432934200F03882BB
S32D0000FC5041F2043293421BD841F20132934238D041F20132934207D8032B00F03D84092B00F0298400F066BC36
S32D0000FC7841F20232934200F0128241F20332934200F0BE8300F05ABC41F20732934200F04B8341F207329342EA
S32D0000FCA00BD841F20532934200F0348241F20632934200F0108300F045BC41F20832934200F0B68241F20932E2
S32D0000FCC8934200F0C48200F039BC786B47F69451C0F20101FFF724FD0346FB63FB6B002B40F030844FF00003F0
S32D0000FCF087F847304FF0000387F82B304FF0000387F82A304FF0000387F829304FF0000387F846304FF0000326
S32D0000FD1887F828304FF000033B724FF000037B724FF00003FB604FF000033B744FF000037B6107F108031846BB
S32D0000FD40FFF704FE0346002B0CBF00230123DBB2002B03D04FF00103FB63FCE340F24C4001F0A6F84FF0080375
S32D0000FD683B724FF000037B724FF4D573FB604FF000033B744FF000037B6107F108031846FFF7E0FD03463B6480
S32D0000FD903B6C002B0BD1BA69FB689A4203D04FF00103FB63D7E34FF0010387F846304FF0010387F8283097F826
S32D0000FDB82830002B00F0C6804FF037033B724FF000037B724FF00003FB604FF000033B744FF000037B6107F16B
S32D0000FDE008031846FFF7B2FD03463B643B6C002B03D04FF00103FB63ADE34FF069033B724FF000037B724FF063
S32D0000FE080003FB604FF000033B744FF000037B6107F108031846FFF795FD0346002B0CBF00230123DBB2002B38
S32D0000FE3003D04FF00103FB638DE3BB6903F44013002B00F083804FF000033B644FF00A0001F02EF83B6C03F158
S32D0000FE5801033B644FF037033B724FF000037B724FF00003FB604FF000033B744FF000037B6107F10803184677
S32D0000FE80FFF764FD0346002B0CBF00230123DBB2002B03D04FF00103FB6336E04FF069033B724FF000037B72AE
S32D0000FEA897F84630002B05D04FF00003C4F23003FB6002E04FF44013FB604FF000033B744FF000037B6107F1C7
S32D0000FED008031846FFF73AFD0346002B0CBF00230123DBB2002B03D04FF00103FB630CE0BB69002B05DB3B6CFA
S32D0000FEF8632B02D84FF0010301E04FF00003002BA0D1FB6B002B40F01F833B6C632B04D94FF0000387F84630C6
S32D0000FF2014E04FF0010387F8473097F84630002B0CD04FF0000387F84630BB6903F08043002B03D04FF0010328
S32D0000FF4887F8463097F82A30002B03D07B6B4FF007021A6097F82930002B03D07B6B4FF008021A6097F82B308E
S32D0000FF70002B03D07B6B4FF004021A6097F84730002B0BD07B6B4FF002021A6097F84630002B03D07B6B4FF0E9
S32D0000FF9803021A6097F82B30002B0FD097F84730002B0BD07B6B4FF005021A6097F84630002B03D07B6B4FF0EE
S32D0000FFC006021A604FF45043C4F204034FF000021A604FF45043C4F204034FF000025A604FF45043C4F2040322
S32D0000FFE84FF000029A604FF45043C4F204034FF00002DA604FF45043C4F204034FF000021A614FF45043C4F2C7
S32D0001001004034FF000025A61FB6A9A68FB6A5B6810461946FFF7DAFA4FF45043C4F2040340F243421A604FF4A9
S32D000100385043C4F2040340F243425A604FF45043C4F204034FF488629A604FF45043C4F2040340F24342DA609A
S32D000100604FF45043C4F2040340F243421A614FF45043C4F2040340F243425A614FF4E043C4F204034FF4E0421F
S32D00010088C4F2040202F5805202F13002126842F4003203F5805303F130031A6057E2B86BFFF750FC03463B64CB
S32D000100B03B6C002B00F04E824FF00203FB6349E2BB6B002B03D14FF00C03FB6343E24FF48053C4F20B03DB6AAD
S32D000100D803F47F434FEA13234FEA43033B644FF48053C4F20B03DB6A03F0F0034FEA131303F101023B6C02FBB4
S32D0001010003F33B64FB6A9A683B6CB2FBF3F2BB6B1A6020E2BB6B002B03D14FF00C03FB6319E2BB6B1B68002B59
S32D0001012803D14FF00C03FB6311E2FFF7DBFB0346002B14BF00230123DBB2002B70D04FF45043C4F204034FF011
S32D0001015000021A604FF45043C4F204034FF000025A604FF45043C4F204034FF000029A604FF45043C4F2040315
S32D000101784FF00002DA604FF45043C4F204034FF000021A614FF45043C4F204034FF000025A61FB6A9A68BB6B72
S32D000101A01B6810461946FFF719FA4FF45043C4F2040340F243421A604FF45043C4F2040340F243425A604FF4E4
S32D000101C85043C4F204034FF488629A604FF45043C4F2040340F24342DA604FF45043C4F2040340F243421A6148
S32D000101F04FF45043C4F2040340F243425A614FF4E043C4F204034FF4E042C4F2040202F5805202F1300212682F
S32D0001021842F4003203F5805303F130031A6096E140F60A23FB6392E1BB6B002B03D14FF00C03FB638BE14FF4B8
S32D000102408053C4F20B035B684FEAC3434FEAD343BA6B13607FE1BB6B002B03D14FF00C03FB6378E1FFF742FB52
S32D000102680346002B14BF00230123DBB2002B2AD0BB6B1A6840F6FF739A4203D94FF00C03FB6364E14FF4805318
S32D00010290C4F20B034FF48052C4F20B02526822F4FE5222F03F025A604FF48053C4F20B034FF48052C4F20B02C4
S32D000102B852681146BA6B12684FEAC2424FEAD2420A435A6043E140F60A23FB633FE1BB6B002B03D14FF00C035E
S32D000102E0FB6338E14FF48053C4F20B039B6A03F006034FEA53033B643B6C002B04D1BB6B4FF000021A6026E1E0
S32D000103083B6C012B04D1BB6B4FF001021A601EE13B6C102B04D1BB6B4FF002021A6016E14FF00503FB6312E114
S32D00010330BB6B002B03D14FF00C03FB630BE1FFF7D5FA0346002B14BF00230123DBB2002B56D0BB6B1B68002BDC
S32D0001035816D14FF48053C4F20B034FF48052C4F20B02926A22F006029A624FF48053C4F20B034FF48052C4F226
S32D000103800B02926A9A62E6E0BB6B1B68012B18D14FF48053C4F20B034FF48052C4F20B02926A22F006029A6201
S32D000103A84FF48053C4F20B034FF48052C4F20B02926A42F002029A62C9E0BB6B1B68022B16D14FF48053C4F214
S32D000103D00B034FF48052C4F20B02926A22F006029A624FF48053C4F20B034FF48052C4F20B02926A9A62AEE0CE
S32D000103F84FF00503FB63AAE040F60A23FB63A6E0BB6B002B03D14FF00C03FB639FE04FF48053C4F20B034FF4F3
S32D000104208052C4F20B02D26A42F00062DA624FF48053C4F20B03DB6A03F00063002B0CBF00230123DBB2002BA2
S32D00010448F1D14FF48053C4F20B031B6B03F08003002B0CBF00230123DBB2002B0FD04FF48053C4F20B034FF4FC
S32D000104708052C4F20B02126B42F080021A637B6B4FF000021A604FF48053C4F20B035B6A03F48033002B0CBF3A
S32D0001049800230123DBB2002B08D07B6B1B68002B08D17B6B4FF001021A6003E07B6B4FF000021A607B6B1A6863
S32D000104C0BB6B1A6047E0BB6B4FF01C021A60BB6B03F104034FF004021A60BB6B03F108034FF41E721A6036E0E1
S32D000104E84FF00200FFF712FA4FF48053C4F20B031B6B03F4E003002B0CBF00230123DBB2002B0ED04FF480537F
S32D00010510C4F20B034FF48052C4F20B02126B42F4E0021A634FF00403FB634FF48053C4F20B034FF48052C4F2C5
S32D000105380B02126B42F032021A6308E040F60923FB6304E000BF02E000BF00E000BFFB6B184607F14807BD468E
S32D0001056080BD00BF80B489B000AF786039607B687B6141F26013C1F6FF733B613B69002B02D14FF0000381E074
S32D000105883B691B68022B0BD03B691B68032B07D03B691B68072B03D03B691B68082B0DD14FF48053C4F20B03AB
S32D000105B05B6A03F00403002B0CBF00230123DBB2002BF1D13B68FB6156E0FB69B3F5007F28BF4FF40073FB60EE
S32D000105D8FB6803F103034FEA9303BB613CE04FF48053C4F20B031B6B03F4E003002B0CBF00230123DBB2002B61
S32D0001060010D04FF48053C4F20B034FF48052C4F20B02126B42F4E00242F020021A634FF0000333E04FF4805368
S32D00010628C4F20B035B6A03F40063002B14BF00230123DBB2002BF1D14FF48053C4F20B031B6A1A467B691A60E4
S32D000106507B6903F104037B61BB6903F1FF33BB61BB69002B0CBF00230123DBB2002BBAD1FA69FB68D31AFB61A7
S32D00010678FB69002B0CBF00230123DBB2002BA0D14FF00103184607F12407BD4680BC704780B58EB000AFB96094
S32D000106A07A600246FA73BB7341F24C13C1F6FF737B63FB7B002B02D1BB7B002B02D14FF0040381E040F2004311
S32D000106C8C1F6FF731B78DBB203F00103DBB2002B02D04FF0030373E0BB68002B02D14FF000036DE07B6B1B7B75
S32D000106F0002B03D17B684FEA43237B60BB7B012B2CD14FF011033B754FF000037B757B68BB614FF001033B77F7
S32D00010718BB7B3B6207F1140341F202301946FFF761FA0346002B14BF00230123DBB2002B3ED0B8684FF4007193
S32D00010740FFF710FF0346002B0CBF00230123DBB2002B31D04FF00003BB732DE04FF012033B754FF000037B7593
S32D000107687B68BB614FF001033B77BB7B3B6207F1140341F202301946FFF734FA0346002B14BF00230123DBB289
S32D00010790002B11D0BB7B4FEA4323B8681946FFF7E1FE0346002B0CBF00230123DBB2002B02D04FF00003BB7385
S32D000107B8BB7B002B02D04FF0010301E04FF00003184607F13807BD4680BD00BF80B487B000AF786039607B6877
S32D000107E0FB603B687B6155E07B69B3F5007F28BF4FF400733B617A693B69D31A7B613B6903F103034FEA9303DA
S32D000108083B613BE04FF48053C4F20B031B6B03F4E003002B0CBF00230123DBB2002B10D04FF48053C4F20B0321
S32D000108304FF48052C4F20B02126B42F4E00242F010021A634FF0FF332EE04FF48053C4F20B035B6A03F4806373
S32D00010858002B14BF00230123DBB2002BF1D14FF48053C4F20B03FA6812681A62FB6803F10403FB603B6903F12F
S32D00010880FF333B613B69002B0CBF00230123DBB2002BBBD17B69002B0CBF00230123DBB2002BA1D14FF00103C8
S32D000108A8184607F11C07BD4680BC704780B58EB000AFB9607A600246FA73BB7341F24C13C1F6FF737B63FB7BAB
S32D000108D0002B02D1BB7B002B02D14FF00403CAE040F20043C1F6FF731B78DBB203F00103DBB2002B02D04FF059
S32D000108F80303BCE040F20043C1F6FF731B78DBB203F00403002B0CBF00230123DBB2002B02D04FF00203AAE0E2
S32D00010920BB68002B02D14FF00003A4E07B6B1B7B002B03D17B684FEA43237B60BB7B012B2CD14FF018033B7580
S32D000109484FF000037B757B68BB614FF000033B77BB7B3B6207F1140341F202301946FFF741F90346002B14BF3E
S32D0001097000230123DBB2002B3ED0B8684FF40071FFF728FF0346002B0CBF00230123DBB2002B31D04FF00003D9
S32D00010998BB732DE04FF019033B754FF000037B757B68BB614FF000033B77BB7B3B6207F1140341F2023019461F
S32D000109C0FFF714F90346002B14BF00230123DBB2002B11D0BB7B4FEA4323B8681946FFF7F9FE0346002B0CBF5E
S32D000109E800230123DBB2002B02D04FF00003BB734FF00D033B754FF000037B757B6B1B69BB614FF000033B77F4
S32D00010A104FF000033B6207F1140341F202301946FFF7E4F80346002B0CBF00230123DBB2002B02D04FF00103E0
S32D00010A381DE07A6A48F20803CFF6D9731340002B02D04FF0010312E07B6A03F4F853B3F5106F0CBF0023012373
S32D00010A60DBB2002BC8D1BB7B002B02D04FF0010301E04FF00003184607F13807BD4680BD80B58CB000AF0B4637
S32D00010A883A600246FA71BB7141F24C13C1F6FF73BB62FB79002B02D04FF004037AE04FF0010387F82F3040F28A
S32D00010AB00043C1F6FF731B78DBB203F00103DBB2002B02D04FF0030368E0BB79032B5FD801A252F823F000BF25
S32D00010AD8E90A0100F30A0100050B0100170B01004FF0000387F82F3052E0BB6A9A683B681A604FF0000387F872
S32D00010B002F3049E03B684FF400721A804FF0000387F82F3040E04FF009033B724FF000037B72BB6A1B69FB60E1
S32D00010B284FF000033B744FF000037B6107F1080341F202301946FFF755F80346002B0CBF00230123DBB2002B47
S32D00010B5002D04FF0010321E07B6A03F44003002B11D13B6A4FEA934303F07F0303F101027B6A4FEA132303F0CD
S32D00010B78030303F1FF3302FA03F23B681A604FF0000387F82F3003E04FF0040387F82F3097F82F30184607F1A9
S32D00010BA03007BD4680BD00BF80B483B000AF0346FB71FB79002B02D04FF0010305E040F20043C1F6FF731B785B
S32D00010BC8DBB2184607F10C07BD4680BC704700BF80B483B000AF78604FF4E043C4F204034FF4E042C4F2040221
S32D00010BF002F5805202F13802126842F0010203F5805303F138031A604FF00003C4F204037A689A604FF00003A0
S32D00010C18C4F204034FF005025A604FF00003C4F204034FF00002C4F20402126842F001021A6000BF4FF00003CA
S32D00010C40C4F204031B6803F08003002B14BF00230123DBB2002BF1D14FF00003C4F204034FF00002C4F2040214
S32D00010C68126822F001021A6007F10C07BD4680BC704700BF80B582B000AF786039607B68012B0AD13A684FF63C
S32D00010C90FF739A4205D141F26C30C1F6FF7000F00FF807F10807BD4680BD00BF80B500AF4FF001004FF6FF7146
S32D00010CB8FFF7E0FF80BD00BF80B483B000AF78607B684FF000021A707B68184607F10C07BD4680BC704700BF9F
S32D00010CE080B582B000AF78607B681B7883F00103DBB2002B36D04FF4E043C4F2040303F5805303F128034FF4FC
S32D00010D0800621A604FF45043C4F204034FF440721A624FF45043C4F204034FF440725A6241F27033C1F6FF7399
S32D00010D301B684FEAD372D3184FEA63034FF43040C4F20E0019464FF46142FEF78DF84FF0640000F0ADF87B68B8
S32D00010D584FF001021A704FF0010301E04FF00003184607F10807BD4680BD00BF80B582B000AF7860F970BA7055
S32D00010D807B704FF43040C4F20E004FF07F01FEF78BF94FF43040C4F20E004FF00801FEF783F9FB784FF4304054
S32D00010DA8C4F20E001946FEF77BF9BB784FF43040C4F20E001946FEF773F97B784FF43040C4F20E001946FEF768
S32D00010DD06BF94FF43040C4F20E004FF0FF01FEF763F907F10807BD4680BD00BF80B487B000AFF860B9607A601E
S32D00010DF8FA6844F6D353C1F26203A3FB02134FEA9312BB68D3187B61FA6844F6D353C1F26203A3FB02134FEAB1
S32D00010E2093134FF47A7101FB03F3D31AFB60FB684FEAC33244F6D353C1F26203A3FB02134FEA93127B68D3182D
S32D00010E483B613B694FEAD3337A69D3187B613B694FEA43434FEA53433B614FF45043C4F203031B681A467B692B
S32D00010E709A4211D34FF45043C4F203031B681A467B699A420BD14FF45043C4F203035B681A463B699A4202D279
S32D00010E984FF0010301E04FF00003002BDDD107F11C07BD4680BC704780B584B000AF78604FF45043C4F2030359
S32D00010EC01B68FB604FF45043C4F203035B68BB607B681846F968BA68FFF788FF07F11007BD4680BD0000000025
S32D00010EE880B584B000AFC7E900014FF45043C4F203031B68FB604FF45043C4F203035B68BB60D7E900010AA3C4
S32D00010F10D3E90023FBF734FC02460B4610461946FBF7F0FE03461846F968BA68FFF75EFF07F11007BD4680BDB7
S32D00010F380000000000408F4080B584B000AF4FF45043C4F203031B68FB604FF45043C4F203035B68BB60F86823
S32D00010F60FBF798FB02460B46C7E90023B868FBF791FB02460B46104619464FF000024FF0804303F56003FBF7F5
S32D00010F8825FD02460B46D7E90001FBF743FA02460B46C7E90023D7E900231046194607F11007BD4680BD00BF7D
S32D00010FB080B483B000AF4FF45043C4F203031B684FF47A7202FB03F37B604FF45043C4F203035B684FF47A7266
S32D00010FD802FB03F34FEAD3337A68D3187B607B68184607F10C07BD4680BC704780B584B000AF78600B46FB7022
S32D000110004FF00B03FB73FA78FB7B786811461A4600F0ECF87B68184607F11007BD4680BD80B485B000AF786033
S32D000110287B68A3F11003002B01DA03F11F034FEA6313FB60FB68012B48D0022B00F08980002B40F0C9804FF435
S32D000110506142CEF200024FF46143CEF20003D3F8803119467B68A3F110004FF01F03C8F200030340002B05DA95
S32D0001107803F1FF3363F01F0303F101034FF0010000FA03F30B43C2F880314FF46142CEF200024FF46143CEF27E
S32D000110A000031B6819467B68A3F110004FF01F03C8F200030340002B05DA03F1FF3363F01F0303F101034FF078
S32D000110C8010000FA03F30B43136085E04FF46142CEF200024FF46143CEF20003D3F8843119467B68A3F110002A
S32D000110F04FF01F03C8F200030340002B05DA03F1FF3363F01F0303F101034FF0010000FA03F30B43C2F88431E6
S32D000111184FF46142CEF200024FF46143CEF200035B6819467B68A3F110004FF01F03C8F200030340002B05DA42
S32D0001114003F1FF3363F01F0303F101034FF0010000FA03F30B43536042E04FF46142CEF200024FF46143CEF24B
S32D000111680003D3F8883119467B68A3F110004FF01F03C8F200030340002B05DA03F1FF3363F01F0303F10103ED
S32D000111904FF0010000FA03F30B43C2F888314FF46142CEF200024FF46143CEF200039B6819467B68A3F1100004
S32D000111B84FF01F03C8F200030340002B05DA03F1FF3363F01F0303F101034FF0010000FA03F30B43936000BFDA
S32D000111E007F11407BD4680BC704700BF80B584B000AF786013460A46FA70BB707B68FA781A70BB78FB737B6887
S32D000112081B781A4647F6A063C0F201039B5C042B00F2F68001A252F823F000BF39120100AD1201002113010040
S32D0001123009140100951301004FF41043C4F204037A681278114647F6E462C0F2010252F82110FA7B4FEA02420D
S32D0001125802F4702242F4887242F0030243F821204FF47043C4F20F034FF47042C4F20F02526911467A68127804
S32D00011280104647F6E462C0F2010252F8202002F01F024FF0010000FA02F26FEA02020A405A614FF06700FFF7E8
S32D000112A8BBFEADE04FF42043C4F204037A681278114647F6E462C0F2010252F82110FA7B4FEA024202F470227E
S32D000112D042F4887242F0030243F821204FF24003C4F20F034FF24002C4F20F02526911467A681278104647F665
S32D000112F8E462C0F2010252F8202002F01F024FF0010000FA02F26FEA02020A405A614FF06800FFF781FE73E030
S32D000113204FF43043C4F204037A681278114647F6E462C0F2010252F82110FA7B4FEA024202F4702242F488720B
S32D0001134842F0030243F821204FF28003C4F20F034FF28002C4F20F02526911467A681278104647F6E462C0F2A4
S32D00011370010252F8202002F01F024FF0010000FA02F26FEA02020A405A614FF06900FFF747FE39E04FF450434C
S32D00011398C4F204037A681278114647F6E462C0F2010252F82110FA7B4FEA024202F4702242F4887242F0030212
S32D000113C043F821204FF47143C4F20F034FF47142C4F20F02526911467A681278104647F6E462C0F2010252F8B0
S32D000113E8202002F01F024FF0010000FA02F26FEA02020A405A614FF06B00FFF70DFE00BF07F11007BD4680BD3A
S32D00011410B0B48BB000AF47F6C823C0F2010307F104041D460FCD0FC495E80F0084E80F004FF000037B6248E021
S32D000114384FF42043C4F20403D3F8A0301A467B6A4FEA830307F12800C31853F8243C4FF0010101FA03F3134058
S32D00011460002B0CBF00230123DBB2002B29D041F29C33C1F6FF737A6A53F8223003F1010141F29C33C1F6FF73A2
S32D000114887A6A43F822104FF42043C4F204034FF42042C4F20402D2F8A02011467A6A4FEA820207F128008218E4
S32D000114B052F8242C4FF0010000FA02F20A40C3F8A0207B6A03F101037B627B6A072BCCBF00230123DBB2002B25
S32D000114D8AED107F12C07BD46B0BC7047B0B489B000AF47F6E823C0F2010307F104041D460FCD0FC495E8030039
S32D0001150084E803004FF00003FB6149E04FF43043C4F20403D3F8A0301A46FB694FEA830307F12000C31853F8B7
S32D000115281C3C4FF0010101FA03F31340002B0CBF00230123DBB2002B2AD0FB6903F1080241F29C33C1F6FF733B
S32D0001155053F8223003F1010141F29C33C1F6FF7343F822104FF43043C4F204034FF43042C4F20402D2F8A020D3
S32D000115781146FA694FEA820207F12000821852F81C2C4FF0010000FA02F20A40C3F8A020FB6903F10103FB61DE
S32D000115A0FB69052BCCBF00230123DBB2002BADD107F12407BD46B0BC704700BFB0B48DB000AF47F60033C0F206
S32D000115C801033C461D460FCD0FC40FCD0FC495E8070084E807004FF00003FB6249E04FF41043C4F20403D3F8D0
S32D000115F0A0301A46FB6A4FEA830307F13000C31853F8303C4FF0010101FA03F31340002B0CBF00230123DBB26F
S32D00011618002B2AD0FB6A03F10E0241F29C33C1F6FF7353F8223003F1010141F29C33C1F6FF7343F822104FF47C
S32D000116401043C4F204034FF41042C4F20402D2F8A0201146FA6A4FEA820207F13000821852F8302C4FF0010070
S32D0001166800FA02F20A40C3F8A020FB6A03F10103FB62FB6A0A2BCCBF00230123DBB2002BADD107F13407BD460E
S32D00011690B0BC7047B0B487B000AF47F62C33C0F201033C461D460FCD0FC42B6823604FF000037B6149E04FF438
S32D000116B85043C4F20403D3F8A0301A467B694FEA830307F11800C31853F8183C4FF0010101FA03F31340002BDB
S32D000116E00CBF00230123DBB2002B2AD07B6903F1190241F29C33C1F6FF7353F8223003F1010141F29C33C1F6AD
S32D00011708FF7343F822104FF45043C4F204034FF45042C4F20402D2F8A02011467A694FEA820207F11800821884
S32D0001173052F8182C4FF0010000FA02F20A40C3F8A0207B6903F101037B617B69042BCCBF00230123DBB2002BB4
S32D00011758ADD107F11C07BD46B0BC704780B483B000AF78607B681B781A4641F29C33C1F6FF7353F822301846B9
S32D0001178007F10C07BD4680BC704700BF80B483B000AF78607B681B781A4641F29C33C1F6FF734FF0000143F810
S32D000117A8221007F10C07BD4680BC704780B483B000AF78600B46FB707B68FA781A707B68184607F10C07BD4607
S32D000117D080BC70470000000080B586B000AF78607B681B781A4647F66473C0F2010353F822303B617B681B78B6
S32D000117F81A4647F6C063C0F201039B5CFB733B69DBB203F01F03DAB241F27C33C1F6FF731A723B69DBB203F05A
S32D000118201F03DAB241F27C33C1F6FF735A724FF46143CEF200034FF01002C3F88820FB7B002B1ED14FF4304073
S32D00011848C4F2030041F27C31C1F6FF7100F004FB4FF43043C4F203031B6803F08003002B14BF00230123DBB285
S32D00011870002BF1D14FF43043C4F203031B697B611DE04FF43040C4F20B0041F27C31C1F6FF7100F0E5FA4FF400
S32D000118983043C4F20B031B6803F08003002B14BF00230123DBB2002BF1D14FF43043C4F20B031B697B614FF415
S32D000118C06143CEF200034FF46142CEF20002D2F8882142F01002C3F888214FF46143CEF200034FF46142CEF27F
S32D000118E80002926842F010029A607B694FEA03434FEA13431846FAF7C9FE02460B46104619460FA3D3E90023B0
S32D00011910FAF736FF02460B46104619460CA3D3E90023FBF757F802460B4610461946FBF709FA0346BB60BB689B
S32D00011938184607F11807BD4680BD00BFAFF30080A4703D0AD7A30A4000000000E0FFEF4080B586B000AF7860CB
S32D000119607B681B781A4647F66473C0F2010353F822303B617B681B781A4647F6C063C0F201039B5CFB733B698A
S32D00011988DBB203F01F03DAB241F28C33C1F6FF731A723B69DBB203F01F03DAB241F28C33C1F6FF735A72FB7B2C
S32D000119B0002B1ED14FF43040C4F2030041F28C31C1F6FF7100F04CFA4FF43043C4F203031B6803F08003002B9F
S32D000119D814BF00230123DBB2002BF1D14FF43043C4F203031B697B611DE04FF43040C4F20B0041F28C31C1F662
S32D00011A00FF7100F02DFA4FF43043C4F20B031B6803F08003002B14BF00230123DBB2002BF1D14FF43043C4F292
S32D00011A280B031B697B617B69184607F11807BD4680BD00BF98B500AF41F27C33C1F6FF734FF05C021A7041F268
S32D00011A507C33C1F6FF734FF010025A7041F27C33C1F6FF7341F234225A8041F27C33C1F6FF7345F278629A80D0
S32D00011A7841F27C33C1F6FF734FF010029A7141F27C33C1F6FF734FF00702DA7141F27C33C1F6FF734FF4C0220A
S32D00011AA0DA6041F27C33C1F6FF734FF01F021A7241F27C33C1F6FF734FF01F025A724FF43040C4F2030041F210
S32D00011AC87C31C1F6FF7100F0C7F94FF43040C4F20B0041F27C31C1F6FF7100F0BDF94FF43040C4F20B0000F0E6
S32D00011AF011F94FF43040C4F2030000F00BF94FF43040C4F20B0041F27C31C1F6FF7100F0A7F94FF43040C4F2E9
S32D00011B18030041F27C31C1F6FF7100F09DF941F28C32C1F6FF7241F27C33C1F6FF7314460FCB84E80F0041F208
S32D00011B408C33C1F6FF734FF05C021A7041F28C33C1F6FF734FF00402DA7198BD80B500AF41F22043C1F6FF73C4
S32D00011B681B6803F1010241F22043C1F6FF731A6000F04CF84FF4E043C4F203034FF00102C3F80C2180BD00BF1F
S32D00011B9080B500AF4FF4E043C4F203034FF001021A6048F2A060C0F2010000F023F84FF4E043C4F203034FF00B
S32D00011BB80302C3F808214FF46143CEF200034FF46142CEF20002D2F8882142F01002C3F888214FF46143CEF201
S32D00011BE000034FF46142CEF20002926842F010029A6080BD80B483B000AF78604FF4E043C4F203037A68C3F809
S32D00011C08002107F10C07BD4680BC704780B584B000AF41F21C43C1F6FF731B68FB6029E0FB685B78FB71FB68CC
S32D00011C309B68184600F02EF80346BB71BB79002B19D0FB685B68012B15DDFB689B681B69BB6008E0BB685B683A
S32D00011C5803F10102BB685A60BB681B69BB60BB68002B0CBF00230123DBB2002BEED1FB68DB68FB60FB68002B61
S32D00011C800CBF00230123DBB2002BCDD107F11007BD4680BD80B584B000AF78607868FFF75BFE0346FB607B68D8
S32D00011CA89B695B78FB72FB7A002B12D17B68DA68FB689A420DDA7B689B694FF001025A707B685B6803F101026B
S32D00011CD07B685A604FF0010317E0FB7A012B12D17B689A68FB689A420DDD7B689B694FF000025A707B685B68E4
S32D00011CF803F101027B685A604FF0010301E04FF00003184607F11007BD4680BD80B485B000AF78607B681B6ABE
S32D00011D2023F040027B681A627B685B6A23F00B027B685A627B685B6A43F007027B685A627B685B6A43F0800299
S32D00011D487B685A627B681B6803F08003002B14BF00230123DBB2002BF4D17B685B6A03F04003002B0CBF002338
S32D00011D700123DBB2002B02D04FF0010369E04FF00003FB817B68DB6CFB817B689B6C9AB2FB89D318FB817B68A2
S32D00011D985B6C9AB2FB89D318FB817B681B6C9AB2FB89D318FB817B68DB6B9AB2FB89D318FB817B689B6B9AB2E8
S32D00011DC0FB89D318FB81FB894FEA5303FB81FB896FEA43436FEA5343FB81FA897B68DA624FF00003FB817B6869
S32D00011DE8DB6EFB817B689B6E9AB2FB89D318FB817B685B6E9AB2FB89D318FB817B681B6E9AB2FB89D318FB815E
S32D00011E107B68DB6D9AB2FB89D318FB817B689B6D9AB2FB89D318FB81FB894FEA5303FB81FB896FEA43436FEAD4
S32D00011E385343FB81FA897B681A637B685B6A23F080027B685A624FF00003184607F11407BD4680BC704700BF42
S32D00011E6080B483B000AF786039603B681B781A467B689A603B685B781A467B68DA603B685B881A467B689A61A2
S32D00011E883B689B881A467B68DA613B689B791A467B681A623B68DB791A467B685A623B68DA687B681A653B6891
S32D00011EB01B7A1A467B681A603B685B7A1A467B685A6007F10C07BD4680BC704780B586B000AFF860B9607A60D6
S32D00011ED8BB68FB75BB684FEA2323BB757B687B757B684FEA23233B754FF43040C4F20E004FF07F01FDF7D4F89B
S32D00011F004FF43040C4F20E004FF00A01FDF7CCF8BB7D4FF43040C4F20E001946FDF7C4F8FB7D4FF43040C4F29A
S32D00011F280E001946FDF7BCF83B7D4FF43040C4F20E001946FDF7B4F87B7D4FF43040C4F20E001946FDF7ACF8E1
S32D00011F504FF43040C4F20E004FF0FF01FDF7A4F87B684FEA43031846FEF7A2FF07F11807BD4680BD80B584B006
S32D00011F7800AFF8600B467A607B817B89F86819467A68FFF79FFF07F11007BD4680BD00BF80B483B000AF7860D7
S32D00011FA07B68184607F10C07BD4680BC704700BF80B582B000AF786039607B68012B0AD13A684FF6FF739A426B
S32D00011FC805D141F22440C1F6FF70FFF7E1FF07F10807BD4680BD00BF80B500AF4FF001004FF6FF71FFF7E0FFCD
S32D00011FF080BD00BF80B582B000AF78604FF43043C4F204034FF48072DA604FF42043C4F204034FF480729A6460
S32D000120184FF42043C4F204034FF480721A644FF42043C4F204034FF480725A644FF42043C4F204034FF4807295
S32D00012040DA604FF28003C4F20F034FF28002C4F20F02526942F008025A614FF24003C4F20F034FF24002C4F2EA
S32D000120680F02526942F480225A614FF24003C4F20F034FF24002C4F20F02526942F480325A614FF24003C4F2BC
S32D000120900F034FF24002C4F20F02526942F400325A614FF24003C4F20F034FF24002C4F20F02126842F008029B
S32D000120B81A604FF24003C4F20F034FF24002C4F20F02526942F008025A614FF28003C4F20F034FF28002C4F232
S32D000120E00F02126842F008021A604FF42043C4F204034FF480725A624FF42043C4F204034FF480721A624FF4E5
S32D000121083043C4F204034FF480721A614FF43043C4F204034FF480725A614FF43043C4F204034FF480729A61C2
S32D000121304FF43043C4F204034FF48072DA614FF43043C4F204034FF480721A634FF43043C4F204034FF48072D0
S32D000121585A634FF43043C4F204034FF480729A634FF43043C4F204034FF48072DA634FF43043C4F204034FF45B
S32D0001218080721A644FF43043C4F204034FF480725A644FF43043C4F204034FF480729A644FF43043C4F2040341
S32D000121A84FF48072DA644FF44043C4F204034FF480721A604FF44043C4F204034FF480729A604FF44043C4F235
S32D000121D004034FF48072DA604FF44043C4F204034FF480721A614FF24003C4F20F034FF24002C4F20F025269E6
S32D000121F842F440725A614FF28002C4F20F024FF28003C4F20F035B6919464FF2F003C0F20F030B4353614FF2A1
S32D00012220C003C4F20F034FF2C002C4F20F02526942F01D025A6178684FF0E20100F0E0FE78684FF01D0101F075
S32D000122481FF878684FF0020101F01AF878684FF0040101F015F878684FF0E00100F0CCFE78684FF0010101F03D
S32D000122700BF84FF06400FEF71BFE78684FF0E00100F0BEFE78684FF0030100F0FDFF78684FF0010100F0B4FE0D
S32D000122984FF00100FEF708FE78684FF0E60100F0ABFE78684FF0010100F0EAFF78684FF0A00100F0E5FF7868CF
S32D000122C04FF0FF0100F0E0FF78684FF0B00100F097FE78684FF01C0100F0D6FF78684FF00F0100F0D1FF7868BC
S32D000122E84FF0010100F0CCFF78684FF03F0100F0C7FF78684FF0000100F0C2FF78684FF0EF0100F0BDFF78684A
S32D000123104FF0000100F0B8FF78684FF0B40100F06FFE78684FF0010100F0AEFF78684FF0990100F0A9FF786897
S32D000123384FF0000100F0A4FF78684FF0450100F09FFF78684FF0020100F09AFF78684FF0000100F095FF786881
S32D000123604FF0000100F090FF78684FF0000100F08BFF78684FF0B60100F042FE78684FF0010100F081FF78687E
S32D000123884FF0090100F07CFF78684FF0000100F077FF78684FF00E0100F072FF78684FF0020100F06DFF7868FF
S32D000123B04FF0000100F068FF78684FF0000100F063FF78684FF0BA0100F01AFE78684FF00F0100F059FF4FF05D
S32D000123D86400FEF769FD78684FF03A0100F00CFE78684FF0600100F04BFF78684FF02A0100F002FE78684FF0B0
S32D00012400000100F041FF78684FF0000100F03CFF78684FF0010100F037FF78684FF03F0100F032FF78684FF04B
S32D000124282B0100F0E9FD78684FF0000100F028FF78684FF0000100F023FF78684FF0000100F01EFF78684FF0CE
S32D00012450EF0100F019FF78684FF0360100F0D0FD78684FF0000100F00FFF78684FF0F00100F0C6FD78684FF052
S32D00012478040100F005FF78684FF0B80100F0BCFD78684FF00F0100F0FBFE78684FF0010100F0F6FE4FF240031A
S32D000124A0C4F20F034FF24002C4F20F02126842F008021A604FF06400FEF7FAFC78684FF0360100F09DFD78687D
S32D000124C84FF0000100F0DCFE78684FF0F00100F093FD78684FF0040100F0D2FE41F22840C1F6FF704FF0010165
S32D000124F000F03EFA41F22840C1F6FF704FF06F014FF01E0200F0B2F841F22840C1F6FF704FF056014FF0AF02E5
S32D0001251800F028F941F22840C1F6FF704FF0000100F080FA41F22840C1F6FF7047F64031C0F201014FF00102B3
S32D000125404FF0010300F09AFA78684FF0290100F057FD4FF06400FEF7ABFC78684FF0BE0100F04EFD78684FF0A1
S32D000125680E0100F08DFE78684FF0F00100F088FE78684FF0010100F083FE78684FF0000100F07EFE78684FF0F7
S32D00012590000100F079FE78684FF00F0100F074FE786800F097FA41F22840C1F6FF704FF0010100F03BFA41F268
S32D000125B82840C1F6FF704FF0000100F00BFA07F10807BD4680BD00BF80B582B000AF78607B684FF00002DA61DE
S32D000125E07B684FF001021A627B684FF00E025A607B684FF01A029A607B684FF000025A617B684FF000029A6109
S32D000126087B684FF4A072DA607B684FF0F0021A617B684FF000021A70786801F081FD7B68184607F10807BD465A
S32D0001263080BD00BF80B582B000AF786041F26C43C1F6FF731B7883F00103DBB2002B09D041F26C43C1F6FF73E0
S32D000126584FF001021A707868FFF7C8FC07F10807BD4680BD80B58AB002AFF860B9607A604FF07E030093F86888
S32D00012680B9687A684FF0620301F0F0F840F24E733B614FF00003FB615BE04FF00003BB6143E0FB6903F1010267
S32D000126A840F20443C1F6FF739B5C002B09D14FF0FF03FB754FF0FF03BB754FF0FF037B751CE0FB6903F10102BB
S32D000126D040F20443C1F6FF739B5C012B09D14FF0D403FB754FF00003BB754FF026037B7508E04FF0B503FB759D
S32D000126F84FF0BA03BB754FF0B0037B75F97DBA7D7B7DF86800F00EF90246FB68DA61F86801F006FDF86801F01E
S32D00012720A3FBBB6903F10103BB6140F20443C1F6FF73FA699B181B781A46BB699A42D4BF00230123DBB2002B77
S32D00012748ABD1FB6903F10203FB61FA693B699A42ACBF00230123DBB2002B9AD107F12007BD4680BD80B58AB0A7
S32D0001277002AFF860B9607A604FF027030093F868B9687A684FF0950301F070F840F2E6333B614FF00003FB612A
S32D000127985BE04FF00003BB6143E0FB6903F1010240F65433C1F6FF739B5C002B09D14FF0FF03FB754FF0FF0327
S32D000127C0BB754FF0FF037B751CE0FB6903F1010240F65433C1F6FF739B5C012B09D14FF00003FB754FF000035B
S32D000127E8BB754FF000037B7508E04FF0D403FB754FF00003BB754FF026037B75F97DBA7D7B7DF86800F08EF8AD
S32D000128100246FB68DA61F86801F086FCF86801F023FBBB6903F10103BB6140F65433C1F6FF73FA699B181B78AA
S32D000128381A46BB699A42D4BF00230123DBB2002BABD1FB6903F10203FB61FA693B699A42ACBF00230123DBB228
S32D00012860002B9AD107F12007BD4680BD80B485B000AF78600B46FB70FB78062B2ED801A252F823F0A92801002C
S32D00012888A1280100B1280100B9280100C1280100C9280100D12801006FF07F43FB6019E04FF00003FB6015E0BE
S32D000128B04FF47F03FB6011E04FF47F43FB600DE04FF0FF03FB6009E04FF41903FB6005E049F69913C0F299033E
S32D000128D8FB6000BFFB68184607F11407BD4680BC704700BF80B584B000AF786039603B6803F47F034FEA1343FA
S32D00012900FB733B6803F47F434FEA1323BB733B687B73F97BBA7B7B7B786800F007F80346184607F11007BD4689
S32D0001292880BD00BF80B487B000AF7860F970BA707B70FB784FEAA3037B61BB784FEAA3033B617B784FEAA30366
S32D00012950FB607B694FEA03323B694FEA83131A43FB681343184607F11C07BD4680BC704780B582B000AF7860C5
S32D000129780B46FB70FB7878681946FFF773FF03467868194600F004F807F10807BD4680BD80B582B000AF7860B1
S32D000129A0396078683968FFF7A1FF02467B681A62786801F0B9FB786800F090FD07F10807BD4680BD80B582B021
S32D000129C800AF7860786800F085FD07F10807BD4680BD00BF80B582B000AF78600B46FB70FB7878681946FFF7AF
S32D000129F03DFF03467868194600F004F807F10807BD4680BD80B582B000AF7860396078683968FFF76BFF024611
S32D00012A187B681A62786801F083FB07F10807BD4680BD00BF80B582B000AF78600B46FB70FB7878681946FFF789
S32D00012A4015FF03467868194600F004F807F10807BD4680BD80B582B000AF7860396078683968FFF743FF024610
S32D00012A687B68DA61786801F05BFB07F10807BD4680BD00BF80B586B000AFF860B9607A603B604FF000037B61D6
S32D00012A9010E07B69BA68D3181B78F86879683A6801F048F87B6803F10C037B607B6903F101037B617B69BA6810
S32D00012AB8D3181B78002B0CBF00230123DBB2002BE3D107F11807BD4680BD00BF80B582B000AF7860FCF750F988
S32D00012AE04FF001004FF06701FCF7A0F84FF002004FF00001FCF79AF84FF003004FF0A001FCF794F84FF004006B
S32D00012B084FF05001FCF78EF84FF005004FF02001FCF788F84FF006004FF02001FCF782F84FF007004FF077016F
S32D00012B30FCF77CF84FF008004FF00001FCF776F84FF009004FF00001FCF770F84FF00A004FF00001FCF76AF866
