S01100002E2E2F5365616C426F742E733139AE
S32D0000C00000000020F9FC000055000100550001005500010055000100550001000000000000000000000000004F
S32D0000C028000000005500010055000100000000005500010055000100550001005500010055000100550001003A
S32D0000C0505500010055000100550001005500010055000100550001005500010055000100550001005500010066
S32D0000C078550001005500010055000100550001005500010055000100550001005500010055000100550001003E
S32D0000C0A05500010055000100550001005500010055000100550001005500010055000100550001005500010016
S32D0000C0C855000100550001005500010055000100550001005500010055000100550001005500010055000100EE
S32D0000C0F055000100B96E01005500010055000100550001005500010055000100550001005500010055000100F4
S32D0000C118550001005500010055000100550001005500010055000100550001005500010055000100550001009D
S32D0000C140550001005500010055000100550001003D370100550001005500010055000100550001005500010056
S32D0000C168550001005500010055000100550001005500010055000100550001005500010055000100550001004D
S32D0000C1905500010055000100550001009D310100F12F0100C5300100A50001007532010055000100550001009F
S32D0000C1B855000100550001005500010055000100550001005500010055000100550001005500010055000100FD
S32D0000C41081F0004102E000BF83F0004330B54FEA41044FEA430594EA050F08BF90EA020F1FBF54EA000C55EAC6
S32D0000C438020C7FEA645C7FEA655C00F0E2804FEA5454D4EB5555B8BF6D420CDD2C4480EA020281EA030382EA0F
S32D0000C460000083EA010180EA020281EA0303362D88BF30BD11F0004F4FEA01314FF4801C4CEA113102D0404263
S32D0000C48861EB410113F0004F4FEA03334CEA133302D0524263EB430394EA050F00F0A780A4F10104D5F1200E8A
S32D0000C4B00DDB02FA0EFC22FA05F2801841F1000103FA0EF2801843FA05F359410EE0A5F120050EF1200E012A2D
S32D0000C4D803FA0EFC28BF4CF0020C43FA05F3C01851EBE37101F0004507D54FF0000EDCF1000C7EEB00006EEB67
S32D0000C5000101B1F5801F1BD3B1F5001F0CD349085FEA30004FEA3C0C04F101044FEA445212F5800F80F09A8000
S32D0000C528BCF1004F08BF5FEA500C50F1000041EB045141EA050130BD5FEA4C0C404141EB010111F4801FA4F114
S32D0000C5500104E9D191F0000F04BF01460020B1FA81F308BF2033A3F10B03B3F120020CDA0C3208DD02F1140C87
S32D0000C578C2F10C0201FA0CF021FA02F10CE002F11402D8BFC2F1200C01FA02F120FA0CFCDCBF41EA0C019040B1
S32D0000C5A0E41AA2BF01EB0451294330BD6FEA04041F3C1CDA0C340EDC04F11404C4F1200220FA04F001FA02F3B6
S32D0000C5C840EA030021FA04F345EA030130BDC4F10C04C4F1200220FA02F001FA04F340EA0300294630BD21FAA8
S32D0000C5F004F0294630BD94F0000F83F4801306BF81F480110134013D4EE77FEA645C18BF7FEA655C29D094EA1C
S32D0000C618050F08BF90EA020F05D054EA000C04BF1946104630BD91EA030F1EBF0021002030BD5FEA545C05D1A3
S32D0000C6404000494128BF41F0004130BD14F580043CBF01F5801130BD01F0004545F0FE4141F470014FF0000031
S32D0000C66830BD7FEA645C1ABF194610467FEA655C1CBF0B46024650EA013406BF52EA033591EA030F41F40021D7
S32D0000C69030BD00BF90F0000F04BF0021704730B54FF4806404F132044FF000054FF0000150E700BF90F0000F66
S32D0000C6B804BF0021704730B54FF4806404F1320410F0004548BF40424FF000013EE700BF42004FEAE2014FEAF9
S32D0000C6E031014FEA02701FBF12F07F4393F07F4F81F06051704792F0000F14BF93F07F4F704730B54FF460741B
S32D0000C70801F0004521F0004120E700BF50EA010208BF704730B54FF000050AE050EA010208BF704730B511F046
S32D0000C730004502D5404261EB41014FF4806404F132045FEA915C3FF4DCAE4FF003025FEADC0C18BF03325FEAA0
S32D0000C758DC0C18BF033202EBDC02C2F1200300FA03FC20FA02F001FA03FE40EA0E0021FA02F11444C1E600BF19
S32D0000C78070B54FF0FF0C4CF4E06C1CEA11541DBF1CEA135594EA0C0F95EA0C0F00F0DEF82C4481EA030621EAF3
S32D0000C7A84C5123EA4C5350EA013518BF52EA033541F4801143F4801338D0A0FB02CE4FF00005E1FB02E506F05F
S32D0000C7D00042E0FB03E54FF00006E1FB03569CF0000F18BF4EF0010EA4F1FF04B6F5007F64F5407404D25FEA0F
S32D0000C7F84E0E6D4146EB060642EAC62141EA55514FEAC52040EA5E504FEACE2EB4F1FD0C88BFBCF5E06F1ED8D2
S32D0000C820BEF1004F08BF5FEA500E50F1000041EB045170BD06F0004646EA010140EA020081EA0301B4EB5C0487
S32D0000C848C2BFD4EB0C0541EA045170BD41F480114FF0000E013C00F3AB8014F1360FDEBF002001F0004170BDF0
S32D0000C870C4F10004203C35DA0C341BDC04F11404C4F1200500FA05F320FA04F001FA05F240EA020001F0004207
S32D0000C89821F0004110EBD37021FA04F642EB06015EEA430E08BF20EAD37070BDC4F10C04C4F1200500FA04F32F
S32D0000C8C020FA05F001FA04F240EA020001F0004110EBD37041F100015EEA430E08BF20EAD37070BDC4F12005C7
S32D0000C8E800FA05F24EEA020E20FA04F301FA05F243EA020321FA04F001F0004121FA04F220EA020000EBD37028
S32D0000C9105EEA430E08BF20EAD37070BD94F0000F0FD101F00046400041EB010111F4801F08BF013CF7D041EA6D
S32D0000C938060195F0000F18BF704703F00046520043EB030313F4801F08BF013DF7D043EA0603704794EA0C0FF1
S32D0000C9600CEA135518BF95EA0C0F0CD050EA410618BF52EA4306D1D181EA030101F000414FF0000070BD50EA38
S32D0000C988410606BF1046194652EA430619D094EA0C0F02D150EA013613D195EA0C0F05D152EA03361CBF10467B
S32D0000C9B019460AD181EA030101F0004141F0FE4141F470014FF0000070BD41F0FE4141F4780170BD70B54FF04D
S32D0000C9D8FF0C4CF4E06C1CEA11541DBF1CEA135594EA0C0F95EA0C0F00F0A7F8A4EB050481EA030E52EA03359B
S32D0000CA004FEA013100F088804FEA03334FF0805545EA131343EA12634FEA022245EA111545EA10654FEA002676
S32D0000CA280EF000419D4208BF964244F1FD0404F5407402D25B084FEA3202B61A65EB03055B084FEA32024FF461
S32D0000CA5080104FF4002CB6EB020E75EB030E22BFB61A754640EA0C005B084FEA3202B6EB020E75EB030E22BF22
S32D0000CA78B61A754640EA5C005B084FEA3202B6EB020E75EB030E22BFB61A754640EA9C005B084FEA3202B6EBEA
S32D0000CAA0020E75EB030E22BFB61A754640EADC0055EA060E18D04FEA051545EA16754FEA06164FEAC30343EAAC
S32D0000CAC852734FEAC2025FEA1C1CC0D111F4801F0BD141EA00014FF000004FF0004CB6E711F4801F04BF0143AE
S32D0000CAF00020B4F1FD0C88BFBCF5E06F3FF6AFAEB5EB030C04BFB6EB020C5FEA500C50F1000041EB045170BDBC
S32D0000CB180EF0004E4EEA113114EB5C04C2BFD4EB0C0541EA045170BD41F480114FF0000E013C90E645EA060EC3
S32D0000CB408DE60CEA135594EA0C0F08BF95EA0C0F3FF43BAF94EA0C0F0AD150EA01347FF434AF95EA0C0F7FF499
S32D0000CB6825AF104619462CE795EA0C0F06D152EA03353FF4FDAE1046194622E750EA410618BF52EA43067FF432
S32D0000CB90C5AE50EA41047FF40DAF52EA43057FF4EBAE12E74FF0FF3C06E000BF4FF0010C02E000BF4FF0010C75
S32D0000CBB84DF804CD4FEA410C7FEA6C5C4FEA430C18BF7FEA6C5C1BD001B050EA410C0CBF52EA430C91EA030FEC
S32D0000CBE002BF90EA020F0020704710F1000F91EA030F58BF994208BF90422CBFD8176FEAE37040F0010070476E
S32D0000CC084FEA410C7FEA6C5C02D150EA013C07D14FEA430C7FEA6C5CD6D152EA033CD3D05DF8040B704700BFCD
S32D0000CC308446104662468C461946634600E000BF01B5FFF7B7FF002848BF10F1000F01BD4DF808EDFFF7F4FF13
S32D0000CC580CBF012000205DF808FB00BF4DF808EDFFF7EAFF34BF012000205DF808FB00BF4DF808EDFFF7E0FF18
S32D0000CC8094BF012000205DF808FB00BF4DF808EDFFF7CEFF94BF012000205DF808FB00BF4DF808EDFFF7C4FF40
S32D0000CCA834BF012000205DF808FB00BF4FEA410212F5001215D211D56FF47873B3EB625212D94FEAC12343F0D6
S32D0000CCD0004343EA505311F0004F23FA02F018BF404270474FF00000704750EA013005D111F0004008BF6FF016
S32D0000CCF8004070474FF00000704700BF4A0011D212F5001211D20DD56FF47873B3EB62520ED44FEAC12343F085
S32D0000CD20004343EA505323FA02F070474FF00000704750EA013002D14FF0FF3070474FF0000070474FEA410241
S32D0000CD48B2F1E04324BFB3F5001CDCF1FE5C0DD901F0004C4FEAC0024CEA5070B2F1004F40EB830008BF20F09E
S32D0000CD700100704711F0804F21D113F13872BCBF01F00040704741F480114FEA5252C2F11802C2F1200C10FAB1
S32D0000CD980CF320FA02F018BF40F001004FEAC1234FEAD32303FA0CFC40EA0C0023FA02F34FEA4303CCE77FEA26
S32D0000CDC0625307D150EA01331EBF4FF0FE4040F44000704701F0004040F0FE4040F40000704700BF80F00040CC
S32D0000CDE802E000BF81F0004142001FBF5FEA410392EA030F7FEA226C7FEA236C6AD04FEA1262D2EB1363C1BF06
S32D0000CE10D218414048404140B8BF5B42192B88BF704710F0004F40F4000020F07F4018BF404211F0004F41F4FA
S32D0000CE38000121F07F4118BF494292EA030F3FD0A2F1010241FA03FC10EB0C00C3F1200301FA03F100F000432B
S32D0000CE6002D5494260EB4000B0F5000F13D3B0F1807F06D340084FEA310102F10102FE2A51D2B1F1004F40EB94
S32D0000CE88C25008BF20F0010040EA03007047490040EB000010F4000FA2F10102EDD1B0FA80FCACF1080CB2EB5F
S32D0000CEB00C0200FA0CF0AABF00EBC25052421843BCBFD0401843704792F0000F81F4000106BF80F400000132EB
S32D0000CED8013BB5E74FEA41037FEA226C18BF7FEA236C21D092EA030F04D092F0000F08BF0846704790EA010FD7
S32D0000CF001CBF0020704712F07F4F04D1400028BF40F00040704712F100723CBF00F50000704700F0004343F0DC
S32D0000CF28FE4040F4000070477FEA226216BF08467FEA23630146420206BF5FEA412390EA010F40F480007047C1
S32D0000CF504FF0000304E000BF10F0004348BF40425FEA000C08BF704743F0964301464FF000001CE050EA010264
S32D0000CF7808BF70474FF000030AE000BF50EA010208BF704711F0004302D5404261EB41015FEA010C02BF84465B
S32D0000CFA00146002043F0B64308BFA3F18053A3F50003BCFA8CF2083AA3EBC25310DB01FA02FC634400FA02FC6B
S32D0000CFC8C2F12002BCF1004F20FA02F243EB020008BF20F00100704702F1200201FA02FCC2F1200250EA4C0034
S32D0000CFF021FA02F243EB020008BF20EADC7070474FF0FF0C1CEAD0521EBF1CEAD15392EA0C0F93EA0C0F6FD019
S32D0000D0181A4480EA010C400218BF5FEA41211ED04FF0006343EA501043EA5111A0FB01310CF00040B1F5000FE7
S32D0000D0403EBF490041EAD3715B0040EA010062F17F02FD2A1DD8B3F1004F40EBC25008BF20F00100704790F058
S32D0000D068000F0CF0004C08BF49024CEA502040EA51207F3AC2BFD2F1FF0340EAC250704740F400004FF0000388
S32D0000D090013A5DDC12F1190FDCBF00F000407047C2F10002410021FA02F1C2F1200200FA02FC5FEA310040F1D5
S32D0000D0B8000053EA4C0308BF20EADC70704792F0000F00F0004C02BF400010F4000F013AF9D040EA0C0093F04C
S32D0000D0E0000F01F0004C02BF490011F4000F013BF9D041EA0C018FE70CEAD15392EA0C0F18BF93EA0C0F0AD00B
S32D0000D10830F0004C18BF31F0004CD8D180EA010000F00040704790F0000F17BF90F0004F084691F0000F91F0BB
S32D0000D130004F14D092EA0C0F01D142020FD193EA0C0F03D14B0218BF084608D180EA010000F0004040F0FE4051
S32D0000D15840F40000704740F0FE4040F4400070474FF0FF0C1CEAD0521EBF1CEAD15392EA0C0F93EA0C0F69D044
S32D0000D180A2EB030280EA010C49024FEA402037D04FF0805343EA111143EA10130CF000408B4238BF5B0042F14E
S32D0000D1A87D024FF4000C8B4224BF5B1A40EA0C00B3EB510F24BFA3EB510340EA5C00B3EB910F24BFA3EB9103A4
S32D0000D1D040EA9C00B3EBD10F24BFA3EBD10340EADC001B0118BF5FEA1C1CE0D1FD2A3FF650AF8B4240EBC25018
S32D0000D1F808BF20F0010070470CF0004C4CEA50207F32C2BFD2F1FF0340EAC250704740F400004FF00003013AF1
S32D0000D22037E792F0000F00F0004C02BF400010F4000F013AF9D040EA0C0093F0000F01F0004C02BF490011F4C9
S32D0000D248000F013BF9D041EA0C0195E70CEAD15392EA0C0F08D142027FF47DAF93EA0C0F7FF470AF084676E7AE
S32D0000D27093EA0C0F04D14B023FF44CAF08466EE730F0004C18BF31F0004CCAD130F000427FF45CAF31F0004376
S32D0000D2987FF43CAF5FE700BF4FF0FF3C06E000BF4FF0010C02E000BF4FF0010C4DF804CD4FEA40024FEA41039F
S32D0000D2C07FEA226C18BF7FEA236C11D001B052EA530C18BF90EA010F58BFB2EB030088BFC81738BF6FEAE1706E
S32D0000D2E818BF40F0010070477FEA226C02D15FEA402C05D17FEA236CE4D15FEA412CE1D05DF8040B704700BF16
S32D0000D310844608466146FFE70FB5FFF7C9FF002848BF10F1000F0FBD4DF808EDFFF7F4FF0CBF012000205DF839
S32D0000D33808FB00BF4DF808EDFFF7EAFF34BF012000205DF808FB00BF4DF808EDFFF7E0FF94BF012000205DF8A9
S32D0000D36008FB00BF4DF808EDFFF7D2FF94BF012000205DF808FB00BF4DF808EDFFF7C8FF34BF012000205DF8B1
S32D0000D38808FB00BF4FEA4002B2F1FE4F0FD34FF09E03B3EB12620DD94FEA002343F0004310F0004F23FA02F060
S32D0000D3B018BF404270474FF00000704712F1610F01D1420205D110F0004008BF6FF0004070474FF00000704797
S32D0000D3D880B500AF41F24C10C1F6FF704FF4FA7106F0ACFB41F24C10C1F6FF7040F6331106F0C2FB00F004F875
S32D0000D4004FF00003184680BDB0B5ADF5C56D06AF41F24440C1F6FF7044F64F71C0F22F0107F044F941F244408F
S32D0000D428C1F6FF7042F62F71C0F24F0107F098F907F11003A3F10C031D464FF0050406E0284608F0EBFF05F1C9
S32D0000D450EC0504F1FF34B4F1FF3F0CBF00230123DBB2002BF0D107F5B06202F10C024FF0780310464FF00001C8
S32D0000D4781A460CF074FC4AF6F463C0F2010307F5B06202F10C0293E8030082E8030007F5B26303F104034FF028
S32D0000D4A000021A6003F104034FF000021A6003F104034FF000021A6003F104034AF60872C0F2010207F5B463F9
S32D0000D4C892E80300186003F10403198003F102034FEA11421A7007F5B46303F107034FF000021A7003F10103CA
S32D0000D4F04FF000021A7003F101034FF000021A7003F101034FF000021A7003F101034FF000021A7003F1010302
S32D0000D5184FF000021A7003F101034FF000021A7003F101034FF000021A7003F101034FF000021A7003F10103D9
S32D0000D5404FF000021A7003F101034FF000021A7003F101034FF000021A7003F101034FF000021A7003F10103B1
S32D0000D5684AF61C73C0F2010307F5B66202F1040293E8030082E8030007F5B66303F10C034FF000021A6003F151
S32D0000D59004034FF000021A6003F104034FF000021A6003F104034AF63072C0F2010207F5B96307CA03C31A801A
S32D0000D5B803F102034FEA12421A7007F5BA6303F103034FF000021A7003F101034FF000021A7003F101034FF05D
S32D0000D5E000021A7003F101034FF000021A7003F101034FF000021A7003F101034FF000021A7003F101034FF011
S32D0000D60800021A7003F101034FF000021A7003F101034FF000021A7003F101034AF64473C0F2010307F5BA6423
S32D0000D63004F10C0493E8070084E807004FF00003C7F8E8354FF00003C7F8EC354AF65872C0F2010207F5BE63B6
S32D0000D65807CA03C31A7007F5BE6303F109034FF000021A7003F101034FF000021A7003F101034FF000021A7015
S32D0000D68003F101034FF000021A7003F101034FF000021A7003F101034FF000021A7003F101034FF000021A7070
S32D0000D6A803F101034FF000021A7003F101034FF000021A7003F101034FF000021A7003F101034FF000021A7048
S32D0000D6D003F1010307F11003A3F10C034FF0140200924FF03C0201924FF03C02029207F5B06202F10C020392DA
S32D0000D6F841F67012C0F21902049242F62F72C0F24F02059218464FF003014FF002024FF0140309F0F1F800E079
S32D0000D72000BF07F5C16207F5C06303F1040341F24440C1F6FF7011461A4607F059F9D7F80816D7F8042607F128
S32D0000D7481003A3F10C0318464FF0000308F0B8FF0346002B0CBF00230123DBB2002B02D000F00AFAD8E7D7F81C
S32D0000D7700816D7F8042607F11003A3F10C0303F1EC0318464FF0000308F09EFF0346002B0CBF00230123DBB29B
S32D0000D798002B2BD041F2AC40C1F6FF700AF006F907F11003A3F10C034FF0140200924FF03C0201924FF03C02DD
S32D0000D7C0029207F5B06202F10C02039241F67012C0F21902049242F62F72C0F24F02059218464FF003014FF094
S32D0000D7E802024FF0140309F087F895E7D7F80816D7F8042607F11003A3F10C0303F5EC7318464FF0000308F042
S32D0000D8105BFF0346002B0CBF00230123DBB2002B02D000F06DFD7BE7D7F80816D7F8042607F11003A3F10C0330
S32D0000D83803F5317318464FF0000308F041FF0346002B0CBF00230123DBB2002B04D06FF00E0000F0ADFD5FE7EF
S32D0000D860D7F80816D7F8042607F11003A3F10C0303F56C7318464FF0000308F025FF0346002B0CBF00230123ED
S32D0000D888DBB2002B00F01E814FF0010004F0D8FF41F24440C1F6FF706FF07F4106F038FF41F24440C1F6FF701A
S32D0000D8B04FF0000106F058FFA74BC7F80C36EFE041F24440C1F6FF704AF6B061C0F201014FF000024FF0000396
S32D0000D8D807F0BEF941F24440C1F6FF704AF6B861C0F201014FF001024FF0000307F0B0F941F24440C1F6FF7089
S32D0000D9004AF6C061C0F201014FF002024FF0000307F0A2F941F22410C1F6FF7005F04CFD034641F24440C1F64B
S32D0000D928FF7019464FF000024FF0060307F0D0F941F22010C1F6FF7005F03AFD034641F24440C1F6FF70194680
S32D0000D9504FF001024FF0080307F0BEF941F21C10C1F6FF7005F028FD034641F24440C1F6FF7019464FF0020208
S32D0000D9784FF0070307F0ACF941F24440C1F6FF704AF6C861C0F201014FF003024FF0000307F05EF941F2444017
S32D0000D9A0C1F6FF704AF6D061C0F201014FF004024FF0000307F050F941F24440C1F6FF704AF6D861C0F201013D
S32D0000D9C84FF005024FF0000307F042F941F2AC40C1F6FF700AF0BAFC034641F24440C1F6FF7019464FF00302B9
S32D0000D9F04FF0070307F070F941F2AC40C1F6FF700AF0B8FC034641F24440C1F6FF7019464FF004024FF007035A
S32D0000DA1807F05EF941F2AC40C1F6FF700AF0B6FC034641F24440C1F6FF7019464FF005024FF00D0307F04CF94B
S32D0000DA4041F24440C1F6FF704AF6E861C0F201014FF006024FF0000307F0FEF841F24810C1F6FF7005F0A8FCDE
S32D0000DA68034641F24440C1F6FF7019464FF006024FF00A0307F02CF904F02AFF02460B464FF0080100914FF08E
S32D0000DA900001019141F24440C1F6FF7007F03CF907F5C16207F5C06303F1040341F24440C1F6FF7011461A46FF
S32D0000DAB806F09AFF034683F00103DBB2002B7FF4FBAE44E0D7F80816D7F8042607F11003A3F10C0303F5926378
S32D0000DAE003F10C0318464FF0000308F0EDFD0346002B0CBF00230123DBB2002B3FF410AE41F24C10C1F6FF70AF
S32D0000DB08144906F059F84FF000004FF07E5101F5C00104F0B1FE4FF01E004FF0700100F02FFE4FF4E073009351
S32D0000DB300B480C490C4A0D4B01F082F80C480D494FF0140201F0A4FE07480B494FF4287200F062FFE4E5E3E512
S32D0000DB580000000000000C42000020420000B4420000A0410000824200000042000080410000A042000000006F
S32D0000DB8090B585B002AF41F24440C1F6FF706FF07F4106F0C1FD41F24440C1F6FF706FF07F4106F0E1FD01F0DB
S32D0000DBA8DFFE4FF023004FF4A87100F0E9FD4FF014004FF0540100F0E3FDDDA1D1E9000104F05AFE4FF014004F
S32D0000DBD04FF0C40101F04EFB4FF014004FF04E0100F0D2FD4FF014004FF0380100F0CCFDD3A1D1E9000104F0A2
S32D0000DBF843FE01F0D5FE01F08BFF03467B607B68002B02DD7B68022B02DD4FF001037B604FF014004FF01C01B2
S32D0000DC2000F0B2FDCE48CF494FF4E07200F0F4FEC5A3D3E90023CDE900234FF028004FF02D014FF48C6201F07C
S32D0000DC483FFA41F24C10C1F6FF70C54905F0B4FF6FF013004FF0640100F092FD4FF01E004FF0C40101F002FB26
S32D0000DC704FF000024FF07E5303F5F003CDE900236FF01D006FF01D014FF4E07201F01CFA4FF014004FF05401F5
S32D0000DC9800F076FD4FF01E004FF0D90101F03EFB6FF013004FF0A80100F06AFD41F24C10C1F6FF70AB4905F00C
S32D0000DCC07FFF4FF000004FF07E5101F5C00104F0D7FDA748A74901F007FD6FF013006FF013014FF0700200F092
S32D0000DCE8F3FD4FF023004FF0A90101F0BFFA90A1D1E9000104F0C0FD9D489C4901F0F0FC8BA1D1E9000104F00A
S32D0000DD10B7FD41F24440C1F6FF704AF66C71C0F201014FF00D024FF0000306F095FF4FF48563009391489249F7
S32D0000DD38894A8A4B00F080FF41F24440C1F6FF704AF67C71C0F201014FF00D024FF0000306F07EFF41F228107A
S32D0000DD60C1F6FF70874902F077FA41F23010C1F6FF70844902F070FA00BF41F2AC40C1F6FF700AF0F7FA034642
S32D0000DD884FF00102144618467D49FFF7F1FA0346002B02D14FF000031C46E3B2002BE8D141F22810C1F6FF70D7
S32D0000DDB002F002FA41F23010C1F6FF7002F0FCF941F24C10C1F6FF70704905F0F9FE4FF014004FF032014FF079
S32D0000DDD8EF0201F0A5F856A1D1E9000104F04CFD59A3D3E90023CDE900236FF022006FF022014FF4E07201F072
S32D0000DE0063F941F23010C1F6FF70614902F024FA49A1D1E9000104F033FD41F23010C1F6FF7002F0C9F94FF0F0
S32D0000DE2800024FF07E5303F5C003CDE900236FF022006FF022014FF4E07201F041F944A3D3E90023CDE90023C4
S32D0000DE504FF014004FF014014FF01C0201F034F941F24C10C1F6FF704A4905F0A9FE4FF01E004FF0A80100F069
S32D0000DE7887FC41F24C10C1F6FF70424905F09CFE4FF4C473009342483349424A424B00F0D3FE41F24440C1F6CF
S32D0000DEA0FF704AF68C71C0F201014FF00D024FF0000306F0D1FE4FF000024FF0804303F5C013CDE900234FF079
S32D0000DEC828004FF028014FF4A86201F0F9F86FF013004FF0270100F053FC4FF014004FF03C014FF0B80201F09C
S32D0000DEF01BF815A3D3E90023CDE900234FF032004FF032014FF40C7201F0DEF841F24440C1F6FF704AF69C71EC
S32D0000DF18C0F201014FF00D024FF0000306F098FE41F23010C1F6FF7038E000BFAFF300809A9999999999B93FEA
S32D0000DF409A9999999999C93F9A9999999999E93F333333333333F33F333333333333D33F000020420000B44255
S32D0000DF6800003442000000000000A040000070410000B042000030420000BC42000070C1000042420000BE426D
S32D0000DF900000F04100000C420000204100005C420000C842C84902F057F941F24C10C1F6FF70C64905F004FECD
S32D0000DFB841F23810C1F6FF70C34902F049F9B4A1D1E9000104F058FC41F23010C1F6FF7002F0EEF8B0A3D3E982
S32D0000DFE00023CDE900234FF032004FF032014FF40C7201F069F841F23810C1F6FF7002F0DBF841F24C10C1F675
S32D0000E008FF70B24905F0D8FD6FF031004FF0E00100F0B6FB41F22810C1F6FF70A84902F017F941F23010C1F6B7
S32D0000E030FF70A54902F010F900BF41F22010C1F6FF7005F0B9F903464FF0010214461846A149FFF791F9034685
S32D0000E058002B02D14FF000031C46E3B2002BE8D16FF00E004FF0320100F08AFB41F22810C1F6FF7002F09CF814
S32D0000E08041F23010C1F6FF7002F096F84FF014004FF0620101F046F983A3D3E90023CDE900236FF027006FF071
S32D0000E0A827014FF48C6201F00BF84FF01E004FF0160100F065FB41F24C10C1F6FF70854905F07AFD4FF00000CC
S32D0000E0D04FF07E5101F5C00104F0D2FB4FF01E004FF0E00100F050FB4FF4077300937C487C497D4A7D4B00F08C
S32D0000E0F8A3FD4FF028004FF4527100F041FB7A487A4901F077F97B68012B03D0022B5ED0002BA6E041F24C105E
S32D0000E120C1F6FF70694905F04BFD6FF013004FF4A17100F029FB4FF014004FF0C40101F099F84FF000024FF088
S32D0000E1488043CDE900236FF013006FF013014FF4C47200F0B5FF41F23810C1F6FF70644902F076F84FF000001E
S32D0000E1704FF0804101F5802104F082FB41F23810C1F6FF7002F018F841F22810C1F6FF704F4902F061F841F22F
S32D0000E1983010C1F6FF70574902F05AF842A1D1E9000104F069FB41F22810C1F6FF70514902F04EF841F2301043
S32D0000E1C0C1F6FF70424902F047F83BA1D1E9000104F056FB49E041F24C10C1F6FF703B4905F0EEFC4FF01400DF
S32D0000E1E84FF0BA0101F042F84FF000024FF08043CDE900236FF013006FF013014FF4C47200F05EFF41F23810A2
S32D0000E210C1F6FF70384902F01FF84FF000004FF0804101F5802104F02BFB41F23810C1F6FF7001F0C1FF4FF0AF
S32D0000E23814004FF0E00100F0A3FA4FF01E004FF0C40101F013F81CA3D3E90023CDE900234FF028004FF0280154
S32D0000E2604FF40C7200F030FF00BF6FF01D004FF0380100F089FA4FF019004FF0C40101F051F84FF032004FF440
S32D0000E2880C7100F07DFA07F10C07BD4690BD00BF9A9999999999B93F9A9999999999C93F333333333333F33FD8
S32D0000E2B0666666666666E63F333333333333E33F9A9999999999F93F0000A0C10000C84200004842000000009F
S32D0000E2D80000E03F00000C42000020420000B4420000A041000082420000AF4300007041000096C200008C42E5
S32D0000E30080B500AF41F24C10C1F6FF70244905F057FC4FF000004FF07E5101F5C00104F0AFFA41F24C10C1F6BA
S32D0000E328FF701E4905F048FC4FF000004FF07E5101F5C00104F0A0FA41F24C10C1F6FF70174905F039FC4FF0A8
S32D0000E35000004FF07E5101F5C00104F091FA41F24C10C1F6FF70114905F02AFC4FF000004FF07E5101F5C0012D
S32D0000E37804F082FA41F24C10C1F6FF700A4905F01BFC41F24440C1F6FF704AF6E871C0F2010106F025FD80BD74
S32D0000E3A000000C4200000000000034420000BE420000B4420000000090B589B002AF78607868FEF7C9FD0346AA
S32D0000E3C841F23010C1F6FF70194601F041FF7868FEF7BEFD034641F22810C1F6FF70194601F036FF4FF00403C9
S32D0000E3F07B614FF008033B6104F06EFA02460B46C7E9022304F068FA02460B4610461946D7E90223FEF700F8FD
S32D0000E41802460B464FF001010C4610461946C0A3D3E90023FEF738FC0346002B02D14FF000031C46E3B2002BDF
S32D0000E44040F09B8141F24440C1F6FF704FF0000106F062F941F24440C1F6FF706FF07F4106F082F941F24440D0
S32D0000E468C1F6FF704BF23401C0F201014FF003024FF0000306F0ECFB41F24440C1F6FF704BF24001C0F20101C8
S32D0000E4904FF004024FF0000306F0DEFB41F24440C1F6FF704BF24C01C0F201014FF005024FF0000306F0D0FBA4
S32D0000E4B841F22410C1F6FF7004F07AFF034641F24440C1F6FF7019464FF003024FF0090306F0FEFB41F22010D6
S32D0000E4E0C1F6FF7004F068FF034641F24440C1F6FF7019464FF004024FF0080306F0ECFB41F21C10C1F6FF7017
S32D0000E50804F056FF034641F24440C1F6FF7019464FF005024FF00A0306F0DAFB04F0D8F902460B464FF0060116
S32D0000E53000914FF00001019141F24440C1F6FF7006F0EAFB41F24440C1F6FF7079694FF007024FF0000306F063
S32D0000E5589FFB41F22410C1F6FF7004F029FF03464FF00102144618466F49FEF7E3FE0346002B02D14FF00003F8
S32D0000E5801C46E3B2002B02D04FF002037B6141F21C10C1F6FF7004F00FFF03464FF00102144618466349FEF7EE
S32D0000E5A8C9FE0346002B02D14FF000031C46E3B2002B02D04FF000037B6141F22010C1F6FF7004F0F5FE03462A
S32D0000E5D04FF00102144618465549FEF7AFFE0346002B02D14FF000031C46E3B2002B34D041F22410C1F6FF70A7
S32D0000E5F804F0DEFE03464FF00102144618464A49FEF798FE0346002B02D14FF000031C46E3B2002B02D04FF008
S32D0000E62003037B6141F21C10C1F6FF7004F0C4FE03464FF00102144618463E49FEF77EFE0346002B02D14FF0EE
S32D0000E64800031C46E3B2002B10D04FF001037B610CE07B69002B03D14FF003037B6105E07B69022B02D14FF088
S32D0000E67001037B617B69032B7DD801A252F823F0BDE60000E9E6000091E600003DE700007B68A3F1060318464A
S32D0000E698FEF75EFC034641F23010C1F6FF70194601F0D6FD41F22810C1F6FF70204901F0CFFD5DE041F2301099
S32D0000E6C0C1F6FF701C4901F0C7FD7B68A3F106031846FEF741FC034641F22810C1F6FF70194601F0B9FD47E0D5
S32D0000E6E87B6803F102031846FEF732FC034641F23010C1F6FF70194601F0AAFD7B68A3F102031846FEF724FCDF
S32D0000E710034641F22810C1F6FF70194601F09CFD2AE000BFAFF30080CDCCCCCCCCCC1040000000400000C03FD5
S32D0000E738000000007B68A3F102031846FEF708FC034641F23010C1F6FF70194601F080FD7B6803F102031846F7
S32D0000E760FEF7FAFB034641F22810C1F6FF70194601F072FD00E000BF44E600BF07F11C07BD4690BDAFF30080F3
S32D0000E788F0B585B000AF7860396041F24410C1F6FF7004F0E7FD41F24010C1F6FF7004F0E1FD7868FEF7D4FBC5
S32D0000E7B0034641F23010C1F6FF70194601F04CFD7868FEF7C9FB034641F22810C1F6FF70194601F041FD04F0CB
S32D0000E7D87FF802460B4610461946FEF7AFFA0346FB6000BF41F24010C1F6FF7004F0A6FD044641F24410C1F685
S32D0000E800FF7004F09FFD0346E3181846FDF752FF02460B46104619464FF000024FF08043FEF7D8F802460B4615
S32D0000E82814461D463868FDF741FF02460B464FF001010E4620462946FEF710FA0346002B02D14FF000031E4642
S32D0000E850F3B2002B27D004F03FF804460D46F868FDF73AFF02460B4620462946FDF7D4FD02460B464FF0010171
S32D0000E8780C46104619464FF000024FF0804303F5E013FEF7EBF90346002B02D14FF000031C46E3B2002B02D0E7
S32D0000E8A04FF0010301E04FF00003002B9ED141F23010C1F6FF7001F07FFC41F22810C1F6FF7001F079FC07F156
S32D0000E8C81407BD46F0BD00BFF0B587B000AFF860B9607A6041F24410C1F6FF7004F042FD41F24010C1F6FF7039
S32D0000E8F004F03CFDB868FEF72FFB034641F23010C1F6FF70194601F0A7FCF868FEF724FB034641F22810C1F6DA
S32D0000E918FF70194601F09CFC03F0DAFF02460B4610461946FEF70AFA03467B6100BF41F24010C1F6FF7004F0E6
S32D0000E94001FD044641F24410C1F6FF7004F0FAFC0346E3181846FDF7ADFE02460B46104619464FF000024FF0BB
S32D0000E9688043FEF733F802460B4614461D467868FDF79CFE02460B464FF001010E4620462946FEF76BF9034635
S32D0000E990002B02D14FF000031E46F3B2002B27D003F09AFF04460D467869FDF795FE02460B4620462946FDF7FB
S32D0000E9B82FFD02460B464FF001010C46104619464FF000024FF0804303F5E013FEF746F90346002B02D14FF03C
S32D0000E9E000031C46E3B2002B02D04FF0010301E04FF00003002B9ED141F23010C1F6FF7001F0DAFB41F2281048
S32D0000EA08C1F6FF7001F0D4FB07F11C07BD46F0BD2DE9F04387B000AFF860B9607A6041F24410C1F6FF7004F014
S32D0000EA309DFC41F24010C1F6FF7004F097FC41F22810C1F6FF70F96801F006FC41F23010C1F6FF70B96801F05F
S32D0000EA58FFFB03F03DFF02460B4610461946FEF76DF903467B616EE0B868F968FEF7BAF903461846FDF72CFE5D
S32D0000EA8004460D4641F24010C1F6FF7004F05AFC064641F24410C1F6FF7004F053FC0346F3181846FDF706FEF2
S32D0000EAA802460B46104619464FF000024FF08043FDF78CFF02460B46104619465CA3D3E90023FDF759FE024671
S32D0000EAD00B46904699467868FEF73EFA03461846FDF7FAFD02460B4640464946FDF772FF02460B461046194612
S32D0000EAF809F094FD02460B4620462946FDF73CFE02460B4614461D46F868FDF7E1FD02460B4620462946FDF7E0
S32D0000EB207DFC02460B4610461946FEF70BF903463B6141F22810C1F6FF70396901F08CFB41F23010C1F6FF70DE
S32D0000EB48396901F085FB41F24010C1F6FF7004F0F5FB044641F24410C1F6FF7004F0EEFB0346E3181846FDF795
S32D0000EB70A1FD02460B46104619464FF000024FF08043FDF727FF02460B4614461D467868FDF790FD02460B46DE
S32D0000EB984FF001010E4620462946FEF75FF80346002B02D14FF000031E46F3B2002B27D003F08EFE04460D46C9
S32D0000EBC07869FDF789FD02460B4620462946FDF723FC02460B464FF001010C46104619464FF000024FF0804327
S32D0000EBE803F5E013FEF73AF80346002B02D14FF000031C46E3B2002B02D04FF0010301E04FF00003002B7FF46C
S32D0000EC102FAF41F23010C1F6FF7001F0CDFA41F22810C1F6FF7001F0C7FA07F11C07BD46BDE8F083AFF300800C
S32D0000EC386E861BF0F92109402DE9F04387B000AFF860B9607A603B6041F24410C1F6FF7004F088FB41F2401090
S32D0000EC60C1F6FF7004F082FB41F22810C1F6FF70F96801F0F1FA41F23010C1F6FF70396801F0EAFA03F028FEF9
S32D0000EC8802460B4610461946FEF758F803467B61CDE0B868F968FEF7A5F803461846FDF717FD04460D4641F267
S32D0000ECB04010C1F6FF7004F045FB064641F24410C1F6FF7004F03EFB0346F3181846FDF7F1FC02460B461046E4
S32D0000ECD819464FF000024FF08043FDF777FE02460B46104619468CA3D3E90023FDF744FD02460B469046994624
S32D0000ED00B86BFEF729F903461846FDF7E5FC02460B4640464946FDF75DFE02460B461046194609F07FFC024628
S32D0000ED280B4620462946FDF727FD02460B4614461D46F868FDF7CCFC02460B4620462946FDF768FB02460B46AF
S32D0000ED5010461946FDF7F6FF034641F22810C1F6FF70194601F078FA38687968FEF73EF803461846FDF7B0FC68
S32D0000ED7804460D4641F24010C1F6FF7004F0DEFA064641F24410C1F6FF7004F0D7FA0346F3181846FDF78AFC71
S32D0000EDA002460B46104619464FF000024FF08043FDF710FE02460B461046194658A3D3E90023FDF7DDFC024675
S32D0000EDC80B4690469946B86BFEF7C2F803461846FDF77EFC02460B4640464946FDF7F6FD02460B46104619464D
S32D0000EDF009F018FC02460B4620462946FDF7C0FC02460B4614461D467868FDF765FC02460B4620462946FDF7DD
S32D0000EE1801FB02460B4610461946FDF78FFF034641F23010C1F6FF70194601F011FA41F24010C1F6FF7004F026
S32D0000EE4081FA044641F24410C1F6FF7004F07AFA0346E3181846FDF72DFC02460B46104619464FF000024FF03D
S32D0000EE688043FDF7B3FD02460B4614461D46B86BFDF71CFC02460B464FF001010E4620462946FDF7EBFE034667
S32D0000EE90002B02D14FF000031E46F3B2002B27D003F01AFD04460D467869FDF715FC02460B4620462946FDF7FA
S32D0000EEB8AFFA02460B464FF001010C46104619464FF000024FF0804303F5E013FDF7C6FE0346002B02D14FF036
S32D0000EEE000031C46E3B2002B02D04FF0010301E04FF00003002B7FF4D0AE41F23010C1F6FF7001F059F941F27C
S32D0000EF082810C1F6FF7001F053F907F11C07BD46BDE8F083AFF300806E861BF0F92109402DE9F04387B000AF57
S32D0000EF30F860B9607A6041F24410C1F6FF7004F015FA41F24010C1F6FF7004F00FFAF868FEF702F8034641F247
S32D0000EF582810C1F6FF70194601F07AF9FB68C3F100031846FDF7F4FF034641F23010C1F6FF70194601F06CF974
S32D0000EF806FE0BA68FB68D31A1846FDF793FB04460D4641F24010C1F6FF7004F0D3F9064641F24410C1F6FF70C3
S32D0000EFA804F0CCF90346F3181846FDF77FFB02460B46104619464FF000024FF08043FDF705FD02460B461046EC
S32D0000EFD019463BA3D3E90023FDF7D2FB02460B46904699467868FDF7B7FF03461846FDF773FB02460B46404636
S32D0000EFF84946FDF7EBFC02460B461046194609F00DFB02460B4620462946FDF7B5FB02460B4614461D46F8686A
S32D0000F020FDF748FB02460B4620462946FDF7F6F902460B4610461946FDF784FE03467B6141F22810C1F6FF70C0
S32D0000F048796901F005F97B6983F0004341F23010C1F6FF70194601F0FBF841F24010C1F6FF7004F06BF9044608
S32D0000F07041F24410C1F6FF7004F064F90346E3184FEAD372D3184FEA63031A467B689A42ACBF00230123DBB2CA
S32D0000F098002B7FF472AF41F23010C1F6FF7001F087F841F22810C1F6FF7001F081F807F11C07BD46BDE8F08351
S32D0000F0C06E861BF0F9210940F0B587B000AFF860B9607A6041F24410C1F6FF7004F046F941F24010C1F6FF7061
S32D0000F0E804F040F9B868FDF733FF034641F23010C1F6FF70194601F0ABF8F868FDF728FF034641F22810C1F6CC
S32D0000F110FF70194601F0A0F803F0DEFB02460B4610461946FDF70EFE03467B6133E041F24440C1F6FF706FF0EC
S32D0000F1387F4105F0EDFA41F24440C1F6FF704FF0000105F00DFB41F24010C1F6FF7004F0F5F8034641F2444069
S32D0000F160C1F6FF7019464FF000024FF0000305F093FD41F24410C1F6FF7004F0E3F8034641F24440C1F6FF7052
S32D0000F18819464FF001024FF0000305F081FD41F24010C1F6FF7004F0D1F8044641F24410C1F6FF7004F0CAF8F0
S32D0000F1B00346E3181846FDF77DFA02460B46104619464FF000024FF08043FDF703FC02460B4614461D4678686A
S32D0000F1D8FDF76CFA02460B464FF001010E4620462946FDF73BFD0346002B02D14FF000031E46F3B2002B23D0D0
S32D0000F20003F06AFB04460D467869FDF765FA02460B4620462946FDF7FFF802460B464FF001010C46104619467D
S32D0000F228D7E90C23FDF71AFD0346002B02D14FF000031C46E3B2002B02D04FF0010301E04FF00003002B7FF43D
S32D0000F2506EAF41F23010C1F6FF7000F0ADFF41F22810C1F6FF7000F0A7FF07F11C07BD46F0BD00BF90B583B015
S32D0000F27800AF7860396041F24410C1F6FF7004F071F841F24010C1F6FF7004F06BF87B68C3F100031846FDF752
S32D0000F2A05BFE034641F22810C1F6FF70194600F0D3FF7868FDF750FE034641F23010C1F6FF70194600F0C8FFD2
S32D0000F2C800BF41F24010C1F6FF7004F037F8044641F24410C1F6FF7004F030F80346E3184FEAD372D3184FEA94
S32D0000F2F063031A463B689A42ACBF00230123DBB2002BE2D141F23010C1F6FF7000F054FF41F22810C1F6FF7021
S32D0000F31800F04EFF07F10C07BD4690BD90B583B000AF7860396041F24410C1F6FF7004F019F841F24010C1F6AB
S32D0000F340FF7004F013F87868FDF706FE034641F22810C1F6FF70194600F07EFF7B68C3F100031846FDF7F8FDD2
S32D0000F368034641F23010C1F6FF70194600F070FF00BF41F24010C1F6FF7003F0DFFF044641F24410C1F6FF70A7
S32D0000F39003F0D8FF0346E3184FEAD372D3184FEA630319463A6813464FEA03139B1A4FEA43031A4648F29D2302
S32D0000F3B8C5F2973383FB02034FEAA3104FEAE273C31A3A68D31A9942ACBF00230123DBB2002BCED141F23010E6
S32D0000F3E0C1F6FF7000F0E8FE41F22810C1F6FF7000F0E2FE07F10C07BD4690BDF0B585B000AF7860396041F21A
S32D0000F408AC40C1F6FF7008F0C1FF0346FB604FF001031C4678685249FDF78CFF0346002B02D14FF000031C46DE
S32D0000F430E3B2002B01D04C4B7B603B6883F0004341F22810C1F6FF70194600F005FF41F23010C1F6FF70396834
S32D0000F45800F0FEFE4FF001031C467868F968FDF769FF0346002B02D14FF000031C46E3B2002B4AD000BF41F2A1
S32D0000F480AC40C1F6FF7008F085FF03464FF00102144618467968FDF751FF0346002B02D14FF000031C46E3B2E8
S32D0000F4A8002B2AD141F2AC40C1F6FF7008F06EFF03461846FDF70CF904460D46F868FDF707F902460B461046E6
S32D0000F4D019464FF000024FF08043FCF79DFF02460B464FF001010E4620462946FDF7D8FB0346002B02D14FF08D
S32D0000F4F800031E46F3B2002B02D04FF0010301E04FF00003002BB6D117E000BF41F2AC40C1F6FF7008F03AFF99
S32D0000F52003464FF00102144618467968FDF706FF0346002B02D14FF000031C46E3B2002BE8D141F23010C1F612
S32D0000F548FF70084900F084FE41F22810C1F6FF70044900F07DFE07F11407BD46F0BD00BF0000803F00000000D9
S32D0000F570F0B585B000AF7860396041F2AC40C1F6FF7008F007FF0346FB604FF001031C4678685249FDF7D2FEA8
S32D0000F5980346002B02D14FF000031C46E3B2002B01D04D4B7B6041F22810C1F6FF70396800F04EFE3B6883F0D2
S32D0000F5C0004341F23010C1F6FF70194600F044FE4FF001031C467868F968FDF7CDFE0346002B02D14FF0000382
S32D0000F5E81C46E3B2002B4AD000BF41F2AC40C1F6FF7008F0CBFE03464FF00102144618467968FDF7B5FE0346E0
S32D0000F610002B02D14FF000031C46E3B2002B2AD141F2AC40C1F6FF7008F0B4FE03461846FDF752F804460D46FE
S32D0000F638F868FDF74DF802460B46104619464FF000024FF08043FCF7E5FE02460B464FF001010E4620462946A1
S32D0000F660FDF700FB0346002B02D14FF000031E46F3B2002B02D04FF0010301E04FF00003002BB6D117E000BF30
S32D0000F68841F2AC40C1F6FF7008F080FE03464FF00102144618467968FDF76AFE0346002B02D14FF000031C462E
S32D0000F6B0E3B2002BE8D141F23010C1F6FF70094900F0CAFD41F22810C1F6FF70054900F0C3FD07F11407BD466C
S32D0000F6D8F0BD00BF0000803F33F3B3430000000090B585B000AF7860396041F2AC40C1F6FF7008F04BFE034654
S32D0000F70041F24440C1F6FF7019464FF001024FF0010305F0E1FA41F24440C1F6FF7079684FF002024FF0010306
S32D0000F72805F0D6FA4FF00003FB7341F2AC40C1F6FF7008F02BFE034618465149FDF754FB0346BB60B868FCF7DD
S32D0000F750C3FF02460B464FF001010C461046194647A3D3E90023FDF79BFA0346002B02D14FF000031C46E3B216
S32D0000F778002B08D0B8684349FDF734FB0346BB604FF00103FB73FB7B002B37D041F2AC40C1F6FF7008F0FAFDA0
S32D0000F7A003464FF00102144618467968FDF7E4FD0346002B02D14FF000031C46E3B2002B12D04FF001031C4610
S32D0000F7C87868B968FDF7D4FD0346002B02D14FF000031C46E3B2002B02D04FF0010301E04FF00003002B04D06B
S32D0000F7F078683968FFF7BCFE3BE078683968FFF7FDFD36E041F2AC40C1F6FF7008F0C2FD03464FF00102144637
S32D0000F81818467968FDF78EFD0346002B02D14FF000031C46E3B2002B12D04FF001031C467868B968FDF77EFD62
S32D0000F8400346002B02D14FF000031C46E3B2002B02D04FF0010301E04FF00003002B04D078683968FFF7CAFD7A
S32D0000F86803E078683968FFF77FFE07F11407BD4690BD00BFAFF3008066666666667E7640000034430000B443B7
S32D0000F890B0B588B000AFF860B9607A6041F2AC40C1F6FF7008F056FD0346BB6141F2AC40C1F6FF7008F05EFD26
S32D0000F8B803467B61B8687969FDF794FA03461846FCF706FF04460D46F868B969FDF78AFA03461846FCF7FCFEAF
S32D0000F8E002460B462046294608F0E4FE02460B461046194618A3D3E90023FCF741FF02460B4610461946FDF755
S32D0000F9081DFA0346FB614FF001031C46F8691249FDF710FD0346002B02D14FF000031C46E3B2002B05D0F869D2
S32D0000F9300C49FDF75DFA0346FB617868FDF70CFB0346F8691946FFF7CFFE07F12007BD46B0BD00BFAFF300804D
S32D0000F958E8C35CB0DDA54C40000000000000B44398B500AF00BF41F24810C1F6FF7003F01FFD03464FF00102BF
S32D0000F980144618460649FDF7F7FC0346002B02D14FF000031C46E3B2002BE8D198BD00BF0000C03F00000000F4
S32D0000F9A898B500AF41F24810C1F6FF7003F000FD03461846FCF78CFE02460B464FF001010C46104619464EA39E
S32D0000F9D0D3E90023FDF746F90346002B02D14FF000031C46E3B2002B1ED041F24440C1F6FF704FF47F0104F0CA
S32D0000F9F88FFE41F24440C1F6FF704FF0FF0104F0AFFE41F24440C1F6FF704BF25801C0F201014FF000024FF0F0
S32D0000FA20010305F019F95BE041F24810C1F6FF7003F0C2FC03461846FCF74EFE02460B464FF001010C461046A8
S32D0000FA48194631A3D3E90023FDF708F90346002B02D14FF000031C46E3B2002B1ED041F24440C1F6FF704FF0D4
S32D0000FA70FF0104F051FE41F24440C1F6FF704FF47F0104F071FE41F24440C1F6FF704BF27801C0F201014FF09C
S32D0000FA9800024FF0010305F0DBF81DE041F24440C1F6FF704FF0000104F032FE41F24440C1F6FF706FF07F41F9
S32D0000FAC004F052FE41F24440C1F6FF704BF28401C0F201014FF000024FF0010305F0BCF841F24810C1F6FF70A3
S32D0000FAE803F066FC034641F24440C1F6FF7019464FF004024FF0010305F0EAF898BD00BFCDCCCCCCCCCCEC3FAF
S32D0000FB10666666666666024098B500AF41F24810C1F6FF7003F048FC03461846FCF7D4FD02460B464FF00101F8
S32D0000FB380C46104619461CA3D3E90023FDF78EF80346002B02D14FF000031C46E3B2002B02D04FF0010323E0BD
S32D0000FB6041F24810C1F6FF7003F026FC03461846FCF7B2FD02460B464FF001010C46104619460DA3D3E90023F8
S32D0000FB88FDF76CF80346002B02D14FF000031C46E3B2002B02D04FF0020301E04FF00003184698BDAFF300803E
S32D0000FBB0CDCCCCCCCCCCF43F9A9999999999054080B582B000AF786039607B68012B67D13A684FF6FF739A424C
S32D0000FBD862D141F21C10C1F6FF704FF0100103F0D5FB41F22010C1F6FF704FF0110103F0CDFB41F22410C1F681
S32D0000FC00FF704FF0120103F0C5FB41F22810C1F6FF704FF00001244A00F076FA41F23010C1F6FF704FF00101E9
S32D0000FC281F4A00F06DFA41F23810C1F6FF704FF002011C4A00F064FA41F24010C1F6FF704FF0020102F0C2FFB9
S32D0000FC5041F24410C1F6FF704FF0000102F0BAFF41F24810C1F6FF704FF0010103F092FB41F24C10C1F6FF70C7
S32D0000FC784FF0000103F044FF41F25810C1F6FF704FF0090102F07EFE41F25C10C1F6FF704FF0080102F076FEFD
S32D0000FCA007F10807BD4680BD000040410000B04080B500AF4FF001004FF6FF71FFF780FF80BD00BF80B500AF50
S32D0000FCC841F21472C1F6FF7241F21C13C1F6FF73D31A194641F21C13C1F6FF731A460B4610464FF000011A4624
S32D0000FCF00AF039F880BD00BF0BF0AEF800F0B0F9FFF7E0FF0BF080F80BF01CF80BF0B4F800F00CF84FF0000054
S32D0000FD1841F26011C1F6FF71FDF75AFB0346184609F0F8FF80B500AF4FF4E043C4F204034FF4E042C4F20402EA
S32D0000FD4002F5805202F13802126842F4785203F5805303F138031A6000F02EF900F094F841F29033C1F6FF73FF
S32D0000FD684FF058021A6041F29033C1F6FF731B684FF47A7202FB03F241F28C33C1F6FF731A6041F28C33C1F659
S32D0000FD90FF731B681A464FF4E043C4F2040303F5825303F104031B6803F070634FEA136303F10103B2FBF3F382
S32D0000FDB81A4641F29433C1F6FF731A604FF4E043C4F204034FF4E042C4F2040202F5805202F13C02126842F036
S32D0000FDE0225203F5805303F13C031A604FF4E043C4F204034FF4E042C4F2040202F5805202F13002126842F02B
S32D0000FE08006203F5805303F130031A604FF45043C4F203034FF480721A614FF0640002F0A3FB4FF45043C4F2FD
S32D0000FE3003034FF45042C4F20302526922F010025A614FF45043C4F203034FF000021A604FF45043C4F2030395
S32D0000FE584FF010025A6103F0DDFB03F085FC41F28830C1F6FF7002F003FC41F24440C1F6FF7004F065FA41F2CC
S32D0000FE80883002F0E1FC80BD80B400AF4FF48043C4F206034FF000025A704FF48043C4F206034FF098021A70B5
S32D0000FEA84FF48043C4F206039B79DBB203F01003002B0CBF00230123DBB2002BF0D14FF48043C4F206039B7931
S32D0000FED0DBB203F00C034FEA9303022B0CBF00230123DBB2002BEED14FF48043C4F206034FF018021A714FF404
S32D0000FEF88043C4F206034FF000025A714FF4E043C4F2040303F5825303F104034FF00002C0F213121A604FF48E
S32D0000FF208043C4F206034FF054025A7100BF4FF48043C4F206039B79DBB203F02003002B14BF00230123DBB2C4
S32D0000FF48002BF0D100BF4FF48043C4F206039B79DBB203F04003002B14BF00230123DBB2002BF0D14FF4804380
S32D0000FF70C4F206034FF48042C4F206021278D2B202F03F02D2B21A704FF48043C4F206039B79DBB203F00C032A
S32D0000FF984FEA9303032B0CBF00230123DBB2002BEED14FF000031846BD4680BC704700BF80B400AF4FF44043B7
S32D0000FFC0C4F204034FF480725A634FF2C003C4F20F034FF2C002C4F20F02526942F400525A614FF2C003C4F216
S32D0000FFE80F034FF2C002C4F20F02126842F400521A604FF44043C4F2040340F20312C0F20A021A634FF46143A7
S32D00010010CEF200034FF46142CEF20002D2F8882142F08062C3F888214FF46143CEF200034FF46142CEF2000219
S32D00010038926842F080629A60BD4680BC704700BF80B483B000AF7860FEE700BF80B400AF00BEBD4680BC7047B3
S32D0001006080B400AF4FF0E0224CF20003C0F20003C2F8083D4FF40053C4F205034CF22052DA814FF40053C4F2AD
S32D0001008805034DF62812DA814FF40053C4F205034FF0D2021A80BD4680BC704780B500AF4FF44043C4F204030B
S32D000100B0D3F8A03003F48053002B0CBF00230123DBB2002B1FD04FF44043C4F204034FF44042C4F20402D2F80A
S32D000100D8A02022F48052C3F8A02041F2CC40C1F6FF7008F05DFA4FF2C003C4F20F034FF2C002C4F20F02126812
S32D0001010022F400521A6080BD90B585B000AFF8600B467A60FB72FB68FA7A1A71FB684FF000025A714FF0010384
S32D000101281C4678682049FDF723F90346002B02D14FF000031C46E3B2002B02D01A4B7B6011E04FF001031C469A
S32D0001015078681849FDF7FCF80346002B02D14FF000031C46E3B2002B01D0124B7B607868FCF7B2FA02460B468B
S32D00010178104619460AA3D3E90023FCF7FDFA02460B4610461946FCF7D9FD0246FB681A60FB68184607F114071D
S32D000101A0BD4690BDAFF30080ABAAAAAAAAAA2040000040410000803F80B582B000AF78607B685B79002B10D071
S32D000101C87B684FF000025A717B681B7941F28830C1F6FF7019464FF000024FF01E0302F091FA07F10807BD460A
S32D000101F080BD00BF80B584B000AF786039603B687F2B03DD4FF07F03FB7309E03B6813F1800F03DA4FF0800341
S32D00010218FB7301E03B68FB737B685B79FA7B9A420FD07B68FA7B5A717B681A79FB7B41F28830C1F6FF701146F9
S32D000102401A464FF01E0302F061FA07F11007BD4680BD00BF00000000B0B584B000AF786039604FF001031C4616
S32D0001026838684D49FDF766F80346002B02D14FF000031C46E3B2002B02D0474B3B6011E04FF001031C463868FF
S32D000102904449FDF771F80346002B02D14FF000031C46E3B2002B01D03E4B3B603868FCF713FA04460D467B6895
S32D000102B81B681846FCF70CFA02460B46104619464FF000024FF0804303F5B203FCF77EFB02460B462046294625
S32D000102E0FCF74EFA02460B4610461946FCF72AFD03463B604FF001031C4638682A49FDF731F80346002B02D14C
S32D000103084FF000031C46E3B2002B14D03868FCF7DFF902460B46104619461DA3D3E90023FCF72AFA02460B4676
S32D0001033010461946FCF7BEFC0346FB6022E03868FCF7CAF902460B46104619464FF000024FF0804303F5C003F4
S32D00010358FCF712FA02460B46104619464FF000024FF0804303F5B203FCF730FB02460B4610461946FCF79AFC44
S32D000103800346FB607868F968FFF734FF07F11007BD46B0BDAFF3008052B81E85EB51F43F0000C8C20000C842EF
S32D000103A800000000AFF3008080B485B000AF02460B46FA71BB71BB79002B07D141F26413C1F6FF734FF0000271
S32D000103D01A7006E041F26413C1F6FF734FF001021A704FF03803FB7341F26413C1F6FF731A78FB7B1343FB7368
S32D000103F84FF4C043C4F206034FF4C042C4F206029278D2B242F01002D2B29A704FF4C043C4F206034FF4C04224
S32D00010420C4F206029278D2B242F02002D2B29A704FF4C043C4F20603FA7B1A7107F11407BD4680BC704700BFB2
S32D0001044880B483B000AF4FF001037B6004E000BF7B6803F101037B607B68312BCCBF00230123DBB2002BF2D16C
S32D0001047007F10C07BD4680BC704700BF80B582B000AF02460B46FA71BB7141F26513C1F6FF731B7818464FF053
S32D000104980001FFF789FF4FF4C043C4F20603DB78DBB203F00203002B14BF00230123DBB2002BF0D14FF4C043D5
S32D000104C0C4F206034FF4C042C4F20602D278D2B242F00202D2B2DA704FF4C043C4F20603FA791A714FF4C04330
S32D000104E8C4F20603DB78DBB203F00203002B14BF00230123DBB2002BF0D14FF4C043C4F206034FF4C042C4F290
S32D000105100602D278D2B242F00202D2B2DA704FF4C043C4F20603BA791A714FF4C043C4F20603DB78DBB203F047
S32D000105380203002B14BF00230123DBB2002BF0D14FF4C043C4F206034FF4C042C4F20602D278D2B242F00202C5
S32D00010560D2B2DA704FF4C043C4F206034FF4C042C4F206029278D2B222F02002D2B29A704FF4C043C4F2060341
S32D000105884FF4C042C4F206029278D2B222F01002D2B29A70FFF754FF07F10807BD4680BD80B582B000AF034612
S32D000105B0FB71FB79184600F06BF807F10807BD4680BD00BF80B582B000AF02460B46FA71BB7100F039F8FB79AA
S32D000105D84FEA4303DBB21846FFF7E2FFBB791846FFF7DEFF00F03EF807F10807BD4680BD80B500AF4FF0FF00BF
S32D0001060000F046F80346184680BD00BF80B584B000AF0346FB7100F017F8FB794FEA4303DBB243F00103DBB2EA
S32D00010628DBB21846FFF7BCFFFFF7E2FF0346FB7300F018F8FB7B184607F11007BD4680BD80B400AF4FF24003EF
S32D00010650C4F20F034FF24002C4F20F02926842F480129A60BD4680BC704700BF80B400AF4FF24003C4F20F03C9
S32D000106784FF24002C4F20F02526842F480125A60BD4680BC704700BF80B485B000AF0346FB714FF00003BB73DB
S32D000106A003E0FB7B03F10103FB734FF44043C4F20A03DB6A4FF00003002BF2D14FF44043C4F20A034FF4404220
S32D000106C8C4F20A02D26A42F00042DA624FF44043C4F20A03FA795A6300BF4FF44043C4F20A03DB6A03F40033E5
S32D000106F0002B14BF00230123DBB2002BF1D14FF44043C4F20A039B6BBB73BB7B184607F11407BD4680BC7047C2
S32D0001071880B582B000AF4FF4E043C4F204034FF4E042C4F2040202F5805202F13002126842F4805203F580531D
S32D0001074003F130031A604FF42043C4F204034FF480721A654FF24003C4F20F034FF24002C4F20F02526942F44B
S32D0001076880125A61FFF77EFF4FF42043C4F204034FF400725A654FF42043C4F204034FF400729A654FF420430E
S32D00010790C4F204034FF40072DA654FF44043C4F20A034FF44062C8F200021A604FF44043C4F20A034FF0050216
S32D000107B8C3F60062DA604FF000037B6007E04FF0FF00FFF7EDFE7B6803F101037B607B68092BCCBF00230123FB
S32D000107E0DBB2002BEFD104A1D1E9000102F048F807F10807BD4680BD9A9999999999B93F90B486B000AFF86089
S32D00010808B9607A60FA684FF42043C4F206039A4214D14FF4E043C4F204034FF4E042C4F2040202F5805202F146
S32D000108303402126842F4806203F5805303F134031A6083E0FA684FF43043C4F206039A4214D14FF4E043C4F24A
S32D0001085804034FF4E042C4F2040202F5805202F13402126842F4006203F5805303F134031A6067E0FA684FF4E9
S32D000108804043C4F206039A4214D14FF4E043C4F204034FF4E042C4F2040202F5805202F13402126842F480528E
S32D000108A803F5805303F134031A604BE0FA684FF45043C4F206039A4214D14FF4E043C4F204034FF4E042C4F290
S32D000108D0040202F5805202F13402126842F4005203F5805303F134031A602FE0FA684FF42043C4F20E039A42D5
S32D000108F814D14FF4E043C4F204034FF4E042C4F2040202F5805202F12802126842F4806203F5805303F1280346
S32D000109201A6013E04FF4E043C4F204034FF4E042C4F2040202F5805202F12802126842F4006203F5805303F140
S32D0001094828031A60FB68DB78DBB223F00C03DAB2FB68DA70FB684FF000029A70BB684FF47A7202FB03F27B6868
S32D000109704FEA031392FBF3F39CB2FB681B78DBB223F01F03FB75234603F4F8534FEA2323DBB203F01F03DAB2C8
S32D00010998FB7D1343DAB2FB681A70E2B2FB685A70BB684FF4FA4202FB03F27B684FEA031392FBF3F39AB223463A
S32D000109C019464FEAC121CB1A4FEA43139BB2D3189CB2FB689B7ADBB223F01F03FB75E3B203F01F03DAB2FB7D3C
S32D000109E81343DAB2FB689A72FB68DB78DBB243F00C03DAB2FB68DA7007F11807BD4690BC704700BF80B483B08E
S32D00010A1000AF786000BF7B681B79DBB203F02003002B14BF00230123DBB2002BF3D17B68DB79DBB2184607F17C
S32D00010A380C07BD4680BC704780B483B000AF78600B46FB7000BF7B681B79DBB2DBB26FEA0303DBB24FEAD31381
S32D00010A60DBB2002BF3D17B68FA78DA7107F10C07BD4680BC704700BF80B487B000AFF860B9607A60FB687B61E7
S32D00010A8807E0BB68DAB27B691A707B6903F101037B617B68002B0CBF00230123DBB27A6802F1FF327A60002BCB
S32D00010AB0EBD107F11C07BD4680BC704780B584B000AF786039607B681B6BFB60FA683B689A4264D07B681B7971
S32D00010AD8002B43D07B685A787B6803F1340310461946FA684FF0010301F0ACFB0346002B0CBF00230123DBB2E9
S32D00010B00002B02D04FF001034BE07B684FF000021A717B685A6A7B681B6AD218FB689A4220D97B68DB78FB72D8
S32D00010B2814E07B681B6AFA68D318FB607B685A787B6803F1340310461946FA684FF0010301F080FBFB7A03F1A8
S32D00010B50FF33FB72FB7A012B94BF00230123DBB2002BE2D13B68002B19D07B685A787B6803F134031046194602
S32D00010B783A684FF0010301F057FA0346002B0CBF00230123DBB2002B02D04FF0010304E07B683A681A634FF0AF
S32D00010BA00003184607F11007BD4680BD80B584B000AF786078684FF00001FFF77FFF0346FB73FB7B002B40F06A
S32D00010BC8AE807B681B78032B40F095807B685B79002B00F090807B684FF000021A637B6803F1340318464FF0B9
S32D00010BF000014FF40072FFF73FFF7B684FF0550283F832227B684FF0AA0283F833227B684FF0520283F83420C1
S32D00010C187B684FF0520283F835207B684FF0610283F836207B684FF0410283F837207B684FF0720283F818228F
S32D00010C407B684FF0720283F819227B684FF0410283F81A227B684FF0610283F81B227B681B69DAB27B6883F88F
S32D00010C681C227B681B699BB24FEA2323DAB27B6883F81D227B681B694FEA1343DAB27B6883F81E227B681B693C
S32D00010C904FEA1363DAB27B6883F81F227B68DB68DAB27B6883F820227B68DB689BB24FEA2323DAB27B6883F82D
S32D00010CB821227B68DB684FEA1343DAB27B6883F822227B68DB684FEA1363DAB27B6883F823227B6859787B684C
S32D00010CE003F134027B685B69084611461A464FF0010301F0ABFA7B684FF000025A717B685B7818464FF00001F3
S32D00010D084FF0000201F084FB0346002B0CBF00230123DBB2002B02D04FF00103FB73FB7B184607F11007BD4664
S32D00010D3080BD00BF80B582B000AF78600B467B807B68002B08D07B681B78002B04D07B68DB887A889A4202D00D
S32D00010D584FF009030FE07B685B78184601F0ECFB034603F00103DBB2002B02D04FF0030301E04FF000031846B6
S32D00010D8007F10807BD4680BD80B586B000AF78607B681A687B689B8810461946FFF7CAFF0346FB75FB7D002BD0
S32D00010DA840F0C8807B689B7903F02003002B00F0C1807B689B7903F04003002B20D07B681B6859787B6803F1E5
S32D00010DD028027B689B69084611461A464FF0010301F034FA0346002B0CBF00230123DBB2002B02D04FF0010329
S32D00010DF8A1E07B689B7923F04003DAB27B689A717B681A687B68DB6910461946FFF752FE0346FB75FB7D002BA1
S32D00010E2040F08C807B681B6A3B613B6903F10B033A6902F10B02127842F02002D2B21A703B6903F11C037A6895
S32D00010E48D268D2B21A703B6903F11D037A68D26892B24FEA2222D2B21A703B6903F11E037A68D2684FEA12422E
S32D00010E70D2B21A703B6903F11F037A68D2684FEA1262D2B21A703B6903F11A037A681269D2B21A703B6903F1FC
S32D00010E981B037A68126992B24FEA2222D2B21A703B6903F114037A6812694FEA1242D2B21A703B6903F115038A
S32D00010EC07A6812694FEA124292B24FEA2222D2B21A704FF00003FB603B6903F11603FA68D2B21A703B6903F1F4
S32D00010EE81703FA6892B24FEA2222D2B21A703B6903F11803FA684FEA1242D2B21A703B6903F11903FA684FEA91
S32D00010F101262D2B21A707B689B7923F02003DAB27B689A717B681B684FF001021A717B681B681846FFF73AFE64
S32D00010F380346FB75FB7D184607F11807BD4680BD80B584B000AF78607868FFF719FF0346FB73FB7B002B03D19A
S32D00010F607B684FF000021A60FB7B184607F11007BD4680BD80B588B000AF786039604FF080033B614FF00F0365
S32D00010F88FB604FF0FF337B614FF00203FB612AE04FF00103BB611AE0FB69BA6902FB03F33A6802FB03F27B689E
S32D00010FB0D31ABB60BB68002B09DBBA687B699A4205D2BB687B61FB693B61BB69FB60BB6903F10103BB61BB6945
S32D00010FD8102B8CBF00230123DBB2002BDCD1FB694FEA4303FB61FB69B3F5807F8CBF00230123DBB2002BCBD188
S32D000110004FF48053C4F20B034FF48052C4F20B02D26A22F00802DA624FF48053C4F20B03DB6A1A464FF00F03AB
S32D00011028CFF6F0731340BB614FF48053C4F20B033A694FEA52024FEA02224FEA02424FEA1242F96801F1FF310E
S32D000110504FEA0111C9B21143BA690A4342F46022DA6203E04FF00A0001F0EEFB4FF48053C4F20B035B6A03F05B
S32D000110780803002B14BF00230123DBB2002BEDD14FF48053C4F20B034FF48052C4F20B02D26A42F00802DA621D
S32D000110A04FF48053C4F20B034FF48052C4F20B02126B42F480121A6307F12007BD4680BD80B582B000AF786060
S32D000110C839607B684FF000021A604FF48053C4F20B034FF40042C0F20012DA624FF48053C4F20B03DB6A03F051
S32D000110F08073002B0CBF00230123DBB2002BF1D14FF48053C4F20B034FF00002C3F8C0204FF48053C4F20B0397
S32D000111184FF481325A604FF48053C4F20B034FF028029A624FF48053C4F20B034FF001125A643B689B681846CB
S32D000111404CF66041C0F20501FFF714FF4FF48053C4F20B035B6A03F00303002B0CBF00230123DBB2002BF1D18D
S32D000111684FF45043C4F2040340F243421A604FF45043C4F2040340F243425A604FF45043C4F204034FF48862D0
S32D000111909A604FF45043C4F2040340F24342DA604FF45043C4F2040340F243421A614FF45043C4F2040340F228
S32D000111B843425A614FF4E043C4F204034FF4E042C4F2040202F5805202F13002126842F4003203F5805303F1F5
S32D000111E030031A604FF48053C4F20B034FF6FF721A634FF48053C4F20B034FF0B302C0F27F025A634FF4805352
S32D00011208C4F20B034FF48052C4F20B02D26A42F00062DA624FF48053C4F20B03DB6A03F00063002B0CBF002381
S32D000112300123DBB2002BF1D14FF48053C4F20B035B6A03F48033002B0CBF00230123DBB2002B03D07B684FF0BE
S32D0001125801021A604FF48053C4F20B034FF48052C4F20B02126B42F080021A634FF00003184607F10807BD46E0
S32D0001128080BD00BF80B400AF4FF48053C4F20B035B6A1A4640F207331340002B0CBF00230123DBB21846BD4677
S32D000112A880BC704780B485B000AF78604FF48053C4F20B031B6B1A467B681340FB60FB68002B14BF002301233B
S32D000112D0DBB2002BEED1FB68184607F11407BD4680BC704780B584B000AF78607B681B7803F03F024BF268333C
S32D000112F8C0F2010353F82230FB60FB68002B06D17B681B78002B02D04FF0010330E14FF48053C4F20B034FF4D0
S32D000113208052C4F20B02126B42F080021A634FF48053C4F20B035B6A03F00103DBB2002BF5D14FF48053C4F27B
S32D000113480B037A6852689A60FB6823F44003FB607B685B784FEA835303F44003FA681343FB607B685B78022BC5
S32D0001137003D1FB6843F40013FB607B685B78042B16D1FB6803F44033B3F5003F08D1FB6823F44033FB60FB686E
S32D0001139843F44033FB6007E0FB6823F44033FB60FB6843F40033FB604FF48053C4F20B034FF48052C4F20B0218
S32D000113C052684FEA02424FEA12425A607B68DB68002B32D0FB6803F44033B3F5403F03D0FB6843F40013FB605E
S32D000113E87B681B7A002B03D0FB6843F01003FB607B68DB68012B03D9FB6843F02003FB607B68DB68B3F1FF3F12
S32D0001141013D04FF48053C4F20B034FF48052C4F20B02526811467A68D2684FEA02420A435A60FB6843F00203CC
S32D00011438FB604FF48053C4F20B034FF000021A604FF48053C4F20B03FA68DA604FF00100C0F20E00FFF726FF04
S32D000114600346012B0CBF00230123DBB2002B10D04FF48053C4F20B034FF48052C4F20B02126B42F4702242F015
S32D0001148801021A634FF0010372E04FF48053C4F20B031B6B03F08003002B0CBF00230123DBB2002B0ED04FF434
S32D000114B08053C4F20B034FF48052C4F20B02126B42F001121A634FF0010355E04FF48053C4F20B031B6B03F490
S32D000114D88033002B0CBF00230123DBB2002B0ED04FF48053C4F20B034FF48052C4F20B02126B42F001121A636E
S32D000115004FF0FF3338E0FB6803F44033002B25D04FF48053C4F20B031B691A467B681A61FB6803F44033B3F5B5
S32D00011528803F17D14FF48053C4F20B035B691A467B685A614FF48053C4F20B039B691A467B689A614FF480531F
S32D00011550C4F20B03DB691A467B68DA614FF48053C4F20B034FF48052C4F20B02126B42F001021A634FF00003C3
S32D00011578184607F11007BD4680BD00BF80B592B000AF786039604FF00003FB633B68BB6341F27C13C1F6FF73F5
S32D000115A07B637B6B002B03D140F6012300F0A0BC41F28033C1F6FF733B633B6B002B03D140F60B2300F094BCBD
S32D000115C83B6B1B68FB62FB6A002B03D140F60B2300F08ABC7B6841F20432934200F0388241F2043293421BD874
S32D000115F041F20132934238D041F20132934207D8032B00F03D84092B00F0298400F066BC41F20232934200F081
S32D00011618128241F20332934200F0BE8300F05ABC41F20732934200F04B8341F2073293420BD841F20532934239
S32D0001164000F0348241F20632934200F0108300F045BC41F20832934200F0B68241F20932934200F0C48200F04E
S32D0001166839BC786B4BF25C31C0F20101FFF724FD0346FB63FB6B002B40F030844FF0000387F847304FF0000350
S32D0001169087F82B304FF0000387F82A304FF0000387F829304FF0000387F846304FF0000387F828304FF000038A
S32D000116B83B724FF000037B724FF00003FB604FF000033B744FF000037B6107F108031846FFF704FE0346002BAE
S32D000116E00CBF00230123DBB2002B03D04FF00103FB63FCE340F24C4001F0A6F84FF008033B724FF000037B724B
S32D000117084FF4D573FB604FF000033B744FF000037B6107F108031846FFF7E0FD03463B643B6C002B0BD1BA69D0
S32D00011730FB689A4203D04FF00103FB63D7E34FF0010387F846304FF0010387F8283097F82830002B00F0C68083
S32D000117584FF037033B724FF000037B724FF00003FB604FF000033B744FF000037B6107F108031846FFF7B2FD5B
S32D0001178003463B643B6C002B03D04FF00103FB63ADE34FF069033B724FF000037B724FF00003FB604FF0000316
S32D000117A83B744FF000037B6107F108031846FFF795FD0346002B0CBF00230123DBB2002B03D04FF00103FB63AA
S32D000117D08DE3BB6903F44013002B00F083804FF000033B644FF00A0001F02EF83B6C03F101033B644FF03703F6
S32D000117F83B724FF000037B724FF00003FB604FF000033B744FF000037B6107F108031846FFF764FD0346002B0E
S32D000118200CBF00230123DBB2002B03D04FF00103FB6336E04FF069033B724FF000037B7297F84630002B05D0B9
S32D000118484FF00003C4F23003FB6002E04FF44013FB604FF000033B744FF000037B6107F108031846FFF73AFD7B
S32D000118700346002B0CBF00230123DBB2002B03D04FF00103FB630CE0BB69002B05DB3B6C632B02D84FF001032A
S32D0001189801E04FF00003002BA0D1FB6B002B40F01F833B6C632B04D94FF0000387F8463014E04FF0010387F800
S32D000118C0473097F84630002B0CD04FF0000387F84630BB6903F08043002B03D04FF0010387F8463097F82A3046
S32D000118E8002B03D07B6B4FF007021A6097F82930002B03D07B6B4FF008021A6097F82B30002B03D07B6B4FF08F
S32D0001191004021A6097F84730002B0BD07B6B4FF002021A6097F84630002B03D07B6B4FF003021A6097F82B30E8
S32D00011938002B0FD097F84730002B0BD07B6B4FF005021A6097F84630002B03D07B6B4FF006021A604FF4504344
S32D00011960C4F204034FF000021A604FF45043C4F204034FF000025A604FF45043C4F204034FF000029A604FF441
S32D000119885043C4F204034FF00002DA604FF45043C4F204034FF000021A614FF45043C4F204034FF000025A6187
S32D000119B0FB6A9A68FB6A5B6810461946FFF7DAFA4FF45043C4F2040340F243421A604FF45043C4F2040340F271
S32D000119D843425A604FF45043C4F204034FF488629A604FF45043C4F2040340F24342DA604FF45043C4F20403D0
S32D00011A0040F243421A614FF45043C4F2040340F243425A614FF4E043C4F204034FF4E042C4F2040202F5805273
S32D00011A2802F13002126842F4003203F5805303F130031A6057E2B86BFFF750FC03463B643B6C002B00F04E8204
S32D00011A504FF00203FB6349E2BB6B002B03D14FF00C03FB6343E24FF48053C4F20B03DB6A03F47F434FEA13235D
S32D00011A784FEA43033B644FF48053C4F20B03DB6A03F0F0034FEA131303F101023B6C02FB03F33B64FB6A9A6826
S32D00011AA03B6CB2FBF3F2BB6B1A6020E2BB6B002B03D14FF00C03FB6319E2BB6B1B68002B03D14FF00C03FB631C
S32D00011AC811E2FFF7DBFB0346002B14BF00230123DBB2002B70D04FF45043C4F204034FF000021A604FF4504386
S32D00011AF0C4F204034FF000025A604FF45043C4F204034FF000029A604FF45043C4F204034FF00002DA604FF4F0
S32D00011B185043C4F204034FF000021A614FF45043C4F204034FF000025A61FB6A9A68BB6B1B6810461946FFF748
S32D00011B4019FA4FF45043C4F2040340F243421A604FF45043C4F2040340F243425A604FF45043C4F204034FF4C5
S32D00011B6888629A604FF45043C4F2040340F24342DA604FF45043C4F2040340F243421A614FF45043C4F204038E
S32D00011B9040F243425A614FF4E043C4F204034FF4E042C4F2040202F5805202F13002126842F4003203F58053D5
S32D00011BB803F130031A6096E140F60A23FB6392E1BB6B002B03D14FF00C03FB638BE14FF48053C4F20B035B68D8
S32D00011BE04FEAC3434FEAD343BA6B13607FE1BB6B002B03D14FF00C03FB6378E1FFF742FB0346002B14BF002389
S32D00011C080123DBB2002B2AD0BB6B1A6840F6FF739A4203D94FF00C03FB6364E14FF48053C4F20B034FF48052EF
S32D00011C30C4F20B02526822F4FE5222F03F025A604FF48053C4F20B034FF48052C4F20B0252681146BA6B126833
S32D00011C584FEAC2424FEAD2420A435A6043E140F60A23FB633FE1BB6B002B03D14FF00C03FB6338E14FF48053C7
S32D00011C80C4F20B039B6A03F006034FEA53033B643B6C002B04D1BB6B4FF000021A6026E13B6C012B04D1BB6BE5
S32D00011CA84FF001021A601EE13B6C102B04D1BB6B4FF002021A6016E14FF00503FB6312E1BB6B002B03D14FF0C5
S32D00011CD00C03FB630BE1FFF7D5FA0346002B14BF00230123DBB2002B56D0BB6B1B68002B16D14FF48053C4F2D4
S32D00011CF80B034FF48052C4F20B02926A22F006029A624FF48053C4F20B034FF48052C4F20B02926A9A62E6E055
S32D00011D20BB6B1B68012B18D14FF48053C4F20B034FF48052C4F20B02926A22F006029A624FF48053C4F20B0338
S32D00011D484FF48052C4F20B02926A42F002029A62C9E0BB6B1B68022B16D14FF48053C4F20B034FF48052C4F25B
S32D00011D700B02926A22F006029A624FF48053C4F20B034FF48052C4F20B02926A9A62AEE04FF00503FB63AAE0BE
S32D00011D9840F60A23FB63A6E0BB6B002B03D14FF00C03FB639FE04FF48053C4F20B034FF48052C4F20B02D26A97
S32D00011DC042F00062DA624FF48053C4F20B03DB6A03F00063002B0CBF00230123DBB2002BF1D14FF48053C4F22C
S32D00011DE80B031B6B03F08003002B0CBF00230123DBB2002B0FD04FF48053C4F20B034FF48052C4F20B02126BBF
S32D00011E1042F080021A637B6B4FF000021A604FF48053C4F20B035B6A03F48033002B0CBF00230123DBB2002B93
S32D00011E3808D07B6B1B68002B08D17B6B4FF001021A6003E07B6B4FF000021A607B6B1A68BB6B1A6047E0BB6BBB
S32D00011E604FF01C021A60BB6B03F104034FF004021A60BB6B03F108034FF41E721A6036E04FF00200FFF712FAD1
S32D00011E884FF48053C4F20B031B6B03F4E003002B0CBF00230123DBB2002B0ED04FF48053C4F20B034FF480522F
S32D00011EB0C4F20B02126B42F4E0021A634FF00403FB634FF48053C4F20B034FF48052C4F20B02126B42F03202F5
S32D00011ED81A6308E040F60923FB6304E000BF02E000BF00E000BFFB6B184607F14807BD4680BD00BF80B489B05C
S32D00011F0000AF786039607B687B6141F27C13C1F6FF733B613B69002B02D14FF0000381E03B691B68022B0BD0D8
S32D00011F283B691B68032B07D03B691B68072B03D03B691B68082B0DD14FF48053C4F20B035B6A03F00403002B36
S32D00011F500CBF00230123DBB2002BF1D13B68FB6156E0FB69B3F5007F28BF4FF40073FB60FB6803F103034FEA88
S32D00011F789303BB613CE04FF48053C4F20B031B6B03F4E003002B0CBF00230123DBB2002B10D04FF48053C4F291
S32D00011FA00B034FF48052C4F20B02126B42F4E00242F020021A634FF0000333E04FF48053C4F20B035B6A03F4DB
S32D00011FC80063002B14BF00230123DBB2002BF1D14FF48053C4F20B031B6A1A467B691A607B6903F104037B61F0
S32D00011FF0BB6903F1FF33BB61BB69002B0CBF00230123DBB2002BBAD1FA69FB68D31AFB61FB69002B0CBF00232C
S32D000120180123DBB2002BA0D14FF00103184607F12407BD4680BC704780B58EB000AFB9607A600246FA73BB739A
S32D0001204041F26813C1F6FF737B63FB7B002B02D1BB7B002B02D14FF0040381E040F20043C1F6FF731B78DBB2AF
S32D0001206803F00103DBB2002B02D04FF0030373E0BB68002B02D14FF000036DE07B6B1B7B002B03D17B684FEAE9
S32D0001209043237B60BB7B012B2CD14FF011033B754FF000037B757B68BB614FF001033B77BB7B3B6207F1140376
S32D000120B841F202301946FFF761FA0346002B14BF00230123DBB2002B3ED0B8684FF40071FFF710FF0346002B43
S32D000120E00CBF00230123DBB2002B31D04FF00003BB732DE04FF012033B754FF000037B757B68BB614FF0010311
S32D000121083B77BB7B3B6207F1140341F202301946FFF734FA0346002B14BF00230123DBB2002B11D0BB7B4FEA96
S32D000121304323B8681946FFF7E1FE0346002B0CBF00230123DBB2002B02D04FF00003BB73BB7B002B02D04FF0D4
S32D00012158010301E04FF00003184607F13807BD4680BD00BF80B487B000AF786039607B68FB603B687B6155E020
S32D000121807B69B3F5007F28BF4FF400733B617A693B69D31A7B613B6903F103034FEA93033B613BE04FF4805362
S32D000121A8C4F20B031B6B03F4E003002B0CBF00230123DBB2002B10D04FF48053C4F20B034FF48052C4F20B025D
S32D000121D0126B42F4E00242F010021A634FF0FF332EE04FF48053C4F20B035B6A03F48063002B14BF002301234D
S32D000121F8DBB2002BF1D14FF48053C4F20B03FA6812681A62FB6803F10403FB603B6903F1FF333B613B69002B1E
S32D000122200CBF00230123DBB2002BBBD17B69002B0CBF00230123DBB2002BA1D14FF00103184607F11C07BD462F
S32D0001224880BC704780B58EB000AFB9607A600246FA73BB7341F26813C1F6FF737B63FB7B002B02D1BB7B002BF2
S32D0001227002D14FF00403CAE040F20043C1F6FF731B78DBB203F00103DBB2002B02D04FF00303BCE040F20043E7
S32D00012298C1F6FF731B78DBB203F00403002B0CBF00230123DBB2002B02D04FF00203AAE0BB68002B02D14FF0DF
S32D000122C00003A4E07B6B1B7B002B03D17B684FEA43237B60BB7B012B2CD14FF018033B754FF000037B757B6812
S32D000122E8BB614FF000033B77BB7B3B6207F1140341F202301946FFF741F90346002B14BF00230123DBB2002B9B
S32D000123103ED0B8684FF40071FFF728FF0346002B0CBF00230123DBB2002B31D04FF00003BB732DE04FF0190388
S32D000123383B754FF000037B757B68BB614FF000033B77BB7B3B6207F1140341F202301946FFF714F90346002B84
S32D0001236014BF00230123DBB2002B11D0BB7B4FEA4323B8681946FFF7F9FE0346002B0CBF00230123DBB2002B1C
S32D0001238802D04FF00003BB734FF00D033B754FF000037B757B6B1B69BB614FF000033B774FF000033B6207F162
S32D000123B0140341F202301946FFF7E4F80346002B0CBF00230123DBB2002B02D04FF001031DE07A6A48F20803D8
S32D000123D8CFF6D9731340002B02D04FF0010312E07B6A03F4F853B3F5106F0CBF00230123DBB2002BC8D1BB7B59
S32D00012400002B02D04FF0010301E04FF00003184607F13807BD4680BD80B58CB000AF0B463A600246FA71BB718B
S32D0001242841F26813C1F6FF73BB62FB79002B02D04FF004037AE04FF0010387F82F3040F20043C1F6FF731B782E
S32D00012450DBB203F00103DBB2002B02D04FF0030368E0BB79032B5FD801A252F823F000BF812401008B24010014
S32D000124789D240100AF2401004FF0000387F82F3052E0BB6A9A683B681A604FF0000387F82F3049E03B684FF4DA
S32D000124A000721A804FF0000387F82F3040E04FF009033B724FF000037B72BB6A1B69FB604FF000033B744FF066
S32D000124C800037B6107F1080341F202301946FFF755F80346002B0CBF00230123DBB2002B02D04FF0010321E0A8
S32D000124F07B6A03F44003002B11D13B6A4FEA934303F07F0303F101027B6A4FEA132303F0030303F1FF3302FA02
S32D0001251803F23B681A604FF0000387F82F3003E04FF0040387F82F3097F82F30184607F13007BD4680BD00BFE1
S32D0001254080B483B000AF0346FB71FB79002B02D04FF0010305E040F20043C1F6FF731B78DBB2184607F10C07E1
S32D00012568BD4680BC704700BF80B483B000AF78604FF4E043C4F204034FF4E042C4F2040202F5805202F1380267
S32D00012590126842F0010203F5805303F138031A604FF00003C4F204037A689A604FF00003C4F204034FF00502D9
S32D000125B85A604FF00003C4F204034FF00002C4F20402126842F001021A6000BF4FF00003C4F204031B6803F0E1
S32D000125E08003002B14BF00230123DBB2002BF1D14FF00003C4F204034FF00002C4F20402126822F001021A6085
S32D0001260807F10C07BD4680BC704700BF80B582B000AF786039607B68012B0AD13A684FF6FF739A4205D141F234
S32D000126308830C1F6FF7000F00FF807F10807BD4680BD00BF80B500AF4FF001004FF6FF71FFF7E0FF80BD00BFF6
S32D0001265880B483B000AF78607B684FF000021A707B68184607F10C07BD4680BC704700BF80B582B000AF7860C8
S32D000126807B681B7883F00103DBB2002B36D04FF4E043C4F2040303F5805303F128034FF400621A604FF450437E
S32D000126A8C4F204034FF440721A624FF45043C4F204034FF440725A6241F28C33C1F6FF731B684FEAD372D3188A
S32D000126D04FEA63034FF43040C4F20E0019464FF46142FEF78DF84FF0640000F0ADF87B684FF001021A704FF0E0
S32D000126F8010301E04FF00003184607F10807BD4680BD00BF80B582B000AF7860F970BA707B704FF43040C4F253
S32D000127200E004FF07F01FEF78BF94FF43040C4F20E004FF00801FEF783F9FB784FF43040C4F20E001946FEF7D6
S32D000127487BF9BB784FF43040C4F20E001946FEF773F97B784FF43040C4F20E001946FEF76BF94FF43040C4F2F9
S32D000127700E004FF0FF01FEF763F907F10807BD4680BD00BF80B487B000AFF860B9607A60FA6844F6D353C1F2BC
S32D000127986203A3FB02134FEA9312BB68D3187B61FA6844F6D353C1F26203A3FB02134FEA93134FF47A7101FB9C
S32D000127C003F3D31AFB60FB684FEAC33244F6D353C1F26203A3FB02134FEA93127B68D3183B613B694FEAD333C5
S32D000127E87A69D3187B613B694FEA43434FEA53433B614FF45043C4F203031B681A467B699A4211D34FF450435B
S32D00012810C4F203031B681A467B699A420BD14FF45043C4F203035B681A463B699A4202D24FF0010301E04FF0F2
S32D000128380003002BDDD107F11C07BD4680BC704780B584B000AF78604FF45043C4F203031B68FB604FF450434E
S32D00012860C4F203035B68BB607B681846F968BA68FFF788FF07F11007BD4680BD0000000080B584B000AFC7E957
S32D0001288800014FF45043C4F203031B68FB604FF45043C4F203035B68BB60D7E900010AA3D3E90023F9F768FF9C
S32D000128B002460B4610461946FAF724FA03461846F968BA68FFF75EFF07F11007BD4680BD0000000000408F40C1
S32D000128D880B584B000AF4FF45043C4F203031B68FB604FF45043C4F203035B68BB60F868F9F7CCFE02460B4626
S32D00012900C7E90023B868F9F7C5FE02460B46104619464FF000024FF0804303F56003FAF759F802460B46D7E97B
S32D000129280001F9F777FD02460B46C7E90023D7E900231046194607F11007BD4680BD00BF80B483B000AF4FF4B0
S32D000129505043C4F203031B684FF47A7202FB03F37B604FF45043C4F203035B684FF47A7202FB03F34FEAD333D3
S32D000129787A68D3187B607B68184607F10C07BD4680BC704780B582B000AF78600B46FB70FB787868194600F0FA
S32D000129A007F87B68184607F10807BD4680BD00BF80B483B000AF78600B46FB707B68FA781A707B681B781A4663
S32D000129C84BF26843C0F201039B5C042B00F2F98001A252F823F000BFF5290100532A0100B12A01000F2B01003E
S32D000129F06D2B01004FF41043C4F204037A68127811464BF2AC42C0F2010252F8212040F2031143F822104FF4A8
S32D00012A187043C4F20F034FF47042C4F20F02526911467A68127810464BF2AC42C0F2010252F8202002F01F0207
S32D00012A404FF0010000FA02F26FEA02020A405A61BBE04FF42043C4F204037A68127811464BF2AC42C0F2010236
S32D00012A6852F8212040F2031143F822104FF24003C4F20F034FF24002C4F20F02526911467A68127810464BF25A
S32D00012A90AC42C0F2010252F8202002F01F024FF0010000FA02F26FEA02020A405A618CE04FF43043C4F2040368
S32D00012AB87A68127811464BF2AC42C0F2010252F8212040F2031143F822104FF28003C4F20F034FF28002C4F209
S32D00012AE00F02526911467A68127810464BF2AC42C0F2010252F8202002F01F024FF0010000FA02F26FEA0202DA
S32D00012B080A405A615DE04FF44043C4F204037A68127811464BF2AC42C0F2010252F8212040F2031143F82210F8
S32D00012B304FF2C003C4F20F034FF2C002C4F20F02526911467A68127810464BF2AC42C0F2010252F8202002F0B0
