S01100002E2E2F5365616C426F742E733139AE
S32D0000C00000000020ADF9000009FD000009FD000009FD000009FD000009FD00000000000000000000000000002E
S32D0000C0280000000009FD000009FD00000000000009FD000009FD000009FD000009FD000009FD000009FD0000BA
S32D0000C05009FD000009FD000009FD000009FD000009FD000009FD000009FD000009FD000009FD000009FD000086
S32D0000C07809FD000009FD000009FD000009FD000009FD000009FD000009FD000009FD000009FD000009FD00005E
S32D0000C0A009FD000009FD000009FD000009FD000009FD000009FD000009FD000009FD000009FD000009FD000036
S32D0000C0C809FD000009FD000009FD000009FD000009FD000009FD000009FD000009FD000009FD000009FD00000E
S32D0000C0F009FD0000ED70010009FD000009FD000009FD000009FD000009FD000009FD000009FD000009FD00008E
S32D0000C11809FD000009FD000009FD000009FD000009FD000009FD000009FD000009FD000009FD000009FD0000BD
S32D0000C14009FD000009FD000009FD000009FD0000AD38010009FD000009FD000009FD000009FD000009FD0000B5
S32D0000C16809FD000009FD000009FD000009FD000009FD000009FD000009FD000009FD000009FD000009FD00006D
S32D0000C19009FD000009FD000009FD00009D2F0100F12D0100C52E010059FD00007530010009FD000009FD000087
S32D0000C1B809FD000009FD000009FD000009FD000009FD000009FD000009FD000009FD000009FD000009FD00001D
S32D0000C41081F0004102E000BF83F0004330B54FEA41044FEA430594EA050F08BF90EA020F1FBF54EA000C55EAC6
S32D0000C438020C7FEA645C7FEA655C00F0E2804FEA5454D4EB5555B8BF6D420CDD2C4480EA020281EA030382EA0F
S32D0000C460000083EA010180EA020281EA0303362D88BF30BD11F0004F4FEA01314FF4801C4CEA113102D0404263
S32D0000C48861EB410113F0004F4FEA03334CEA133302D0524263EB430394EA050F00F0A780A4F10104D5F1200E8A
S32D0000C4B00DDB02FA0EFC22FA05F2801841F1000103FA0EF2801843FA05F359410EE0A5F120050EF1200E012A2D
S32D0000C4D803FA0EFC28BF4CF0020C43FA05F3C01851EBE37101F0004507D54FF0000EDCF1000C7EEB00006EEB67
S32D0000C5000101B1F5801F1BD3B1F5001F0CD349085FEA30004FEA3C0C04F101044FEA445212F5800F80F09A8000
S32D0000C528BCF1004F08BF5FEA500C50F1000041EB045141EA050130BD5FEA4C0C404141EB010111F4801FA4F114
S32D0000C5500104E9D191F0000F04BF01460020B1FA81F308BF2033A3F10B03B3F120020CDA0C3208DD02F1140C87
S32D0000C578C2F10C0201FA0CF021FA02F10CE002F11402D8BFC2F1200C01FA02F120FA0CFCDCBF41EA0C019040B1
S32D0000C5A0E41AA2BF01EB0451294330BD6FEA04041F3C1CDA0C340EDC04F11404C4F1200220FA04F001FA02F3B6
S32D0000C5C840EA030021FA04F345EA030130BDC4F10C04C4F1200220FA02F001FA04F340EA0300294630BD21FAA8
S32D0000C5F004F0294630BD94F0000F83F4801306BF81F480110134013D4EE77FEA645C18BF7FEA655C29D094EA1C
S32D0000C618050F08BF90EA020F05D054EA000C04BF1946104630BD91EA030F1EBF0021002030BD5FEA545C05D1A3
S32D0000C6404000494128BF41F0004130BD14F580043CBF01F5801130BD01F0004545F0FE4141F470014FF0000031
S32D0000C66830BD7FEA645C1ABF194610467FEA655C1CBF0B46024650EA013406BF52EA033591EA030F41F40021D7
S32D0000C69030BD00BF90F0000F04BF0021704730B54FF4806404F132044FF000054FF0000150E700BF90F0000F66
S32D0000C6B804BF0021704730B54FF4806404F1320410F0004548BF40424FF000013EE700BF42004FEAE2014FEAF9
S32D0000C6E031014FEA02701FBF12F07F4393F07F4F81F06051704792F0000F14BF93F07F4F704730B54FF460741B
S32D0000C70801F0004521F0004120E700BF50EA010208BF704730B54FF000050AE050EA010208BF704730B511F046
S32D0000C730004502D5404261EB41014FF4806404F132045FEA915C3FF4DCAE4FF003025FEADC0C18BF03325FEAA0
S32D0000C758DC0C18BF033202EBDC02C2F1200300FA03FC20FA02F001FA03FE40EA0E0021FA02F11444C1E600BF19
S32D0000C78070B54FF0FF0C4CF4E06C1CEA11541DBF1CEA135594EA0C0F95EA0C0F00F0DEF82C4481EA030621EAF3
S32D0000C7A84C5123EA4C5350EA013518BF52EA033541F4801143F4801338D0A0FB02CE4FF00005E1FB02E506F05F
S32D0000C7D00042E0FB03E54FF00006E1FB03569CF0000F18BF4EF0010EA4F1FF04B6F5007F64F5407404D25FEA0F
S32D0000C7F84E0E6D4146EB060642EAC62141EA55514FEAC52040EA5E504FEACE2EB4F1FD0C88BFBCF5E06F1ED8D2
S32D0000C820BEF1004F08BF5FEA500E50F1000041EB045170BD06F0004646EA010140EA020081EA0301B4EB5C0487
S32D0000C848C2BFD4EB0C0541EA045170BD41F480114FF0000E013C00F3AB8014F1360FDEBF002001F0004170BDF0
S32D0000C870C4F10004203C35DA0C341BDC04F11404C4F1200500FA05F320FA04F001FA05F240EA020001F0004207
S32D0000C89821F0004110EBD37021FA04F642EB06015EEA430E08BF20EAD37070BDC4F10C04C4F1200500FA04F32F
S32D0000C8C020FA05F001FA04F240EA020001F0004110EBD37041F100015EEA430E08BF20EAD37070BDC4F12005C7
S32D0000C8E800FA05F24EEA020E20FA04F301FA05F243EA020321FA04F001F0004121FA04F220EA020000EBD37028
S32D0000C9105EEA430E08BF20EAD37070BD94F0000F0FD101F00046400041EB010111F4801F08BF013CF7D041EA6D
S32D0000C938060195F0000F18BF704703F00046520043EB030313F4801F08BF013DF7D043EA0603704794EA0C0FF1
S32D0000C9600CEA135518BF95EA0C0F0CD050EA410618BF52EA4306D1D181EA030101F000414FF0000070BD50EA38
S32D0000C988410606BF1046194652EA430619D094EA0C0F02D150EA013613D195EA0C0F05D152EA03361CBF10467B
S32D0000C9B019460AD181EA030101F0004141F0FE4141F470014FF0000070BD41F0FE4141F4780170BD70B54FF04D
S32D0000C9D8FF0C4CF4E06C1CEA11541DBF1CEA135594EA0C0F95EA0C0F00F0A7F8A4EB050481EA030E52EA03359B
S32D0000CA004FEA013100F088804FEA03334FF0805545EA131343EA12634FEA022245EA111545EA10654FEA002676
S32D0000CA280EF000419D4208BF964244F1FD0404F5407402D25B084FEA3202B61A65EB03055B084FEA32024FF461
S32D0000CA5080104FF4002CB6EB020E75EB030E22BFB61A754640EA0C005B084FEA3202B6EB020E75EB030E22BF22
S32D0000CA78B61A754640EA5C005B084FEA3202B6EB020E75EB030E22BFB61A754640EA9C005B084FEA3202B6EBEA
S32D0000CAA0020E75EB030E22BFB61A754640EADC0055EA060E18D04FEA051545EA16754FEA06164FEAC30343EAAC
S32D0000CAC852734FEAC2025FEA1C1CC0D111F4801F0BD141EA00014FF000004FF0004CB6E711F4801F04BF0143AE
S32D0000CAF00020B4F1FD0C88BFBCF5E06F3FF6AFAEB5EB030C04BFB6EB020C5FEA500C50F1000041EB045170BDBC
S32D0000CB180EF0004E4EEA113114EB5C04C2BFD4EB0C0541EA045170BD41F480114FF0000E013C90E645EA060EC3
S32D0000CB408DE60CEA135594EA0C0F08BF95EA0C0F3FF43BAF94EA0C0F0AD150EA01347FF434AF95EA0C0F7FF499
S32D0000CB6825AF104619462CE795EA0C0F06D152EA03353FF4FDAE1046194622E750EA410618BF52EA43067FF432
S32D0000CB90C5AE50EA41047FF40DAF52EA43057FF4EBAE12E74FF0FF3C06E000BF4FF0010C02E000BF4FF0010C75
S32D0000CBB84DF804CD4FEA410C7FEA6C5C4FEA430C18BF7FEA6C5C1BD001B050EA410C0CBF52EA430C91EA030FEC
S32D0000CBE002BF90EA020F0020704710F1000F91EA030F58BF994208BF90422CBFD8176FEAE37040F0010070476E
S32D0000CC084FEA410C7FEA6C5C02D150EA013C07D14FEA430C7FEA6C5CD6D152EA033CD3D05DF8040B704700BFCD
S32D0000CC308446104662468C461946634600E000BF01B5FFF7B7FF002848BF10F1000F01BD4DF808EDFFF7F4FF13
S32D0000CC580CBF012000205DF808FB00BF4DF808EDFFF7EAFF34BF012000205DF808FB00BF4DF808EDFFF7E0FF18
S32D0000CC8094BF012000205DF808FB00BF4DF808EDFFF7CEFF94BF012000205DF808FB00BF4DF808EDFFF7C4FF40
S32D0000CCA834BF012000205DF808FB00BF4FEA410212F5001215D211D56FF47873B3EB625212D94FEAC12343F0D6
S32D0000CCD0004343EA505311F0004F23FA02F018BF404270474FF00000704750EA013005D111F0004008BF6FF016
S32D0000CCF8004070474FF00000704700BF4A0011D212F5001211D20DD56FF47873B3EB62520ED44FEAC12343F085
S32D0000CD20004343EA505323FA02F070474FF00000704750EA013002D14FF0FF3070474FF0000070474FEA410241
S32D0000CD48B2F1E04324BFB3F5001CDCF1FE5C0DD901F0004C4FEAC0024CEA5070B2F1004F40EB830008BF20F09E
S32D0000CD700100704711F0804F21D113F13872BCBF01F00040704741F480114FEA5252C2F11802C2F1200C10FAB1
S32D0000CD980CF320FA02F018BF40F001004FEAC1234FEAD32303FA0CFC40EA0C0023FA02F34FEA4303CCE77FEA26
S32D0000CDC0625307D150EA01331EBF4FF0FE4040F44000704701F0004040F0FE4040F40000704700BF80F00040CC
S32D0000CDE802E000BF81F0004142001FBF5FEA410392EA030F7FEA226C7FEA236C6AD04FEA1262D2EB1363C1BF06
S32D0000CE10D218414048404140B8BF5B42192B88BF704710F0004F40F4000020F07F4018BF404211F0004F41F4FA
S32D0000CE38000121F07F4118BF494292EA030F3FD0A2F1010241FA03FC10EB0C00C3F1200301FA03F100F000432B
S32D0000CE6002D5494260EB4000B0F5000F13D3B0F1807F06D340084FEA310102F10102FE2A51D2B1F1004F40EB94
S32D0000CE88C25008BF20F0010040EA03007047490040EB000010F4000FA2F10102EDD1B0FA80FCACF1080CB2EB5F
S32D0000CEB00C0200FA0CF0AABF00EBC25052421843BCBFD0401843704792F0000F81F4000106BF80F400000132EB
S32D0000CED8013BB5E74FEA41037FEA226C18BF7FEA236C21D092EA030F04D092F0000F08BF0846704790EA010FD7
S32D0000CF001CBF0020704712F07F4F04D1400028BF40F00040704712F100723CBF00F50000704700F0004343F0DC
S32D0000CF28FE4040F4000070477FEA226216BF08467FEA23630146420206BF5FEA412390EA010F40F480007047C1
S32D0000CF504FF0000304E000BF10F0004348BF40425FEA000C08BF704743F0964301464FF000001CE050EA010264
S32D0000CF7808BF70474FF000030AE000BF50EA010208BF704711F0004302D5404261EB41015FEA010C02BF84465B
S32D0000CFA00146002043F0B64308BFA3F18053A3F50003BCFA8CF2083AA3EBC25310DB01FA02FC634400FA02FC6B
S32D0000CFC8C2F12002BCF1004F20FA02F243EB020008BF20F00100704702F1200201FA02FCC2F1200250EA4C0034
S32D0000CFF021FA02F243EB020008BF20EADC7070474FF0FF0C1CEAD0521EBF1CEAD15392EA0C0F93EA0C0F6FD019
S32D0000D0181A4480EA010C400218BF5FEA41211ED04FF0006343EA501043EA5111A0FB01310CF00040B1F5000FE7
S32D0000D0403EBF490041EAD3715B0040EA010062F17F02FD2A1DD8B3F1004F40EBC25008BF20F00100704790F058
S32D0000D068000F0CF0004C08BF49024CEA502040EA51207F3AC2BFD2F1FF0340EAC250704740F400004FF0000388
S32D0000D090013A5DDC12F1190FDCBF00F000407047C2F10002410021FA02F1C2F1200200FA02FC5FEA310040F1D5
S32D0000D0B8000053EA4C0308BF20EADC70704792F0000F00F0004C02BF400010F4000F013AF9D040EA0C0093F04C
S32D0000D0E0000F01F0004C02BF490011F4000F013BF9D041EA0C018FE70CEAD15392EA0C0F18BF93EA0C0F0AD00B
S32D0000D10830F0004C18BF31F0004CD8D180EA010000F00040704790F0000F17BF90F0004F084691F0000F91F0BB
S32D0000D130004F14D092EA0C0F01D142020FD193EA0C0F03D14B0218BF084608D180EA010000F0004040F0FE4051
S32D0000D15840F40000704740F0FE4040F4400070474FF0FF0C1CEAD0521EBF1CEAD15392EA0C0F93EA0C0F69D044
S32D0000D180A2EB030280EA010C49024FEA402037D04FF0805343EA111143EA10130CF000408B4238BF5B0042F14E
S32D0000D1A87D024FF4000C8B4224BF5B1A40EA0C00B3EB510F24BFA3EB510340EA5C00B3EB910F24BFA3EB9103A4
S32D0000D1D040EA9C00B3EBD10F24BFA3EBD10340EADC001B0118BF5FEA1C1CE0D1FD2A3FF650AF8B4240EBC25018
S32D0000D1F808BF20F0010070470CF0004C4CEA50207F32C2BFD2F1FF0340EAC250704740F400004FF00003013AF1
S32D0000D22037E792F0000F00F0004C02BF400010F4000F013AF9D040EA0C0093F0000F01F0004C02BF490011F4C9
S32D0000D248000F013BF9D041EA0C0195E70CEAD15392EA0C0F08D142027FF47DAF93EA0C0F7FF470AF084676E7AE
S32D0000D27093EA0C0F04D14B023FF44CAF08466EE730F0004C18BF31F0004CCAD130F000427FF45CAF31F0004376
S32D0000D2987FF43CAF5FE700BF4FF0FF3C06E000BF4FF0010C02E000BF4FF0010C4DF804CD4FEA40024FEA41039F
S32D0000D2C07FEA226C18BF7FEA236C11D001B052EA530C18BF90EA010F58BFB2EB030088BFC81738BF6FEAE1706E
S32D0000D2E818BF40F0010070477FEA226C02D15FEA402C05D17FEA236CE4D15FEA412CE1D05DF8040B704700BF16
S32D0000D310844608466146FFE70FB5FFF7C9FF002848BF10F1000F0FBD4DF808EDFFF7F4FF0CBF012000205DF839
S32D0000D33808FB00BF4DF808EDFFF7EAFF34BF012000205DF808FB00BF4DF808EDFFF7E0FF94BF012000205DF8A9
S32D0000D36008FB00BF4DF808EDFFF7D2FF94BF012000205DF808FB00BF4DF808EDFFF7C8FF34BF012000205DF8B1
S32D0000D38808FB00BF4FEA4002B2F1FE4F0FD34FF09E03B3EB12620DD94FEA002343F0004310F0004F23FA02F060
S32D0000D3B018BF404270474FF00000704712F1610F01D1420205D110F0004008BF6FF0004070474FF00000704797
S32D0000D3D880B500AF41F24C10C1F6FF704FF4FA7106F064FC41F24C10C1F6FF7040F6331106F07AFC00F004F803
S32D0000D4004FF00003184680BDB0B5ADF5C56D06AF41F24840C1F6FF7044F64F71C0F22F0107F0FCF941F24840CF
S32D0000D428C1F6FF7042F62F71C0F24F0107F050FA3B461D464FF0050406E0284609F0ECF805F1EC0504F1FF3429
S32D0000D450B4F1FF3F0CBF00230123DBB2002BF0D107F5B1624FF0780310464FF000011A460CF011FB4AF63443C2
S32D0000D478C0F2010307F5B16293E8030082E8030007F5B2634FF000021A6003F104034FF000021A6003F1040359
S32D0000D4A04FF000021A6003F104034AF64842C0F2010207F5B26303F10C0392E80300186003F10403198003F198
S32D0000D4C802034FEA11421A7007F5B46303F103034FF000021A7003F101034FF000021A7003F101034FF0000247
S32D0000D4F01A7003F101034FF000021A7003F101034FF000021A7003F101034FF000021A7003F101034FF0000202
S32D0000D5181A7003F101034FF000021A7003F101034FF000021A7003F101034FF000021A7003F101034FF00002D9
S32D0000D5401A7003F101034FF000021A7003F101034FF000021A7003F101034AF65C43C0F2010307F5B66293E891
S32D0000D568030082E8030007F5B7634FF000021A6003F104034FF000021A6003F104034FF000021A6003F10403ED
S32D0000D5904AF67043C0F2010307F5B86202F1040293E8030082E8030007F5B86303F10C034FF000021A6003F101
S32D0000D5B804034FF000021A6003F104034FF000021A6003F104034AF68443C0F2010307F5BB6493E8070084E80C
S32D0000D5E007004FF00003C7F8E4354FF00003C7F8E8354AF69842C0F2010207F5BC6303F10C0392E803001860FC
S32D0000D60803F10403197007F5BE6202F101024FF00F0310464FF000011A460CF038FA3A464FF0140300934FF041
S32D0000D6303C0301934FF03C03029307F5B163039341F67013C0F21903049342F62F73C0F24F03059310464FF016
S32D0000D65803014FF002024FF0140309F04BFA00E000BF07F5C06202F1040207F5C06341F24840C1F6FF701146BC
S32D0000D6801A4607F091FAD7F80426D7F800363946084611461A464FF0000309F013F90346002B0CBF002301234B
S32D0000D6A8DBB2002B02D000F0BFFBD9E7D7F80426D7F80036394601F1EC01084611461A464FF0000309F0FAF8D2
S32D0000D6D00346002B0CBF00230123DBB2002B26D041F2B040C1F6FF700AF07EFA3A464FF0140300934FF03C0356
S32D0000D6F801934FF03C03029307F5B163039341F67013C0F21903049342F62F73C0F24F03059310464FF0030189
S32D0000D7204FF002024FF0140309F0E8F99CE7D7F80426D7F80036394601F5EC71084611461A464FF0000309F0D5
S32D0000D748BDF80346002B0CBF00230123DBB2002B02D000F0B5FE83E7D7F80426D7F80036394601F5317108467E
S32D0000D77011461A464FF0000309F0A4F80346002B0CBF00230123DBB2002B26D04FF00003C7F80C3617E04FF050
S32D0000D79800004FF07E5101F5C00104F0C9FED7F80C2641F26013C1F6FF73D318184605F03BFFD7F80C3603F196
S32D0000D7C00103C7F80C36D7F80C36032BCCBF00230123DBB2002BDED1D8E7D7F80426D7F80036394601F56C71AF
S32D0000D7E8084611461A464FF0000309F067F80346002B0CBF00230123DBB2002B00F0BE814FF0010004F078FE5D
S32D0000D81041F24840C1F6FF706FF07F4107F034F841F24840C1F6FF704FF0000107F054F8E64BC7F808368FE1C5
S32D0000D83841F24840C1F6FF704AF6AC31C0F201014FF000024FF0000307F0DEFA41F24840C1F6FF704AF6B431B8
S32D0000D860C0F201014FF001024FF0000307F0D0FA41F24840C1F6FF704AF6BC31C0F201014FF002024FF000035A
S32D0000D88807F0C2FA41F22410C1F6FF7005F090FC034641F24840C1F6FF7019464FF000024FF0060307F0F0FABE
S32D0000D8B041F22010C1F6FF7005F07EFC034641F24840C1F6FF7019464FF001024FF0080307F0DEFA41F21C100F
S32D0000D8D8C1F6FF7005F06CFC034641F24840C1F6FF7019464FF002024FF0070307F0CCFA41F24840C1F6FF70EC
S32D0000D9004AF6C431C0F201014FF003024FF0000307F07EFA41F24840C1F6FF704AF6CC31C0F201014FF0040204
S32D0000D9284FF0000307F070FA41F24840C1F6FF704AF6D431C0F201014FF005024FF0000307F062FA41F2B04056
S32D0000D950C1F6FF700AF018FE034641F24840C1F6FF7019464FF003024FF0070307F090FA41F2B040C1F6FF7093
S32D0000D9780AF016FE034641F24840C1F6FF7019464FF004024FF0070307F07EFA41F2B040C1F6FF700AF014FE98
S32D0000D9A0034641F24840C1F6FF7019464FF005024FF00D0307F06CFA41F24840C1F6FF704AF6E431C0F20101F4
S32D0000D9C84FF006024FF0000307F01EFA41F24810C1F6FF7005F0ECFB034641F24840C1F6FF7019464FF006023C
S32D0000D9F04FF00A0307F04CFA41F24840C1F6FF704AF6F031C0F201014FF007024FF0000307F0FEF941F2581077
S32D0000DA18C1F6FF7004F036FF034641F24840C1F6FF7019464FF007024FF00B0307F06EFA41F24840C1F6FF7033
S32D0000DA404AF6FC31C0F201014FF008024FF0000307F0DEF941F25C10C1F6FF7004F016FF034641F24840C1F6B5
S32D0000DA68FF7019464FF008024FF00C0307F04EFA41F24840C1F6FF704AF60841C0F201014FF009024FF0000342
S32D0000DA9007F0BEF941F24010C1F6FF7005F052FB034641F24840C1F6FF7019464FF009024FF00C0307F0CCF9F2
S32D0000DAB841F24840C1F6FF704AF61441C0F201014FF00A024FF0000307F09EF941F24410C1F6FF7005F032FB2C
S32D0000DAE0034641F24840C1F6FF7019464FF00A024FF00D0307F0ACF941F24840C1F6FF704AF62441C0F201011F
S32D0000DB084FF00B024FF0000307F07EF941F29440C1F6FF7009F042F9034641F24840C1F6FF7019464FF00B02BD
S32D0000DB304FF0100307F0ACF904F02AFD02460B464FF00C0100914FF01001019141F24840C1F6FF7007F0BCF9D9
S32D0000DB5807F5C06202F1040207F5C06341F24840C1F6FF7011461A4607F01AF8034683F00103DBB2002B7FF4DD
S32D0000DB805BAE21E0D7F80416D7F800263B4603F5926303F10C0318464FF0000308F092FE0346002B0CBF002394
S32D0000DBA80123DBB2002B3FF45BAD4FF01E004FF00B0100F0DFFC4FF0020000F005F84FE54EE500BF0000000071
S32D0000DBD080B584B002AF78607B68012B03D0022B00F08880FFE041F24C10C1F6FF70844906F09EF84FF0000002
S32D0000DBF84FF07E5101F5C00104F09AFC4FF01E004FF0E00100F0B6FC40F2212300937B487B497C4A7C4B00F084
S32D0000DC200BFF4FF028004FF40C7100F0A7FC41F24C10C1F6FF70774906F07AF840F2AB23009370487449754A6E
S32D0000DC48704B00F0F5FE41F24C10C1F6FF70724906F06AF84FF000024FF07E5303F5F003CDE900236FF03100A3
S32D0000DC706FF02A014FF4E07201F05AFA41F23810C1F6FF70674902F043F959A1D1E9000104F052FC41F2381031
S32D0000DC98C1F6FF7002F0E8F841F22810C1F6FF705F4902F031F941F23010C1F6FF705D4902F02AF94FF000007E
S32D0000DCC04FF07E5101F5D00104F036FC41F22810C1F6FF70554902F01BF941F23010C1F6FF70514902F014F9D4
S32D0000DCE843A1D1E9000104F023FC78E041F24C10C1F6FF70404906F017F84FF000004FF07E5101F5C00104F0C9
S32D0000DD1013FC4FF01E004FF0E00100F02FFC40F22123009337483849384A394B00F084FE4FF02D004FF02801E9
S32D0000DD384FF4287200F0C2FC4FF014004FF0500140F2DF1200F0E8FF41F24C10C1F6FF70314905F0E9FF4FF00A
S32D0000DD6000024FF08043CDE900236FF01D006FF01D014FF4C46201F0DBF941F23810C1F6FF70284902F0C4F8D1
S32D0000DD8819A1D1E9000104F0D3FB41F23810C1F6FF7002F069F84FF0C40300931D481949164A1B4B00F044FEEA
S32D0000DDB0144819494FF48C7200F02AFD4FF028004FF0620101F0E2FA4FF000024FF08043CDE900234FF02800D6
S32D0000DDD84FF028014FF48C7201F0A6F900BF07F10807BD4680BD00BF9A9999999999F93F666666666666E63FC7
S32D0000DE0000000C42000020420000B4420000A041000082420000344200008C420000A0400000C8420000C8C2F1
S32D0000DE280000484200005C4290B585B002AF41F24840C1F6FF706FF07F4106F021FD41F24840C1F6FF706FF025
S32D0000DE507F4106F041FD01F0BFFBDF48DF494FF49A7200F0D5FC4FF014004FF0540100F085FBCFA1D1E9000124
S32D0000DE7804F05EFB4FF014004FF028014FF0BC0200F04AFF4FF014004FF0480100F072FB4FF014004FF038013B
S32D0000DEA000F06CFBC4A1D1E9000104F045FB01F0B3FB01F071FC03467B607B68002B02DD7B68022B02DD4FF06D
S32D0000DEC801037B60BCA1D1E9000104F031FB4FF014004FF01C0100F04DFB4FF0A8030093BD48BE49BE4ABF4B93
S32D0000DEF000F0A2FD4FF0A8030093BB48BB49B84AB84B00F099FD4FF0320001F0A9F841F24C10C1F6FF70B449B1
S32D0000DF1805F00AFF6FF013004FF0640100F02AFB4FF01E004FF0C40101F0D4F94FF000024FF07E5303F5E00367
S32D0000DF40CDE900236FF022006FF022014FF4E07201F0EEF841F24C10C1F6FF70A44905F0E7FE41F24C10C1F6A9
S32D0000DF68FF70A24905F0E0FE4FF028004FF0700100F000FB4FF0E00300939D4894499D4A964B00F055FD4FF09C
S32D0000DF9028004FF0C40100F0F1FA4FF0CF03009396489049944A8C4B00F046FD4FF03C004FF4D27100F0E2FA4C
S32D0000DFB84FF014004FF0320140F2051200F07CFF41F24840C1F6FF704AF6AC41C0F201014FF00D024FF0000370
S32D0000DFE006F016FF72A1D1E9000104F0A5FA76A3D3E90023CDE900236FF027006FF027014FF4E07201F094F8B7
S32D0000E00841F23010C1F6FF70734901F07DFF66A1D1E9000104F08CFA41F23010C1F6FF7001F022FF4FF0000200
S32D0000E0304FF07E5303F5C003CDE900236FF022006FF022014FF4E07201F072F860A3D3E90023CDE900234FF031
S32D0000E05814004FF014014FF01C0201F065F841F24C10C1F6FF70644905F05EFE4FF01E004FF0A80100F07EFA27
S32D0000E08041F24C10C1F6FF70584905F051FE4FF4C473009358485A495A4A5B4B00F0CCFC41F24840C1F6FF70A5
S32D0000E0A84AF6BC41C0F201014FF00D024FF0000306F0AAFE4FF000024FF0804303F5C013CDE900234FF02800DD
S32D0000E0D04FF028014FF4A86201F02AF86FF013004FF0380100F04AFA4FF014004FF02D014FF0AE0200F0E4FEBB
S32D0000E0F84FF0280000F0B0FF2FA1D1E9000104F017FA41F24840C1F6FF704AF6CC41C0F201014FF00D024FF0F5
S32D0000E120000306F075FE41F24C10C1F6FF70364905F0FEFD41F23810C1F6FF702F4901F0E7FE6FF031004FF083
S32D0000E148FC0100F017FA41F23810C1F6FF7001F08BFE41F24C10C1F6FF702A4905F0E4FD41F22810C1F6FF7001
S32D0000E170274901F0CDFE41F23010C1F6FF70244901F0C6FE00BF41F22010C1F6FF7005F013F803464FF00102C7
S32D0000E198144618461D49FFF7EBF80346002B37D14FF000031C4633E09A9999999999B93F9A9999999999D93FF1
S32D0000E1C09A9999999999C93FCDCCCCCCCCCCEC3F333333333333D33F0000A041000070420000F0410000A042B4
S32D0000E1E8000034420000BE420000824200008E42000020410000484200000C4200005C420000C842000000001E
S32D0000E2100000A0C10000E03FE3B2002BB3D16FF018004FF0560100F0A9F941F22810C1F6FF7001F01DFE41F2AD
S32D0000E2383010C1F6FF7001F017FE89A1D1E9000104F076F94FF01E004FF0620101F09AF885A3D3E90023CDE9C5
S32D0000E26000236FF027006FF027014FF48C6200F05FFF4FF01E004FF0160100F07FF97868FFF7A6FC41F24C10BF
S32D0000E288C1F6FF70824905F04FFD4FF000004FF07E5101F5C00104F04BF94FF01E004FF0E00100F067F94FF4EA
S32D0000E2B00773009379487A497A4A7B4B00F0BCFB4FF028004FF4447100F058F94FF023004FF0820101F002F8CF
S32D0000E2D87448754901F0C2F87B68012B03D0022B5BD0002BA6E041F24C10C1F6FF706F4905F01AFD6FF013001D
S32D0000E30040F28D1100F03AF94FF014004FF0C40100F0E4FF4FF000024FF08043CDE900236FF013006FF01301D1
S32D0000E3284FF4C47200F000FF41F23810C1F6FF705F4901F0E9FD4EA1D1E9000104F0F8F841F23810C1F6FF7010
S32D0000E35001F08EFD41F22810C1F6FF70574901F0D7FD41F23010C1F6FF70554901F0D0FD43A1D1E9000104F0A5
S32D0000E378DFF841F22810C1F6FF70504901F0C4FD41F23010C1F6FF704A4901F0BDFD3CA1D1E9000104F0CCF89D
S32D0000E3A04CE041F24C10C1F6FF70424905F0C0FC6FF01D004FF0540100F0E0F84FF014004FF0BA0100F08AFF94
S32D0000E3C84FF000024FF08043CDE900236FF01D006FF01D014FF4C47200F0A6FE41F23810C1F6FF70324901F0F8
S32D0000E3F08FFD21A1D1E9000104F09EF841F23810C1F6FF7001F034FD4FF014004FF0E00100F0B4F84FF01E003D
S32D0000E4184FF0C40100F05EFF1BA3D3E90023CDE900234FF028004FF028014FF40C7200F07BFE00BF6FF01D00DB
S32D0000E4404FF0380100F09AF84FF019004FF0C40100F09CFF4FF032004FF40C7100F08EF807F10C07BD4690BDCB
S32D0000E4689A9999999999C93F333333333333F33FCDCCCCCCCCCCFC3F9A9999999999E93F666666666666E63F37
S32D0000E4909A9999999999F93F00000C42000020420000B4420000A041000082420000AF43000070410000C84297
S32D0000E4B80000C8C2000048420000964200008C4280B500AF41F24C10C1F6FF70244905F02BFC4FF000004FF0DC
S32D0000E4E07E5101F5C00104F027F841F24C10C1F6FF701E4905F01CFC4FF000004FF07E5101F5C00104F018F844
S32D0000E50841F24C10C1F6FF70174905F00DFC4FF000004FF07E5101F5C00104F009F841F24C10C1F6FF701149CA
S32D0000E53005F0FEFB4FF000004FF07E5101F5C00103F0FAFF41F24C10C1F6FF700A4905F0EFFB41F24840C1F686
S32D0000E558FF704AF61851C0F2010106F03FFD80BD00000C4200000000000034420000BE420000B442F0B585B0C6
S32D0000E58000AF7860396041F24410C1F6FF7004F0EDFD41F24010C1F6FF7004F0E7FD7868FEF7DAFC034641F21A
S32D0000E5A83010C1F6FF70194601F0AEFC7868FEF7CFFC034641F22810C1F6FF70194601F0A3FC03F0E1FF024661
S32D0000E5D00B4610461946FEF7B5FB0346FB6000BF41F24010C1F6FF7004F0ACFD044641F24410C1F6FF7004F0DE
S32D0000E5F8A5FD0346E3181846FEF758F802460B46104619464FF000024FF08043FEF7DEF902460B4614461D46B9
S32D0000E6203868FEF747F802460B464FF001010E4620462946FEF716FB0346002B02D14FF000031E46F3B2002B32
S32D0000E64827D003F0A1FF04460D46F868FEF740F802460B4620462946FDF7DAFE02460B464FF001010C46104634
S32D0000E67019464FF000024FF0804303F5C013FEF7F1FA0346002B02D14FF000031C46E3B2002B02D04FF001036F
S32D0000E69801E04FF00003002B9ED141F23010C1F6FF7001F0E1FB41F22810C1F6FF7001F0DBFB07F11407BD46C3
S32D0000E6C0F0BD00BFF0B587B000AFF860B9607A6041F24410C1F6FF7004F048FD41F24010C1F6FF7004F042FD28
S32D0000E6E8B868FEF735FC034641F23010C1F6FF70194601F009FCF868FEF72AFC034641F22810C1F6FF701946D3
S32D0000E71001F0FEFB03F03CFF02460B4610461946FEF710FB03467B6100BF41F24010C1F6FF7004F007FD0446A6
S32D0000E73841F24410C1F6FF7004F000FD0346E3181846FDF7B3FF02460B46104619464FF000024FF08043FEF747
S32D0000E76039F902460B4614461D467868FDF7A2FF02460B464FF001010E4620462946FEF771FA0346002B02D1E4
S32D0000E7884FF000031E46F3B2002B27D003F0FCFE04460D467869FDF79BFF02460B4620462946FDF735FE024620
S32D0000E7B00B464FF001010C46104619464FF000024FF0804303F5C013FEF74CFA0346002B02D14FF000031C466E
S32D0000E7D8E3B2002B02D04FF0010301E04FF00003002B9ED141F23010C1F6FF7001F03CFB41F22810C1F6FF702F
S32D0000E80001F036FB07F11C07BD46F0BD000000002DE9F04387B000AFF860B9607A6041F24410C1F6FF7004F0E2
S32D0000E828A1FC41F24010C1F6FF7004F09BFC41F22810C1F6FF70F96801F066FB41F23010C1F6FF70B96801F002
S32D0000E8505FFB03F09DFE02460B4610461946FEF771FA03467B616EE0B868F968FEF7BEFA03461846FDF730FF99
S32D0000E87804460D4641F24010C1F6FF7004F05EFC064641F24410C1F6FF7004F057FC0346F3181846FDF70AFFEF
S32D0000E8A002460B46104619464FF000024FF08043FEF790F802460B46104619465CA3D3E90023FDF75DFF024678
S32D0000E8C80B46904699467868FEF742FB03461846FDF7FEFE02460B4640464946FEF776F802460B461046194614
S32D0000E8F009F0B2FF02460B4620462946FDF740FF02460B4614461D46F868FDF7E5FE02460B4620462946FDF7C0
S32D0000E91881FD02460B4610461946FEF70FFA03463B6141F22810C1F6FF70396901F0ECFA41F23010C1F6FF707F
S32D0000E940396901F0E5FA41F24010C1F6FF7004F0F9FB044641F24410C1F6FF7004F0F2FB0346E3181846FDF738
S32D0000E968A5FE02460B46104619464FF000024FF08043FEF72BF802460B4614461D467868FDF794FE02460B46E0
S32D0000E9904FF001010E4620462946FEF763F90346002B02D14FF000031E46F3B2002B27D003F0EEFD04460D466F
S32D0000E9B87869FDF78DFE02460B4620462946FDF727FD02460B464FF001010C46104619464FF000024FF0804327
S32D0000E9E003F5C013FEF73EF90346002B02D14FF000031C46E3B2002B02D04FF0010301E04FF00003002B7FF491
S32D0000EA082FAF41F23010C1F6FF7001F02DFA41F22810C1F6FF7001F027FA07F11C07BD46BDE8F083AFF3008056
S32D0000EA306E861BF0F92109402DE9F04387B000AFF860B9607A603B6041F24410C1F6FF7004F08CFB41F2401096
S32D0000EA58C1F6FF7004F086FB41F22810C1F6FF70F96801F051FA41F23010C1F6FF70396801F04AFA03F088FDE0
S32D0000EA8002460B4610461946FEF75CF903467B61CDE0B868F968FEF7A9F903461846FDF71BFE04460D4641F262
S32D0000EAA84010C1F6FF7004F049FB064641F24410C1F6FF7004F042FB0346F3181846FDF7F5FD02460B461046E1
S32D0000EAD019464FF000024FF08043FDF77BFF02460B46104619468CA3D3E90023FDF748FE02460B469046994624
S32D0000EAF8B86BFEF72DFA03461846FDF7E9FD02460B4640464946FDF761FF02460B461046194609F09DFE024604
S32D0000EB200B4620462946FDF72BFE02460B4614461D46F868FDF7D0FD02460B4620462946FDF76CFC02460B46AA
S32D0000EB4810461946FEF7FAF8034641F22810C1F6FF70194601F0D8F938687968FEF742F903461846FDF7B4FD0B
S32D0000EB7004460D4641F24010C1F6FF7004F0E2FA064641F24410C1F6FF7004F0DBFA0346F3181846FDF78EFD6E
S32D0000EB9802460B46104619464FF000024FF08043FDF714FF02460B461046194658A3D3E90023FDF7E1FD024675
S32D0000EBC00B4690469946B86BFEF7C6F903461846FDF782FD02460B4640464946FDF7FAFE02460B461046194648
S32D0000EBE809F036FE02460B4620462946FDF7C4FD02460B4614461D467868FDF769FD02460B4620462946FDF7BD
S32D0000EC1005FC02460B4610461946FEF793F8034641F23010C1F6FF70194601F071F941F24010C1F6FF7004F0CE
S32D0000EC3885FA044641F24410C1F6FF7004F07EFA0346E3181846FDF731FD02460B46104619464FF000024FF03A
S32D0000EC608043FDF7B7FE02460B4614461D46B86BFDF720FD02460B464FF001010E4620462946FDF7EFFF034662
S32D0000EC88002B02D14FF000031E46F3B2002B27D003F07AFC04460D467869FDF719FD02460B4620462946FDF7A0
S32D0000ECB0B3FB02460B464FF001010C46104619464FF000024FF0804303F5C013FDF7CAFF0346002B02D14FF056
S32D0000ECD800031C46E3B2002B02D04FF0010301E04FF00003002B7FF4D0AE41F23010C1F6FF7001F0B9F841F227
S32D0000ED002810C1F6FF7001F0B3F807F11C07BD46BDE8F083AFF300806E861BF0F92109402DE9F04387B000AF02
S32D0000ED28F860B9607A6041F24410C1F6FF7004F019FA41F24010C1F6FF7004F013FAFB68C3F100031846FEF7A7
S32D0000ED5003F9034641F22810C1F6FF70194601F0D7F8F868FEF7F8F8034641F23010C1F6FF70194601F0CCF865
S32D0000ED786FE0BA68FB68D31A1846FDF797FC04460D4641F24010C1F6FF7004F0D7F9064641F24410C1F6FF70C4
S32D0000EDA004F0D0F90346F3181846FDF783FC02460B46104619464FF000024FF08043FDF709FE02460B461046E8
S32D0000EDC819463BA3D3E90023FDF7D6FC02460B46904699467868FEF7BBF803461846FDF777FC02460B46404638
S32D0000EDF04946FDF7EFFD02460B461046194609F02BFD02460B4620462946FDF7B9FC02460B4614461D46F8684A
S32D0000EE18FDF74CFC02460B4620462946FDF7FAFA02460B4610461946FDF788FF03467B617B6983F0004341F27F
S32D0000EE402810C1F6FF70194601F062F841F23010C1F6FF70796901F05BF841F24010C1F6FF7004F06FF904468E
S32D0000EE6841F24410C1F6FF7004F068F90346E3184FEAD372D3184FEA63031A467B689A42ACBF00230123DBB2D0
S32D0000EE90002B7FF472AF41F23010C1F6FF7000F0E7FF41F22810C1F6FF7000F0E1FF07F11C07BD46BDE8F0838F
S32D0000EEB86E861BF0F92109402DE9F04387B000AFF860B9607A6041F24410C1F6FF7004F049F941F24010C1F633
S32D0000EEE0FF7004F043F9F868FEF736F8034641F22810C1F6FF70194601F00AF8FB68C3F100031846FEF728F829
S32D0000EF08034641F23010C1F6FF70194600F0FCFF6FE0BA68FB68D31A1846FDF7C7FB04460D4641F24010C1F603
S32D0000EF30FF7004F007F9064641F24410C1F6FF7004F000F90346F3181846FDF7B3FB02460B46104619464FF089
S32D0000EF5800024FF08043FDF739FD02460B46104619463BA3D3E90023FDF706FC02460B46904699467868FDF73A
S32D0000EF80EBFF03461846FDF7A7FB02460B4640464946FDF71FFD02460B461046194609F05BFC02460B462046E1
S32D0000EFA82946FDF7E9FB02460B4614461D46F868FDF77CFB02460B4620462946FDF72AFA02460B4610461946FF
S32D0000EFD0FDF7B8FE03467B6141F22810C1F6FF70796900F095FF7B6983F0004341F23010C1F6FF70194600F0CB
S32D0000EFF88BFF41F24010C1F6FF7004F09FF8044641F24410C1F6FF7004F098F80346E3184FEAD372D3184FEACC
S32D0000F02063031A467B689A42ACBF00230123DBB2002B7FF472AF41F23010C1F6FF7000F017FF41F22810C1F67E
S32D0000F048FF7000F011FF07F11C07BD46BDE8F0836E861BF0F921094080B582B000AF786037E041F25810C1F63C
S32D0000F070FF7003F00BFC0346002B0BD07868FDF76BFF034641F22810C1F6FF70194600F03FFF06E041F22810C4
S32D0000F098C1F6FF70234900F037FF41F25C10C1F6FF7003F0EFFB0346002B0BD07868FDF74FFF034641F23010C3
S32D0000F0C0C1F6FF70194600F023FF06E041F23010C1F6FF70154900F01BFF41F25810C1F6FF7003F0D3FB0346D9
S32D0000F0E8002B08D141F25C10C1F6FF7003F0CAFB0346002B02D04FF0010301E04FF00003002BAED141F22810B8
S32D0000F110C1F6FF7000F0ACFE41F23010C1F6FF7000F0A6FE07F10807BD4680BD000020C1F0B587B000AFF860D9
S32D0000F138B9607A6041F24410C1F6FF7004F012F841F24010C1F6FF7004F00CF8B868FDF7FFFE034641F230109D
S32D0000F160C1F6FF70194600F0D3FEF868FDF7F4FE034641F22810C1F6FF70194600F0C8FE03F006FA02460B467A
S32D0000F18810461946FDF7DAFD03467B6133E041F24840C1F6FF706FF07F4105F071FB41F24840C1F6FF704FF020
S32D0000F1B0000105F091FB41F24010C1F6FF7003F0C1FF034641F24840C1F6FF7019464FF000024FF0000305F052
S32D0000F1D83BFE41F24410C1F6FF7003F0AFFF034641F24840C1F6FF7019464FF001024FF0000305F029FE41F226
S32D0000F2004010C1F6FF7003F09DFF044641F24410C1F6FF7003F096FF0346E3181846FDF749FA02460B46104694
S32D0000F22819464FF000024FF08043FDF7CFFB02460B4614461D467868FDF738FA02460B464FF001010E46204668
S32D0000F2502946FDF707FD0346002B02D14FF000031E46F3B2002B23D003F092F904460D467869FDF731FA024616
S32D0000F2780B4620462946FDF7CBF802460B464FF001010C4610461946D7E90C23FDF7E6FC0346002B02D14FF05F
S32D0000F2A000031C46E3B2002B02D04FF0010301E04FF00003002B7FF46EAF41F23010C1F6FF7000F0D5FD41F29A
S32D0000F2C82810C1F6FF7000F0CFFD07F11C07BD46F0BD00BF90B583B000AF7860396041F24410C1F6FF7003F03C
S32D0000F2F03DFF41F24010C1F6FF7003F037FF7B68C3F100031846FDF727FE034641F22810C1F6FF70194600F0A8
S32D0000F318FBFD7868FDF71CFE034641F23010C1F6FF70194600F0F0FD00BF41F24010C1F6FF7003F003FF04461C
S32D0000F34041F24410C1F6FF7003F0FCFE0346E3184FEAD372D3184FEA63031A463B689A42ACBF00230123DBB29B
S32D0000F368002BE2D141F23010C1F6FF7000F07CFD41F22810C1F6FF7000F076FD07F10C07BD4690BD90B583B0D0
S32D0000F39000AF7860396041F24410C1F6FF7003F0E5FE41F24010C1F6FF7003F0DFFE7868FDF7D2FD034641F214
S32D0000F3B82810C1F6FF70194600F0A6FD7B68C3F100031846FDF7C4FD034641F23010C1F6FF70194600F098FD64
S32D0000F3E000BF41F24010C1F6FF7003F0ABFE044641F24410C1F6FF7003F0A4FE0346E3184FEAD372D3184FEA89
S32D0000F408630319463A6813464FEA03139B1A4FEA43031A4648F29D23C5F2973383FB02034FEAA3104FEAE273BB
S32D0000F430C31A3A68D31A9942ACBF00230123DBB2002BCED141F23010C1F6FF7000F010FD41F22810C1F6FF7037
S32D0000F45800F00AFD07F10C07BD4690BDF0B585B000AF7860396041F2B040C1F6FF7009F0A7F80346FB604FF076
S32D0000F48001031C4678685249FDF758FF0346002B02D14FF000031C46E3B2002B01D04C4B7B603B6883F00043EB
S32D0000F4A841F22810C1F6FF70194600F02DFD41F23010C1F6FF70396800F026FD4FF001031C467868F968FDF705
S32D0000F4D035FF0346002B02D14FF000031C46E3B2002B4AD000BF41F2B040C1F6FF7009F06BF803464FF0010226
S32D0000F4F8144618467968FDF71DFF0346002B02D14FF000031C46E3B2002B2AD141F2B040C1F6FF7009F054F809
S32D0000F52003461846FDF7D8F804460D46F868FDF7D3F802460B46104619464FF000024FF08043FCF769FF024662
S32D0000F5480B464FF001010E4620462946FDF7A4FB0346002B02D14FF000031E46F3B2002B02D04FF0010301E094
S32D0000F5704FF00003002BB6D117E000BF41F2B040C1F6FF7009F020F803464FF00102144618467968FDF7D2FE81
S32D0000F5980346002B02D14FF000031C46E3B2002BE8D141F23010C1F6FF70084900F0ACFC41F22810C1F6FF70CE
S32D0000F5C0044900F0A5FC07F11407BD46F0BD00BF0000803F0000000098B500AF00BF41F24810C1F6FF7003F09F
S32D0000F5E8E7FD03464FF00102144618460649FDF7BFFE0346002B02D14FF000031C46E3B2002BE8D198BD00BF56
S32D0000F6100000C03F0000000098B500AF41F24810C1F6FF7003F0C8FD03464FF00102144618465749FDF782FE11
S32D0000F6380346002B02D14FF000031C46E3B2002B26D041F24840C1F6FF704FF47F0105F0E1F841F24840C1F61F
S32D0000F660FF704FF47F0105F00FF941F24840C1F6FF704FF0FF0105F02FF941F24840C1F6FF704AF68851C0F264
S32D0000F68801014FF000024FF0010305F0BDFB63E041F24810C1F6FF7003F08AFD03461846FDF716F802460B4671
S32D0000F6B04FF001010C461046194633A3D3E90023FDF7D0FA0346002B02D14FF000031C46E3B2002B26D041F29D
S32D0000F6D84840C1F6FF704FF0FF0105F09BF841F24840C1F6FF704FF0FF0105F0C9F841F24840C1F6FF704FF495
S32D0000F7007F0105F0E9F841F24840C1F6FF704AF6A851C0F201014FF000024FF0010305F077FB1DE041F2484014
S32D0000F728C1F6FF704FF0000105F0AAF841F24840C1F6FF706FF07F4105F0CAF841F24840C1F6FF704AF6B451D9
S32D0000F750C0F201014FF000024FF0010305F058FB41F24810C1F6FF7003F026FD034641F24840C1F6FF701946BB
S32D0000F7784FF004024FF0010305F086FB98BD00BF66666666666606400000C03FAFF3008098B500AF41F24810FF
S32D0000F7A0C1F6FF7003F008FD03464FF00102144618461D49FDF7C2FD0346002B02D14FF000031C46E3B2002B16
S32D0000F7C802D04FF0010323E041F24810C1F6FF7003F0EEFC03461846FCF77AFF02460B464FF001010C461046D8
S32D0000F7F019460BA3D3E90023FDF734FA0346002B02D14FF000031C46E3B2002B02D04FF0020301E04FF00203F7
S32D0000F818184698BDAFF3008066666666666606400000C03FAFF3008090B583B000AF786039607B68012B40F04B
S32D0000F84088803A684FF6FF739A4240F0828041F21C10C1F6FF704FF0100103F09BFC41F22010C1F6FF704FF004
S32D0000F868110103F093FC41F22410C1F6FF704FF0120103F08BFC41F22810C1F6FF704FF00001344A00F098FAB4
S32D0000F89041F23010C1F6FF704FF001012F4A00F08FFA41F23810C1F6FF704FF002012C4A00F086FA41F2401032
S32D0000F8B8C1F6FF704FF0020103F088F841F24410C1F6FF704FF0000103F080F841F24810C1F6FF704FF00101FD
S32D0000F8E003F058FC41F24C10C1F6FF704FF0000104F0C2F941F25810C1F6FF704FF0090102F0A0FE41F25C10D6
S32D0000F908C1F6FF704FF0080102F098FE41F26013C1F6FF731C4620464FF00A0103F07AFD04F1010420464FF0F1
S32D0000F9300B0103F073FD04F1010420464FF00C0103F06CFD04F1010318464FF00D0103F065FD07F10C07BD462B
S32D0000F95890BD00BF000040410000B04080B500AF4FF001004FF6FF71FFF75EFF80BD00BF80B500AF41F214723F
S32D0000F980C1F6FF7241F21C13C1F6FF73D31A194641F21C13C1F6FF731A460B4610464FF000011A460AF077F8BF
S32D0000F9A880BD00BF0BF0ECF800F0B0F9FFF7E0FF0BF0BEF80BF05AF80BF0F2F800F00CF84FF0000041F264112A
S32D0000F9D0C1F6FF71FDF700FD034618460AF036F880B500AF4FF4E043C4F204034FF4E042C4F2040202F5805231
S32D0000F9F802F13802126842F4785203F5805303F138031A6000F02EF900F094F841F29433C1F6FF734FF0580277
S32D0000FA201A6041F29433C1F6FF731B684FF47A7202FB03F241F29033C1F6FF731A6041F29033C1F6FF731B683C
S32D0000FA481A464FF4E043C4F2040303F5825303F104031B6803F070634FEA136303F10103B2FBF3F31A4641F22F
S32D0000FA709833C1F6FF731A604FF4E043C4F204034FF4E042C4F2040202F5805202F13C02126842F0225203F5A4
S32D0000FA98805303F13C031A604FF4E043C4F204034FF4E042C4F2040202F5805202F13002126842F0006203F588
S32D0000FAC0805303F130031A604FF45043C4F203034FF480721A614FF0640002F0A5FB4FF45043C4F203034FF458
S32D0000FAE85042C4F20302526922F010025A614FF45043C4F203034FF000021A604FF45043C4F203034FF01002D9
S32D0000FB105A6103F03BFE03F0E3FE41F28C30C1F6FF7002F005FC41F24840C1F6FF7004F0C3FC41F2883002F093
S32D0000FB38E3FC80BD80B400AF4FF48043C4F206034FF000025A704FF48043C4F206034FF098021A704FF48043A2
S32D0000FB60C4F206039B79DBB203F01003002B0CBF00230123DBB2002BF0D14FF48043C4F206039B79DBB203F002
S32D0000FB880C034FEA9303022B0CBF00230123DBB2002BEED14FF48043C4F206034FF018021A714FF48043C4F256
S32D0000FBB006034FF000025A714FF4E043C4F2040303F5825303F104034FF00002C0F213121A604FF48043C4F2D9
S32D0000FBD806034FF054025A7100BF4FF48043C4F206039B79DBB203F02003002B14BF00230123DBB2002BF0D19D
S32D0000FC0000BF4FF48043C4F206039B79DBB203F04003002B14BF00230123DBB2002BF0D14FF48043C4F20603F8
S32D0000FC284FF48042C4F206021278D2B202F03F02D2B21A704FF48043C4F206039B79DBB203F00C034FEA930365
S32D0000FC50032B0CBF00230123DBB2002BEED14FF000031846BD4680BC704700BF80B400AF4FF44043C4F2040314
S32D0000FC784FF480725A634FF2C003C4F20F034FF2C002C4F20F02526942F400525A614FF2C003C4F20F034FF2CB
S32D0000FCA0C002C4F20F02126842F400521A604FF44043C4F2040340F20312C0F20A021A634FF46143CEF2000382
S32D0000FCC84FF46142CEF20002D2F8882142F08062C3F888214FF46143CEF200034FF46142CEF20002926842F0FD
S32D0000FCF080629A60BD4680BC704700BF80B483B000AF7860FEE700BF80B400AF00BEBD4680BC704780B400AF49
S32D0000FD184FF0E0224CF20003C0F20003C2F8083D4FF40053C4F205034CF22052DA814FF40053C4F205034DF691
S32D0000FD402812DA814FF40053C4F205034FF0D2021A80BD4680BC704780B500AF4FF44043C4F20403D3F8A03007
S32D0000FD6803F48053002B0CBF00230123DBB2002B1FD04FF44043C4F204034FF44042C4F20402D2F8A02022F41B
S32D0000FD908052C3F8A02041F2D040C1F6FF7008F01DFD4FF2C003C4F20F034FF2C002C4F20F02126822F4005205
S32D0000FDB81A6080BD0000000090B585B000AFF8600B467A60FB72FB68FA7A1A71FB684FF000025A714FF0010339
S32D0000FDE01C4678682049FDF7C7FA0346002B02D14FF000031C46E3B2002B02D01A4B7B6011E04FF001031C4642
S32D0000FE0878681849FDF7A0FA0346002B02D14FF000031C46E3B2002B01D0124B7B607868FCF756FC02460B468B
S32D0000FE30104619460AA3D3E90023FCF7A1FC02460B4610461946FCF77DFF0246FB681A60FB68184607F114071D
S32D0000FE58BD4690BDAFF30080ABAAAAAAAAAA2040000040410000803F80B582B000AF78607B685B79002B10D0BD
S32D0000FE807B684FF000025A717B681B7941F28C30C1F6FF7019464FF000024FF01E0302F091FA07F10807BD4652
S32D0000FEA880BD00BF80B584B000AF786039603B687F2B03DD4FF07F03FB7309E03B6813F1800F03DA4FF080038D
S32D0000FED0FB7301E03B68FB737B685B79FA7B9A420FD07B68FA7B5A717B681A79FB7B41F28C30C1F6FF70114642
S32D0000FEF81A464FF01E0302F061FA07F11007BD4680BD00BF00000000B0B584B000AF786039604FF001031C4663
S32D0000FF2038684D49FDF70AFA0346002B02D14FF000031C46E3B2002B02D0474B3B6011E04FF001031C463868A5
S32D0000FF484449FDF715FA0346002B02D14FF000031C46E3B2002B01D03E4B3B603868FCF7B7FB04460D467B6896
S32D0000FF701B681846FCF7B0FB02460B46104619464FF000024FF0804303F5B203FCF722FD02460B462046294626
S32D0000FF98FCF7F2FB02460B4610461946FCF7CEFE03463B604FF001031C4638682A49FDF7D5F90346002B02D1A9
S32D0000FFC04FF000031C46E3B2002B14D03868FCF783FB02460B46104619461DA3D3E90023FCF7CEFB02460B4678
S32D0000FFE810461946FCF762FE0346FB6022E03868FCF76EFB02460B46104619464FF000024FF0804303F5C003F5
S32D00010010FCF7B6FB02460B46104619464FF000024FF0804303F5B203FCF7D4FC02460B4610461946FCF73EFE9F
S32D000100380346FB607868F968FFF734FF07F11007BD46B0BDAFF3008052B81E85EB51F43F0000C8C20000C8423A
S32D0001006000000000AFF3008080B485B000AF02460B46FA71BB71BB79002B07D141F26813C1F6FF734FF00002B8
S32D000100881A7006E041F26813C1F6FF734FF001021A704FF03803FB7341F26813C1F6FF731A78FB7B1343FB73AB
S32D000100B04FF4C043C4F206034FF4C042C4F206029278D2B242F01002D2B29A704FF4C043C4F206034FF4C0426F
S32D000100D8C4F206029278D2B242F02002D2B29A704FF4C043C4F20603FA7B1A7107F11407BD4680BC704700BFFE
S32D0001010080B483B000AF4FF001037B6004E000BF7B6803F101037B607B68312BCCBF00230123DBB2002BF2D1B7
S32D0001012807F10C07BD4680BC704700BF80B582B000AF02460B46FA71BB7141F26913C1F6FF731B7818464FF09A
S32D000101500001FFF789FF4FF4C043C4F20603DB78DBB203F00203002B14BF00230123DBB2002BF0D14FF4C04320
S32D00010178C4F206034FF4C042C4F20602D278D2B242F00202D2B2DA704FF4C043C4F20603FA791A714FF4C0437B
S32D000101A0C4F20603DB78DBB203F00203002B14BF00230123DBB2002BF0D14FF4C043C4F206034FF4C042C4F2DB
S32D000101C80602D278D2B242F00202D2B2DA704FF4C043C4F20603BA791A714FF4C043C4F20603DB78DBB203F093
S32D000101F00203002B14BF00230123DBB2002BF0D14FF4C043C4F206034FF4C042C4F20602D278D2B242F0020211
S32D00010218D2B2DA704FF4C043C4F206034FF4C042C4F206029278D2B222F02002D2B29A704FF4C043C4F206038C
S32D000102404FF4C042C4F206029278D2B222F01002D2B29A70FFF754FF07F10807BD4680BD80B582B000AF03465D
S32D00010268FB71FB79184600F06BF807F10807BD4680BD00BF80B582B000AF02460B46FA71BB7100F039F8FB79F5
S32D000102904FEA4303DBB21846FFF7E2FFBB791846FFF7DEFF00F03EF807F10807BD4680BD80B500AF4FF0FF000A
S32D000102B800F046F80346184680BD00BF80B584B000AF0346FB7100F017F8FB794FEA4303DBB243F00103DBB236
S32D000102E0DBB21846FFF7BCFFFFF7E2FF0346FB7300F018F8FB7B184607F11007BD4680BD80B400AF4FF240033B
S32D00010308C4F20F034FF24002C4F20F02926842F480129A60BD4680BC704700BF80B400AF4FF24003C4F20F0314
S32D000103304FF24002C4F20F02526842F480125A60BD4680BC704700BF80B485B000AF0346FB714FF00003BB7326
S32D0001035803E0FB7B03F10103FB734FF44043C4F20A03DB6A4FF00003002BF2D14FF44043C4F20A034FF440426B
S32D00010380C4F20A02D26A42F00042DA624FF44043C4F20A03FA795A6300BF4FF44043C4F20A03DB6A03F4003330
S32D000103A8002B14BF00230123DBB2002BF1D14FF44043C4F20A039B6BBB73BB7B184607F11407BD4680BC70470D
S32D000103D080B582B000AF4FF4E043C4F204034FF4E042C4F2040202F5805202F13002126842F4805203F5805369
S32D000103F803F130031A604FF42043C4F204034FF480721A654FF24003C4F20F034FF24002C4F20F02526942F497
S32D0001042080125A61FFF77EFF4FF42043C4F204034FF400725A654FF42043C4F204034FF400729A654FF4204359
S32D00010448C4F204034FF40072DA654FF44043C4F20A034FF44062C8F200021A604FF44043C4F20A034FF0050261
S32D00010470C3F60062DA604FF000037B6007E04FF0FF00FFF7EDFE7B6803F101037B607B68092BCCBF0023012346
S32D00010498DBB2002BEFD104A1D1E9000102F048F807F10807BD4680BD9A9999999999B93F90B486B000AFF860D4
S32D000104C0B9607A60FA684FF42043C4F206039A4214D14FF4E043C4F204034FF4E042C4F2040202F5805202F192
S32D000104E83402126842F4806203F5805303F134031A6083E0FA684FF43043C4F206039A4214D14FF4E043C4F296
S32D0001051004034FF4E042C4F2040202F5805202F13402126842F4006203F5805303F134031A6067E0FA684FF434
S32D000105384043C4F206039A4214D14FF4E043C4F204034FF4E042C4F2040202F5805202F13402126842F48052D9
S32D0001056003F5805303F134031A604BE0FA684FF45043C4F206039A4214D14FF4E043C4F204034FF4E042C4F2DB
S32D00010588040202F5805202F13402126842F4005203F5805303F134031A602FE0FA684FF42043C4F20E039A4220
S32D000105B014D14FF4E043C4F204034FF4E042C4F2040202F5805202F12802126842F4806203F5805303F1280391
S32D000105D81A6013E04FF4E043C4F204034FF4E042C4F2040202F5805202F12802126842F4006203F5805303F18C
S32D0001060028031A60FB68DB78DBB223F00C03DAB2FB68DA70FB684FF000029A70BB684FF47A7202FB03F27B68B3
S32D000106284FEA031392FBF3F39CB2FB681B78DBB223F01F03FB75234603F4F8534FEA2323DBB203F01F03DAB213
S32D00010650FB7D1343DAB2FB681A70E2B2FB685A70BB684FF4FA4202FB03F27B684FEA031392FBF3F39AB2234685
S32D0001067819464FEAC121CB1A4FEA43139BB2D3189CB2FB689B7ADBB223F01F03FB75E3B203F01F03DAB2FB7D87
S32D000106A01343DAB2FB689A72FB68DB78DBB243F00C03DAB2FB68DA7007F11807BD4690BC704700BF80B483B0D9
S32D000106C800AF786000BF7B681B79DBB203F02003002B14BF00230123DBB2002BF3D17B68DB79DBB2184607F1C8
S32D000106F00C07BD4680BC704780B483B000AF78600B46FB7000BF7B681B79DBB2DBB26FEA0303DBB24FEAD313CD
S32D00010718DBB2002BF3D17B68FA78DA7107F10C07BD4680BC704700BF80B487B000AFF860B9607A60FB687B6132
S32D0001074007E0BB68DAB27B691A707B6903F101037B617B68002B0CBF00230123DBB27A6802F1FF327A60002B16
S32D00010768EBD107F11C07BD4680BC704780B584B000AF786039607B681B6BFB60FA683B689A4264D07B681B79BC
S32D00010790002B43D07B685A787B6803F1340310461946FA684FF0010301F0ACFB0346002B0CBF00230123DBB234
S32D000107B8002B02D04FF001034BE07B684FF000021A717B685A6A7B681B6AD218FB689A4220D97B68DB78FB7224
S32D000107E014E07B681B6AFA68D318FB607B685A787B6803F1340310461946FA684FF0010301F080FBFB7A03F1F4
S32D00010808FF33FB72FB7A012B94BF00230123DBB2002BE2D13B68002B19D07B685A787B6803F13403104619464D
S32D000108303A684FF0010301F057FA0346002B0CBF00230123DBB2002B02D04FF0010304E07B683A681A634FF0FA
S32D000108580003184607F11007BD4680BD80B584B000AF786078684FF00001FFF77FFF0346FB73FB7B002B40F0B5
S32D00010880AE807B681B78032B40F095807B685B79002B00F090807B684FF000021A637B6803F1340318464FF004
S32D000108A800014FF40072FFF73FFF7B684FF0550283F832227B684FF0AA0283F833227B684FF0520283F834200C
S32D000108D07B684FF0520283F835207B684FF0610283F836207B684FF0410283F837207B684FF0720283F81822DB
S32D000108F87B684FF0720283F819227B684FF0410283F81A227B684FF0610283F81B227B681B69DAB27B6883F8DB
S32D000109201C227B681B699BB24FEA2323DAB27B6883F81D227B681B694FEA1343DAB27B6883F81E227B681B6987
S32D000109484FEA1363DAB27B6883F81F227B68DB68DAB27B6883F820227B68DB689BB24FEA2323DAB27B6883F878
S32D0001097021227B68DB684FEA1343DAB27B6883F822227B68DB684FEA1363DAB27B6883F823227B6859787B6897
S32D0001099803F134027B685B69084611461A464FF0010301F0ABFA7B684FF000025A717B685B7818464FF000013E
S32D000109C04FF0000201F084FB0346002B0CBF00230123DBB2002B02D04FF00103FB73FB7B184607F11007BD46B0
S32D000109E880BD00BF80B582B000AF78600B467B807B68002B08D07B681B78002B04D07B68DB887A889A4202D059
S32D00010A104FF009030FE07B685B78184601F0ECFB034603F00103DBB2002B02D04FF0030301E04FF00003184601
S32D00010A3807F10807BD4680BD80B586B000AF78607B681A687B689B8810461946FFF7CAFF0346FB75FB7D002B1B
S32D00010A6040F0C8807B689B7903F02003002B00F0C1807B689B7903F04003002B20D07B681B6859787B6803F130
S32D00010A8828027B689B69084611461A464FF0010301F034FA0346002B0CBF00230123DBB2002B02D04FF0010374
S32D00010AB0A1E07B689B7923F04003DAB27B689A717B681A687B68DB6910461946FFF752FE0346FB75FB7D002BEC
S32D00010AD840F08C807B681B6A3B613B6903F10B033A6902F10B02127842F02002D2B21A703B6903F11C037A68E1
S32D00010B00D268D2B21A703B6903F11D037A68D26892B24FEA2222D2B21A703B6903F11E037A68D2684FEA124279
S32D00010B28D2B21A703B6903F11F037A68D2684FEA1262D2B21A703B6903F11A037A681269D2B21A703B6903F147
S32D00010B501B037A68126992B24FEA2222D2B21A703B6903F114037A6812694FEA1242D2B21A703B6903F11503D5
S32D00010B787A6812694FEA124292B24FEA2222D2B21A704FF00003FB603B6903F11603FA68D2B21A703B6903F13F
S32D00010BA01703FA6892B24FEA2222D2B21A703B6903F11803FA684FEA1242D2B21A703B6903F11903FA684FEADC
S32D00010BC81262D2B21A707B689B7923F02003DAB27B689A717B681B684FF001021A717B681B681846FFF73AFEB0
S32D00010BF00346FB75FB7D184607F11807BD4680BD80B584B000AF78607868FFF719FF0346FB73FB7B002B03D1E6
S32D00010C187B684FF000021A60FB7B184607F11007BD4680BD80B588B000AF786039604FF080033B614FF00F03B0
S32D00010C40FB604FF0FF337B614FF00203FB612AE04FF00103BB611AE0FB69BA6902FB03F33A6802FB03F27B68E9
S32D00010C68D31ABB60BB68002B09DBBA687B699A4205D2BB687B61FB693B61BB69FB60BB6903F10103BB61BB6990
S32D00010C90102B8CBF00230123DBB2002BDCD1FB694FEA4303FB61FB69B3F5807F8CBF00230123DBB2002BCBD1D3
S32D00010CB84FF48053C4F20B034FF48052C4F20B02D26A22F00802DA624FF48053C4F20B03DB6A1A464FF00F03F7
S32D00010CE0CFF6F0731340BB614FF48053C4F20B033A694FEA52024FEA02224FEA02424FEA1242F96801F1FF315A
S32D00010D084FEA0111C9B21143BA690A4342F46022DA6203E04FF00A0001F0EEFB4FF48053C4F20B035B6A03F0A6
S32D00010D300803002B14BF00230123DBB2002BEDD14FF48053C4F20B034FF48052C4F20B02D26A42F00802DA6268
S32D00010D584FF48053C4F20B034FF48052C4F20B02126B42F480121A6307F12007BD4680BD80B582B000AF7860AB
S32D00010D8039607B684FF000021A604FF48053C4F20B034FF40042C0F20012DA624FF48053C4F20B03DB6A03F09C
S32D00010DA88073002B0CBF00230123DBB2002BF1D14FF48053C4F20B034FF00002C3F8C0204FF48053C4F20B03E2
S32D00010DD04FF481325A604FF48053C4F20B034FF028029A624FF48053C4F20B034FF001125A643B689B68184617
S32D00010DF84CF66041C0F20501FFF714FF4FF48053C4F20B035B6A03F00303002B0CBF00230123DBB2002BF1D1D9
S32D00010E204FF45043C4F2040340F243421A604FF45043C4F2040340F243425A604FF45043C4F204034FF488621B
S32D00010E489A604FF45043C4F2040340F24342DA604FF45043C4F2040340F243421A614FF45043C4F2040340F273
S32D00010E7043425A614FF4E043C4F204034FF4E042C4F2040202F5805202F13002126842F4003203F5805303F140
S32D00010E9830031A604FF48053C4F20B034FF6FF721A634FF48053C4F20B034FF0B302C0F27F025A634FF480539D
S32D00010EC0C4F20B034FF48052C4F20B02D26A42F00062DA624FF48053C4F20B03DB6A03F00063002B0CBF0023CD
S32D00010EE80123DBB2002BF1D14FF48053C4F20B035B6A03F48033002B0CBF00230123DBB2002B03D07B684FF00A
S32D00010F1001021A604FF48053C4F20B034FF48052C4F20B02126B42F080021A634FF00003184607F10807BD462B
S32D00010F3880BD00BF80B400AF4FF48053C4F20B035B6A1A4640F207331340002B0CBF00230123DBB21846BD46C2
S32D00010F6080BC704780B485B000AF78604FF48053C4F20B031B6B1A467B681340FB60FB68002B14BF0023012386
S32D00010F88DBB2002BEED1FB68184607F11407BD4680BC704780B584B000AF78607B681B7803F03F024BF2980387
S32D00010FB0C0F2010353F82230FB60FB68002B06D17B681B78002B02D04FF0010330E14FF48053C4F20B034FF41B
S32D00010FD88052C4F20B02126B42F080021A634FF48053C4F20B035B6A03F00103DBB2002BF5D14FF48053C4F2C7
S32D000110000B037A6852689A60FB6823F44003FB607B685B784FEA835303F44003FA681343FB607B685B78022B10
S32D0001102803D1FB6843F40013FB607B685B78042B16D1FB6803F44033B3F5003F08D1FB6823F44033FB60FB68B9
S32D0001105043F44033FB6007E0FB6823F44033FB60FB6843F40033FB604FF48053C4F20B034FF48052C4F20B0263
S32D0001107852684FEA02424FEA12425A607B68DB68002B32D0FB6803F44033B3F5403F03D0FB6843F40013FB60A9
S32D000110A07B681B7A002B03D0FB6843F01003FB607B68DB68012B03D9FB6843F02003FB607B68DB68B3F1FF3F5D
S32D000110C813D04FF48053C4F20B034FF48052C4F20B02526811467A68D2684FEA02420A435A60FB6843F0020318
S32D000110F0FB604FF48053C4F20B034FF000021A604FF48053C4F20B03FA68DA604FF00100C0F20E00FFF726FF50
S32D000111180346012B0CBF00230123DBB2002B10D04FF48053C4F20B034FF48052C4F20B02126B42F4702242F060
S32D0001114001021A634FF0010372E04FF48053C4F20B031B6B03F08003002B0CBF00230123DBB2002B0ED04FF47F
S32D000111688053C4F20B034FF48052C4F20B02126B42F001121A634FF0010355E04FF48053C4F20B031B6B03F4DB
S32D000111908033002B0CBF00230123DBB2002B0ED04FF48053C4F20B034FF48052C4F20B02126B42F001121A63B9
S32D000111B84FF0FF3338E0FB6803F44033002B25D04FF48053C4F20B031B691A467B681A61FB6803F44033B3F501
S32D000111E0803F17D14FF48053C4F20B035B691A467B685A614FF48053C4F20B039B691A467B689A614FF480536B
S32D00011208C4F20B03DB691A467B68DA614FF48053C4F20B034FF48052C4F20B02126B42F001021A634FF000030E
S32D00011230184607F11007BD4680BD00BF80B592B000AF786039604FF00003FB633B68BB6341F28013C1F6FF733C
S32D000112587B637B6B002B03D140F6012300F0A0BC41F28433C1F6FF733B633B6B002B03D140F60B2300F094BC04
S32D000112803B6B1B68FB62FB6A002B03D140F60B2300F08ABC7B6841F20432934200F0388241F2043293421BD8BF
S32D000112A841F20132934238D041F20132934207D8032B00F03D84092B00F0298400F066BC41F20232934200F0CC
S32D000112D0128241F20332934200F0BE8300F05ABC41F20732934200F04B8341F2073293420BD841F20532934285
S32D000112F800F0348241F20632934200F0108300F045BC41F20832934200F0B68241F20932934200F0C48200F09A
S32D0001132039BC786B4BF28C01C0F20101FFF724FD0346FB63FB6B002B40F030844FF0000387F847304FF000039B
S32D0001134887F82B304FF0000387F82A304FF0000387F829304FF0000387F846304FF0000387F828304FF00003D5
S32D000113703B724FF000037B724FF00003FB604FF000033B744FF000037B6107F108031846FFF704FE0346002BF9
S32D000113980CBF00230123DBB2002B03D04FF00103FB63FCE340F24C4001F0A6F84FF008033B724FF000037B7296
S32D000113C04FF4D573FB604FF000033B744FF000037B6107F108031846FFF7E0FD03463B643B6C002B0BD1BA691C
S32D000113E8FB689A4203D04FF00103FB63D7E34FF0010387F846304FF0010387F8283097F82830002B00F0C680CF
S32D000114104FF037033B724FF000037B724FF00003FB604FF000033B744FF000037B6107F108031846FFF7B2FDA6
S32D0001143803463B643B6C002B03D04FF00103FB63ADE34FF069033B724FF000037B724FF00003FB604FF0000361
S32D000114603B744FF000037B6107F108031846FFF795FD0346002B0CBF00230123DBB2002B03D04FF00103FB63F5
S32D000114888DE3BB6903F44013002B00F083804FF000033B644FF00A0001F02EF83B6C03F101033B644FF0370341
S32D000114B03B724FF000037B724FF00003FB604FF000033B744FF000037B6107F108031846FFF764FD0346002B59
S32D000114D80CBF00230123DBB2002B03D04FF00103FB6336E04FF069033B724FF000037B7297F84630002B05D005
S32D000115004FF00003C4F23003FB6002E04FF44013FB604FF000033B744FF000037B6107F108031846FFF73AFDC6
S32D000115280346002B0CBF00230123DBB2002B03D04FF00103FB630CE0BB69002B05DB3B6C632B02D84FF0010375
S32D0001155001E04FF00003002BA0D1FB6B002B40F01F833B6C632B04D94FF0000387F8463014E04FF0010387F84B
S32D00011578473097F84630002B0CD04FF0000387F84630BB6903F08043002B03D04FF0010387F8463097F82A3091
S32D000115A0002B03D07B6B4FF007021A6097F82930002B03D07B6B4FF008021A6097F82B30002B03D07B6B4FF0DA
S32D000115C804021A6097F84730002B0BD07B6B4FF002021A6097F84630002B03D07B6B4FF003021A6097F82B3034
S32D000115F0002B0FD097F84730002B0BD07B6B4FF005021A6097F84630002B03D07B6B4FF006021A604FF4504390
S32D00011618C4F204034FF000021A604FF45043C4F204034FF000025A604FF45043C4F204034FF000029A604FF48C
S32D000116405043C4F204034FF00002DA604FF45043C4F204034FF000021A614FF45043C4F204034FF000025A61D2
S32D00011668FB6A9A68FB6A5B6810461946FFF7DAFA4FF45043C4F2040340F243421A604FF45043C4F2040340F2BC
S32D0001169043425A604FF45043C4F204034FF488629A604FF45043C4F2040340F24342DA604FF45043C4F204031B
S32D000116B840F243421A614FF45043C4F2040340F243425A614FF4E043C4F204034FF4E042C4F2040202F58052BF
S32D000116E002F13002126842F4003203F5805303F130031A6057E2B86BFFF750FC03463B643B6C002B00F04E8250
S32D000117084FF00203FB6349E2BB6B002B03D14FF00C03FB6343E24FF48053C4F20B03DB6A03F47F434FEA1323A8
S32D000117304FEA43033B644FF48053C4F20B03DB6A03F0F0034FEA131303F101023B6C02FB03F33B64FB6A9A6871
S32D000117583B6CB2FBF3F2BB6B1A6020E2BB6B002B03D14FF00C03FB6319E2BB6B1B68002B03D14FF00C03FB6367
S32D0001178011E2FFF7DBFB0346002B14BF00230123DBB2002B70D04FF45043C4F204034FF000021A604FF45043D1
S32D000117A8C4F204034FF000025A604FF45043C4F204034FF000029A604FF45043C4F204034FF00002DA604FF43B
S32D000117D05043C4F204034FF000021A614FF45043C4F204034FF000025A61FB6A9A68BB6B1B6810461946FFF794
S32D000117F819FA4FF45043C4F2040340F243421A604FF45043C4F2040340F243425A604FF45043C4F204034FF411
S32D0001182088629A604FF45043C4F2040340F24342DA604FF45043C4F2040340F243421A614FF45043C4F20403D9
S32D0001184840F243425A614FF4E043C4F204034FF4E042C4F2040202F5805202F13002126842F4003203F5805320
S32D0001187003F130031A6096E140F60A23FB6392E1BB6B002B03D14FF00C03FB638BE14FF48053C4F20B035B6823
S32D000118984FEAC3434FEAD343BA6B13607FE1BB6B002B03D14FF00C03FB6378E1FFF742FB0346002B14BF0023D4
S32D000118C00123DBB2002B2AD0BB6B1A6840F6FF739A4203D94FF00C03FB6364E14FF48053C4F20B034FF480523B
S32D000118E8C4F20B02526822F4FE5222F03F025A604FF48053C4F20B034FF48052C4F20B0252681146BA6B12687F
S32D000119104FEAC2424FEAD2420A435A6043E140F60A23FB633FE1BB6B002B03D14FF00C03FB6338E14FF4805312
S32D00011938C4F20B039B6A03F006034FEA53033B643B6C002B04D1BB6B4FF000021A6026E13B6C012B04D1BB6B30
S32D000119604FF001021A601EE13B6C102B04D1BB6B4FF002021A6016E14FF00503FB6312E1BB6B002B03D14FF010
S32D000119880C03FB630BE1FFF7D5FA0346002B14BF00230123DBB2002B56D0BB6B1B68002B16D14FF48053C4F21F
S32D000119B00B034FF48052C4F20B02926A22F006029A624FF48053C4F20B034FF48052C4F20B02926A9A62E6E0A0
S32D000119D8BB6B1B68012B18D14FF48053C4F20B034FF48052C4F20B02926A22F006029A624FF48053C4F20B0384
S32D00011A004FF48052C4F20B02926A42F002029A62C9E0BB6B1B68022B16D14FF48053C4F20B034FF48052C4F2A6
S32D00011A280B02926A22F006029A624FF48053C4F20B034FF48052C4F20B02926A9A62AEE04FF00503FB63AAE009
S32D00011A5040F60A23FB63A6E0BB6B002B03D14FF00C03FB639FE04FF48053C4F20B034FF48052C4F20B02D26AE2
S32D00011A7842F00062DA624FF48053C4F20B03DB6A03F00063002B0CBF00230123DBB2002BF1D14FF48053C4F277
S32D00011AA00B031B6B03F08003002B0CBF00230123DBB2002B0FD04FF48053C4F20B034FF48052C4F20B02126B0A
S32D00011AC842F080021A637B6B4FF000021A604FF48053C4F20B035B6A03F48033002B0CBF00230123DBB2002BDF
S32D00011AF008D07B6B1B68002B08D17B6B4FF001021A6003E07B6B4FF000021A607B6B1A68BB6B1A6047E0BB6B07
S32D00011B184FF01C021A60BB6B03F104034FF004021A60BB6B03F108034FF41E721A6036E04FF00200FFF712FA1C
S32D00011B404FF48053C4F20B031B6B03F4E003002B0CBF00230123DBB2002B0ED04FF48053C4F20B034FF480527A
S32D00011B68C4F20B02126B42F4E0021A634FF00403FB634FF48053C4F20B034FF48052C4F20B02126B42F0320240
S32D00011B901A6308E040F60923FB6304E000BF02E000BF00E000BFFB6B184607F14807BD4680BD00BF80B489B0A7
S32D00011BB800AF786039607B687B6141F28013C1F6FF733B613B69002B02D14FF0000381E03B691B68022B0BD020
S32D00011BE03B691B68032B07D03B691B68072B03D03B691B68082B0DD14FF48053C4F20B035B6A03F00403002B82
S32D00011C080CBF00230123DBB2002BF1D13B68FB6156E0FB69B3F5007F28BF4FF40073FB60FB6803F103034FEAD3
S32D00011C309303BB613CE04FF48053C4F20B031B6B03F4E003002B0CBF00230123DBB2002B10D04FF48053C4F2DC
S32D00011C580B034FF48052C4F20B02126B42F4E00242F020021A634FF0000333E04FF48053C4F20B035B6A03F426
S32D00011C800063002B14BF00230123DBB2002BF1D14FF48053C4F20B031B6A1A467B691A607B6903F104037B613B
S32D00011CA8BB6903F1FF33BB61BB69002B0CBF00230123DBB2002BBAD1FA69FB68D31AFB61FB69002B0CBF002377
S32D00011CD00123DBB2002BA0D14FF00103184607F12407BD4680BC704780B58EB000AFB9607A600246FA73BB73E6
S32D00011CF841F26C13C1F6FF737B63FB7B002B02D1BB7B002B02D14FF0040381E040F20043C1F6FF731B78DBB2F7
S32D00011D2003F00103DBB2002B02D04FF0030373E0BB68002B02D14FF000036DE07B6B1B7B002B03D17B684FEA34
S32D00011D4843237B60BB7B012B2CD14FF011033B754FF000037B757B68BB614FF001033B77BB7B3B6207F11403C1
S32D00011D7041F202301946FFF761FA0346002B14BF00230123DBB2002B3ED0B8684FF40071FFF710FF0346002B8E
S32D00011D980CBF00230123DBB2002B31D04FF00003BB732DE04FF012033B754FF000037B757B68BB614FF001035C
S32D00011DC03B77BB7B3B6207F1140341F202301946FFF734FA0346002B14BF00230123DBB2002B11D0BB7B4FEAE2
S32D00011DE84323B8681946FFF7E1FE0346002B0CBF00230123DBB2002B02D04FF00003BB73BB7B002B02D04FF020
S32D00011E10010301E04FF00003184607F13807BD4680BD00BF80B487B000AF786039607B68FB603B687B6155E06B
S32D00011E387B69B3F5007F28BF4FF400733B617A693B69D31A7B613B6903F103034FEA93033B613BE04FF48053AD
S32D00011E60C4F20B031B6B03F4E003002B0CBF00230123DBB2002B10D04FF48053C4F20B034FF48052C4F20B02A8
S32D00011E88126B42F4E00242F010021A634FF0FF332EE04FF48053C4F20B035B6A03F48063002B14BF0023012398
S32D00011EB0DBB2002BF1D14FF48053C4F20B03FA6812681A62FB6803F10403FB603B6903F1FF333B613B69002B69
S32D00011ED80CBF00230123DBB2002BBBD17B69002B0CBF00230123DBB2002BA1D14FF00103184607F11C07BD467B
S32D00011F0080BC704780B58EB000AFB9607A600246FA73BB7341F26C13C1F6FF737B63FB7B002B02D1BB7B002B39
S32D00011F2802D14FF00403CAE040F20043C1F6FF731B78DBB203F00103DBB2002B02D04FF00303BCE040F2004332
S32D00011F50C1F6FF731B78DBB203F00403002B0CBF00230123DBB2002B02D04FF00203AAE0BB68002B02D14FF02A
S32D00011F780003A4E07B6B1B7B002B03D17B684FEA43237B60BB7B012B2CD14FF018033B754FF000037B757B685D
S32D00011FA0BB614FF000033B77BB7B3B6207F1140341F202301946FFF741F90346002B14BF00230123DBB2002BE6
S32D00011FC83ED0B8684FF40071FFF728FF0346002B0CBF00230123DBB2002B31D04FF00003BB732DE04FF01903D4
S32D00011FF03B754FF000037B757B68BB614FF000033B77BB7B3B6207F1140341F202301946FFF714F90346002BD0
S32D0001201814BF00230123DBB2002B11D0BB7B4FEA4323B8681946FFF7F9FE0346002B0CBF00230123DBB2002B67
S32D0001204002D04FF00003BB734FF00D033B754FF000037B757B6B1B69BB614FF000033B774FF000033B6207F1AD
S32D00012068140341F202301946FFF7E4F80346002B0CBF00230123DBB2002B02D04FF001031DE07A6A48F2080323
S32D00012090CFF6D9731340002B02D04FF0010312E07B6A03F4F853B3F5106F0CBF00230123DBB2002BC8D1BB7BA4
S32D000120B8002B02D04FF0010301E04FF00003184607F13807BD4680BD80B58CB000AF0B463A600246FA71BB71D7
S32D000120E041F26C13C1F6FF73BB62FB79002B02D04FF004037AE04FF0010387F82F3040F20043C1F6FF731B7876
S32D00012108DBB203F00103DBB2002B02D04FF0030368E0BB79032B5FD801A252F823F000BF3921010043210100F5
S32D0001213055210100672101004FF0000387F82F3052E0BB6A9A683B681A604FF0000387F82F3049E03B684FF4BB
S32D0001215800721A804FF0000387F82F3040E04FF009033B724FF000037B72BB6A1B69FB604FF000033B744FF0B1
S32D0001218000037B6107F1080341F202301946FFF755F80346002B0CBF00230123DBB2002B02D04FF0010321E0F3
S32D000121A87B6A03F44003002B11D13B6A4FEA934303F07F0303F101027B6A4FEA132303F0030303F1FF3302FA4D
S32D000121D003F23B681A604FF0000387F82F3003E04FF0040387F82F3097F82F30184607F13007BD4680BD00BF2D
S32D000121F880B483B000AF0346FB71FB79002B02D04FF0010305E040F20043C1F6FF731B78DBB2184607F10C072D
S32D00012220BD4680BC704700BF80B483B000AF78604FF4E043C4F204034FF4E042C4F2040202F5805202F13802B2
S32D00012248126842F0010203F5805303F138031A604FF00003C4F204037A689A604FF00003C4F204034FF0050224
S32D000122705A604FF00003C4F204034FF00002C4F20402126842F001021A6000BF4FF00003C4F204031B6803F02C
S32D000122988003002B14BF00230123DBB2002BF1D14FF00003C4F204034FF00002C4F20402126822F001021A60D0
S32D000122C007F10C07BD4680BC704700BF80B582B000AF786039607B68012B0AD13A684FF6FF739A4205D141F280
S32D000122E88C30C1F6FF7000F00FF807F10807BD4680BD00BF80B500AF4FF001004FF6FF71FFF7E0FF80BD00BF3E
S32D0001231080B483B000AF78607B684FF000021A707B68184607F10C07BD4680BC704700BF80B582B000AF786013
S32D000123387B681B7883F00103DBB2002B36D04FF4E043C4F2040303F5805303F128034FF400621A604FF45043C9
S32D00012360C4F204034FF440721A624FF45043C4F204034FF440725A6241F29033C1F6FF731B684FEAD372D318D1
S32D000123884FEA63034FF43040C4F20E0019464FF46142FEF78DF84FF0640000F0ADF87B684FF001021A704FF02B
S32D000123B0010301E04FF00003184607F10807BD4680BD00BF80B582B000AF7860F970BA707B704FF43040C4F29E
S32D000123D80E004FF07F01FEF78BF94FF43040C4F20E004FF00801FEF783F9FB784FF43040C4F20E001946FEF722
S32D000124007BF9BB784FF43040C4F20E001946FEF773F97B784FF43040C4F20E001946FEF76BF94FF43040C4F244
S32D000124280E004FF0FF01FEF763F907F10807BD4680BD00BF80B487B000AFF860B9607A60FA6844F6D353C1F207
S32D000124506203A3FB02134FEA9312BB68D3187B61FA6844F6D353C1F26203A3FB02134FEA93134FF47A7101FBE7
S32D0001247803F3D31AFB60FB684FEAC33244F6D353C1F26203A3FB02134FEA93127B68D3183B613B694FEAD33310
S32D000124A07A69D3187B613B694FEA43434FEA53433B614FF45043C4F203031B681A467B699A4211D34FF45043A6
S32D000124C8C4F203031B681A467B699A420BD14FF45043C4F203035B681A463B699A4202D24FF0010301E04FF03E
S32D000124F00003002BDDD107F11C07BD4680BC704780B584B000AF78604FF45043C4F203031B68FB604FF450439A
S32D00012518C4F203035B68BB607B681846F968BA68FFF788FF07F11007BD4680BD0000000080B584B000AFC7E9A2
S32D0001254000014FF45043C4F203031B68FB604FF45043C4F203035B68BB60D7E900010AA3D3E90023FAF70CF948
S32D0001256802460B4610461946FAF7C8FB03461846F968BA68FFF75EFF07F11007BD4680BD0000000000408F4067
S32D0001259080B584B000AF4FF45043C4F203031B68FB604FF45043C4F203035B68BB60F868FAF770F802460B46D2
S32D000125B8C7E90023B868FAF769F802460B46104619464FF000024FF0804303F56003FAF7FDF902460B46D7E983
S32D000125E00001F9F71BFF02460B46C7E90023D7E900231046194607F11007BD4680BD00BF80B483B000AF4FF456
S32D000126085043C4F203031B684FF47A7202FB03F37B604FF45043C4F203035B684FF47A7202FB03F34FEAD3331E
S32D000126307A68D3187B607B68184607F10C07BD4680BC704780B582B000AF78600B46FB70FB787868194600F045
S32D0001265807F87B68184607F10807BD4680BD00BF80B483B000AF78600B46FB707B68FA781A707B681B781A46AE
S32D000126804BF29813C0F201039B5C042B00F2F98001A252F823F000BFAD2601000B27010069270100C7270100B6
S32D000126A8252801004FF41043C4F204037A68127811464BF2DC12C0F2010252F8212040F2031143F822104FF43E
S32D000126D07043C4F20F034FF47042C4F20F02526911467A68127810464BF2DC12C0F2010252F8202002F01F0253
S32D000126F84FF0010000FA02F26FEA02020A405A61BBE04FF42043C4F204037A68127811464BF2DC12C0F2010282
S32D0001272052F8212040F2031143F822104FF24003C4F20F034FF24002C4F20F02526911467A68127810464BF2A5
S32D00012748DC12C0F2010252F8202002F01F024FF0010000FA02F26FEA02020A405A618CE04FF43043C4F20403B3
S32D000127707A68127811464BF2DC12C0F2010252F8212040F2031143F822104FF28003C4F20F034FF28002C4F254
S32D000127980F02526911467A68127810464BF2DC12C0F2010252F8202002F01F024FF0010000FA02F26FEA020225
S32D000127C00A405A615DE04FF44043C4F204037A68127811464BF2DC12C0F2010252F8212040F2031143F8221044
S32D000127E84FF2C003C4F20F034FF2C002C4F20F02526911467A68127810464BF2DC12C0F2010252F8202002F0FC
S32D000128101F024FF0010000FA02F26FEA02020A405A612EE04FF45043C4F204037A68127811464BF2DC12C0F2A7
S32D00012838010252F8212040F2031143F822104FF47143C4F20F034FF47142C4F20F02526911467A6812781046E0
S32D000128604BF2DC12C0F2010252F8202002F01F024FF0010000FA02F26FEA02020A405A6100BF07F10C07BD466F
S32D0001288880BC704780B485B000AF78604FF00003FB607B681B781A464BF29813C0F201039B5C042B00F286800F
S32D000128B001A252F823F000BFCD280100FD2801002D2901005D2901008D2901004FF47043C4F20F031B691A46E7
S32D000128D87B681B7819464BF2DC13C0F2010353F8213003F01F034FF0010101FA03F31340FB605FE04FF24003C6
S32D00012900C4F20F031B691A467B681B7819464BF2DC13C0F2010353F8213003F01F034FF0010101FA03F313400F
S32D00012928FB6047E04FF28003C4F20F031B691A467B681B7819464BF2DC13C0F2010353F8213003F01F034FF0E7
S32D00012950010101FA03F31340FB602FE04FF2C003C4F20F031B691A467B681B7819464BF2DC13C0F2010353F8F6
S32D00012978213003F01F034FF0010101FA03F31340FB6017E04FF47143C4F20F031B691A467B681B7819464BF23E
S32D000129A0DC13C0F2010353F8213003F01F034FF0010101FA03F31340FB6000BFFB68002B0CBF00230123DBB2E6
S32D000129C8184607F11407BD4680BC704780B584B000AF78600B46FB704FF00B03FB73FA78FB7B786811461A4693
S32D000129F000F0ECF87B68184607F11007BD4680BD80B485B000AF78607B68A3F11003002B01DA03F11F034FEA85
S32D00012A186313FB60FB68012B48D0022B00F08980002B40F0C9804FF46142CEF200024FF46143CEF20003D3F830
S32D00012A40803119467B68A3F110004FF01F03C8F200030340002B05DA03F1FF3363F01F0303F101034FF0010092
S32D00012A6800FA03F30B43C2F880314FF46142CEF200024FF46143CEF200031B6819467B68A3F110004FF01F037A
S32D00012A90C8F200030340002B05DA03F1FF3363F01F0303F101034FF0010000FA03F30B43136085E04FF461423E
S32D00012AB8CEF200024FF46143CEF20003D3F8843119467B68A3F110004FF01F03C8F200030340002B05DA03F1BE
S32D00012AE0FF3363F01F0303F101034FF0010000FA03F30B43C2F884314FF46142CEF200024FF46143CEF20003E9
S32D00012B085B6819467B68A3F110004FF01F03C8F200030340002B05DA03F1FF3363F01F0303F101034FF00100B7
S32D00012B3000FA03F30B43536042E04FF46142CEF200024FF46143CEF20003D3F8883119467B68A3F110004FF068
