S01100002E2E2F5365616C426F742E733139AE
S32D0000C00000000020F9F9000055FD000055FD000055FD000055FD000055FD000000000000000000000000000066
S32D0000C0280000000055FD000055FD00000000000055FD000055FD000055FD000055FD000055FD000055FD00005A
S32D0000C05055FD000055FD000055FD000055FD000055FD000055FD000055FD000055FD000055FD000055FD00008E
S32D0000C07855FD000055FD000055FD000055FD000055FD000055FD000055FD000055FD000055FD000055FD000066
S32D0000C0A055FD000055FD000055FD000055FD000055FD000055FD000055FD000055FD000055FD000055FD00003E
S32D0000C0C855FD000055FD000055FD000055FD000055FD000055FD000055FD000055FD000055FD000055FD000016
S32D0000C0F055FD00007169010055FD000055FD000055FD000055FD000055FD000055FD000055FD000055FD000065
S32D0000C11855FD000055FD000055FD000055FD000055FD000055FD000055FD000055FD000055FD000055FD0000C5
S32D0000C14055FD000055FD000055FD000055FD0000F531010055FD000055FD000055FD000055FD000055FD0000C8
S32D0000C16855FD000055FD000055FD000055FD000055FD000055FD000055FD000055FD000055FD000055FD000075
S32D0000C19055FD000055FD000055FD0000552C0100A92A01007D2B0100A5FD00002D2D010055FD000055FD0000EB
S32D0000C1B855FD000055FD000055FD000055FD000055FD000055FD000055FD000055FD000055FD000055FD000025
S32D0000C41081F0004102E000BF83F0004330B54FEA41044FEA430594EA050F08BF90EA020F1FBF54EA000C55EAC6
S32D0000C438020C7FEA645C7FEA655C00F0E2804FEA5454D4EB5555B8BF6D420CDD2C4480EA020281EA030382EA0F
S32D0000C460000083EA010180EA020281EA0303362D88BF30BD11F0004F4FEA01314FF4801C4CEA113102D0404263
S32D0000C48861EB410113F0004F4FEA03334CEA133302D0524263EB430394EA050F00F0A780A4F10104D5F1200E8A
S32D0000C4B00DDB02FA0EFC22FA05F2801841F1000103FA0EF2801843FA05F359410EE0A5F120050EF1200E012A2D
S32D0000C4D803FA0EFC28BF4CF0020C43FA05F3C01851EBE37101F0004507D54FF0000EDCF1000C7EEB00006EEB67
S32D0000C5000101B1F5801F1BD3B1F5001F0CD349085FEA30004FEA3C0C04F101044FEA445212F5800F80F09A8000
S32D0000C528BCF1004F08BF5FEA500C50F1000041EB045141EA050130BD5FEA4C0C404141EB010111F4801FA4F114
S32D0000C5500104E9D191F0000F04BF01460020B1FA81F308BF2033A3F10B03B3F120020CDA0C3208DD02F1140C87
S32D0000C578C2F10C0201FA0CF021FA02F10CE002F11402D8BFC2F1200C01FA02F120FA0CFCDCBF41EA0C019040B1
S32D0000C5A0E41AA2BF01EB0451294330BD6FEA04041F3C1CDA0C340EDC04F11404C4F1200220FA04F001FA02F3B6
S32D0000C5C840EA030021FA04F345EA030130BDC4F10C04C4F1200220FA02F001FA04F340EA0300294630BD21FAA8
S32D0000C5F004F0294630BD94F0000F83F4801306BF81F480110134013D4EE77FEA645C18BF7FEA655C29D094EA1C
S32D0000C618050F08BF90EA020F05D054EA000C04BF1946104630BD91EA030F1EBF0021002030BD5FEA545C05D1A3
S32D0000C6404000494128BF41F0004130BD14F580043CBF01F5801130BD01F0004545F0FE4141F470014FF0000031
S32D0000C66830BD7FEA645C1ABF194610467FEA655C1CBF0B46024650EA013406BF52EA033591EA030F41F40021D7
S32D0000C69030BD00BF90F0000F04BF0021704730B54FF4806404F132044FF000054FF0000150E700BF90F0000F66
S32D0000C6B804BF0021704730B54FF4806404F1320410F0004548BF40424FF000013EE700BF42004FEAE2014FEAF9
S32D0000C6E031014FEA02701FBF12F07F4393F07F4F81F06051704792F0000F14BF93F07F4F704730B54FF460741B
S32D0000C70801F0004521F0004120E700BF50EA010208BF704730B54FF000050AE050EA010208BF704730B511F046
S32D0000C730004502D5404261EB41014FF4806404F132045FEA915C3FF4DCAE4FF003025FEADC0C18BF03325FEAA0
S32D0000C758DC0C18BF033202EBDC02C2F1200300FA03FC20FA02F001FA03FE40EA0E0021FA02F11444C1E600BF19
S32D0000C78070B54FF0FF0C4CF4E06C1CEA11541DBF1CEA135594EA0C0F95EA0C0F00F0DEF82C4481EA030621EAF3
S32D0000C7A84C5123EA4C5350EA013518BF52EA033541F4801143F4801338D0A0FB02CE4FF00005E1FB02E506F05F
S32D0000C7D00042E0FB03E54FF00006E1FB03569CF0000F18BF4EF0010EA4F1FF04B6F5007F64F5407404D25FEA0F
S32D0000C7F84E0E6D4146EB060642EAC62141EA55514FEAC52040EA5E504FEACE2EB4F1FD0C88BFBCF5E06F1ED8D2
S32D0000C820BEF1004F08BF5FEA500E50F1000041EB045170BD06F0004646EA010140EA020081EA0301B4EB5C0487
S32D0000C848C2BFD4EB0C0541EA045170BD41F480114FF0000E013C00F3AB8014F1360FDEBF002001F0004170BDF0
S32D0000C870C4F10004203C35DA0C341BDC04F11404C4F1200500FA05F320FA04F001FA05F240EA020001F0004207
S32D0000C89821F0004110EBD37021FA04F642EB06015EEA430E08BF20EAD37070BDC4F10C04C4F1200500FA04F32F
S32D0000C8C020FA05F001FA04F240EA020001F0004110EBD37041F100015EEA430E08BF20EAD37070BDC4F12005C7
S32D0000C8E800FA05F24EEA020E20FA04F301FA05F243EA020321FA04F001F0004121FA04F220EA020000EBD37028
S32D0000C9105EEA430E08BF20EAD37070BD94F0000F0FD101F00046400041EB010111F4801F08BF013CF7D041EA6D
S32D0000C938060195F0000F18BF704703F00046520043EB030313F4801F08BF013DF7D043EA0603704794EA0C0FF1
S32D0000C9600CEA135518BF95EA0C0F0CD050EA410618BF52EA4306D1D181EA030101F000414FF0000070BD50EA38
S32D0000C988410606BF1046194652EA430619D094EA0C0F02D150EA013613D195EA0C0F05D152EA03361CBF10467B
S32D0000C9B019460AD181EA030101F0004141F0FE4141F470014FF0000070BD41F0FE4141F4780170BD70B54FF04D
S32D0000C9D8FF0C4CF4E06C1CEA11541DBF1CEA135594EA0C0F95EA0C0F00F0A7F8A4EB050481EA030E52EA03359B
S32D0000CA004FEA013100F088804FEA03334FF0805545EA131343EA12634FEA022245EA111545EA10654FEA002676
S32D0000CA280EF000419D4208BF964244F1FD0404F5407402D25B084FEA3202B61A65EB03055B084FEA32024FF461
S32D0000CA5080104FF4002CB6EB020E75EB030E22BFB61A754640EA0C005B084FEA3202B6EB020E75EB030E22BF22
S32D0000CA78B61A754640EA5C005B084FEA3202B6EB020E75EB030E22BFB61A754640EA9C005B084FEA3202B6EBEA
S32D0000CAA0020E75EB030E22BFB61A754640EADC0055EA060E18D04FEA051545EA16754FEA06164FEAC30343EAAC
S32D0000CAC852734FEAC2025FEA1C1CC0D111F4801F0BD141EA00014FF000004FF0004CB6E711F4801F04BF0143AE
S32D0000CAF00020B4F1FD0C88BFBCF5E06F3FF6AFAEB5EB030C04BFB6EB020C5FEA500C50F1000041EB045170BDBC
S32D0000CB180EF0004E4EEA113114EB5C04C2BFD4EB0C0541EA045170BD41F480114FF0000E013C90E645EA060EC3
S32D0000CB408DE60CEA135594EA0C0F08BF95EA0C0F3FF43BAF94EA0C0F0AD150EA01347FF434AF95EA0C0F7FF499
S32D0000CB6825AF104619462CE795EA0C0F06D152EA03353FF4FDAE1046194622E750EA410618BF52EA43067FF432
S32D0000CB90C5AE50EA41047FF40DAF52EA43057FF4EBAE12E74FF0FF3C06E000BF4FF0010C02E000BF4FF0010C75
S32D0000CBB84DF804CD4FEA410C7FEA6C5C4FEA430C18BF7FEA6C5C1BD001B050EA410C0CBF52EA430C91EA030FEC
S32D0000CBE002BF90EA020F0020704710F1000F91EA030F58BF994208BF90422CBFD8176FEAE37040F0010070476E
S32D0000CC084FEA410C7FEA6C5C02D150EA013C07D14FEA430C7FEA6C5CD6D152EA033CD3D05DF8040B704700BFCD
S32D0000CC308446104662468C461946634600E000BF01B5FFF7B7FF002848BF10F1000F01BD4DF808EDFFF7F4FF13
S32D0000CC580CBF012000205DF808FB00BF4DF808EDFFF7EAFF34BF012000205DF808FB00BF4DF808EDFFF7E0FF18
S32D0000CC8094BF012000205DF808FB00BF4DF808EDFFF7CEFF94BF012000205DF808FB00BF4DF808EDFFF7C4FF40
S32D0000CCA834BF012000205DF808FB00BF4FEA410212F5001215D211D56FF47873B3EB625212D94FEAC12343F0D6
S32D0000CCD0004343EA505311F0004F23FA02F018BF404270474FF00000704750EA013005D111F0004008BF6FF016
S32D0000CCF8004070474FF00000704700BF4A0011D212F5001211D20DD56FF47873B3EB62520ED44FEAC12343F085
S32D0000CD20004343EA505323FA02F070474FF00000704750EA013002D14FF0FF3070474FF0000070474FEA410241
S32D0000CD48B2F1E04324BFB3F5001CDCF1FE5C0DD901F0004C4FEAC0024CEA5070B2F1004F40EB830008BF20F09E
S32D0000CD700100704711F0804F21D113F13872BCBF01F00040704741F480114FEA5252C2F11802C2F1200C10FAB1
S32D0000CD980CF320FA02F018BF40F001004FEAC1234FEAD32303FA0CFC40EA0C0023FA02F34FEA4303CCE77FEA26
S32D0000CDC0625307D150EA01331EBF4FF0FE4040F44000704701F0004040F0FE4040F40000704700BF80F00040CC
S32D0000CDE802E000BF81F0004142001FBF5FEA410392EA030F7FEA226C7FEA236C6AD04FEA1262D2EB1363C1BF06
S32D0000CE10D218414048404140B8BF5B42192B88BF704710F0004F40F4000020F07F4018BF404211F0004F41F4FA
S32D0000CE38000121F07F4118BF494292EA030F3FD0A2F1010241FA03FC10EB0C00C3F1200301FA03F100F000432B
S32D0000CE6002D5494260EB4000B0F5000F13D3B0F1807F06D340084FEA310102F10102FE2A51D2B1F1004F40EB94
S32D0000CE88C25008BF20F0010040EA03007047490040EB000010F4000FA2F10102EDD1B0FA80FCACF1080CB2EB5F
S32D0000CEB00C0200FA0CF0AABF00EBC25052421843BCBFD0401843704792F0000F81F4000106BF80F400000132EB
S32D0000CED8013BB5E74FEA41037FEA226C18BF7FEA236C21D092EA030F04D092F0000F08BF0846704790EA010FD7
S32D0000CF001CBF0020704712F07F4F04D1400028BF40F00040704712F100723CBF00F50000704700F0004343F0DC
S32D0000CF28FE4040F4000070477FEA226216BF08467FEA23630146420206BF5FEA412390EA010F40F480007047C1
S32D0000CF504FF0000304E000BF10F0004348BF40425FEA000C08BF704743F0964301464FF000001CE050EA010264
S32D0000CF7808BF70474FF000030AE000BF50EA010208BF704711F0004302D5404261EB41015FEA010C02BF84465B
S32D0000CFA00146002043F0B64308BFA3F18053A3F50003BCFA8CF2083AA3EBC25310DB01FA02FC634400FA02FC6B
S32D0000CFC8C2F12002BCF1004F20FA02F243EB020008BF20F00100704702F1200201FA02FCC2F1200250EA4C0034
S32D0000CFF021FA02F243EB020008BF20EADC7070474FF0FF0C1CEAD0521EBF1CEAD15392EA0C0F93EA0C0F6FD019
S32D0000D0181A4480EA010C400218BF5FEA41211ED04FF0006343EA501043EA5111A0FB01310CF00040B1F5000FE7
S32D0000D0403EBF490041EAD3715B0040EA010062F17F02FD2A1DD8B3F1004F40EBC25008BF20F00100704790F058
S32D0000D068000F0CF0004C08BF49024CEA502040EA51207F3AC2BFD2F1FF0340EAC250704740F400004FF0000388
S32D0000D090013A5DDC12F1190FDCBF00F000407047C2F10002410021FA02F1C2F1200200FA02FC5FEA310040F1D5
S32D0000D0B8000053EA4C0308BF20EADC70704792F0000F00F0004C02BF400010F4000F013AF9D040EA0C0093F04C
S32D0000D0E0000F01F0004C02BF490011F4000F013BF9D041EA0C018FE70CEAD15392EA0C0F18BF93EA0C0F0AD00B
S32D0000D10830F0004C18BF31F0004CD8D180EA010000F00040704790F0000F17BF90F0004F084691F0000F91F0BB
S32D0000D130004F14D092EA0C0F01D142020FD193EA0C0F03D14B0218BF084608D180EA010000F0004040F0FE4051
S32D0000D15840F40000704740F0FE4040F4400070474FF0FF0C1CEAD0521EBF1CEAD15392EA0C0F93EA0C0F69D044
S32D0000D180A2EB030280EA010C49024FEA402037D04FF0805343EA111143EA10130CF000408B4238BF5B0042F14E
S32D0000D1A87D024FF4000C8B4224BF5B1A40EA0C00B3EB510F24BFA3EB510340EA5C00B3EB910F24BFA3EB9103A4
S32D0000D1D040EA9C00B3EBD10F24BFA3EBD10340EADC001B0118BF5FEA1C1CE0D1FD2A3FF650AF8B4240EBC25018
S32D0000D1F808BF20F0010070470CF0004C4CEA50207F32C2BFD2F1FF0340EAC250704740F400004FF00003013AF1
S32D0000D22037E792F0000F00F0004C02BF400010F4000F013AF9D040EA0C0093F0000F01F0004C02BF490011F4C9
S32D0000D248000F013BF9D041EA0C0195E70CEAD15392EA0C0F08D142027FF47DAF93EA0C0F7FF470AF084676E7AE
S32D0000D27093EA0C0F04D14B023FF44CAF08466EE730F0004C18BF31F0004CCAD130F000427FF45CAF31F0004376
S32D0000D2987FF43CAF5FE700BF4FF0FF3C06E000BF4FF0010C02E000BF4FF0010C4DF804CD4FEA40024FEA41039F
S32D0000D2C07FEA226C18BF7FEA236C11D001B052EA530C18BF90EA010F58BFB2EB030088BFC81738BF6FEAE1706E
S32D0000D2E818BF40F0010070477FEA226C02D15FEA402C05D17FEA236CE4D15FEA412CE1D05DF8040B704700BF16
S32D0000D310844608466146FFE70FB5FFF7C9FF002848BF10F1000F0FBD4DF808EDFFF7F4FF0CBF012000205DF839
S32D0000D33808FB00BF4DF808EDFFF7EAFF34BF012000205DF808FB00BF4DF808EDFFF7E0FF94BF012000205DF8A9
S32D0000D36008FB00BF4DF808EDFFF7D2FF94BF012000205DF808FB00BF4DF808EDFFF7C8FF34BF012000205DF8B1
S32D0000D38808FB00BF4FEA4002B2F1FE4F0FD34FF09E03B3EB12620DD94FEA002343F0004310F0004F23FA02F060
S32D0000D3B018BF404270474FF00000704712F1610F01D1420205D110F0004008BF6FF0004070474FF00000704797
S32D0000D3D880B582B000AF786078680AF08DFE0346184607F10807BD4680BD00BF80B483B000AF78607B6823F043
S32D0000D4000043184607F10C07BD4680BC704700BF80B500AF41F24C10C1F6FF704FF4FA7106F0ECF841F24C10ED
S32D0000D428C1F6FF7040F6331106F002F900F004F84FF00003184680BDB0B5ADF5C56D06AF41F23C40C1F6FF70B9
S32D0000D45044F64F71C0F22F0106F084FE41F23C40C1F6FF7042F62F71C0F24F0106F0D8FE07F11003A3F10C0331
S32D0000D4781D464FF0050406E0284608F02BFD05F1EC0504F1FF34B4F1FF3F0CBF00230123DBB2002BF0D107F5EE
S32D0000D4A0B06202F10C024FF0780310464FF000011A460BF062F949F60813C0F2010307F5B06202F10C0293E8AB
S32D0000D4C8030082E8030007F5B26303F104034FF000021A6003F104034FF000021A6003F104034FF000021A6093
S32D0000D4F003F1040349F61C12C0F2010207F5B46392E80300186003F10403198003F102034FEA11421A7007F54A
S32D0000D518B46303F107034FF000021A7003F101034FF000021A7003F101034FF000021A7003F101034FF0000246
S32D0000D5401A7003F101034FF000021A7003F101034FF000021A7003F101034FF000021A7003F101034FF00002B1
S32D0000D5681A7003F101034FF000021A7003F101034FF000021A7003F101034FF000021A7003F101034FF0000289
S32D0000D5901A7003F101034FF000021A7003F1010349F63013C0F2010307F5B66202F1040293E8030082E80300F8
S32D0000D5B807F5B66303F10C034FF000021A6003F104034FF000021A6003F104034FF000021A6003F1040349F6CC
S32D0000D5E04412C0F2010207F5B96307CA03C31A8003F102034FEA12421A7007F5BA6303F103034FF000021A70DB
S32D0000D60803F101034FF000021A7003F101034FF000021A7003F101034FF000021A7003F101034FF000021A70E8
S32D0000D63003F101034FF000021A7003F101034FF000021A7003F101034FF000021A7003F101034FF000021A70C0
S32D0000D65803F1010349F65813C0F2010307F5BA6404F10C0493E8070084E807004FF00003C7F8E8354FF00003D8
S32D0000D680C7F8EC3549F66C12C0F2010207F5BE6307CA03C31A7007F5BE6303F109034FF000021A7003F101030C
S32D0000D6A84FF000021A7003F101034FF000021A7003F101034FF000021A7003F101034FF000021A7003F1010348
S32D0000D6D04FF000021A7003F101034FF000021A7003F101034FF000021A7003F101034FF000021A7003F1010320
S32D0000D6F84FF000021A7003F101034FF000021A7003F1010307F11003A3F10C034FF0140200924FF03C020192D9
S32D0000D7204FF03C02029207F5B06202F10C02039241F67012C0F21902049242F62F72C0F24F02059218464FF0FA
S32D0000D74803014FF002024FF0140308F031FE00E000BF07F5C16207F5C06303F1040341F23C40C1F6FF701146EB
S32D0000D7701A4606F099FED7F80816D7F8042607F11003A3F10C0318464FF0000308F0F8FC0346002B0CBF00231C
S32D0000D7980123DBB2002B02D000F032FAD8E7D7F80816D7F8042607F11003A3F10C0303F1EC0318464FF00003C3
S32D0000D7C008F0DEFC0346002B0CBF00230123DBB2002B2BD041F2A440C1F6FF7009F046FE07F11003A3F10C0308
S32D0000D7E84FF0140200924FF03C0201924FF03C02029207F5B06202F10C02039241F67012C0F21902049242F613
S32D0000D8102F72C0F24F02059218464FF003014FF002024FF0140308F0C7FD95E7D7F80816D7F8042607F110034C
S32D0000D838A3F10C0303F5EC7318464FF0000308F09BFC0346002B0CBF00230123DBB2002B02D000F089FE7BE7B0
S32D0000D860D7F80816D7F8042607F11003A3F10C0303F5317318464FF0000308F081FC0346002B0CBF00230123CF
S32D0000D888DBB2002B04D06FF00E0000F0C9FE5FE7D7F80816D7F8042607F11003A3F10C0303F56C7318464FF074
S32D0000D8B0000308F065FC0346002B0CBF00230123DBB2002B00F01E814FF0010004F03CFE41F23C40C1F6FF70DE
S32D0000D8D86FF07F4106F078FC41F23C40C1F6FF704FF0000106F098FCC14BC7F80C36EFE041F23C40C1F6FF7049
S32D0000D90049F6C401C0F201014FF000024FF0000306F0FEFE41F23C40C1F6FF7049F6CC01C0F201014FF00102F5
S32D0000D9284FF0000306F0F0FE41F23C40C1F6FF7049F6D401C0F201014FF002024FF0000306F0E2FE41F224104C
S32D0000D950C1F6FF7005F08CFA034641F23C40C1F6FF7019464FF000024FF0060306F010FF41F22010C1F6FF7074
S32D0000D97805F07AFA034641F23C40C1F6FF7019464FF001024FF0080306F0FEFE41F21C10C1F6FF7005F068FA41
S32D0000D9A0034641F23C40C1F6FF7019464FF002024FF0070306F0ECFE41F23C40C1F6FF7049F6DC01C0F20101CB
S32D0000D9C84FF003024FF0000306F09EFE41F23C40C1F6FF7049F6E401C0F201014FF004024FF0000306F090FE61
S32D0000D9F041F23C40C1F6FF7049F6EC01C0F201014FF005024FF0000306F082FE41F2A440C1F6FF700AF00AFA1B
S32D0000DA18034641F23C40C1F6FF7019464FF003024FF0070306F0B0FE41F2A440C1F6FF700AF008FA034641F27D
S32D0000DA403C40C1F6FF7019464FF004024FF0070306F09EFE41F2A440C1F6FF700AF006FA034641F23C40C1F6B1
S32D0000DA68FF7019464FF005024FF00D0306F08CFE41F23C40C1F6FF7049F6FC01C0F201014FF006024FF000035F
S32D0000DA9006F03EFE41F24810C1F6FF7005F0E8F9034641F23C40C1F6FF7019464FF006024FF00A0306F06CFE3F
S32D0000DAB804F08EFD02460B464FF0080100914FF00001019141F23C40C1F6FF7006F07CFE07F5C16207F5C063FA
S32D0000DAE003F1040341F23C40C1F6FF7011461A4606F0DAFC034683F00103DBB2002B7FF4FBAE72E0D7F80816F2
S32D0000DB08D7F8042607F11003A3F10C0303F5926303F10C0318464FF0000308F02DFB0346002B0CBF0023012312
S32D0000DB30DBB2002B3FF410AE4FF014004FF4E07100F05AFF2AA1D1E9000104F019FD2A482A4901F0A9FB41F2B1
S32D0000DB583C40C1F6FF7049F6EC01C0F201014FF005024FF0000306F0CFFD41F2A440C1F6FF700AF077F90346E3
S32D0000DB8041F23C40C1F6FF7019464FF005024FF00D0306F0FDFD16A1D1E9000104F0F0FC1748164901F080FB42
S32D0000DBA841F23C40C1F6FF7049F6EC01C0F201014FF005024FF0000306F0A6FD41F2A440C1F6FF700AF04EF9FB
S32D0000DBD0034641F23C40C1F6FF7019464FF005024FF00D0306F0D4FDB6E5B5E5AFF300809A9999999999C93F58
S32D0000DBF8000000000000704100008743AFF3008090B585B002AF41F23C40C1F6FF706FF07F4106F0D9FA41F247
S32D0000DC203C40C1F6FF706FF07F4106F0F9FA01F047FD4FF023004FF4A87100F0DDFE4FF014004FF0540100F097
S32D0000DC48D7FEDFA1D1E9000104F096FC4FF014004FF0C40101F0EAF84FF014004FF0540100F0C6FE4FF0140000
S32D0000DC704FF0380100F0C0FED5A1D1E9000104F07FFC01F03DFD01F0D7FD03467B604FF014004FF01C0100F00D
S32D0000DC98AFFE01F031FD4FF01E004FF0380100F0A7FE4FF028004FF4E07100F0A1FE4FF000024FF08043CDE9A5
S32D0000DCC000234FF028004FF02D014FF4526200F0DBFF41F24C10C1F6FF70BF4905F0CCFC6FF013004FF06401EE
S32D0000DCE800F086FE4FF014004FF0C40101F09EF84FF000024FF08043CDE900236FF013006FF013014FF4E07226
S32D0000DD1000F0BAFF4FF014004FF0540100F06CFE4FF014004FF0D90101F0DCF86FF013004FF0A80100F060FE22
S32D0000DD3841F24C10C1F6FF70A64905F099FC4FF000004FF07E5101F5E00104F015FC41F2A440C1F6FF700AF02F
S32D0000DD6019F80346452BCCBF00230123DBB2002B4FD04FF000024FF08043CDE900234FF02D004FF028014FF4EF
S32D0000DD88526200F07DFF41F24C10C1F6FF70924905F06EFC6FF013004FF0700100F028FE4FF014004FF0C401CF
S32D0000DDB001F040F84FF000024FF08043CDE900236FF013006FF013014FF4E07200F05CFF4FF014004FF0540154
S32D0000DDD800F00EFE4FF014004FF0C40101F07EF86FF013004FF0A80100F002FE41F24C10C1F6FF70774905F0AF
S32D0000DE003BFC4FF000004FF07E5101F5E00104F0B7FB7448744901F047FA6FF013006FF013014FF0700200F0C2
S32D0000DE288BFE70486E4901F03BFA65A1D1E9000104F0A2FB6C486A4901F032FA60A1D1E9000104F099FB41F261
S32D0000DE503C40C1F6FF7049F68011C0F201014FF00D024FF0000306F053FC4FF02A004FF028014FF0E00200F0C7
S32D0000DE7863FE4FF02A004FF028014FF0E00200F05BFE4FF034004FF032014FF0E00200F053FE4FF028004FF4EF
S32D0000DEA0A87100F0A9FD4FF01E004FF0380100F0A3FD41F23C40C1F6FF7049F69011C0F201014FF00D024FF04A
S32D0000DEC8000306F021FC41F22810C1F6FF70474902F03EF841F23010C1F6FF70434902F037F800BF41F2A440B1
S32D0000DEF0C1F6FF7009F0AAFF03464FF00102144618463D49FFF738FA0346002B02D14FF000031C46E3B2002BA0
S32D0000DF18E8D141F22810C1F6FF7001F0C9FF41F23010C1F6FF7001F0C3FF41F24C10C1F6FF70304905F09CFBD2
S32D0000DF4021A1D1E9000104F01BFB2648264901F0ABF91DA1D1E9000104F012FB2148224901F0A2F918A1D1E96D
S32D0000DF68000104F009FB4FF014004FF00A0100F05DFF4FF000024FF0804303F58023CDE900236FF018006FF01C
S32D0000DF9018014FF4E07200F077FE41F23010C1F6FF70174901F0D8FF07A1D1E9000104F0E7FA41F23010C1F62D
S32D0000DFB8FF7001F07DFF41F24C10C1F6FF701DE09A9999999999B93F9A9999999999C93F000034420000000009
S32D0000DFE0000050420000A04000007041000096420000B042000070C100003A420000BE420000F041DFF8281534
S32D0000E00805F036FB4FF014004FF0A80100F0F0FC41F24C10C1F6FF70DFF8101505F028FB4FF014004FF0A801A9
S32D0000E03000F0E2FC41F23C40C1F6FF7049F6A011C0F201014FF00D024FF0000306F060FB4FF000024FF0804357
S32D0000E058CDE900234FF028004FF028014FF40C6200F00EFE6FF013004FF0540100F0C0FC4FF019004FF0C40137
S32D0000E08000F0D8FE4FF000024FF0804303F50013CDE900234FF028004FF028014FF4A86200F0F2FD6FF0130018
S32D0000E0A84FF0380100F0A4FC41F23C40C1F6FF7049F6B011C0F201014FF00D024FF0000306F022FB4FF01400C3
S32D0000E0D04FF0CE0100F006FF4FF000024FF07E5303F5E003CDE900234FF032004FF032014FF40C7200F0C8FDC1
S32D0000E0F841F24C10C1F6FF70DFF8341405F0B8FA41F23810C1F6FF70DFF8281401F020FF4FF000004FF07E516E
S32D0000E12001F5E00104F02CFA41F23810C1F6FF7001F0C2FE41F24C10C1F6FF70DFF8001405F09AFA6FF03100D5
S32D0000E1484FF0E00100F054FC41F22810C1F6FF70FA4901F0FDFE41F23010C1F6FF70F74901F0F6FE00BF41F2D9
S32D0000E1702010C1F6FF7004F07BFE03464FF0010214461846F049FFF7F7F80346002B02D14FF000031C46E3B2DD
S32D0000E198002BE8D16FF00E004FF0320100F028FC41F22810C1F6FF7001F082FE41F23010C1F6FF7001F07CFE7C
S32D0000E1C04FF014004FF0620100F08CFED4A3D3E90023CDE900236FF01D006FF01D014FF48C6200F051FD4FF0EC
S32D0000E1E81E004FF0160100F003FC41F24C10C1F6FF70CD4905F03CFA4FF000004FF07E5101F5C00104F0B8F907
S32D0000E2104FF01E004FF4287100F0EEFBCB48CC49CC4A01F015F9CC48CC4900F0C7FE7B68012B00F0BC80022B4B
S32D0000E23800F00E81002B40F05881C448C649C74A01F002F9C648C44901F02AF84FF01E004FF0E00100F0CCFB8B
S32D0000E26001F0EAFA03467B607B68012B4DD14FF014004FF0A80100F0BFFB4FF014004FF0C40100F0D7FD4FF02B
S32D0000E28800024FF0804303F54023CDE900236FF013006FF013014FF4C47200F0F1FC41F23810C1F6FF70AF495C
S32D0000E2B001F052FE4FF000004FF0804101F5402104F05EF941F23810C1F6FF7001F0F4FD4FF014004FF0E00128
S32D0000E2D800F08EFB4FF01E004FF0C40100F0A6FD4FF000024FF07E5303F5F003CDE900234FF01E004FF01E01DB
S32D0000E3004FF40C7200F0C0FCF2E07B68022B40F0EF806FF013004FF0A80100F06DFB4FF014004FF0C40100F008
S32D0000E32885FD4FF000024FF0804303F54023CDE900236FF013006FF013014FF4C47200F09FFC41F23810C1F6B3
S32D0000E350FF70864901F000FE4FF000004FF0804101F5402104F00CF941F23810C1F6FF7001F0A2FD4FF014005F
S32D0000E3784FF0E00100F03CFB4FF01E004FF0C40100F054FD4FF000024FF07E5303F5F003CDE900234FF01E001C
S32D0000E3A04FF01E014FF40C7200F06EFCA0E041F24C10C1F6FF70604905F05EF96FF013004FF4C47100F018FBBF
S32D0000E3C84FF014004FF0C40100F030FD4FF000024FF0804303F54023CDE900236FF013006FF013014FF4C472DE
S32D0000E3F000F04AFC41F23810C1F6FF705B4901F0ABFD4FF000004FF0804101F5402104F0B7F841F23810C1F680
S32D0000E418FF7001F04DFD4FF014004FF0E00100F0E7FA4FF01E004FF0C40100F0FFFC4FF000024FF07E5303F553
S32D0000E440F003CDE900234FF028004FF028014FF40C7200F019FC4CE041F24C10C1F6FF70354905F009F94FF0B8
S32D0000E46814004FF0BA0100F0E1FC4FF000024FF0804303F54023CDE900236FF013006FF013014FF4C47200F0E6
S32D0000E490FBFB41F23810C1F6FF70344901F05CFD4FF000004FF0804101F5402104F068F841F23810C1F6FF7075
S32D0000E4B801F0FEFC4FF014004FF0E00100F098FA4FF01E004FF0C40100F0B0FC14A3D3E90023CDE900234FF0AB
S32D0000E4E028004FF028014FF40C7200F0CDFB00E000BF6FF01D004FF0380100F07DFA4FF019004FF0C40100F0BF
S32D0000E508EDFC4FF032004FF40C7100F071FA07F10C07BD4690BD00BF9A999999999909409A9999999999F93FA7
S32D0000E530000020420000BE420000C8420000484200000000000070C10000E03F00000842000080410000F0413B
S32D0000E5580000AF43000070410000A0410000C84100002D43000048C280B500AF41F24C10C1F6FF70244905F093
S32D0000E5807BF84FF000004FF07E5101F5C00103F0F7FF41F24C10C1F6FF701E4905F06CF84FF000004FF07E514B
S32D0000E5A801F5C00103F0E8FF41F24C10C1F6FF70174905F05DF84FF000004FF07E5101F5C00103F0D9FF41F253
S32D0000E5D04C10C1F6FF70114905F04EF84FF000004FF07E5101F5C00103F0CAFF41F24C10C1F6FF700A4905F049
S32D0000E5F83FF841F23C40C1F6FF7049F6FC11C0F2010106F049F980BD0000204200000000000034420000BE429C
S32D0000E6200000B4420000000090B589B002AF78607868FEF791FC034641F23010C1F6FF70194601F089FC7868D6
S32D0000E648FEF786FC034641F22810C1F6FF70194601F07EFC4FF004037B614FF008033B6103F0B6FF02460B4640
S32D0000E670C7E9022303F0B0FF02460B4610461946D7E90223FDF7C8FE02460B464FF001010C4610461946C0A3D4
S32D0000E698D3E90023FEF700FB0346002B02D14FF000031C46E3B2002B40F09B8141F23C40C1F6FF704FF0000179
S32D0000E6C005F086FD41F23C40C1F6FF706FF07F4105F0A6FD41F23C40C1F6FF7049F64821C0F201014FF00302B3
S32D0000E6E84FF0000306F010F841F23C40C1F6FF7049F65421C0F201014FF004024FF0000306F002F841F23C4061
S32D0000E710C1F6FF7049F66021C0F201014FF005024FF0000305F0F4FF41F22410C1F6FF7004F09EFB034641F23B
S32D0000E7383C40C1F6FF7019464FF003024FF0090306F022F841F22010C1F6FF7004F08CFB034641F23C40C1F660
S32D0000E760FF7019464FF004024FF0080306F010F841F21C10C1F6FF7004F07AFB034641F23C40C1F6FF701946C5
S32D0000E7884FF005024FF00A0305F0FEFF03F020FF02460B464FF0060100914FF00001019141F23C40C1F6FF70B6
S32D0000E7B006F00EF841F23C40C1F6FF7079694FF007024FF0000305F0C3FF41F22410C1F6FF7004F04DFB034635
S32D0000E7D84FF00102144618466F49FEF7ABFD0346002B02D14FF000031C46E3B2002B02D04FF002037B6141F2F4
S32D0000E8001C10C1F6FF7004F033FB03464FF00102144618466349FEF791FD0346002B02D14FF000031C46E3B284
S32D0000E828002B02D04FF000037B6141F22010C1F6FF7004F019FB03464FF00102144618465549FEF777FD034683
S32D0000E850002B02D14FF000031C46E3B2002B34D041F22410C1F6FF7004F002FB03464FF00102144618464A49E0
S32D0000E878FEF760FD0346002B02D14FF000031C46E3B2002B02D04FF003037B6141F21C10C1F6FF7004F0E8FA27
S32D0000E8A003464FF00102144618463E49FEF746FD0346002B02D14FF000031C46E3B2002B10D04FF001037B619E
S32D0000E8C80CE07B69002B03D14FF003037B6105E07B69022B02D14FF001037B617B69032B7DD801A252F823F0E3
S32D0000E8F02DE9000059E9000001E90000ADE900007B68A3F106031846FEF726FB034641F23010C1F6FF701946ED
S32D0000E91801F01EFB41F22810C1F6FF70204901F017FB5DE041F23010C1F6FF701C4901F00FFB7B68A3F1060314
S32D0000E9401846FEF709FB034641F22810C1F6FF70194601F001FB47E07B6803F102031846FEF7FAFA034641F266
S32D0000E9683010C1F6FF70194601F0F2FA7B68A3F102031846FEF7ECFA034641F22810C1F6FF70194601F0E4FA22
S32D0000E9902AE000BFAFF30080CDCCCCCCCCCC1040000000400000C03F000000007B68A3F102031846FEF7D0FA7D
S32D0000E9B8034641F23010C1F6FF70194601F0C8FA7B6803F102031846FEF7C2FA034641F22810C1F6FF70194619
S32D0000E9E001F0BAFA00E000BF44E600BF07F11C07BD4690BDAFF30080F0B585B000AF7860396041F24410C1F617
S32D0000EA08FF7004F00BFA41F24010C1F6FF7004F005FA7868FEF79CFA034641F23010C1F6FF70194601F094FAB1
S32D0000EA307868FEF791FA034641F22810C1F6FF70194601F089FA03F0C7FD02460B4610461946FEF777F90346F8
S32D0000EA58FB6000BF41F24010C1F6FF7004F0CAF9044641F24410C1F6FF7004F0C3F90346E3181846FDF71AFEC1
S32D0000EA8002460B46104619464FF000024FF08043FDF7A0FF02460B4614461D463868FDF709FE02460B464FF07B
S32D0000EAA801010E4620462946FEF7D8F80346002B02D14FF000031E46F3B2002B27D003F087FD04460D46F86828
S32D0000EAD0FDF702FE02460B4620462946FDF79CFC02460B464FF001010C46104619464FF000024FF0804303F50E
S32D0000EAF8E013FEF7B3F80346002B02D14FF000031C46E3B2002B02D04FF0010301E04FF00003002B9ED141F2AD
S32D0000EB203010C1F6FF7001F0C7F941F22810C1F6FF7001F0C1F907F11407BD46F0BD00BFF0B587B000AFF8600F
S32D0000EB48B9607A6041F24410C1F6FF7004F066F941F24010C1F6FF7004F060F9B868FEF7F7F9034641F23010F5
S32D0000EB70C1F6FF70194601F0EFF9F868FEF7ECF9034641F22810C1F6FF70194601F0E4F903F022FD02460B462D
S32D0000EB9810461946FEF7D2F803467B6100BF41F24010C1F6FF7004F025F9044641F24410C1F6FF7004F01EF93A
S32D0000EBC00346E3181846FDF775FD02460B46104619464FF000024FF08043FDF7FBFE02460B4614461D4678686B
S32D0000EBE8FDF764FD02460B464FF001010E4620462946FEF733F80346002B02D14FF000031E46F3B2002B27D0D3
S32D0000EC1003F0E2FC04460D467869FDF75DFD02460B4620462946FDF7F7FB02460B464FF001010C461046194604
S32D0000EC384FF000024FF0804303F5E013FEF70EF80346002B02D14FF000031C46E3B2002B02D04FF0010301E0E4
S32D0000EC604FF00003002B9ED141F23010C1F6FF7001F022F941F22810C1F6FF7001F01CF907F11C07BD46F0BDA3
S32D0000EC88F0B587B000AFF860B9607A6041F24410C1F6FF7004F0C2F841F24010C1F6FF7004F0BCF8B868FEF7C7
S32D0000ECB053F9034641F23010C1F6FF70194601F04BF9F868FEF748F9034641F22810C1F6FF70194601F040F97B
S32D0000ECD803F07EFC02460B4610461946FEF72EF803467B6133E041F23C40C1F6FF706FF07F4105F069FA41F281
S32D0000ED003C40C1F6FF704FF0000105F089FA41F24010C1F6FF7004F071F8034641F23C40C1F6FF7019464FF0C9
S32D0000ED2800024FF0000305F00FFD41F24410C1F6FF7004F05FF8034641F23C40C1F6FF7019464FF001024FF082
S32D0000ED50000305F0FDFC41F24010C1F6FF7004F04DF8044641F24410C1F6FF7004F046F80346E3181846FDF703
S32D0000ED789DFC02460B46104619464FF000024FF08043FDF723FE02460B4614461D467868FDF78CFC02460B46E3
S32D0000EDA04FF001010E4620462946FDF75BFF0346002B02D14FF000031E46F3B2002B23D003F00AFC04460D4647
S32D0000EDC87869FDF785FC02460B4620462946FDF71FFB02460B464FF001010C4610461946D7E90C23FDF73AFF4E
S32D0000EDF00346002B02D14FF000031C46E3B2002B02D04FF0010301E04FF00003002B7FF46EAF41F23010C1F62D
S32D0000EE18FF7001F04DF841F22810C1F6FF7001F047F807F11C07BD46F0BD00BF90B583B000AF7860396041F211
S32D0000EE404410C1F6FF7003F0EDFF41F24010C1F6FF7003F0E7FF7B68C3F100031846FEF77BF8034641F22810B5
S32D0000EE68C1F6FF70194601F073F87868FEF770F8034641F23010C1F6FF70194601F068F800BF41F24010C1F6D3
S32D0000EE90FF7003F0B3FF044641F24410C1F6FF7003F0ACFF0346E3184FEAD372D3184FEA63031A463B689A4280
S32D0000EEB8ACBF00230123DBB2002BE2D141F23010C1F6FF7000F0F4FF41F22810C1F6FF7000F0EEFF07F10C071A
S32D0000EEE0BD4690BD90B583B000AF7860396041F24410C1F6FF7003F095FF41F24010C1F6FF7003F08FFF7868DE
S32D0000EF08FEF726F8034641F22810C1F6FF70194601F01EF87B68C3F100031846FEF718F8034641F23010C1F618
S32D0000EF30FF70194601F010F800BF41F24010C1F6FF7003F05BFF044641F24410C1F6FF7003F054FF0346E318B6
S32D0000EF584FEAD372D3184FEA630319463A6813464FEA03139B1A4FEA43031A4648F29D23C5F2973383FB020348
S32D0000EF804FEAA3104FEAE273C31A3A68D31A9942ACBF00230123DBB2002BCED141F23010C1F6FF7000F088FF89
S32D0000EFA841F22810C1F6FF7000F082FF07F10C07BD4690BDF0B585B000AF7860396041F2A440C1F6FF7008F0AF
S32D0000EFD04DFF0346FB604FF001031C4678685249FEF7ACF90346002B02D14FF000031C46E3B2002B01D04C4B56
S32D0000EFF87B603B6883F0004341F22810C1F6FF70194600F0A5FF41F23010C1F6FF70396800F09EFF4FF0010329
S32D0000F0201C467868F968FEF789F90346002B02D14FF000031C46E3B2002B4AD000BF41F2A440C1F6FF7008F0EF
S32D0000F04811FF03464FF00102144618467968FEF771F90346002B02D14FF000031C46E3B2002B2AD141F2A4404A
S32D0000F070C1F6FF7008F0FAFE03461846FDF72CFB04460D46F868FDF727FB02460B46104619464FF000024FF0B9
S32D0000F0988043FDF7BDF902460B464FF001010E4620462946FDF7F8FD0346002B02D14FF000031E46F3B2002B34
S32D0000F0C002D04FF0010301E04FF00003002BB6D117E000BF41F2A440C1F6FF7008F0C6FE03464FF001021446A4
S32D0000F0E818467968FEF726F90346002B02D14FF000031C46E3B2002BE8D141F23010C1F6FF70084900F024FF46
S32D0000F11041F22810C1F6FF70044900F01DFF07F11407BD46F0BD00BF0000803F00000000F0B585B000AF786045
S32D0000F138396041F2A440C1F6FF7008F093FE0346FB604FF001031C4678685249FEF7F2F80346002B02D14FF021
S32D0000F16000031C46E3B2002B01D04D4B7B6041F22810C1F6FF70396800F0EEFE3B6883F0004341F23010C1F687
S32D0000F188FF70194600F0E4FE4FF001031C467868F968FEF7EDF80346002B02D14FF000031C46E3B2002B4AD034
S32D0000F1B000BF41F2A440C1F6FF7008F057FE03464FF00102144618467968FEF7D5F80346002B02D14FF0000379
S32D0000F1D81C46E3B2002B2AD141F2A440C1F6FF7008F040FE03461846FDF772FA04460D46F868FDF76DFA0246D2
S32D0000F2000B46104619464FF000024FF08043FDF705F902460B464FF001010E4620462946FDF720FD0346002B1D
S32D0000F22802D14FF000031E46F3B2002B02D04FF0010301E04FF00003002BB6D117E000BF41F2A440C1F6FF7092
S32D0000F25008F00CFE03464FF00102144618467968FEF78AF80346002B02D14FF000031C46E3B2002BE8D141F25C
S32D0000F2783010C1F6FF70094900F06AFE41F22810C1F6FF70054900F063FE07F11407BD46F0BD00BF0000803FE7
S32D0000F2A033F3B3430000000090B585B000AF7860396041F2A440C1F6FF7008F0D7FD034641F23C40C1F6FF7063
S32D0000F2C819464FF001024FF0010305F05DFA41F23C40C1F6FF7079684FF002024FF0010305F052FA4FF0000329
S32D0000F2F0FB7341F2A440C1F6FF7008F0B7FD034618465149FDF774FD0346BB60B868FDF7E3F902460B464FF0C7
S32D0000F31801010C461046194647A3D3E90023FDF7BBFC0346002B02D14FF000031C46E3B2002B08D0B86843491B
S32D0000F340FDF754FD0346BB604FF00103FB73FB7B002B37D041F2A440C1F6FF7008F086FD03464FF00102144600
S32D0000F36818467968FEF704F80346002B02D14FF000031C46E3B2002B12D04FF001031C467868B968FDF7F4FF2D
S32D0000F3900346002B02D14FF000031C46E3B2002B02D04FF0010301E04FF00003002B04D078683968FFF7BCFE3C
S32D0000F3B83BE078683968FFF7FDFD36E041F2A440C1F6FF7008F04EFD03464FF00102144618467968FDF7AEFF40
S32D0000F3E00346002B02D14FF000031C46E3B2002B12D04FF001031C467868B968FDF79EFF0346002B02D14FF0B5
S32D0000F40800031C46E3B2002B02D04FF0010301E04FF00003002B04D078683968FFF7CAFD03E078683968FFF7E2
S32D0000F4307FFE07F11407BD4690BD00BFAFF3008066666666667E7640000034430000B443B0B584B000AFF860AD
S32D0000F458B9607A60F868B9684FF0140200F0C0F841F22810C1F6FF70796800F071FD41F23010C1F6FF707968CB
S32D0000F48000F06AFD00BF41F2A440C1F6FF7008F0CDFC0346F8681946FDF7A8FC03461846FDF7A8FF03464FF0E0
S32D0000F4A80102144618464B49FDF762FF0346002B02D14FF000031C46E3B2002B22D041F2A440C1F6FF7008F0C0
S32D0000F4D0BDFC0346B8681946FDF788FC03461846FDF788FF03464FF00102144618463B49FDF742FF0346002B83
S32D0000F4F802D14FF000031C46E3B2002B02D04FF0010301E04FF00003002BB8D141F22810C1F6FF70304900F0C9
S32D0000F5201BFD41F23010C1F6FF702D4900F014FD41F2A440C1F6FF7008F078FC0346F8681946FDF753FC034658
S32D0000F5481C4641F2A440C1F6FF7008F06BFC0346F8681946FDF746FC034620461946FDF74BFD03461C4641F231
S32D0000F570A440C1F6FF7008F069FC0346B8681946FDF734FC03461D4641F2A440C1F6FF7008F05CFC0346B86878
S32D0000F5981946FDF727FC034628461946FDF72CFD034620461946FDF71FFC03461846FDF70FFF034641F23C40DE
S32D0000F5C0C1F6FF7019464FF00A024FF0040305F0DFF807F11007BD46B0BD00BF0000803F00000000000000003E
S32D0000F5E8B0B588B000AFF860B9607A6041F2A440C1F6FF7008F016FC0346BB6141F2A440C1F6FF7008F01EFC63
S32D0000F61003467B61B8687969FDF7E8FB03461846FDF75AF804460D46F868B969FDF7DEFB03461846FDF750F812
S32D0000F63802460B462046294608F05CFD02460B461046194618A3D3E90023FDF795F802460B4610461946FDF73A
S32D0000F66071FB0346FB614FF001031C46F8691249FDF764FE0346002B02D14FF000031C46E3B2002B05D0F869D3
S32D0000F6880C49FDF7B1FB0346FB617868FDF760FC0346F8691946FFF703FE07F12007BD46B0BD00BFAFF300801A
S32D0000F6B0E8C35CB0DDA54C40000000000000B44398B500AF00BF41F24810C1F6FF7003F0CFFB03464FF00102BC
S32D0000F6D8144618460649FDF74BFE0346002B02D14FF000031C46E3B2002BE8D198BD00BF0000C03F0000000049
S32D0000F70098B500AF41F24810C1F6FF7003F0B0FB03461846FCF7E0FF02460B464FF001010C461046194640A353
S32D0000F728D3E90023FDF79AFA0346002B02D14FF000031C46E3B2002B1AD041F23C40C1F6FF704FF47F0104F02B
S32D0000F7503FFD41F23C40C1F6FF704FF0FF0104F05FFD41F23C40C1F6FF7049F66C21C0F2010105F095F853E0E1
S32D0000F77841F24810C1F6FF7003F076FB03461846FCF7A6FF02460B464FF001010C461046194625A3D3E9002387
S32D0000F7A0FDF760FA0346002B02D14FF000031C46E3B2002B1AD041F23C40C1F6FF704FF0FF0104F005FD41F21B
S32D0000F7C83C40C1F6FF704FF47F0104F025FD41F23C40C1F6FF7049F68C21C0F2010105F05BF819E041F23C4033
S32D0000F7F0C1F6FF704FF0000104F0EAFC41F23C40C1F6FF706FF07F4104F00AFD41F23C40C1F6FF7049F69821EF
S32D0000F818C0F2010105F040F898BD00BFAFF30080CDCCCCCCCCCCEC3F666666666666024098B500AF41F248108A
S32D0000F840C1F6FF7003F014FB03461846FCF744FF02460B464FF001010C46104619461CA3D3E90023FDF7FEF92B
S32D0000F8680346002B02D14FF000031C46E3B2002B02D04FF0010323E041F24810C1F6FF7003F0F2FA0346184678
S32D0000F890FCF722FF02460B464FF001010C46104619460DA3D3E90023FDF7DCF90346002B02D14FF000031C4612
S32D0000F8B8E3B2002B02D04FF0020301E04FF00003184698BDAFF30080CDCCCCCCCCCCEC3F6666666666660240BA
S32D0000F8E080B582B000AF786039607B68012B57D13A684FF6FF739A4252D141F21C10C1F6FF704FF0100103F01C
S32D0000F908A1FA41F22010C1F6FF704FF0110103F099FA41F22410C1F6FF704FF0120103F091FA41F22810C1F657
S32D0000F930FF704FF000011C4A00F066FA41F23010C1F6FF704FF00101174A00F05DFA41F23810C1F6FF704FF0E2
S32D0000F9580201144A00F054FA41F24010C1F6FF704FF0020102F08EFE41F24410C1F6FF704FF0000102F086FE16
S32D0000F98041F24810C1F6FF704FF0010103F05EFA41F24C10C1F6FF704FF0000103F010FE07F10807BD4680BDDF
S32D0000F9A8000040410000B04080B500AF4FF001004FF6FF71FFF790FF80BD00BF80B500AF41F20C72C1F6FF72A9
S32D0000F9D041F21C13C1F6FF73D31A194641F21C13C1F6FF731A460B4610464FF000011A4608F0C3FE80BD00BF4B
S32D0000F9F809F038FF00F0B0F9FFF7E0FF09F00AFF09F0A6FE09F03EFF00F00CF84FF0000041F25811C1F6FF7178
S32D0000FA20FDF7F6FC0346184608F082FE80B500AF4FF4E043C4F204034FF4E042C4F2040202F5805202F1380295
S32D0000FA48126842F4785203F5805303F138031A6000F02EF900F094F841F28833C1F6FF734FF058021A6041F2B2
S32D0000FA708833C1F6FF731B684FF47A7202FB03F241F28433C1F6FF731A6041F28433C1F6FF731B681A464FF41A
S32D0000FA98E043C4F2040303F5825303F104031B6803F070634FEA136303F10103B2FBF3F31A4641F28C33C1F60C
S32D0000FAC0FF731A604FF4E043C4F204034FF4E042C4F2040202F5805202F13C02126842F0225203F5805303F10F
S32D0000FAE83C031A604FF4E043C4F204034FF4E042C4F2040202F5805202F13002126842F0006203F5805303F138
S32D0000FB1030031A604FF45043C4F203034FF480721A614FF0640002F0A3FB4FF45043C4F203034FF45042C4F288
S32D0000FB380302526922F010025A614FF45043C4F203034FF000021A604FF45043C4F203034FF010025A6103F022
S32D0000FB60B9FA03F061FB41F28030C1F6FF7002F003FC41F23C40C1F6FF7004F041F941F2883002F0E1FC80BD81
S32D0000FB8880B400AF4FF48043C4F206034FF000025A704FF48043C4F206034FF098021A704FF48043C4F20603AF
S32D0000FBB09B79DBB203F01003002B0CBF00230123DBB2002BF0D14FF48043C4F206039B79DBB203F00C034FEA29
S32D0000FBD89303022B0CBF00230123DBB2002BEED14FF48043C4F206034FF018021A714FF48043C4F206034FF006
S32D0000FC0000025A714FF4E043C4F2040303F5825303F104034FF00002C0F213121A604FF48043C4F206034FF088
S32D0000FC2854025A7100BF4FF48043C4F206039B79DBB203F02003002B14BF00230123DBB2002BF0D100BF4FF492
S32D0000FC508043C4F206039B79DBB203F04003002B14BF00230123DBB2002BF0D14FF48043C4F206034FF48042A5
S32D0000FC78C4F206021278D2B202F03F02D2B21A704FF48043C4F206039B79DBB203F00C034FEA9303032B0CBF21
S32D0000FCA000230123DBB2002BEED14FF000031846BD4680BC704700BF80B400AF4FF44043C4F204034FF4807288
S32D0000FCC85A634FF2C003C4F20F034FF2C002C4F20F02526942F400525A614FF2C003C4F20F034FF2C002C4F238
S32D0000FCF00F02126842F400521A604FF44043C4F2040340F20312C0F20A021A634FF46143CEF200034FF46142C4
S32D0000FD18CEF20002D2F8882142F08062C3F888214FF46143CEF200034FF46142CEF20002926842F080629A60B6
S32D0000FD40BD4680BC704700BF80B483B000AF7860FEE700BF80B400AF00BEBD4680BC704780B400AF4FF0E02293
S32D0000FD684CF20003C0F20003C2F8083D4FF40053C4F205034CF22052DA814FF40053C4F205034DF62812DA81ED
S32D0000FD904FF40053C4F205034FF0D2021A80BD4680BC704780B500AF4FF44043C4F20403D3F8A03003F4805382
S32D0000FDB8002B0CBF00230123DBB2002B1FD04FF44043C4F204034FF44042C4F20402D2F8A02022F48052C3F808
S32D0000FDE0A02041F2C440C1F6FF7008F049F94FF2C003C4F20F034FF2C002C4F20F02126822F400521A6080BD6F
S32D0000FE0890B585B000AFF8600B467A60FB72FB68FA7A1A71FB684FF000025A714FF001031C4678682049FDF700
S32D0000FE30A3FA0346002B02D14FF000031C46E3B2002B02D01A4B7B6011E04FF001031C4678681849FDF77CFA09
S32D0000FE580346002B02D14FF000031C46E3B2002B01D0124B7B607868FCF732FC02460B46104619460AA3D3E910
S32D0000FE800023FCF77DFC02460B4610461946FCF759FF0246FB681A60FB68184607F11407BD4690BDAFF30080C1
S32D0000FEA8ABAAAAAAAAAA2040000040410000803F80B582B000AF78607B685B79002B10D07B684FF000025A71F0
S32D0000FED07B681B7941F28030C1F6FF7019464FF000024FF01E0302F091FA07F10807BD4680BD00BF80B584B098
S32D0000FEF800AF786039603B687F2B03DD4FF07F03FB7309E03B6813F1800F03DA4FF08003FB7301E03B68FB7342
S32D0000FF207B685B79FA7B9A420FD07B68FA7B5A717B681A79FB7B41F28030C1F6FF7011461A464FF01E0302F0AB
S32D0000FF4861FA07F11007BD4680BD00BF00000000B0B584B000AF786039604FF001031C4638684D49FDF7E6F9BB
S32D0000FF700346002B02D14FF000031C46E3B2002B02D0474B3B6011E04FF001031C4638684449FDF7F1F90346CF
S32D0000FF98002B02D14FF000031C46E3B2002B01D03E4B3B603868FCF793FB04460D467B681B681846FCF78CFBE8
S32D0000FFC002460B46104619464FF000024FF0804303F5B203FCF7FEFC02460B4620462946FCF7CEFB02460B4625
S32D0000FFE810461946FCF7AAFE03463B604FF001031C4638682A49FDF7B1F90346002B02D14FF000031C46E3B2E1
S32D00010010002B14D03868FCF75FFB02460B46104619461DA3D3E90023FCF7AAFB02460B4610461946FCF73EFEC3
S32D000100380346FB6022E03868FCF74AFB02460B46104619464FF000024FF0804303F5C003FCF792FB02460B46B6
S32D00010060104619464FF000024FF0804303F5B203FCF7B0FC02460B4610461946FCF71AFE0346FB607868F968EF
S32D00010088FFF734FF07F11007BD46B0BDAFF3008052B81E85EB51F43F0000C8C20000C84200000000AFF30080AD
S32D000100B080B485B000AF02460B46FA71BB71BB79002B07D141F25C13C1F6FF734FF000021A7006E041F25C1384
S32D000100D8C1F6FF734FF001021A704FF03803FB7341F25C13C1F6FF731A78FB7B1343FB734FF4C043C4F2060380
S32D000101004FF4C042C4F206029278D2B242F01002D2B29A704FF4C043C4F206034FF4C042C4F206029278D2B2D7
S32D0001012842F02002D2B29A704FF4C043C4F20603FA7B1A7107F11407BD4680BC704700BF80B483B000AF4FF0A4
S32D0001015001037B6004E000BF7B6803F101037B607B68312BCCBF00230123DBB2002BF2D107F10C07BD4680BC72
S32D00010178704700BF80B582B000AF02460B46FA71BB7141F25D13C1F6FF731B7818464FF00001FFF789FF4FF4DE
S32D000101A0C043C4F20603DB78DBB203F00203002B14BF00230123DBB2002BF0D14FF4C043C4F206034FF4C0428E
S32D000101C8C4F20602D278D2B242F00202D2B2DA704FF4C043C4F20603FA791A714FF4C043C4F20603DB78DBB290
S32D000101F003F00203002B14BF00230123DBB2002BF0D14FF4C043C4F206034FF4C042C4F20602D278D2B242F022
S32D000102180202D2B2DA704FF4C043C4F20603BA791A714FF4C043C4F20603DB78DBB203F00203002B14BF002324
S32D000102400123DBB2002BF0D14FF4C043C4F206034FF4C042C4F20602D278D2B242F00202D2B2DA704FF4C043D2
S32D00010268C4F206034FF4C042C4F206029278D2B222F02002D2B29A704FF4C043C4F206034FF4C042C4F206024D
S32D000102909278D2B222F01002D2B29A70FFF754FF07F10807BD4680BD80B582B000AF0346FB71FB79184600F0E2
S32D000102B86BF807F10807BD4680BD00BF80B582B000AF02460B46FA71BB7100F039F8FB794FEA4303DBB2184669
S32D000102E0FFF7E2FFBB791846FFF7DEFF00F03EF807F10807BD4680BD80B500AF4FF0FF0000F046F8034618464F
S32D0001030880BD00BF80B584B000AF0346FB7100F017F8FB794FEA4303DBB243F00103DBB2DBB21846FFF7BCFF1E
S32D00010330FFF7E2FF0346FB7300F018F8FB7B184607F11007BD4680BD80B400AF4FF24003C4F20F034FF240023B
S32D00010358C4F20F02926842F480129A60BD4680BC704700BF80B400AF4FF24003C4F20F034FF24002C4F20F02C5
S32D00010380526842F480125A60BD4680BC704700BF80B485B000AF0346FB714FF00003BB7303E0FB7B03F10103CF
S32D000103A8FB734FF44043C4F20A03DB6A4FF00003002BF2D14FF44043C4F20A034FF44042C4F20A02D26A42F03C
S32D000103D00042DA624FF44043C4F20A03FA795A6300BF4FF44043C4F20A03DB6A03F40033002B14BF00230123CB
S32D000103F8DBB2002BF1D14FF44043C4F20A039B6BBB73BB7B184607F11407BD4680BC704780B582B000AF4FF4A9
S32D00010420E043C4F204034FF4E042C4F2040202F5805202F13002126842F4805203F5805303F130031A604FF48D
S32D000104482043C4F204034FF480721A654FF24003C4F20F034FF24002C4F20F02526942F480125A61FFF77EFF6A
S32D000104704FF42043C4F204034FF400725A654FF42043C4F204034FF400729A654FF42043C4F204034FF4007257
S32D00010498DA654FF44043C4F20A034FF44062C8F200021A604FF44043C4F20A034FF00502C3F60062DA604FF0EF
S32D000104C000037B6007E04FF0FF00FFF7EDFE7B6803F101037B607B68092BCCBF00230123DBB2002BEFD104A16D
S32D000104E8D1E9000102F048F807F10807BD4680BD9A9999999999B93F90B486B000AFF860B9607A60FA684FF409
S32D000105102043C4F206039A4214D14FF4E043C4F204034FF4E042C4F2040202F5805202F13402126842F4806211
S32D0001053803F5805303F134031A6083E0FA684FF43043C4F206039A4214D14FF4E043C4F204034FF4E042C4F2EB
S32D00010560040202F5805202F13402126842F4006203F5805303F134031A6067E0FA684FF44043C4F206039A42E8
S32D0001058814D14FF4E043C4F204034FF4E042C4F2040202F5805202F13402126842F4805203F5805303F13403B1
S32D000105B01A604BE0FA684FF45043C4F206039A4214D14FF4E043C4F204034FF4E042C4F2040202F5805202F1BF
S32D000105D83402126842F4005203F5805303F134031A602FE0FA684FF42043C4F20E039A4214D14FF4E043C4F291
S32D0001060004034FF4E042C4F2040202F5805202F12802126842F4806203F5805303F128031A6013E04FF4E0436E
S32D00010628C4F204034FF4E042C4F2040202F5805202F12802126842F4006203F5805303F128031A60FB68DB78B3
S32D00010650DBB223F00C03DAB2FB68DA70FB684FF000029A70BB684FF47A7202FB03F27B684FEA031392FBF3F3FC
S32D000106789CB2FB681B78DBB223F01F03FB75234603F4F8534FEA2323DBB203F01F03DAB2FB7D1343DAB2FB68C8
S32D000106A01A70E2B2FB685A70BB684FF4FA4202FB03F27B684FEA031392FBF3F39AB2234619464FEAC121CB1A93
S32D000106C84FEA43139BB2D3189CB2FB689B7ADBB223F01F03FB75E3B203F01F03DAB2FB7D1343DAB2FB689A7245
S32D000106F0FB68DB78DBB243F00C03DAB2FB68DA7007F11807BD4690BC704700BF80B483B000AF786000BF7B68B1
S32D000107181B79DBB203F02003002B14BF00230123DBB2002BF3D17B68DB79DBB2184607F10C07BD4680BC704797
S32D0001074080B483B000AF78600B46FB7000BF7B681B79DBB2DBB26FEA0303DBB24FEAD313DBB2002BF3D17B6826
S32D00010768FA78DA7107F10C07BD4680BC704700BF80B487B000AFF860B9607A60FB687B6107E0BB68DAB27B69C7
S32D000107901A707B6903F101037B617B68002B0CBF00230123DBB27A6802F1FF327A60002BEBD107F11C07BD4666
S32D000107B880BC704780B584B000AF786039607B681B6BFB60FA683B689A4264D07B681B79002B43D07B685A7853
S32D000107E07B6803F1340310461946FA684FF0010301F0ACFB0346002B0CBF00230123DBB2002B02D04FF0010397
S32D000108084BE07B684FF000021A717B685A6A7B681B6AD218FB689A4220D97B68DB78FB7214E07B681B6AFA6855
S32D00010830D318FB607B685A787B6803F1340310461946FA684FF0010301F080FBFB7A03F1FF33FB72FB7A012B21
S32D0001085894BF00230123DBB2002BE2D13B68002B19D07B685A787B6803F13403104619463A684FF0010301F067
S32D0001088057FA0346002B0CBF00230123DBB2002B02D04FF0010304E07B683A681A634FF00003184607F1100710
S32D000108A8BD4680BD80B584B000AF786078684FF00001FFF77FFF0346FB73FB7B002B40F0AE807B681B78032B03
S32D000108D040F095807B685B79002B00F090807B684FF000021A637B6803F1340318464FF000014FF40072FFF7DA
S32D000108F83FFF7B684FF0550283F832227B684FF0AA0283F833227B684FF0520283F834207B684FF0520283F877
S32D0001092035207B684FF0610283F836207B684FF0410283F837207B684FF0720283F818227B684FF0720283F86A
S32D0001094819227B684FF0410283F81A227B684FF0610283F81B227B681B69DAB27B6883F81C227B681B699BB2A9
S32D000109704FEA2323DAB27B6883F81D227B681B694FEA1343DAB27B6883F81E227B681B694FEA1363DAB27B680B
S32D0001099883F81F227B68DB68DAB27B6883F820227B68DB689BB24FEA2323DAB27B6883F821227B68DB684FEAA4
S32D000109C01343DAB27B6883F822227B68DB684FEA1363DAB27B6883F823227B6859787B6803F134027B685B6918
S32D000109E8084611461A464FF0010301F0ABFA7B684FF000025A717B685B7818464FF000014FF0000201F084FB0E
S32D00010A100346002B0CBF00230123DBB2002B02D04FF00103FB73FB7B184607F11007BD4680BD00BF80B582B0AD
S32D00010A3800AF78600B467B807B68002B08D07B681B78002B04D07B68DB887A889A4202D04FF009030FE07B684E
S32D00010A605B78184601F0ECFB034603F00103DBB2002B02D04FF0030301E04FF00003184607F10807BD4680BD87
S32D00010A8880B586B000AF78607B681A687B689B8810461946FFF7CAFF0346FB75FB7D002B40F0C8807B689B79A3
S32D00010AB003F02003002B00F0C1807B689B7903F04003002B20D07B681B6859787B6803F128027B689B690846F0
S32D00010AD811461A464FF0010301F034FA0346002B0CBF00230123DBB2002B02D04FF00103A1E07B689B7923F0F8
S32D00010B004003DAB27B689A717B681A687B68DB6910461946FFF752FE0346FB75FB7D002B40F08C807B681B6A82
S32D00010B283B613B6903F10B033A6902F10B02127842F02002D2B21A703B6903F11C037A68D268D2B21A703B6948
S32D00010B5003F11D037A68D26892B24FEA2222D2B21A703B6903F11E037A68D2684FEA1242D2B21A703B6903F16F
S32D00010B781F037A68D2684FEA1262D2B21A703B6903F11A037A681269D2B21A703B6903F11B037A68126992B2DE
S32D00010BA04FEA2222D2B21A703B6903F114037A6812694FEA1242D2B21A703B6903F115037A6812694FEA12425A
S32D00010BC892B24FEA2222D2B21A704FF00003FB603B6903F11603FA68D2B21A703B6903F11703FA6892B24FEAE0
S32D00010BF02222D2B21A703B6903F11803FA684FEA1242D2B21A703B6903F11903FA684FEA1262D2B21A707B6820
S32D00010C189B7923F02003DAB27B689A717B681B684FF001021A717B681B681846FFF73AFE0346FB75FB7D184635
S32D00010C4007F11807BD4680BD80B584B000AF78607868FFF719FF0346FB73FB7B002B03D17B684FF000021A6086
S32D00010C68FB7B184607F11007BD4680BD80B588B000AF786039604FF080033B614FF00F03FB604FF0FF337B6156
S32D00010C904FF00203FB612AE04FF00103BB611AE0FB69BA6902FB03F33A6802FB03F27B68D31ABB60BB68002BEB
S32D00010CB809DBBA687B699A4205D2BB687B61FB693B61BB69FB60BB6903F10103BB61BB69102B8CBF00230123C9
S32D00010CE0DBB2002BDCD1FB694FEA4303FB61FB69B3F5807F8CBF00230123DBB2002BCBD14FF48053C4F20B0376
S32D00010D084FF48052C4F20B02D26A22F00802DA624FF48053C4F20B03DB6A1A464FF00F03CFF6F0731340BB61E9
S32D00010D304FF48053C4F20B033A694FEA52024FEA02224FEA02424FEA1242F96801F1FF314FEA0111C9B2114386
S32D00010D58BA690A4342F46022DA6203E04FF00A0001F0EEFB4FF48053C4F20B035B6A03F00803002B14BF002344
S32D00010D800123DBB2002BEDD14FF48053C4F20B034FF48052C4F20B02D26A42F00802DA624FF48053C4F20B036A
S32D00010DA84FF48052C4F20B02126B42F480121A6307F12007BD4680BD80B582B000AF786039607B684FF0000278
S32D00010DD01A604FF48053C4F20B034FF40042C0F20012DA624FF48053C4F20B03DB6A03F08073002B0CBF0023FD
S32D00010DF80123DBB2002BF1D14FF48053C4F20B034FF00002C3F8C0204FF48053C4F20B034FF481325A604FF4AB
S32D00010E208053C4F20B034FF028029A624FF48053C4F20B034FF001125A643B689B6818464CF66041C0F205011E
S32D00010E48FFF714FF4FF48053C4F20B035B6A03F00303002B0CBF00230123DBB2002BF1D14FF45043C4F2040390
S32D00010E7040F243421A604FF45043C4F2040340F243425A604FF45043C4F204034FF488629A604FF45043C4F2D8
S32D00010E98040340F24342DA604FF45043C4F2040340F243421A614FF45043C4F2040340F243425A614FF4E04303
S32D00010EC0C4F204034FF4E042C4F2040202F5805202F13002126842F4003203F5805303F130031A604FF48053D3
S32D00010EE8C4F20B034FF6FF721A634FF48053C4F20B034FF0B302C0F27F025A634FF48053C4F20B034FF4805237
S32D00010F10C4F20B02D26A42F00062DA624FF48053C4F20B03DB6A03F00063002B0CBF00230123DBB2002BF1D1B7
S32D00010F384FF48053C4F20B035B6A03F48033002B0CBF00230123DBB2002B03D07B684FF001021A604FF48053C4
S32D00010F60C4F20B034FF48052C4F20B02126B42F080021A634FF00003184607F10807BD4680BD00BF80B400AF8F
S32D00010F884FF48053C4F20B035B6A1A4640F207331340002B0CBF00230123DBB21846BD4680BC704780B485B0F5
S32D00010FB000AF78604FF48053C4F20B031B6B1A467B681340FB60FB68002B14BF00230123DBB2002BEED1FB68B8
S32D00010FD8184607F11407BD4680BC704780B584B000AF78607B681B7803F03F0249F67C53C0F2010353F8223088
S32D00011000FB60FB68002B06D17B681B78002B02D04FF0010330E14FF48053C4F20B034FF48052C4F20B02126B0B
S32D0001102842F080021A634FF48053C4F20B035B6A03F00103DBB2002BF5D14FF48053C4F20B037A6852689A60E4
S32D00011050FB6823F44003FB607B685B784FEA835303F44003FA681343FB607B685B78022B03D1FB6843F40013E3
S32D00011078FB607B685B78042B16D1FB6803F44033B3F5003F08D1FB6823F44033FB60FB6843F44033FB6007E0FE
S32D000110A0FB6823F44033FB60FB6843F40033FB604FF48053C4F20B034FF48052C4F20B0252684FEA02424FEA8F
S32D000110C812425A607B68DB68002B32D0FB6803F44033B3F5403F03D0FB6843F40013FB607B681B7A002B03D053
S32D000110F0FB6843F01003FB607B68DB68012B03D9FB6843F02003FB607B68DB68B3F1FF3F13D04FF48053C4F2D4
S32D000111180B034FF48052C4F20B02526811467A68D2684FEA02420A435A60FB6843F00203FB604FF48053C4F24F
S32D000111400B034FF000021A604FF48053C4F20B03FA68DA604FF00100C0F20E00FFF726FF0346012B0CBF0023C3
S32D000111680123DBB2002B10D04FF48053C4F20B034FF48052C4F20B02126B42F4702242F001021A634FF00103B0
S32D0001119072E04FF48053C4F20B031B6B03F08003002B0CBF00230123DBB2002B0ED04FF48053C4F20B034FF418
S32D000111B88052C4F20B02126B42F001121A634FF0010355E04FF48053C4F20B031B6B03F48033002B0CBF002399
S32D000111E00123DBB2002B0ED04FF48053C4F20B034FF48052C4F20B02126B42F001121A634FF0FF3338E0FB6849
S32D0001120803F44033002B25D04FF48053C4F20B031B691A467B681A61FB6803F44033B3F5803F17D14FF48053DF
S32D00011230C4F20B035B691A467B685A614FF48053C4F20B039B691A467B689A614FF48053C4F20B03DB691A466F
S32D000112587B68DA614FF48053C4F20B034FF48052C4F20B02126B42F001021A634FF00003184607F11007BD46B6
S32D0001128080BD00BF80B592B000AF786039604FF00003FB633B68BB6341F27413C1F6FF737B637B6B002B03D1A5
S32D000112A840F6012300F0A0BC41F27833C1F6FF733B633B6B002B03D140F60B2300F094BC3B6B1B68FB62FB6A98
S32D000112D0002B03D140F60B2300F08ABC7B6841F20432934200F0388241F2043293421BD841F20132934238D017
S32D000112F841F20132934207D8032B00F03D84092B00F0298400F066BC41F20232934200F0128241F203329342EE
S32D0001132000F0BE8300F05ABC41F20732934200F04B8341F2073293420BD841F20532934200F0348241F20632F4
S32D00011348934200F0108300F045BC41F20832934200F0B68241F20932934200F0C48200F039BC786B49F6705182
S32D00011370C0F20101FFF724FD0346FB63FB6B002B40F030844FF0000387F847304FF0000387F82B304FF00003D1
S32D0001139887F82A304FF0000387F829304FF0000387F846304FF0000387F828304FF000033B724FF000037B72C5
S32D000113C04FF00003FB604FF000033B744FF000037B6107F108031846FFF704FE0346002B0CBF00230123DBB2E6
S32D000113E8002B03D04FF00103FB63FCE340F24C4001F0A6F84FF008033B724FF000037B724FF4D573FB604FF0C0
S32D0001141000033B744FF000037B6107F108031846FFF7E0FD03463B643B6C002B0BD1BA69FB689A4203D04FF09F
S32D000114380103FB63D7E34FF0010387F846304FF0010387F8283097F82830002B00F0C6804FF037033B724FF06A
S32D0001146000037B724FF00003FB604FF000033B744FF000037B6107F108031846FFF7B2FD03463B643B6C002B01
S32D0001148803D04FF00103FB63ADE34FF069033B724FF000037B724FF00003FB604FF000033B744FF000037B61FE
S32D000114B007F108031846FFF795FD0346002B0CBF00230123DBB2002B03D04FF00103FB638DE3BB6903F4401394
S32D000114D8002B00F083804FF000033B644FF00A0001F02EF83B6C03F101033B644FF037033B724FF000037B72F3
S32D000115004FF00003FB604FF000033B744FF000037B6107F108031846FFF764FD0346002B0CBF00230123DBB245
S32D00011528002B03D04FF00103FB6336E04FF069033B724FF000037B7297F84630002B05D04FF00003C4F2300328
S32D00011550FB6002E04FF44013FB604FF000033B744FF000037B6107F108031846FFF73AFD0346002B0CBF00233F
S32D000115780123DBB2002B03D04FF00103FB630CE0BB69002B05DB3B6C632B02D84FF0010301E04FF00003002B39
S32D000115A0A0D1FB6B002B40F01F833B6C632B04D94FF0000387F8463014E04FF0010387F8473097F84630002BA2
S32D000115C80CD04FF0000387F84630BB6903F08043002B03D04FF0010387F8463097F82A30002B03D07B6B4FF0C5
S32D000115F007021A6097F82930002B03D07B6B4FF008021A6097F82B30002B03D07B6B4FF004021A6097F8473027
S32D00011618002B0BD07B6B4FF002021A6097F84630002B03D07B6B4FF003021A6097F82B30002B0FD097F8473059
S32D00011640002B0BD07B6B4FF005021A6097F84630002B03D07B6B4FF006021A604FF45043C4F204034FF0000251
S32D000116681A604FF45043C4F204034FF000025A604FF45043C4F204034FF000029A604FF45043C4F204034FF0AB
S32D000116900002DA604FF45043C4F204034FF000021A614FF45043C4F204034FF000025A61FB6A9A68FB6A5B6882
S32D000116B810461946FFF7DAFA4FF45043C4F2040340F243421A604FF45043C4F2040340F243425A604FF45043E6
S32D000116E0C4F204034FF488629A604FF45043C4F2040340F24342DA604FF45043C4F2040340F243421A614FF46B
S32D000117085043C4F2040340F243425A614FF4E043C4F204034FF4E042C4F2040202F5805202F13002126842F40E
S32D00011730003203F5805303F130031A6057E2B86BFFF750FC03463B643B6C002B00F04E824FF00203FB6349E207
S32D00011758BB6B002B03D14FF00C03FB6343E24FF48053C4F20B03DB6A03F47F434FEA13234FEA43033B644FF4C4
S32D000117808053C4F20B03DB6A03F0F0034FEA131303F101023B6C02FB03F33B64FB6A9A683B6CB2FBF3F2BB6B23
S32D000117A81A6020E2BB6B002B03D14FF00C03FB6319E2BB6B1B68002B03D14FF00C03FB6311E2FFF7DBFB03466E
S32D000117D0002B14BF00230123DBB2002B70D04FF45043C4F204034FF000021A604FF45043C4F204034FF000028B
S32D000117F85A604FF45043C4F204034FF000029A604FF45043C4F204034FF00002DA604FF45043C4F204034FF05A
S32D0001182000021A614FF45043C4F204034FF000025A61FB6A9A68BB6B1B6810461946FFF719FA4FF45043C4F233
S32D00011848040340F243421A604FF45043C4F2040340F243425A604FF45043C4F204034FF488629A604FF45043A5
S32D00011870C4F2040340F24342DA604FF45043C4F2040340F243421A614FF45043C4F2040340F243425A614FF48E
S32D00011898E043C4F204034FF4E042C4F2040202F5805202F13002126842F4003203F5805303F130031A6096E16D
S32D000118C040F60A23FB6392E1BB6B002B03D14FF00C03FB638BE14FF48053C4F20B035B684FEAC3434FEAD3435D
S32D000118E8BA6B13607FE1BB6B002B03D14FF00C03FB6378E1FFF742FB0346002B14BF00230123DBB2002B2AD03C
S32D00011910BB6B1A6840F6FF739A4203D94FF00C03FB6364E14FF48053C4F20B034FF48052C4F20B02526822F42D
S32D00011938FE5222F03F025A604FF48053C4F20B034FF48052C4F20B0252681146BA6B12684FEAC2424FEAD24237
S32D000119600A435A6043E140F60A23FB633FE1BB6B002B03D14FF00C03FB6338E14FF48053C4F20B039B6A03F090
S32D0001198806034FEA53033B643B6C002B04D1BB6B4FF000021A6026E13B6C012B04D1BB6B4FF001021A601EE1E1
S32D000119B03B6C102B04D1BB6B4FF002021A6016E14FF00503FB6312E1BB6B002B03D14FF00C03FB630BE1FFF72C
S32D000119D8D5FA0346002B14BF00230123DBB2002B56D0BB6B1B68002B16D14FF48053C4F20B034FF48052C4F245
S32D00011A000B02926A22F006029A624FF48053C4F20B034FF48052C4F20B02926A9A62E6E0BB6B1B68012B18D16A
S32D00011A284FF48053C4F20B034FF48052C4F20B02926A22F006029A624FF48053C4F20B034FF48052C4F20B0219
S32D00011A50926A42F002029A62C9E0BB6B1B68022B16D14FF48053C4F20B034FF48052C4F20B02926A22F006020B
S32D00011A789A624FF48053C4F20B034FF48052C4F20B02926A9A62AEE04FF00503FB63AAE040F60A23FB63A6E095
S32D00011AA0BB6B002B03D14FF00C03FB639FE04FF48053C4F20B034FF48052C4F20B02D26A42F00062DA624FF4C6
S32D00011AC88053C4F20B03DB6A03F00063002B0CBF00230123DBB2002BF1D14FF48053C4F20B031B6B03F0800330
S32D00011AF0002B0CBF00230123DBB2002B0FD04FF48053C4F20B034FF48052C4F20B02126B42F080021A637B6BAD
S32D00011B184FF000021A604FF48053C4F20B035B6A03F48033002B0CBF00230123DBB2002B08D07B6B1B68002B39
S32D00011B4008D17B6B4FF001021A6003E07B6B4FF000021A607B6B1A68BB6B1A6047E0BB6B4FF01C021A60BB6B25
S32D00011B6803F104034FF004021A60BB6B03F108034FF41E721A6036E04FF00200FFF712FA4FF48053C4F20B03EF
S32D00011B901B6B03F4E003002B0CBF00230123DBB2002B0ED04FF48053C4F20B034FF48052C4F20B02126B42F48E
S32D00011BB8E0021A634FF00403FB634FF48053C4F20B034FF48052C4F20B02126B42F032021A6308E040F609239F
S32D00011BE0FB6304E000BF02E000BF00E000BFFB6B184607F14807BD4680BD00BF80B489B000AF786039607B681B
S32D00011C087B6141F27413C1F6FF733B613B69002B02D14FF0000381E03B691B68022B0BD03B691B68032B07D0B2
S32D00011C303B691B68072B03D03B691B68082B0DD14FF48053C4F20B035B6A03F00403002B0CBF00230123DBB2BE
S32D00011C58002BF1D13B68FB6156E0FB69B3F5007F28BF4FF40073FB60FB6803F103034FEA9303BB613CE04FF411
S32D00011C808053C4F20B031B6B03F4E003002B0CBF00230123DBB2002B10D04FF48053C4F20B034FF48052C4F2C4
S32D00011CA80B02126B42F4E00242F020021A634FF0000333E04FF48053C4F20B035B6A03F40063002B14BF00232B
S32D00011CD00123DBB2002BF1D14FF48053C4F20B031B6A1A467B691A607B6903F104037B61BB6903F1FF33BB6109
S32D00011CF8BB69002B0CBF00230123DBB2002BBAD1FA69FB68D31AFB61FB69002B0CBF00230123DBB2002BA0D140
S32D00011D204FF00103184607F12407BD4680BC704780B58EB000AFB9607A600246FA73BB7341F26013C1F6FF7313
S32D00011D487B63FB7B002B02D1BB7B002B02D14FF0040381E040F20043C1F6FF731B78DBB203F00103DBB2002BD2
S32D00011D7002D04FF0030373E0BB68002B02D14FF000036DE07B6B1B7B002B03D17B684FEA43237B60BB7B012BF0
S32D00011D982CD14FF011033B754FF000037B757B68BB614FF001033B77BB7B3B6207F1140341F202301946FFF75A
S32D00011DC061FA0346002B14BF00230123DBB2002B3ED0B8684FF40071FFF710FF0346002B0CBF00230123DBB259
S32D00011DE8002B31D04FF00003BB732DE04FF012033B754FF000037B757B68BB614FF001033B77BB7B3B6207F12E
S32D00011E10140341F202301946FFF734FA0346002B14BF00230123DBB2002B11D0BB7B4FEA4323B8681946FFF733
S32D00011E38E1FE0346002B0CBF00230123DBB2002B02D04FF00003BB73BB7B002B02D04FF0010301E04FF0000383
S32D00011E60184607F13807BD4680BD00BF80B487B000AF786039607B68FB603B687B6155E07B69B3F5007F28BF50
S32D00011E884FF400733B617A693B69D31A7B613B6903F103034FEA93033B613BE04FF48053C4F20B031B6B03F40E
S32D00011EB0E003002B0CBF00230123DBB2002B10D04FF48053C4F20B034FF48052C4F20B02126B42F4E00242F0D2
S32D00011ED810021A634FF0FF332EE04FF48053C4F20B035B6A03F48063002B14BF00230123DBB2002BF1D14FF452
S32D00011F008053C4F20B03FA6812681A62FB6803F10403FB603B6903F1FF333B613B69002B0CBF00230123DBB236
S32D00011F28002BBBD17B69002B0CBF00230123DBB2002BA1D14FF00103184607F11C07BD4680BC704780B58EB063
S32D00011F5000AFB9607A600246FA73BB7341F26013C1F6FF737B63FB7B002B02D1BB7B002B02D14FF00403CAE098
S32D00011F7840F20043C1F6FF731B78DBB203F00103DBB2002B02D04FF00303BCE040F20043C1F6FF731B78DBB25C
S32D00011FA003F00403002B0CBF00230123DBB2002B02D04FF00203AAE0BB68002B02D14FF00003A4E07B6B1B7B20
S32D00011FC8002B03D17B684FEA43237B60BB7B012B2CD14FF018033B754FF000037B757B68BB614FF000033B7700
S32D00011FF0BB7B3B6207F1140341F202301946FFF741F90346002B14BF00230123DBB2002B3ED0B8684FF40071C4
S32D00012018FFF728FF0346002B0CBF00230123DBB2002B31D04FF00003BB732DE04FF019033B754FF000037B7583
S32D000120407B68BB614FF000033B77BB7B3B6207F1140341F202301946FFF714F90346002B14BF00230123DBB2BA
S32D00012068002B11D0BB7B4FEA4323B8681946FFF7F9FE0346002B0CBF00230123DBB2002B02D04FF00003BB737C
S32D000120904FF00D033B754FF000037B757B6B1B69BB614FF000033B774FF000033B6207F1140341F202301946C4
S32D000120B8FFF7E4F80346002B0CBF00230123DBB2002B02D04FF001031DE07A6A48F20803CFF6D9731340002B1F
S32D000120E002D04FF0010312E07B6A03F4F853B3F5106F0CBF00230123DBB2002BC8D1BB7B002B02D04FF00103A3
S32D0001210801E04FF00003184607F13807BD4680BD80B58CB000AF0B463A600246FA71BB7141F26013C1F6FF73F7
S32D00012130BB62FB79002B02D04FF004037AE04FF0010387F82F3040F20043C1F6FF731B78DBB203F00103DBB2EF
S32D00012158002B02D04FF0030368E0BB79032B5FD801A252F823F000BF812101008B2101009D210100AF21010096
S32D000121804FF0000387F82F3052E0BB6A9A683B681A604FF0000387F82F3049E03B684FF400721A804FF000031D
S32D000121A887F82F3040E04FF009033B724FF000037B72BB6A1B69FB604FF000033B744FF000037B6107F10803CD
S32D000121D041F202301946FFF755F80346002B0CBF00230123DBB2002B02D04FF0010321E07B6A03F44003002B3B
S32D000121F811D13B6A4FEA934303F07F0303F101027B6A4FEA132303F0030303F1FF3302FA03F23B681A604FF0F6
S32D00012220000387F82F3003E04FF0040387F82F3097F82F30184607F13007BD4680BD00BF80B483B000AF0346CE
S32D00012248FB71FB79002B02D04FF0010305E040F20043C1F6FF731B78DBB2184607F10C07BD4680BC704700BF86
S32D0001227080B483B000AF78604FF4E043C4F204034FF4E042C4F2040202F5805202F13802126842F0010203F570
S32D00012298805303F138031A604FF00003C4F204037A689A604FF00003C4F204034FF005025A604FF00003C4F2C9
S32D000122C004034FF00002C4F20402126842F001021A6000BF4FF00003C4F204031B6803F08003002B14BF0023EA
S32D000122E80123DBB2002BF1D14FF00003C4F204034FF00002C4F20402126822F001021A6007F10C07BD4680BCDA
S32D00012310704700BF80B582B000AF786039607B68012B0AD13A684FF6FF739A4205D141F28030C1F6FF7000F0B3
S32D000123380FF807F10807BD4680BD00BF80B500AF4FF001004FF6FF71FFF7E0FF80BD00BF80B483B000AF7860D1
S32D000123607B684FF000021A707B68184607F10C07BD4680BC704700BF80B582B000AF78607B681B7883F00103C4
S32D00012388DBB2002B36D04FF4E043C4F2040303F5805303F128034FF400621A604FF45043C4F204034FF44072B4
S32D000123B01A624FF45043C4F204034FF440725A6241F28433C1F6FF731B684FEAD372D3184FEA63034FF43040ED
S32D000123D8C4F20E0019464FF46142FEF78DF84FF0640000F0ADF87B684FF001021A704FF0010301E04FF0000306
S32D00012400184607F10807BD4680BD00BF80B582B000AF7860F970BA707B704FF43040C4F20E004FF07F01FEF7B2
S32D000124288BF94FF43040C4F20E004FF00801FEF783F9FB784FF43040C4F20E001946FEF77BF9BB784FF4304039
S32D00012450C4F20E001946FEF773F97B784FF43040C4F20E001946FEF76BF94FF43040C4F20E004FF0FF01FEF70C
S32D0001247863F907F10807BD4680BD00BF80B487B000AFF860B9607A60FA6844F6D353C1F26203A3FB02134FEAA8
S32D000124A09312BB68D3187B61FA6844F6D353C1F26203A3FB02134FEA93134FF47A7101FB03F3D31AFB60FB6847
S32D000124C84FEAC33244F6D353C1F26203A3FB02134FEA93127B68D3183B613B694FEAD3337A69D3187B613B6913
S32D000124F04FEA43434FEA53433B614FF45043C4F203031B681A467B699A4211D34FF45043C4F203031B681A4605
S32D000125187B699A420BD14FF45043C4F203035B681A463B699A4202D24FF0010301E04FF00003002BDDD107F1B8
S32D000125401C07BD4680BC704780B584B000AF78604FF45043C4F203031B68FB604FF45043C4F203035B68BB6083
S32D000125687B681846F968BA68FFF788FF07F11007BD4680BD0000000080B584B000AFC7E900014FF45043C4F25F
S32D0001259003031B68FB604FF45043C4F203035B68BB60D7E900010AA3D3E90023FAF7E8F802460B46104619465C
S32D000125B8FAF7A4FB03461846F968BA68FFF75EFF07F11007BD4680BD0000000000408F4080B584B000AF4FF42E
S32D000125E05043C4F203031B68FB604FF45043C4F203035B68BB60F868FAF74CF802460B46C7E90023B868FAF71D
S32D0001260845F802460B46104619464FF000024FF0804303F56003FAF7D9F902460B46D7E90001F9F7F7FE024630
S32D000126300B46C7E90023D7E900231046194607F11007BD4680BD00BF80B483B000AF4FF45043C4F203031B6886
S32D000126584FF47A7202FB03F37B604FF45043C4F203035B684FF47A7202FB03F34FEAD3337A68D3187B607B6815
S32D00012680184607F10C07BD4680BC704780B584B000AF78600B46FB704FF00B03FB73FA78FB7B786811461A46E6
S32D000126A800F0ECF87B68184607F11007BD4680BD80B485B000AF78607B68A3F11003002B01DA03F11F034FEAD0
S32D000126D06313FB60FB68012B48D0022B00F08980002B40F0C9804FF46142CEF200024FF46143CEF20003D3F87C
S32D000126F8803119467B68A3F110004FF01F03C8F200030340002B05DA03F1FF3363F01F0303F101034FF00100DE
S32D0001272000FA03F30B43C2F880314FF46142CEF200024FF46143CEF200031B6819467B68A3F110004FF01F03C5
S32D00012748C8F200030340002B05DA03F1FF3363F01F0303F101034FF0010000FA03F30B43136085E04FF4614289
S32D00012770CEF200024FF46143CEF20003D3F8843119467B68A3F110004FF01F03C8F200030340002B05DA03F109
S32D00012798FF3363F01F0303F101034FF0010000FA03F30B43C2F884314FF46142CEF200024FF46143CEF2000334
S32D000127C05B6819467B68A3F110004FF01F03C8F200030340002B05DA03F1FF3363F01F0303F101034FF0010003
S32D000127E800FA03F30B43536042E04FF46142CEF200024FF46143CEF20003D3F8883119467B68A3F110004FF0B4
S32D000128101F03C8F200030340002B05DA03F1FF3363F01F0303F101034FF0010000FA03F30B43C2F888314FF4A6
S32D000128386142CEF200024FF46143CEF200039B6819467B68A3F110004FF01F03C8F200030340002B05DA03F11A
S32D00012860FF3363F01F0303F101034FF0010000FA03F30B43936000BF07F11407BD4680BC704700BF80B584B049
S32D0001288800AF786013460A46FA70BB707B68FA781A70BB78FB737B681B781A4649F67C63C0F201039B5C042B0C
S32D000128B000F2F68001A252F823F000BFD128010045290100B9290100A12A01002D2A01004FF41043C4F204030F
S32D000128D87A681278114649F6C062C0F2010252F82110FA7B4FEA024202F4702242F4887242F0030243F8212020
S32D000129004FF47043C4F20F034FF47042C4F20F02526911467A681278104649F6C062C0F2010252F8202002F0C8
S32D000129281F024FF0010000FA02F26FEA02020A405A614FF06700FFF7BBFEADE04FF42043C4F204037A6812781E
S32D00012950114649F6C062C0F2010252F82110FA7B4FEA024202F4702242F4887242F0030243F821204FF240038F
S32D00012978C4F20F034FF24002C4F20F02526911467A681278104649F6C062C0F2010252F8202002F01F024FF058
S32D000129A0010000FA02F26FEA02020A405A614FF06800FFF781FE73E04FF43043C4F204037A681278114649F6D3
S32D000129C8C062C0F2010252F82110FA7B4FEA024202F4702242F4887242F0030243F821204FF28003C4F20F03A5
S32D000129F04FF28002C4F20F02526911467A681278104649F6C062C0F2010252F8202002F01F024FF0010000FA6D
S32D00012A1802F26FEA02020A405A614FF06900FFF747FE39E04FF45043C4F204037A681278114649F6C062C0F2D4
S32D00012A40010252F82110FA7B4FEA024202F4702242F4887242F0030243F821204FF47143C4F20F034FF47142D7
S32D00012A68C4F20F02526911467A681278104649F6C062C0F2010252F8202002F01F024FF0010000FA02F26FEA6A
S32D00012A9002020A405A614FF06B00FFF70DFE00BF07F11007BD4680BDB0B48BB000AF49F6A423C0F2010307F153
S32D00012AB804041D460FCD0FC495E80F0084E80F004FF000037B6248E04FF42043C4F20403D3F8A0301A467B6A44
S32D00012AE04FEA830307F12800C31853F8243C4FF0010101FA03F31340002B0CBF00230123DBB2002B29D041F2BC
S32D00012B08B033C1F6FF737A6A53F8223003F1010141F2B033C1F6FF737A6A43F822104FF42043C4F204034FF4E5
S32D00012B302042C4F20402D2F8A02011467A6A4FEA820207F12800821852F8242C4FF0010000FA02F20A40C3F84F
