S01100002E2E2F5365616C426F742E733139AE
S32D0000C0000000002009F3000065F6000065F6000065F6000065F6000065F600000000000000000000000000002F
S32D0000C0280000000065F6000065F600000000000065F6000065F6000065F6000065F6000065F6000065F6000012
S32D0000C05065F6000065F6000065F6000065F6000065F6000065F6000065F6000065F6000065F6000065F6000034
S32D0000C07865F6000065F6000065F6000065F6000065F6000065F6000065F6000065F6000065F6000065F600000C
S32D0000C0A065F6000065F6000065F6000065F6000065F6000065F6000065F6000065F6000065F6000065F60000E4
S32D0000C0C865F6000065F6000065F6000065F6000065F6000065F6000065F6000065F6000065F6000065F60000BC
S32D0000C0F065F60000DD62010065F6000065F6000065F6000065F6000065F6000065F6000065F6000065F60000AF
S32D0000C11865F6000065F6000065F6000065F6000065F6000065F6000065F6000065F6000065F6000065F600006B
S32D0000C14065F6000065F6000065F6000065F60000052B010065F6000065F6000065F6000065F6000065F600006D
S32D0000C16865F6000065F6000065F6000065F6000065F6000065F6000065F6000065F6000065F6000065F600001B
S32D0000C19065F6000065F6000065F6000065250100B92301008D240100B5F600003D26010065F6000065F6000091
S32D0000C1B865F6000065F6000065F6000065F6000065F6000065F6000065F6000065F6000065F6000065F60000CB
S32D0000C41081F0004102E000BF83F0004330B54FEA41044FEA430594EA050F08BF90EA020F1FBF54EA000C55EAC6
S32D0000C438020C7FEA645C7FEA655C00F0E2804FEA5454D4EB5555B8BF6D420CDD2C4480EA020281EA030382EA0F
S32D0000C460000083EA010180EA020281EA0303362D88BF30BD11F0004F4FEA01314FF4801C4CEA113102D0404263
S32D0000C48861EB410113F0004F4FEA03334CEA133302D0524263EB430394EA050F00F0A780A4F10104D5F1200E8A
S32D0000C4B00DDB02FA0EFC22FA05F2801841F1000103FA0EF2801843FA05F359410EE0A5F120050EF1200E012A2D
S32D0000C4D803FA0EFC28BF4CF0020C43FA05F3C01851EBE37101F0004507D54FF0000EDCF1000C7EEB00006EEB67
S32D0000C5000101B1F5801F1BD3B1F5001F0CD349085FEA30004FEA3C0C04F101044FEA445212F5800F80F09A8000
S32D0000C528BCF1004F08BF5FEA500C50F1000041EB045141EA050130BD5FEA4C0C404141EB010111F4801FA4F114
S32D0000C5500104E9D191F0000F04BF01460020B1FA81F308BF2033A3F10B03B3F120020CDA0C3208DD02F1140C87
S32D0000C578C2F10C0201FA0CF021FA02F10CE002F11402D8BFC2F1200C01FA02F120FA0CFCDCBF41EA0C019040B1
S32D0000C5A0E41AA2BF01EB0451294330BD6FEA04041F3C1CDA0C340EDC04F11404C4F1200220FA04F001FA02F3B6
S32D0000C5C840EA030021FA04F345EA030130BDC4F10C04C4F1200220FA02F001FA04F340EA0300294630BD21FAA8
S32D0000C5F004F0294630BD94F0000F83F4801306BF81F480110134013D4EE77FEA645C18BF7FEA655C29D094EA1C
S32D0000C618050F08BF90EA020F05D054EA000C04BF1946104630BD91EA030F1EBF0021002030BD5FEA545C05D1A3
S32D0000C6404000494128BF41F0004130BD14F580043CBF01F5801130BD01F0004545F0FE4141F470014FF0000031
S32D0000C66830BD7FEA645C1ABF194610467FEA655C1CBF0B46024650EA013406BF52EA033591EA030F41F40021D7
S32D0000C69030BD00BF90F0000F04BF0021704730B54FF4806404F132044FF000054FF0000150E700BF90F0000F66
S32D0000C6B804BF0021704730B54FF4806404F1320410F0004548BF40424FF000013EE700BF42004FEAE2014FEAF9
S32D0000C6E031014FEA02701FBF12F07F4393F07F4F81F06051704792F0000F14BF93F07F4F704730B54FF460741B
S32D0000C70801F0004521F0004120E700BF50EA010208BF704730B54FF000050AE050EA010208BF704730B511F046
S32D0000C730004502D5404261EB41014FF4806404F132045FEA915C3FF4DCAE4FF003025FEADC0C18BF03325FEAA0
S32D0000C758DC0C18BF033202EBDC02C2F1200300FA03FC20FA02F001FA03FE40EA0E0021FA02F11444C1E600BF19
S32D0000C78070B54FF0FF0C4CF4E06C1CEA11541DBF1CEA135594EA0C0F95EA0C0F00F0DEF82C4481EA030621EAF3
S32D0000C7A84C5123EA4C5350EA013518BF52EA033541F4801143F4801338D0A0FB02CE4FF00005E1FB02E506F05F
S32D0000C7D00042E0FB03E54FF00006E1FB03569CF0000F18BF4EF0010EA4F1FF04B6F5007F64F5407404D25FEA0F
S32D0000C7F84E0E6D4146EB060642EAC62141EA55514FEAC52040EA5E504FEACE2EB4F1FD0C88BFBCF5E06F1ED8D2
S32D0000C820BEF1004F08BF5FEA500E50F1000041EB045170BD06F0004646EA010140EA020081EA0301B4EB5C0487
S32D0000C848C2BFD4EB0C0541EA045170BD41F480114FF0000E013C00F3AB8014F1360FDEBF002001F0004170BDF0
S32D0000C870C4F10004203C35DA0C341BDC04F11404C4F1200500FA05F320FA04F001FA05F240EA020001F0004207
S32D0000C89821F0004110EBD37021FA04F642EB06015EEA430E08BF20EAD37070BDC4F10C04C4F1200500FA04F32F
S32D0000C8C020FA05F001FA04F240EA020001F0004110EBD37041F100015EEA430E08BF20EAD37070BDC4F12005C7
S32D0000C8E800FA05F24EEA020E20FA04F301FA05F243EA020321FA04F001F0004121FA04F220EA020000EBD37028
S32D0000C9105EEA430E08BF20EAD37070BD94F0000F0FD101F00046400041EB010111F4801F08BF013CF7D041EA6D
S32D0000C938060195F0000F18BF704703F00046520043EB030313F4801F08BF013DF7D043EA0603704794EA0C0FF1
S32D0000C9600CEA135518BF95EA0C0F0CD050EA410618BF52EA4306D1D181EA030101F000414FF0000070BD50EA38
S32D0000C988410606BF1046194652EA430619D094EA0C0F02D150EA013613D195EA0C0F05D152EA03361CBF10467B
S32D0000C9B019460AD181EA030101F0004141F0FE4141F470014FF0000070BD41F0FE4141F4780170BD70B54FF04D
S32D0000C9D8FF0C4CF4E06C1CEA11541DBF1CEA135594EA0C0F95EA0C0F00F0A7F8A4EB050481EA030E52EA03359B
S32D0000CA004FEA013100F088804FEA03334FF0805545EA131343EA12634FEA022245EA111545EA10654FEA002676
S32D0000CA280EF000419D4208BF964244F1FD0404F5407402D25B084FEA3202B61A65EB03055B084FEA32024FF461
S32D0000CA5080104FF4002CB6EB020E75EB030E22BFB61A754640EA0C005B084FEA3202B6EB020E75EB030E22BF22
S32D0000CA78B61A754640EA5C005B084FEA3202B6EB020E75EB030E22BFB61A754640EA9C005B084FEA3202B6EBEA
S32D0000CAA0020E75EB030E22BFB61A754640EADC0055EA060E18D04FEA051545EA16754FEA06164FEAC30343EAAC
S32D0000CAC852734FEAC2025FEA1C1CC0D111F4801F0BD141EA00014FF000004FF0004CB6E711F4801F04BF0143AE
S32D0000CAF00020B4F1FD0C88BFBCF5E06F3FF6AFAEB5EB030C04BFB6EB020C5FEA500C50F1000041EB045170BDBC
S32D0000CB180EF0004E4EEA113114EB5C04C2BFD4EB0C0541EA045170BD41F480114FF0000E013C90E645EA060EC3
S32D0000CB408DE60CEA135594EA0C0F08BF95EA0C0F3FF43BAF94EA0C0F0AD150EA01347FF434AF95EA0C0F7FF499
S32D0000CB6825AF104619462CE795EA0C0F06D152EA03353FF4FDAE1046194622E750EA410618BF52EA43067FF432
S32D0000CB90C5AE50EA41047FF40DAF52EA43057FF4EBAE12E74FF0FF3C06E000BF4FF0010C02E000BF4FF0010C75
S32D0000CBB84DF804CD4FEA410C7FEA6C5C4FEA430C18BF7FEA6C5C1BD001B050EA410C0CBF52EA430C91EA030FEC
S32D0000CBE002BF90EA020F0020704710F1000F91EA030F58BF994208BF90422CBFD8176FEAE37040F0010070476E
S32D0000CC084FEA410C7FEA6C5C02D150EA013C07D14FEA430C7FEA6C5CD6D152EA033CD3D05DF8040B704700BFCD
S32D0000CC308446104662468C461946634600E000BF01B5FFF7B7FF002848BF10F1000F01BD4DF808EDFFF7F4FF13
S32D0000CC580CBF012000205DF808FB00BF4DF808EDFFF7EAFF34BF012000205DF808FB00BF4DF808EDFFF7E0FF18
S32D0000CC8094BF012000205DF808FB00BF4DF808EDFFF7CEFF94BF012000205DF808FB00BF4DF808EDFFF7C4FF40
S32D0000CCA834BF012000205DF808FB00BF4FEA410212F5001215D211D56FF47873B3EB625212D94FEAC12343F0D6
S32D0000CCD0004343EA505311F0004F23FA02F018BF404270474FF00000704750EA013005D111F0004008BF6FF016
S32D0000CCF8004070474FF00000704700BF4A0011D212F5001211D20DD56FF47873B3EB62520ED44FEAC12343F085
S32D0000CD20004343EA505323FA02F070474FF00000704750EA013002D14FF0FF3070474FF0000070474FEA410241
S32D0000CD48B2F1E04324BFB3F5001CDCF1FE5C0DD901F0004C4FEAC0024CEA5070B2F1004F40EB830008BF20F09E
S32D0000CD700100704711F0804F21D113F13872BCBF01F00040704741F480114FEA5252C2F11802C2F1200C10FAB1
S32D0000CD980CF320FA02F018BF40F001004FEAC1234FEAD32303FA0CFC40EA0C0023FA02F34FEA4303CCE77FEA26
S32D0000CDC0625307D150EA01331EBF4FF0FE4040F44000704701F0004040F0FE4040F40000704700BF80F00040CC
S32D0000CDE802E000BF81F0004142001FBF5FEA410392EA030F7FEA226C7FEA236C6AD04FEA1262D2EB1363C1BF06
S32D0000CE10D218414048404140B8BF5B42192B88BF704710F0004F40F4000020F07F4018BF404211F0004F41F4FA
S32D0000CE38000121F07F4118BF494292EA030F3FD0A2F1010241FA03FC10EB0C00C3F1200301FA03F100F000432B
S32D0000CE6002D5494260EB4000B0F5000F13D3B0F1807F06D340084FEA310102F10102FE2A51D2B1F1004F40EB94
S32D0000CE88C25008BF20F0010040EA03007047490040EB000010F4000FA2F10102EDD1B0FA80FCACF1080CB2EB5F
S32D0000CEB00C0200FA0CF0AABF00EBC25052421843BCBFD0401843704792F0000F81F4000106BF80F400000132EB
S32D0000CED8013BB5E74FEA41037FEA226C18BF7FEA236C21D092EA030F04D092F0000F08BF0846704790EA010FD7
S32D0000CF001CBF0020704712F07F4F04D1400028BF40F00040704712F100723CBF00F50000704700F0004343F0DC
S32D0000CF28FE4040F4000070477FEA226216BF08467FEA23630146420206BF5FEA412390EA010F40F480007047C1
S32D0000CF504FF0000304E000BF10F0004348BF40425FEA000C08BF704743F0964301464FF000001CE050EA010264
S32D0000CF7808BF70474FF000030AE000BF50EA010208BF704711F0004302D5404261EB41015FEA010C02BF84465B
S32D0000CFA00146002043F0B64308BFA3F18053A3F50003BCFA8CF2083AA3EBC25310DB01FA02FC634400FA02FC6B
S32D0000CFC8C2F12002BCF1004F20FA02F243EB020008BF20F00100704702F1200201FA02FCC2F1200250EA4C0034
S32D0000CFF021FA02F243EB020008BF20EADC7070474FF0FF0C1CEAD0521EBF1CEAD15392EA0C0F93EA0C0F6FD019
S32D0000D0181A4480EA010C400218BF5FEA41211ED04FF0006343EA501043EA5111A0FB01310CF00040B1F5000FE7
S32D0000D0403EBF490041EAD3715B0040EA010062F17F02FD2A1DD8B3F1004F40EBC25008BF20F00100704790F058
S32D0000D068000F0CF0004C08BF49024CEA502040EA51207F3AC2BFD2F1FF0340EAC250704740F400004FF0000388
S32D0000D090013A5DDC12F1190FDCBF00F000407047C2F10002410021FA02F1C2F1200200FA02FC5FEA310040F1D5
S32D0000D0B8000053EA4C0308BF20EADC70704792F0000F00F0004C02BF400010F4000F013AF9D040EA0C0093F04C
S32D0000D0E0000F01F0004C02BF490011F4000F013BF9D041EA0C018FE70CEAD15392EA0C0F18BF93EA0C0F0AD00B
S32D0000D10830F0004C18BF31F0004CD8D180EA010000F00040704790F0000F17BF90F0004F084691F0000F91F0BB
S32D0000D130004F14D092EA0C0F01D142020FD193EA0C0F03D14B0218BF084608D180EA010000F0004040F0FE4051
S32D0000D15840F40000704740F0FE4040F4400070474FF0FF0C1CEAD0521EBF1CEAD15392EA0C0F93EA0C0F69D044
S32D0000D180A2EB030280EA010C49024FEA402037D04FF0805343EA111143EA10130CF000408B4238BF5B0042F14E
S32D0000D1A87D024FF4000C8B4224BF5B1A40EA0C00B3EB510F24BFA3EB510340EA5C00B3EB910F24BFA3EB9103A4
S32D0000D1D040EA9C00B3EBD10F24BFA3EBD10340EADC001B0118BF5FEA1C1CE0D1FD2A3FF650AF8B4240EBC25018
S32D0000D1F808BF20F0010070470CF0004C4CEA50207F32C2BFD2F1FF0340EAC250704740F400004FF00003013AF1
S32D0000D22037E792F0000F00F0004C02BF400010F4000F013AF9D040EA0C0093F0000F01F0004C02BF490011F4C9
S32D0000D248000F013BF9D041EA0C0195E70CEAD15392EA0C0F08D142027FF47DAF93EA0C0F7FF470AF084676E7AE
S32D0000D27093EA0C0F04D14B023FF44CAF08466EE730F0004C18BF31F0004CCAD130F000427FF45CAF31F0004376
S32D0000D2987FF43CAF5FE700BF4FF0FF3C06E000BF4FF0010C02E000BF4FF0010C4DF804CD4FEA40024FEA41039F
S32D0000D2C07FEA226C18BF7FEA236C11D001B052EA530C18BF90EA010F58BFB2EB030088BFC81738BF6FEAE1706E
S32D0000D2E818BF40F0010070477FEA226C02D15FEA402C05D17FEA236CE4D15FEA412CE1D05DF8040B704700BF16
S32D0000D310844608466146FFE70FB5FFF7C9FF002848BF10F1000F0FBD4DF808EDFFF7F4FF0CBF012000205DF839
S32D0000D33808FB00BF4DF808EDFFF7EAFF34BF012000205DF808FB00BF4DF808EDFFF7E0FF94BF012000205DF8A9
S32D0000D36008FB00BF4DF808EDFFF7D2FF94BF012000205DF808FB00BF4DF808EDFFF7C8FF34BF012000205DF8B1
S32D0000D38808FB00BF4FEA4002B2F1FE4F0FD34FF09E03B3EB12620DD94FEA002343F0004310F0004F23FA02F060
S32D0000D3B018BF404270474FF00000704712F1610F01D1420205D110F0004008BF6FF0004070474FF00000704797
S32D0000D3D880B582B000AF786078680AF033FB0346184607F10807BD4680BD00BF80B483B000AF78607B6823F0A0
S32D0000D4000043184607F10C07BD4680BC704700BF80B500AF41F24C10C1F6FF704FF4FA7105F074FD41F24C1061
S32D0000D428C1F6FF7040F6331105F08AFD41F23810C1F6FF700B4902F013FA4FF000004FF0804101F5A01104F0EC
S32D0000D4501FFD41F23810C1F6FF70054902F004FA00F008F84FF00003184680BD0000C84200000000B0B5ADF5D5
S32D0000D478C56D06AF41F23C40C1F6FF7044F64F71C0F22F0106F0F2FA41F23C40C1F6FF7042F62F71C0F24F015D
S32D0000D4A006F046FB07F11003A3F10C031D464FF0050406E0284608F0C7F905F1EC0504F1FF34B4F1FF3F0CBF05
S32D0000D4C800230123DBB2002BF0D107F5B06202F10C024FF0780310464FF000011A460AF0ECFD47F25253C0F244
S32D0000D4F06E03C7F88C3507F5B2634FF000021A6003F104034FF000021A6003F104034FF000021A6003F10403EA
S32D0000D5184FF000021A6003F1040349F22422C0F2010207F5B46392E80300186003F10403198003F102034FEA2B
S32D0000D54011421A7007F5B46303F107034FF000021A7003F101034FF000021A7003F101034FF000021A7003F18A
S32D0000D56801034FF000021A7003F101034FF000021A7003F101034FF000021A7003F101034FF000021A7003F189
S32D0000D59001034FF000021A7003F101034FF000021A7003F101034FF000021A7003F101034FF000021A7003F161
S32D0000D5B801034FF000021A7003F101034FF000021A7003F1010349F23823C0F2010307F5B66202F1040293E8E7
S32D0000D5E0030082E8030007F5B66303F10C034FF000021A6003F104034FF000021A6003F104034FF000021A606E
S32D0000D60803F1040349F24C23C0F2010307F5B96293E8030082E8030007F5BA634FF000021A6003F104034FF089
S32D0000D63000021A6003F104034FF000021A6003F1040349F26023C0F2010307F5BA6202F10C0293E8030082E82A
S32D0000D658030007F5BC6303F104034FF000021A6003F104034FF000021A6003F104034FF000021A6003F1040369
S32D0000D68049F27423C0F2010307F5BE6493E8070084E807004FF00003C7F8FC354FF00003C7F8003607F110036D
S32D0000D6A8A3F10C034FF0140200924FF03C0201924FF03C02029207F5B06202F10C02039241F67012C0F219027F
S32D0000D6D0049242F62F72C0F24F02059218464FF003014FF002024FF0140308F01BFB00E000BF07F5C16207F521
S32D0000D6F8C06303F1040341F23C40C1F6FF7011461A4606F039FBD7F80816D7F8042607F11003A3F10C0318463E
S32D0000D7204FF0000308F0E2F90346002B0CBF00230123DBB2002B02D000F0A4F9D8E7D7F80816D7F8042607F18C
S32D0000D7481003A3F10C0303F1EC0318464FF0000308F0C8F90346002B0CBF00230123DBB2002B2BD041F2A44071
S32D0000D770C1F6FF7009F030FB07F11003A3F10C034FF0140200924FF03C0201924FF03C02029207F5B06202F18A
S32D0000D7980C02039241F67012C0F21902049242F62F72C0F24F02059218464FF003014FF002024FF0140308F0FF
S32D0000D7C0B1FA95E7D7F80816D7F8042607F11003A3F10C0303F5EC7318464FF0000308F085F90346002B0CBFD4
S32D0000D7E800230123DBB2002B02D000F04FF97BE7D7F80816D7F8042607F11003A3F10C0303F5317318464FF0DB
S32D0000D810000308F06BF90346002B0CBF00230123DBB2002B02D000F08FF961E7D7F80816D7F8042607F11003CA
S32D0000D838A3F10C0303F56C7318464FF0000308F051F90346002B0CBF00230123DBB2002B00F09E804FF00100DA
S32D0000D86004F0FAFA41F23C40C1F6FF706FF07F4106F036F941F23C40C1F6FF704FF0000106F056F9764BC7F8BF
S32D0000D8880C366FE041F23C40C1F6FF7049F20C21C0F201014FF000024FF0140306F058F941F23C40C1F6FF703D
S32D0000D8B049F21421C0F201014FF000024FF03C0306F04AF941F23C40C1F6FF7049F21C21C0F201014FF00002EC
S32D0000D8D84FF0640306F03CF941F22410C1F6FF7004F04AFF034641F23C40C1F6FF7019464FF064024FF014030F
S32D0000D90006F056F941F22010C1F6FF7004F038FF034641F23C40C1F6FF7019464FF064024FF03C0306F044F92D
S32D0000D92841F21C10C1F6FF7004F026FF034641F23C40C1F6FF7019464FF064024FF0640306F032F904F0CCFA90
S32D0000D95002460B464FF0140100914FF08C01019141F23C40C1F6FF7006F09EF907F5C16207F5C06303F1040332
S32D0000D97841F23C40C1F6FF7011461A4606F0FCF9034683F00103DBB2002B7FF47BAF61E0D7F80816D7F80426CE
S32D0000D9A007F11003A3F10C0303F5926303F10C0318464FF0000308F099F80346002B0CBF00230123DBB2002B54
S32D0000D9C83FF492AE4FF014004FF0700100F05CFD2148224901F0FCF84FF000004FF07E5101F5C00104F050FA77
S32D0000D9F01D481C4901F0F0F84FF000004FF07E5101F5C00104F044FA1848164901F0E4F84FF000004FF07E5157
S32D0000DA1801F5C00104F038FA1348104901F0D8F84FF000004FF07E5101F5C00104F02CFA0E480A4901F0CCF812
S32D0000DA404FF000004FF07E5101F5C00104F020FA09480A490A4A01F093F949E648E600BF0000000000002041B4
S32D0000DA68000034420000B4420000344300008743000090410000F0410000704180B500AF01F07EFA00F0A0F85B
S32D0000DA9080BD00BF80B500AF41F24C10C1F6FF70244905F071FA4FF000004FF07E5101F5C00104F0EDF941F2F5
S32D0000DAB84C10C1F6FF701E4905F062FA4FF000004FF07E5101F5C00104F0DEF941F24C10C1F6FF70154905F02F
S32D0000DAE053FA4FF000004FF07E5101F5C00104F0CFF941F24C10C1F6FF70104905F044FA4FF000004FF07E517D
S32D0000DB0801F5C00104F0C0F941F24C10C1F6FF70094905F035FA41F23C40C1F6FF7049F2C421C0F2010106F0C1
S32D0000DB3043FB80BD00000C4200000000000070420000B4420000000080B500AF4FF000004FF07E5101F5C0016E
S32D0000DB5804F09AF94FF000004FF0010101F028FB02460B4641F23C40C1F6FF7006F048FB41F23C40C1F6FF7008
S32D0000DB800FA3D3E9002306F03FFB41F23C40C1F6FF700DA3D3E9002306F036FB4FF001004FF0000101F008FBB7
S32D0000DBA802460B4641F23C40C1F6FF7006F028FB80BD00BFAFF30080182D4454FB21E93FD221337F7CD902C0CD
S32D0000DBD080B584B002AF4FF014004FF0A80100F057FC01F0F9F94FF014004FF02A0100F04FFC4FF014004FF022
S32D0000DBF8710100F031FE4FF014004FF0380100F043FC01F0E5F94FF014004FF01C0100F03BFC01F0DDF901F017
S32D0000DC2077FA03467B604FF014004FF01C0100F02FFC01F0D1F941F24C10C1F6FF707E4905F0A2F941F24C1021
S32D0000DC48C1F6FF707B4905F09BF94FF014004FF0620100F019FC4FF014004FF0710100F0FBFD4FF020004FF0B7
S32D0000DC701E014FF0700200F0AFFC4FF02E004FF028014FF0700200F0A7FC4FF032004FF030014FF0700200F080
S32D0000DC989FFC4FF028004FF0A80100F0F5FB4FF01E004FF01C0100F0EFFB4FF014004FF0E20100F0D1FD5CA3CF
S32D0000DCC0D3E90023CDE900236FF01D006FF013014FF48C7200F024FD4FF000004FF07E5101F5C00104F0D4F879
S32D0000DCE84FF014004FF0700100F0CEFB6FF0130000F0A6F841F24C10C1F6FF704E4905F03FF94FF000004FF05B
S32D0000DD107E5101F5C00104F0BBF84FF014004FF0E00100F0B5FB4FF014004FF0380100F097FD4FF000004FF0D8
S32D0000DD387E5101F5C00104F0A7F84FF000024FF0804303F58023CDE900234FF014004FF014014FF0700200F0A5
S32D0000DD60DFFC6FF013004FF01C0100F091FB4FF014004FF0710100F0CBFD4FF000024FF0804303F54023CDE960
S32D0000DD8800234FF014004FF014014FF4C47200F0C3FC6FF013004FF0380100F075FB4FF014004FF0710100F03D
S32D0000DDB0AFFD4FF000024FF07E5303F5F003CDE900236FF013006FF013014FF0380200F0A7FC7B68012B03D0B1
S32D0000DDD8022B12D0002B21E04FF014004FF0E00100F052FB4FF014004FF0710100F034FD4FF0140000F0A0F931
S32D0000DE0010E04FF014004FF48C7100F041FB4FF014004FF0710100F023FD4FF0140000F08FF900BF07F10807A0
S32D0000DE28BD4680BDAFF300806666666666660640000070420000000000000C42AFF3008090B587B000AF78609B
S32D0000DE507868FFF781F8034641F23010C1F6FF70194601F001FD7868FFF776F8034641F22810C1F6FF701946A8
S32D0000DE7801F0F6FC0DE041F22010C1F6FF7004F07BFC034641F23C40C1F6FF70194606F0A3F941F22410C1F68B
S32D0000DEA0FF7004F06DFC03464FF0010214461846A149FFF761FA0346002B02D14FF000031C46E3B2002BDAD1B4
S32D0000DEC84FF001037B6104F00BF802460B46C7E9022300E000BF04F003F802460B4610461946D7E90223FEF7F2
S32D0000DEF093FA02460B464FF001010C46104619464FF000024FF0804303F50023FEF7C8FE0346002B02D14FF0F7
S32D0000DF1800031C46E3B2002B40F0058141F22410C1F6FF7004F028FC03464FF00102144618468049FFF7FEF962
S32D0000DF400346002B02D14FF000031C46E3B2002B02D04FF000037B6141F21C10C1F6FF7004F00EFC03464FF00D
S32D0000DF680102144618467349FFF7E4F90346002B02D14FF000031C46E3B2002B02D04FF002037B6141F2201041
S32D0000DF90C1F6FF7004F0F4FB03464FF00102144618466649FFF7CAF90346002B02D14FF000031C46E3B2002B04
S32D0000DFB834D041F22410C1F6FF7004F0DDFB03464FF00102144618465A49FFF7B3F90346002B02D14FF00003CD
S32D0000DFE01C46E3B2002B02D04FF000037B6141F21C10C1F6FF7004F0C3FB03464FF00102144618464D49FFF7FB
S32D0000E00899F90346002B02D14FF000031C46E3B2002B10D04FF002037B610CE07B69002B03D14FF003037B61BD
S32D0000E03005E07B69022B02D14FF001037B617B69032B3FF64BAF01A252F823F091E00000C5E000005DE0000046
S32D0000E058F9E000007B6803F108031846FEF778FF034641F23010C1F6FF70194601F0F8FB7868FEF76DFF034666
S32D0000E08041F22810C1F6FF70194601F0EDFB4DE07868FEF761FF034641F23010C1F6FF70194601F0E1FB7B6856
S32D0000E0A803F108031846FEF753FF034641F22810C1F6FF70194601F0D3FB33E07868FEF747FF034641F23010C4
S32D0000E0D0C1F6FF70194601F0C7FB7B6803F102031846FEF739FF034641F22810C1F6FF70194601F0B9FB19E0AC
S32D0000E0F87B6803F102031846FEF72AFF034641F23010C1F6FF70194601F0AAFB7868FEF71FFF034641F2281024
S32D0000E120C1F6FF70194601F09FFB00BFD6E600BF07F11C07BD4690BD000020400000804090B587B000AF7860F9
S32D0000E1487868FEF705FF034641F23010C1F6FF70194601F085FB7868FEF7FAFE034641F22810C1F6FF70194618
S32D0000E17001F07AFB0DE041F22010C1F6FF7004F0FFFA034641F23C40C1F6FF70194606F027F841F21C10C1F610
S32D0000E198FF7004F0F1FA03461846FEF799FA02460B464FF001010C4610461946ACA3D3E90023FEF771FD034621
S32D0000E1C0002B02D14FF000031C46E3B2002BD2D14FF001037B6103F087FE02460B46C7E9022300E000BF03F095
S32D0000E1E87FFE02460B4610461946D7E90223FEF70FF902460B464FF001010C46104619464FF000024FF0804338
S32D0000E21003F50023FEF744FD0346002B02D14FF000031C46E3B2002B40F02C8141F22410C1F6FF7004F0A4FAE8
S32D0000E23803464FF00102144618468F49FFF77AF80346002B02D14FF000031C46E3B2002B02D04FF000037B619A
S32D0000E26041F21C10C1F6FF7004F08AFA03461846FEF732FA02460B464FF001010C46104619467BA3D3E90023ED
S32D0000E288FEF7ECFC0346002B02D14FF000031C46E3B2002B02D04FF002037B6141F22010C1F6FF7004F068FA0F
S32D0000E2B003461846FEF710FA02460B464FF001010C46104619466CA3D3E90023FEF7CAFC0346002B02D14FF08A
S32D0000E2D800031C46E3B2002B3CD041F22410C1F6FF7004F049FA03464FF00102144618466149FFF71FF80346E0
S32D0000E300002B02D14FF000031C46E3B2002B02D04FF000037B6141F21C10C1F6FF7004F02FFA03461846FEF75F
S32D0000E328D7F902460B464FF001010C46104619464DA3D3E90023FEF791FC0346002B02D14FF000031C46E3B245
S32D0000E350002B10D04FF002037B610CE07B69002B03D14FF003037B6105E07B69022B02D14FF001037B617B69B8
S32D0000E378032B3FF633AF01A252F823F0C9E30000FDE3000095E3000031E400007B6803F108031846FEF7DCFD0B
S32D0000E3A0034641F23010C1F6FF70194601F05CFA7868FEF7D1FD034641F22810C1F6FF70194601F051FA4DE082
S32D0000E3C87868FEF7C5FD034641F23010C1F6FF70194601F045FA7B6803F108031846FEF7B7FD034641F2281082
S32D0000E3F0C1F6FF70194601F037FA33E07868FEF7ABFD034641F23010C1F6FF70194601F02BFA7B6803F1020395
S32D0000E4181846FEF79DFD034641F22810C1F6FF70194601F01DFA19E07B6803F102031846FEF78EFD034641F279
S32D0000E4403010C1F6FF70194601F00EFA7868FEF783FD034641F22810C1F6FF70194601F003FA00BFBEE600BF52
S32D0000E468333333333333FB3F9C9999999999D93FA09999999999B93F0000003F00BF07F11C07BD4690BD00BFAC
S32D0000E490F0B585B000AF7860396041F24410C1F6FF7004F047F941F24010C1F6FF7004F041F97868FEF750FD8A
S32D0000E4B8034641F23010C1F6FF70194601F0D0F97868FEF745FD034641F22810C1F6FF70194601F0C5F903F049
S32D0000E4E003FD02460B4610461946FEF72BFC0346FB6000BF41F24010C1F6FF7004F006F9044641F24410C1F61D
S32D0000E508FF7004F0FFF80346E3181846FEF7CEF802460B46104619464FF000024FF08043FEF754FA02460B46C1
S32D0000E53014461D463868FEF7BDF802460B464FF001010E4620462946FEF78CFB0346002B02D14FF000031E464A
S32D0000E558F3B2002B27D003F0C3FC04460D46F868FEF7B6F802460B4620462946FDF750FF02460B464FF00101F1
S32D0000E5800C46104619464FF000024FF0804303F5E013FEF767FB0346002B02D14FF000031C46E3B2002B02D064
S32D0000E5A84FF0010301E04FF00003002B9ED141F23010C1F6FF7001F003F941F22810C1F6FF7001F0FDF807F150
S32D0000E5D01407BD46F0BD00BFF0B587B000AFF860B9607A6041F24410C1F6FF7004F0A2F841F24010C1F6FF70D9
S32D0000E5F804F09CF8B868FEF7ABFC034641F23010C1F6FF70194601F02BF9F868FEF7A0FC034641F22810C1F6FF
S32D0000E620FF70194601F020F903F05EFC02460B4610461946FEF786FB03467B6100BF41F24010C1F6FF7004F062
S32D0000E64861F8044641F24410C1F6FF7004F05AF80346E3181846FEF729F802460B46104619464FF000024FF088
S32D0000E6708043FEF7AFF902460B4614461D467868FEF718F802460B464FF001010E4620462946FEF7E7FA0346BF
S32D0000E698002B02D14FF000031E46F3B2002B27D003F01EFC04460D467869FEF711F802460B4620462946FDF7FE
S32D0000E6C0ABFE02460B464FF001010C46104619464FF000024FF0804303F5E013FEF7C2FA0346002B02D14FF03D
S32D0000E6E800031C46E3B2002B02D04FF0010301E04FF00003002B9ED141F23010C1F6FF7001F05EF841F22810C2
S32D0000E710C1F6FF7001F058F807F11C07BD46F0BDF0B587B000AFF860B9607A6041F24410C1F6FF7003F0FEFF36
S32D0000E73841F24010C1F6FF7003F0F8FFB868FEF707FC034641F23010C1F6FF70194601F087F8F868FEF7FCFB0B
S32D0000E760034641F22810C1F6FF70194601F07CF803F0BAFB02460B4610461946FEF7E2FA03467B6100BF41F20F
S32D0000E7884010C1F6FF7003F0BDFF044641F24410C1F6FF7003F0B6FF0346E3181846FDF785FF02460B46104696
S32D0000E7B019464FF000024FF08043FEF70BF902460B4614461D467868FDF774FF02460B464FF001010E4620466F
S32D0000E7D82946FEF743FA0346002B02D14FF000031E46F3B2002B23D003F07AFB04460D467869FDF76DFF024634
S32D0000E8000B4620462946FDF707FE02460B464FF001010C4610461946D7E90C23FEF722FA0346002B02D14FF064
S32D0000E82800031C46E3B2002B02D04FF0010301E04FF00003002BA2D141F23010C1F6FF7000F0BEFF41F2281016
S32D0000E850C1F6FF7000F0B8FF07F11C07BD46F0BD90B583B000AF7860396041F24410C1F6FF7003F05FFF41F239
S32D0000E8784010C1F6FF7003F059FF7B68C3F100031846FEF765FB034641F22810C1F6FF70194600F0E5FF786877
S32D0000E8A0FEF75AFB034641F23010C1F6FF70194600F0DAFF00BF41F24010C1F6FF7003F025FF044641F24410A6
S32D0000E8C8C1F6FF7003F01EFF0346E3184FEAD372D3184FEA63031A463B689A42ACBF00230123DBB2002BE2D1A4
S32D0000E8F041F23010C1F6FF7000F066FF41F22810C1F6FF7000F060FF07F10C07BD4690BD90B583B000AF7860D2
S32D0000E918396041F24410C1F6FF7003F007FF41F24010C1F6FF7003F001FF7868FEF710FB034641F22810C1F6AB
S32D0000E940FF70194600F090FF7B68C3F100031846FEF702FB034641F23010C1F6FF70194600F082FF00BF41F2CE
S32D0000E9684010C1F6FF7003F0CDFE044641F24410C1F6FF7003F0C6FE0346E3184FEAD372D3184FEA63031946F4
S32D0000E9903A6813464FEA03139B1A4FEA43031A464DF60563C4F67E0383FB02034FEA63104FEAE273C31A3A6859
S32D0000E9B8D31A9942ACBF00230123DBB2002BCED141F23010C1F6FF7000F0FAFE41F22810C1F6FF7000F0F4FE6C
S32D0000E9E007F10C07BD4690BDF0B585B000AF7860396041F2A440C1F6FF7008F0DDFE0346FB603B6883F00043A7
S32D0000EA0841F22810C1F6FF70194600F029FF41F23010C1F6FF70396800F022FF00BF41F2A440C1F6FF7008F099
S32D0000EA30C3FE03464FF00102144618467968FEF77DFC0346002B02D14FF000031C46E3B2002B2AD141F2A440A8
S32D0000EA58C1F6FF7008F0ACFE03461846FDF738FE04460D46F868FDF733FE02460B46104619464FF000024FF007
S32D0000EA808043FDF7C9FC02460B464FF001010E4620462946FEF704F90346002B02D14FF000031E46F3B2002B3A
S32D0000EAA802D04FF0010301E04FF00003002BB6D141F23010C1F6FF70064900F0D1FE41F22810C1F6FF700349D2
S32D0000EAD000F0CAFE07F11407BD46F0BD00000000F0B585B000AF7860396041F2A440C1F6FF7008F061FE0346C6
S32D0000EAF8FB6041F22810C1F6FF70396800F0B0FE3B6883F0004341F23010C1F6FF70194600F0A6FE00BF41F2EE
S32D0000EB20A440C1F6FF7008F047FE03464FF00102144618467968FEF701FC0346002B02D14FF000031C46E3B2EA
S32D0000EB48002B2AD141F2A440C1F6FF7008F030FE03461846FDF7BCFD04460D46F868FDF7B7FD02460B4610462E
S32D0000EB7019464FF000024FF08043FDF74FFC02460B464FF001010E4620462946FEF76AF80346002B02D14FF0B6
S32D0000EB9800031E46F3B2002B02D04FF0010301E04FF00003002BB6D141F23010C1F6FF70064900F055FE41F2D0
S32D0000EBC02810C1F6FF70034900F04EFE07F11407BD46F0BD0000000090B585B000AF7860396041F2A440C1F616
S32D0000EBE8FF7008F0E5FD034641F23C40C1F6FF7019464FF001024FF0010305F0F1F941F23C40C1F6FF7079681F
S32D0000EC104FF002024FF0010305F0E6F94FF00003FB7341F2A440C1F6FF7008F0C5FD034618465149FEF7DCF8CB
S32D0000EC380346BB60B868FDF74BFD02460B464FF001010C461046194647A3D3E90023FEF723F80346002B02D1ED
S32D0000EC604FF000031C46E3B2002B08D0B8684349FEF7BCF80346BB604FF00103FB73FB7B002B37D041F2A44021
S32D0000EC88C1F6FF7008F094FD03464FF00102144618467968FEF76CFB0346002B02D14FF000031C46E3B2002B84
S32D0000ECB012D04FF001031C467868B968FEF75CFB0346002B02D14FF000031C46E3B2002B02D04FF0010301E0C1
S32D0000ECD84FF00003002B04D078683968FFF7FCFE3BE078683968FFF77BFE36E041F2A440C1F6FF7008F05CFDAD
S32D0000ED0003464FF00102144618467968FEF716FB0346002B02D14FF000031C46E3B2002B12D04FF001031C4689
S32D0000ED287868B968FEF706FB0346002B02D14FF000031C46E3B2002B02D04FF0010301E04FF00003002B04D0E4
S32D0000ED5078683968FFF748FE03E078683968FFF7BFFE07F11407BD4690BD00BFAFF3008066666666667E76404B
S32D0000ED78000034430000B443B0B588B000AFF860B9607A6041F2A440C1F6FF7008F0F0FC0346FB6141F2A4408B
S32D0000EDA0C1F6FF7008F0F8FC0346BB61B868B969FEF71CF803461846FDF78EFC04460D46F868F969FEF712F800
S32D0000EDC803461846FDF784FC02460B462046294608F036FE02460B461046194664A3D3E90023FDF7C9FC024633
S32D0000EDF00B4610461946FDF7A5FF03467B6178697968FFF7E9FE41F22810C1F6FF70796800F02AFD41F2301097
S32D0000EE18C1F6FF70796800F023FD00BF41F2A440C1F6FF7008F0A4FC0346F8681946FDF7D9FF03461846FEF7B1
S32D0000EE40D9FA03464FF00102144618464C49FEF793FA0346002B02D14FF000031C46E3B2002B22D041F2A440C3
S32D0000EE68C1F6FF7008F094FC0346B8681946FDF7B9FF03461846FEF7B9FA03464FF00102144618463C49FEF74E
S32D0000EE9073FA0346002B02D14FF000031C46E3B2002B02D04FF0010301E04FF00003002BB8D141F22810C1F62E
S32D0000EEB8FF70324900F0D4FC41F23010C1F6FF702E4900F0CDFC41F2A440C1F6FF7008F04FFC0346F868194631
S32D0000EEE0FDF784FF03461C4641F2A440C1F6FF7008F042FC0346F8681946FDF777FF034620461946FEF77CF886
S32D0000EF0803461C4641F2A440C1F6FF7008F040FC0346B8681946FDF765FF03461D4641F2A440C1F6FF7008F0BE
S32D0000EF3033FC0346B8681946FDF758FF034628461946FEF75DF8034620461946FDF750FF03461846FEF740FAEA
S32D0000EF58034641F23C40C1F6FF7019464FF00A024FF0040305F03CF807F12007BD46B0BDE8C35CB0DDA54C4000
S32D0000EF800000803F0000000098B500AF00BF41F24810C1F6FF7003F0F3FB03461846FDF79BFB02460B464FF04E
S32D0000EFA801010C461046194607A3D3E90023FDF773FE0346002B02D14FF000031C46E3B2002BE0D198BD00BFD4
S32D0000EFD0CDCCCCCCCCCCF43F98B500AF41F24810C1F6FF7003F0CCFB03461846FDF774FB02460B464FF00101CC
S32D0000EFF80C461046194640A3D3E90023FDF72EFE0346002B02D14FF000031C46E3B2002B1AD041F23C40C1F607
S32D0000F020FF704FF47F0104F05BFD41F23C40C1F6FF704FF0FF0104F07BFD41F23C40C1F6FF7049F21031C0F2C1
S32D0000F048010105F0B5F853E041F24810C1F6FF7003F092FB03461846FDF73AFB02460B464FF001010C46104640
S32D0000F070194625A3D3E90023FDF7F4FD0346002B02D14FF000031C46E3B2002B1AD041F23C40C1F6FF704FF0DE
S32D0000F098FF0104F021FD41F23C40C1F6FF704FF47F0104F041FD41F23C40C1F6FF7049F23031C0F2010105F054
S32D0000F0C07BF819E041F23C40C1F6FF704FF0000104F006FD41F23C40C1F6FF706FF07F4104F026FD41F23C40F0
S32D0000F0E8C1F6FF7049F23C31C0F2010105F060F898BD00BFAFF30080666666666666E63FCDCCCCCCCCCCF43F70
S32D0000F11098B500AF41F24810C1F6FF7003F030FB03461846FDF7D8FA02460B464FF001010C46104619461CA3F9
S32D0000F138D3E90023FDF792FD0346002B02D14FF000031C46E3B2002B02D04FF0010323E041F24810C1F6FF70D3
S32D0000F16003F00EFB03461846FDF7B6FA02460B464FF001010C46104619460DA3D3E90023FDF770FD0346002BF5
S32D0000F18802D14FF000031C46E3B2002B02D04FF0020301E04FF00003184698BDAFF30080666666666666E63F8B
S32D0000F1B0CDCCCCCCCCCCF43FB0B584B000AF786039607868FDF776FA04460D463868FDF771FA02460B4620469D
S32D0000F1D8294608F035FC02460B461046194607F11007BD46B0BD00BF80B582B000AF786039607B68012B57D127
S32D0000F2003A684FF6FF739A4252D141F21C10C1F6FF704FF0100103F0A1FA41F22010C1F6FF704FF0110103F058
S32D0000F22899FA41F22410C1F6FF704FF0120103F091FA41F22810C1F6FF704FF000011C4A00F066FA41F23010CE
S32D0000F250C1F6FF704FF00101174A00F05DFA41F23810C1F6FF704FF00201144A00F054FA41F24010C1F6FF7059
S32D0000F2784FF01F0102F08EFE41F24410C1F6FF704FF0000102F086FE41F24810C1F6FF704FF0010103F05EFAEB
S32D0000F2A041F24C10C1F6FF704FF0000103F010FE07F10807BD4680BD000040410000B04080B500AF4FF001006E
S32D0000F2C84FF6FF71FFF790FF80BD00BF80B500AF41F20C72C1F6FF7241F21C13C1F6FF73D31A194641F21C13EC
S32D0000F2F0C1F6FF731A460B4610464FF000011A4608F0DFFE80BD00BF09F054FF00F0B0F9FFF7E0FF09F026FF77
S32D0000F31809F0C2FE09F05AFF00F00CF84FF0000041F25811C1F6FF71FEF76EF80346184608F09EFE80B500AF4C
S32D0000F3404FF4E043C4F204034FF4E042C4F2040202F5805202F13802126842F4785203F5805303F138031A6077
S32D0000F36800F02EF900F094F841F28833C1F6FF734FF058021A6041F28833C1F6FF731B684FF47A7202FB03F2FF
S32D0000F39041F28433C1F6FF731A6041F28433C1F6FF731B681A464FF4E043C4F2040303F5825303F104031B685E
S32D0000F3B803F070634FEA136303F10103B2FBF3F31A4641F28C33C1F6FF731A604FF4E043C4F204034FF4E042AA
S32D0000F3E0C4F2040202F5805202F13C02126842F0225203F5805303F13C031A604FF4E043C4F204034FF4E04229
S32D0000F408C4F2040202F5805202F13002126842F0006203F5805303F130031A604FF45043C4F203034FF48072EB
S32D0000F4301A614FF0640002F0A3FB4FF45043C4F203034FF45042C4F20302526922F010025A614FF45043C4F2B8
S32D0000F45803034FF000021A604FF45043C4F203034FF010025A6103F0B9FA03F061FB41F28030C1F6FF7002F037
S32D0000F48003FC41F23C40C1F6FF7004F041F941F2883002F0E1FC80BD80B400AF4FF48043C4F206034FF000027C
S32D0000F4A85A704FF48043C4F206034FF098021A704FF48043C4F206039B79DBB203F01003002B0CBF002301239B
S32D0000F4D0DBB2002BF0D14FF48043C4F206039B79DBB203F00C034FEA9303022B0CBF00230123DBB2002BEED1A8
S32D0000F4F84FF48043C4F206034FF018021A714FF48043C4F206034FF000025A714FF4E043C4F2040303F582537C
S32D0000F52003F104034FF00002C0F213121A604FF48043C4F206034FF054025A7100BF4FF48043C4F206039B7973
S32D0000F548DBB203F02003002B14BF00230123DBB2002BF0D100BF4FF48043C4F206039B79DBB203F04003002BAE
S32D0000F57014BF00230123DBB2002BF0D14FF48043C4F206034FF48042C4F206021278D2B202F03F02D2B21A7003
S32D0000F5984FF48043C4F206039B79DBB203F00C034FEA9303032B0CBF00230123DBB2002BEED14FF000031846B7
S32D0000F5C0BD4680BC704700BF80B400AF4FF44043C4F204034FF480725A634FF2C003C4F20F034FF2C002C4F28B
S32D0000F5E80F02526942F400525A614FF2C003C4F20F034FF2C002C4F20F02126842F400521A604FF44043C4F258
S32D0000F610040340F20312C0F20A021A634FF46143CEF200034FF46142CEF20002D2F8882142F08062C3F8882106
S32D0000F6384FF46143CEF200034FF46142CEF20002926842F080629A60BD4680BC704700BF80B483B000AF7860A7
S32D0000F660FEE700BF80B400AF00BEBD4680BC704780B400AF4FF0E0224CF20003C0F20003C2F8083D4FF4005392
S32D0000F688C4F205034CF22052DA814FF40053C4F205034DF62812DA814FF40053C4F205034FF0D2021A80BD465B
S32D0000F6B080BC704780B500AF4FF44043C4F20403D3F8A03003F48053002B0CBF00230123DBB2002B1FD04FF446
S32D0000F6D84043C4F204034FF44042C4F20402D2F8A02022F48052C3F8A02041F2C440C1F6FF7008F067F94FF260
S32D0000F700C003C4F20F034FF2C002C4F20F02126822F400521A6080BD90B585B000AFF8600B467A60FB72FB6871
S32D0000F728FA7A1A71FB684FF000025A714FF001031C4678682049FDF71BFE0346002B02D14FF000031C46E3B2CA
S32D0000F750002B02D01A4B7B6011E04FF001031C4678681849FDF7F4FD0346002B02D14FF000031C46E3B2002BE7
S32D0000F77801D0124B7B607868FCF7AAFF02460B46104619460AA3D3E90023FCF7F5FF02460B4610461946FDF7DB
S32D0000F7A0D1FA0246FB681A60FB68184607F11407BD4690BDAFF30080ABAAAAAAAAAA2040000040410000803F68
S32D0000F7C880B582B000AF78607B685B79002B10D07B684FF000025A717B681B7941F28030C1F6FF7019464FF056
S32D0000F7F000024FF01E0302F091FA07F10807BD4680BD00BF80B584B000AF786039603B687F2B03DD4FF07F038F
S32D0000F818FB7309E03B6813F1800F03DA4FF08003FB7301E03B68FB737B685B79FA7B9A420FD07B68FA7B5A712C
S32D0000F8407B681A79FB7B41F28030C1F6FF7011461A464FF01E0302F061FA07F11007BD4680BD00BF0000000033
S32D0000F868B0B584B000AF786039604FF001031C4638684D49FDF75EFD0346002B02D14FF000031C46E3B2002BE4
S32D0000F89002D0474B3B6011E04FF001031C4638684449FDF769FD0346002B02D14FF000031C46E3B2002B01D0B2
S32D0000F8B83E4B3B603868FCF70BFF04460D467B681B681846FCF704FF02460B46104619464FF000024FF0804379
S32D0000F8E003F5B203FDF776F802460B4620462946FCF746FF02460B4610461946FDF722FA03463B604FF00103C0
S32D0000F9081C4638682A49FDF729FD0346002B02D14FF000031C46E3B2002B14D03868FCF7D7FE02460B4610465C
S32D0000F93019461DA3D3E90023FCF722FF02460B4610461946FDF7B6F90346FB6022E03868FCF7C2FE02460B4614
S32D0000F958104619464FF000024FF0804303F5C003FCF70AFF02460B46104619464FF000024FF0804303F5B20394
S32D0000F980FDF728F802460B4610461946FDF792F90346FB607868F968FFF734FF07F11007BD46B0BDAFF30080C9
S32D0000F9A852B81E85EB51F43F0000C8C20000C84200000000AFF3008080B485B000AF02460B46FA71BB71BB79E3
S32D0000F9D0002B07D141F25C13C1F6FF734FF000021A7006E041F25C13C1F6FF734FF001021A704FF03803FB730B
S32D0000F9F841F25C13C1F6FF731A78FB7B1343FB734FF4C043C4F206034FF4C042C4F206029278D2B242F0100270
S32D0000FA20D2B29A704FF4C043C4F206034FF4C042C4F206029278D2B242F02002D2B29A704FF4C043C4F20603AD
S32D0000FA48FA7B1A7107F11407BD4680BC704700BF80B483B000AF4FF001037B6004E000BF7B6803F101037B603B
S32D0000FA707B68312BCCBF00230123DBB2002BF2D107F10C07BD4680BC704700BF80B582B000AF02460B46FA7102
S32D0000FA98BB7141F25D13C1F6FF731B7818464FF00001FFF789FF4FF4C043C4F20603DB78DBB203F00203002B91
S32D0000FAC014BF00230123DBB2002BF0D14FF4C043C4F206034FF4C042C4F20602D278D2B242F00202D2B2DA70AB
S32D0000FAE84FF4C043C4F20603FA791A714FF4C043C4F20603DB78DBB203F00203002B14BF00230123DBB2002B13
S32D0000FB10F0D14FF4C043C4F206034FF4C042C4F20602D278D2B242F00202D2B2DA704FF4C043C4F20603BA79F4
S32D0000FB381A714FF4C043C4F20603DB78DBB203F00203002B14BF00230123DBB2002BF0D14FF4C043C4F2060374
S32D0000FB604FF4C042C4F20602D278D2B242F00202D2B2DA704FF4C043C4F206034FF4C042C4F206029278D2B20C
S32D0000FB8822F02002D2B29A704FF4C043C4F206034FF4C042C4F206029278D2B222F01002D2B29A70FFF754FFFC
S32D0000FBB007F10807BD4680BD80B582B000AF0346FB71FB79184600F06BF807F10807BD4680BD00BF80B582B083
S32D0000FBD800AF02460B46FA71BB7100F039F8FB794FEA4303DBB21846FFF7E2FFBB791846FFF7DEFF00F03EF8BF
S32D0000FC0007F10807BD4680BD80B500AF4FF0FF0000F046F80346184680BD00BF80B584B000AF0346FB7100F0DF
S32D0000FC2817F8FB794FEA4303DBB243F00103DBB2DBB21846FFF7BCFFFFF7E2FF0346FB7300F018F8FB7B18465D
S32D0000FC5007F11007BD4680BD80B400AF4FF24003C4F20F034FF24002C4F20F02926842F480129A60BD4680BCC3
S32D0000FC78704700BF80B400AF4FF24003C4F20F034FF24002C4F20F02526842F480125A60BD4680BC704700BF7E
S32D0000FCA080B485B000AF0346FB714FF00003BB7303E0FB7B03F10103FB734FF44043C4F20A03DB6A4FF000032A
S32D0000FCC8002BF2D14FF44043C4F20A034FF44042C4F20A02D26A42F00042DA624FF44043C4F20A03FA795A636B
S32D0000FCF000BF4FF44043C4F20A03DB6A03F40033002B14BF00230123DBB2002BF1D14FF44043C4F20A039B6BE1
S32D0000FD18BB73BB7B184607F11407BD4680BC704780B582B000AF4FF4E043C4F204034FF4E042C4F2040202F5A1
S32D0000FD40805202F13002126842F4805203F5805303F130031A604FF42043C4F204034FF480721A654FF2400315
S32D0000FD68C4F20F034FF24002C4F20F02526942F480125A61FFF77EFF4FF42043C4F204034FF400725A654FF490
S32D0000FD902043C4F204034FF400729A654FF42043C4F204034FF40072DA654FF44043C4F20A034FF44062C8F2F2
S32D0000FDB800021A604FF44043C4F20A034FF00502C3F60062DA604FF000037B6007E04FF0FF00FFF7EDFE7B6877
S32D0000FDE003F101037B607B68092BCCBF00230123DBB2002BEFD104A1D1E9000102F048F807F10807BD4680BDE8
S32D0000FE089A9999999999B93F90B486B000AFF860B9607A60FA684FF42043C4F206039A4214D14FF4E043C4F225
S32D0000FE3004034FF4E042C4F2040202F5805202F13402126842F4806203F5805303F134031A6083E0FA684FF480
S32D0000FE583043C4F206039A4214D14FF4E043C4F204034FF4E042C4F2040202F5805202F13402126842F4006241
S32D0000FE8003F5805303F134031A6067E0FA684FF44043C4F206039A4214D14FF4E043C4F204034FF4E042C4F2B7
S32D0000FEA8040202F5805202F13402126842F4805203F5805303F134031A604BE0FA684FF45043C4F206039A4244
S32D0000FED014D14FF4E043C4F204034FF4E042C4F2040202F5805202F13402126842F4005203F5805303F13403F1
S32D0000FEF81A602FE0FA684FF42043C4F20E039A4214D14FF4E043C4F204034FF4E042C4F2040202F5805202F1C3
S32D0000FF202802126842F4806203F5805303F128031A6013E04FF4E043C4F204034FF4E042C4F2040202F5805293
S32D0000FF4802F12802126842F4006203F5805303F128031A60FB68DB78DBB223F00C03DAB2FB68DA70FB684FF0B8
S32D0000FF7000029A70BB684FF47A7202FB03F27B684FEA031392FBF3F39CB2FB681B78DBB223F01F03FB7523468F
S32D0000FF9803F4F8534FEA2323DBB203F01F03DAB2FB7D1343DAB2FB681A70E2B2FB685A70BB684FF4FA4202FBA5
S32D0000FFC003F27B684FEA031392FBF3F39AB2234619464FEAC121CB1A4FEA43139BB2D3189CB2FB689B7ADBB24B
S32D0000FFE823F01F03FB75E3B203F01F03DAB2FB7D1343DAB2FB689A72FB68DB78DBB243F00C03DAB2FB68DA7089
S32D0001001007F11807BD4690BC704700BF80B483B000AF786000BF7B681B79DBB203F02003002B14BF00230123D9
S32D00010038DBB2002BF3D17B68DB79DBB2184607F10C07BD4680BC704780B483B000AF78600B46FB7000BF7B68AE
S32D000100601B79DBB2DBB26FEA0303DBB24FEAD313DBB2002BF3D17B68FA78DA7107F10C07BD4680BC704700BFDC
S32D0001008880B487B000AFF860B9607A60FB687B6107E0BB68DAB27B691A707B6903F101037B617B68002B0CBF10
S32D000100B000230123DBB27A6802F1FF327A60002BEBD107F11C07BD4680BC704780B584B000AF786039607B6809
S32D000100D81B6BFB60FA683B689A4264D07B681B79002B43D07B685A787B6803F1340310461946FA684FF0010331
S32D0001010001F0ACFB0346002B0CBF00230123DBB2002B02D04FF001034BE07B684FF000021A717B685A6A7B6881
S32D000101281B6AD218FB689A4220D97B68DB78FB7214E07B681B6AFA68D318FB607B685A787B6803F13403104641
S32D000101501946FA684FF0010301F080FBFB7A03F1FF33FB72FB7A012B94BF00230123DBB2002BE2D13B68002B94
S32D0001017819D07B685A787B6803F13403104619463A684FF0010301F057FA0346002B0CBF00230123DBB2002B92
S32D000101A002D04FF0010304E07B683A681A634FF00003184607F11007BD4680BD80B584B000AF786078684FF037
S32D000101C80001FFF77FFF0346FB73FB7B002B40F0AE807B681B78032B40F095807B685B79002B00F090807B682F
S32D000101F04FF000021A637B6803F1340318464FF000014FF40072FFF73FFF7B684FF0550283F832227B684FF023
S32D00010218AA0283F833227B684FF0520283F834207B684FF0520283F835207B684FF0610283F836207B684FF038
S32D00010240410283F837207B684FF0720283F818227B684FF0720283F819227B684FF0410283F81A227B684FF0A5
S32D00010268610283F81B227B681B69DAB27B6883F81C227B681B699BB24FEA2323DAB27B6883F81D227B681B69FA
S32D000102904FEA1343DAB27B6883F81E227B681B694FEA1363DAB27B6883F81F227B68DB68DAB27B6883F82022F3
S32D000102B87B68DB689BB24FEA2323DAB27B6883F821227B68DB684FEA1343DAB27B6883F822227B68DB684FEAB6
S32D000102E01363DAB27B6883F823227B6859787B6803F134027B685B69084611461A464FF0010301F0ABFA7B6821
S32D000103084FF000025A717B685B7818464FF000014FF0000201F084FB0346002B0CBF00230123DBB2002B02D0A5
S32D000103304FF00103FB73FB7B184607F11007BD4680BD00BF80B582B000AF78600B467B807B68002B08D07B6808
S32D000103581B78002B04D07B68DB887A889A4202D04FF009030FE07B685B78184601F0ECFB034603F00103DBB2FB
S32D00010380002B02D04FF0030301E04FF00003184607F10807BD4680BD80B586B000AF78607B681A687B689B88E7
S32D000103A810461946FFF7CAFF0346FB75FB7D002B40F0C8807B689B7903F02003002B00F0C1807B689B7903F08B
S32D000103D04003002B20D07B681B6859787B6803F128027B689B69084611461A464FF0010301F034FA0346002BA6
S32D000103F80CBF00230123DBB2002B02D04FF00103A1E07B689B7923F04003DAB27B689A717B681A687B68DB6923
S32D0001042010461946FFF752FE0346FB75FB7D002B40F08C807B681B6A3B613B6903F10B033A6902F10B02127843
S32D0001044842F02002D2B21A703B6903F11C037A68D268D2B21A703B6903F11D037A68D26892B24FEA2222D2B229
S32D000104701A703B6903F11E037A68D2684FEA1242D2B21A703B6903F11F037A68D2684FEA1262D2B21A703B692E
S32D0001049803F11A037A681269D2B21A703B6903F11B037A68126992B24FEA2222D2B21A703B6903F114037A6846
S32D000104C012694FEA1242D2B21A703B6903F115037A6812694FEA124292B24FEA2222D2B21A704FF00003FB60F1
S32D000104E83B6903F11603FA68D2B21A703B6903F11703FA6892B24FEA2222D2B21A703B6903F11803FA684FEA93
S32D000105101242D2B21A703B6903F11903FA684FEA1262D2B21A707B689B7923F02003DAB27B689A717B681B687C
S32D000105384FF001021A717B681B681846FFF73AFE0346FB75FB7D184607F11807BD4680BD80B584B000AF7860FF
S32D000105607868FFF719FF0346FB73FB7B002B03D17B684FF000021A60FB7B184607F11007BD4680BD80B588B024
S32D0001058800AF786039604FF080033B614FF00F03FB604FF0FF337B614FF00203FB612AE04FF00103BB611AE0CA
S32D000105B0FB69BA6902FB03F33A6802FB03F27B68D31ABB60BB68002B09DBBA687B699A4205D2BB687B61FB69D5
S32D000105D83B61BB69FB60BB6903F10103BB61BB69102B8CBF00230123DBB2002BDCD1FB694FEA4303FB61FB69A8
S32D00010600B3F5807F8CBF00230123DBB2002BCBD14FF48053C4F20B034FF48052C4F20B02D26A22F00802DA62F8
S32D000106284FF48053C4F20B03DB6A1A464FF00F03CFF6F0731340BB614FF48053C4F20B033A694FEA52024FEAF9
S32D0001065002224FEA02424FEA1242F96801F1FF314FEA0111C9B21143BA690A4342F46022DA6203E04FF00A0020
S32D0001067801F0EEFB4FF48053C4F20B035B6A03F00803002B14BF00230123DBB2002BEDD14FF48053C4F20B0347
S32D000106A04FF48052C4F20B02D26A42F00802DA624FF48053C4F20B034FF48052C4F20B02126B42F480121A632B
S32D000106C807F12007BD4680BD80B582B000AF786039607B684FF000021A604FF48053C4F20B034FF40042C0F26E
S32D000106F00012DA624FF48053C4F20B03DB6A03F08073002B0CBF00230123DBB2002BF1D14FF48053C4F20B03F7
S32D000107184FF00002C3F8C0204FF48053C4F20B034FF481325A604FF48053C4F20B034FF028029A624FF48053F7
S32D00010740C4F20B034FF001125A643B689B6818464CF66041C0F20501FFF714FF4FF48053C4F20B035B6A03F07C
S32D000107680303002B0CBF00230123DBB2002BF1D14FF45043C4F2040340F243421A604FF45043C4F2040340F21C
S32D0001079043425A604FF45043C4F204034FF488629A604FF45043C4F2040340F24342DA604FF45043C4F204032A
S32D000107B840F243421A614FF45043C4F2040340F243425A614FF4E043C4F204034FF4E042C4F2040202F58052CE
S32D000107E002F13002126842F4003203F5805303F130031A604FF48053C4F20B034FF6FF721A634FF48053C4F29E
S32D000108080B034FF0B302C0F27F025A634FF48053C4F20B034FF48052C4F20B02D26A42F00062DA624FF48053FB
S32D00010830C4F20B03DB6A03F00063002B0CBF00230123DBB2002BF1D14FF48053C4F20B035B6A03F48033002B0F
S32D000108580CBF00230123DBB2002B03D07B684FF001021A604FF48053C4F20B034FF48052C4F20B02126B42F0D4
S32D0001088080021A634FF00003184607F10807BD4680BD00BF80B400AF4FF48053C4F20B035B6A1A4640F2073356
S32D000108A81340002B0CBF00230123DBB21846BD4680BC704780B485B000AF78604FF48053C4F20B031B6B1A4600
S32D000108D07B681340FB60FB68002B14BF00230123DBB2002BEED1FB68184607F11407BD4680BC704780B584B016
S32D000108F800AF78607B681B7803F03F0249F22063C0F2010353F82230FB60FB68002B06D17B681B78002B02D05C
S32D000109204FF0010330E14FF48053C4F20B034FF48052C4F20B02126B42F080021A634FF48053C4F20B035B6A55
S32D0001094803F00103DBB2002BF5D14FF48053C4F20B037A6852689A60FB6823F44003FB607B685B784FEA8353BE
S32D0001097003F44003FA681343FB607B685B78022B03D1FB6843F40013FB607B685B78042B16D1FB6803F44033B3
S32D00010998B3F5003F08D1FB6823F44033FB60FB6843F44033FB6007E0FB6823F44033FB60FB6843F40033FB6069
S32D000109C04FF48053C4F20B034FF48052C4F20B0252684FEA02424FEA12425A607B68DB68002B32D0FB6803F42B
S32D000109E84033B3F5403F03D0FB6843F40013FB607B681B7A002B03D0FB6843F01003FB607B68DB68012B03D9C3
S32D00010A10FB6843F02003FB607B68DB68B3F1FF3F13D04FF48053C4F20B034FF48052C4F20B02526811467A6813
S32D00010A38D2684FEA02420A435A60FB6843F00203FB604FF48053C4F20B034FF000021A604FF48053C4F20B036C
S32D00010A60FA68DA604FF00100C0F20E00FFF726FF0346012B0CBF00230123DBB2002B10D04FF48053C4F20B03B7
S32D00010A884FF48052C4F20B02126B42F4702242F001021A634FF0010372E04FF48053C4F20B031B6B03F0800305
S32D00010AB0002B0CBF00230123DBB2002B0ED04FF48053C4F20B034FF48052C4F20B02126B42F001121A634FF014
S32D00010AD8010355E04FF48053C4F20B031B6B03F48033002B0CBF00230123DBB2002B0ED04FF48053C4F20B03FF
S32D00010B004FF48052C4F20B02126B42F001121A634FF0FF3338E0FB6803F44033002B25D04FF48053C4F20B035F
S32D00010B281B691A467B681A61FB6803F44033B3F5803F17D14FF48053C4F20B035B691A467B685A614FF480538E
S32D00010B50C4F20B039B691A467B689A614FF48053C4F20B03DB691A467B68DA614FF48053C4F20B034FF48052E5
S32D00010B78C4F20B02126B42F001021A634FF00003184607F11007BD4680BD00BF80B592B000AF786039604FF0D8
S32D00010BA00003FB633B68BB6341F27413C1F6FF737B637B6B002B03D140F6012300F0A0BC41F27833C1F6FF73B1
S32D00010BC83B633B6B002B03D140F60B2300F094BC3B6B1B68FB62FB6A002B03D140F60B2300F08ABC7B6841F27D
S32D00010BF00432934200F0388241F2043293421BD841F20132934238D041F20132934207D8032B00F03D84092B80
S32D00010C1800F0298400F066BC41F20232934200F0128241F20332934200F0BE8300F05ABC41F20732934200F099
S32D00010C404B8341F2073293420BD841F20532934200F0348241F20632934200F0108300F045BC41F208329342B8
S32D00010C6800F0B68241F20932934200F0C48200F039BC786B49F21461C0F20101FFF724FD0346FB63FB6B002B41
S32D00010C9040F030844FF0000387F847304FF0000387F82B304FF0000387F82A304FF0000387F829304FF0000386
S32D00010CB887F846304FF0000387F828304FF000033B724FF000037B724FF00003FB604FF000033B744FF0000311
S32D00010CE07B6107F108031846FFF704FE0346002B0CBF00230123DBB2002B03D04FF00103FB63FCE340F24C4061
S32D00010D0801F0A6F84FF008033B724FF000037B724FF4D573FB604FF000033B744FF000037B6107F108031846B1
S32D00010D30FFF7E0FD03463B643B6C002B0BD1BA69FB689A4203D04FF00103FB63D7E34FF0010387F846304FF024
S32D00010D58010387F8283097F82830002B00F0C6804FF037033B724FF000037B724FF00003FB604FF000033B7466
S32D00010D804FF000037B6107F108031846FFF7B2FD03463B643B6C002B03D04FF00103FB63ADE34FF069033B720A
S32D00010DA84FF000037B724FF00003FB604FF000033B744FF000037B6107F108031846FFF795FD0346002B0CBF19
S32D00010DD000230123DBB2002B03D04FF00103FB638DE3BB6903F44013002B00F083804FF000033B644FF00A005B
S32D00010DF801F02EF83B6C03F101033B644FF037033B724FF000037B724FF00003FB604FF000033B744FF0000352
S32D00010E207B6107F108031846FFF764FD0346002B0CBF00230123DBB2002B03D04FF00103FB6336E04FF069039C
S32D00010E483B724FF000037B7297F84630002B05D04FF00003C4F23003FB6002E04FF44013FB604FF000033B7450
S32D00010E704FF000037B6107F108031846FFF73AFD0346002B0CBF00230123DBB2002B03D04FF00103FB630CE009
S32D00010E98BB69002B05DB3B6C632B02D84FF0010301E04FF00003002BA0D1FB6B002B40F01F833B6C632B04D976
S32D00010EC04FF0000387F8463014E04FF0010387F8473097F84630002B0CD04FF0000387F84630BB6903F0804382
S32D00010EE8002B03D04FF0010387F8463097F82A30002B03D07B6B4FF007021A6097F82930002B03D07B6B4FF00B
S32D00010F1008021A6097F82B30002B03D07B6B4FF004021A6097F84730002B0BD07B6B4FF002021A6097F84630ED
S32D00010F38002B03D07B6B4FF003021A6097F82B30002B0FD097F84730002B0BD07B6B4FF005021A6097F846303D
S32D00010F60002B03D07B6B4FF006021A604FF45043C4F204034FF000021A604FF45043C4F204034FF000025A60E1
S32D00010F884FF45043C4F204034FF000029A604FF45043C4F204034FF00002DA604FF45043C4F204034FF000028A
S32D00010FB01A614FF45043C4F204034FF000025A61FB6A9A68FB6A5B6810461946FFF7DAFA4FF45043C4F2040367
S32D00010FD840F243421A604FF45043C4F2040340F243425A604FF45043C4F204034FF488629A604FF45043C4F26F
S32D00011000040340F24342DA604FF45043C4F2040340F243421A614FF45043C4F2040340F243425A614FF4E04399
S32D00011028C4F204034FF4E042C4F2040202F5805202F13002126842F4003203F5805303F130031A6057E2B86B23
S32D00011050FFF750FC03463B643B6C002B00F04E824FF00203FB6349E2BB6B002B03D14FF00C03FB6343E24FF4AF
S32D000110788053C4F20B03DB6A03F47F434FEA13234FEA43033B644FF48053C4F20B03DB6A03F0F0034FEA1313C3
S32D000110A003F101023B6C02FB03F33B64FB6A9A683B6CB2FBF3F2BB6B1A6020E2BB6B002B03D14FF00C03FB63DE
S32D000110C819E2BB6B1B68002B03D14FF00C03FB6311E2FFF7DBFB0346002B14BF00230123DBB2002B70D04FF422
S32D000110F05043C4F204034FF000021A604FF45043C4F204034FF000025A604FF45043C4F204034FF000029A606A
S32D000111184FF45043C4F204034FF00002DA604FF45043C4F204034FF000021A614FF45043C4F204034FF0000277
S32D000111405A61FB6A9A68BB6B1B6810461946FFF719FA4FF45043C4F2040340F243421A604FF45043C4F20403A0
S32D0001116840F243425A604FF45043C4F204034FF488629A604FF45043C4F2040340F24342DA604FF45043C4F21D
S32D00011190040340F243421A614FF45043C4F2040340F243425A614FF4E043C4F204034FF4E042C4F2040202F5B7
S32D000111B8805202F13002126842F4003203F5805303F130031A6096E140F60A23FB6392E1BB6B002B03D14FF0B4
S32D000111E00C03FB638BE14FF48053C4F20B035B684FEAC3434FEAD343BA6B13607FE1BB6B002B03D14FF00C0371
S32D00011208FB6378E1FFF742FB0346002B14BF00230123DBB2002B2AD0BB6B1A6840F6FF739A4203D94FF00C0337
S32D00011230FB6364E14FF48053C4F20B034FF48052C4F20B02526822F4FE5222F03F025A604FF48053C4F20B0333
S32D000112584FF48052C4F20B0252681146BA6B12684FEAC2424FEAD2420A435A6043E140F60A23FB633FE1BB6B23
S32D00011280002B03D14FF00C03FB6338E14FF48053C4F20B039B6A03F006034FEA53033B643B6C002B04D1BB6BA5
S32D000112A84FF000021A6026E13B6C012B04D1BB6B4FF001021A601EE13B6C102B04D1BB6B4FF002021A6016E13B
S32D000112D04FF00503FB6312E1BB6B002B03D14FF00C03FB630BE1FFF7D5FA0346002B14BF00230123DBB2002B8F
S32D000112F856D0BB6B1B68002B16D14FF48053C4F20B034FF48052C4F20B02926A22F006029A624FF48053C4F256
S32D000113200B034FF48052C4F20B02926A9A62E6E0BB6B1B68012B18D14FF48053C4F20B034FF48052C4F20B028A
S32D00011348926A22F006029A624FF48053C4F20B034FF48052C4F20B02926A42F002029A62C9E0BB6B1B68022B05
S32D0001137016D14FF48053C4F20B034FF48052C4F20B02926A22F006029A624FF48053C4F20B034FF48052C4F2FE
S32D000113980B02926A9A62AEE04FF00503FB63AAE040F60A23FB63A6E0BB6B002B03D14FF00C03FB639FE04FF48A
S32D000113C08053C4F20B034FF48052C4F20B02D26A42F00062DA624FF48053C4F20B03DB6A03F00063002B0CBF18
S32D000113E800230123DBB2002BF1D14FF48053C4F20B031B6B03F08003002B0CBF00230123DBB2002B0FD04FF428
S32D000114108053C4F20B034FF48052C4F20B02126B42F080021A637B6B4FF000021A604FF48053C4F20B035B6A50
S32D0001143803F48033002B0CBF00230123DBB2002B08D07B6B1B68002B08D17B6B4FF001021A6003E07B6B4FF0F7
S32D0001146000021A607B6B1A68BB6B1A6047E0BB6B4FF01C021A60BB6B03F104034FF004021A60BB6B03F10803B0
S32D000114884FF41E721A6036E04FF00200FFF712FA4FF48053C4F20B031B6B03F4E003002B0CBF00230123DBB28B
S32D000114B0002B0ED04FF48053C4F20B034FF48052C4F20B02126B42F4E0021A634FF00403FB634FF48053C4F2D0
S32D000114D80B034FF48052C4F20B02126B42F032021A6308E040F60923FB6304E000BF02E000BF00E000BFFB6BAE
S32D00011500184607F14807BD4680BD00BF80B489B000AF786039607B687B6141F27413C1F6FF733B613B69002B7E
S32D0001152802D14FF0000381E03B691B68022B0BD03B691B68032B07D03B691B68072B03D03B691B68082B0DD15F
S32D000115504FF48053C4F20B035B6A03F00403002B0CBF00230123DBB2002BF1D13B68FB6156E0FB69B3F5007F5C
S32D0001157828BF4FF40073FB60FB6803F103034FEA9303BB613CE04FF48053C4F20B031B6B03F4E003002B0CBFB8
S32D000115A000230123DBB2002B10D04FF48053C4F20B034FF48052C4F20B02126B42F4E00242F020021A634FF0E6
S32D000115C8000333E04FF48053C4F20B035B6A03F40063002B14BF00230123DBB2002BF1D14FF48053C4F20B034C
S32D000115F01B6A1A467B691A607B6903F104037B61BB6903F1FF33BB61BB69002B0CBF00230123DBB2002BBAD1C4
S32D00011618FA69FB68D31AFB61FB69002B0CBF00230123DBB2002BA0D14FF00103184607F12407BD4680BC704710
S32D0001164080B58EB000AFB9607A600246FA73BB7341F26013C1F6FF737B63FB7B002B02D1BB7B002B02D14FF0EF
S32D00011668040381E040F20043C1F6FF731B78DBB203F00103DBB2002B02D04FF0030373E0BB68002B02D14FF0B4
S32D0001169000036DE07B6B1B7B002B03D17B684FEA43237B60BB7B012B2CD14FF011033B754FF000037B757B688C
S32D000116B8BB614FF001033B77BB7B3B6207F1140341F202301946FFF761FA0346002B14BF00230123DBB2002BB5
S32D000116E03ED0B8684FF40071FFF710FF0346002B0CBF00230123DBB2002B31D04FF00003BB732DE04FF01203E4
S32D000117083B754FF000037B757B68BB614FF001033B77BB7B3B6207F1140341F202301946FFF734FA0346002B9E
S32D0001173014BF00230123DBB2002B11D0BB7B4FEA4323B8681946FFF7E1FE0346002B0CBF00230123DBB2002B70
S32D0001175802D04FF00003BB73BB7B002B02D04FF0010301E04FF00003184607F13807BD4680BD00BF80B487B088
S32D0001178000AF786039607B68FB603B687B6155E07B69B3F5007F28BF4FF400733B617A693B69D31A7B613B69F0
S32D000117A803F103034FEA93033B613BE04FF48053C4F20B031B6B03F4E003002B0CBF00230123DBB2002B10D083
S32D000117D04FF48053C4F20B034FF48052C4F20B02126B42F4E00242F010021A634FF0FF332EE04FF48053C4F297
S32D000117F80B035B6A03F48063002B14BF00230123DBB2002BF1D14FF48053C4F20B03FA6812681A62FB6803F1CD
S32D000118200403FB603B6903F1FF333B613B69002B0CBF00230123DBB2002BBBD17B69002B0CBF00230123DBB2FE
S32D00011848002BA1D14FF00103184607F11C07BD4680BC704780B58EB000AFB9607A600246FA73BB7341F2601384
S32D00011870C1F6FF737B63FB7B002B02D1BB7B002B02D14FF00403CAE040F20043C1F6FF731B78DBB203F00103F5
S32D00011898DBB2002B02D04FF00303BCE040F20043C1F6FF731B78DBB203F00403002B0CBF00230123DBB2002B09
S32D000118C002D04FF00203AAE0BB68002B02D14FF00003A4E07B6B1B7B002B03D17B684FEA43237B60BB7B012B38
S32D000118E82CD14FF018033B754FF000037B757B68BB614FF000033B77BB7B3B6207F1140341F202301946FFF709
S32D0001191041F90346002B14BF00230123DBB2002B3ED0B8684FF40071FFF728FF0346002B0CBF00230123DBB216
S32D00011938002B31D04FF00003BB732DE04FF019033B754FF000037B757B68BB614FF000033B77BB7B3B6207F1DC
S32D00011960140341F202301946FFF714F90346002B14BF00230123DBB2002B11D0BB7B4FEA4323B8681946FFF709
S32D00011988F9FE0346002B0CBF00230123DBB2002B02D04FF00003BB734FF00D033B754FF000037B757B6B1B691E
S32D000119B0BB614FF000033B774FF000033B6207F1140341F202301946FFF7E4F80346002B0CBF00230123DBB261
S32D000119D8002B02D04FF001031DE07A6A48F20803CFF6D9731340002B02D04FF0010312E07B6A03F4F853B3F515
S32D00011A00106F0CBF00230123DBB2002BC8D1BB7B002B02D04FF0010301E04FF00003184607F13807BD4680BD67
S32D00011A2880B58CB000AF0B463A600246FA71BB7141F26013C1F6FF73BB62FB79002B02D04FF004037AE04FF069
S32D00011A50010387F82F3040F20043C1F6FF731B78DBB203F00103DBB2002B02D04FF0030368E0BB79032B5FD820
S32D00011A7801A252F823F000BF911A01009B1A0100AD1A0100BF1A01004FF0000387F82F3052E0BB6A9A683B6860
S32D00011AA01A604FF0000387F82F3049E03B684FF400721A804FF0000387F82F3040E04FF009033B724FF00003E8
S32D00011AC87B72BB6A1B69FB604FF000033B744FF000037B6107F1080341F202301946FFF755F80346002B0CBFA6
S32D00011AF000230123DBB2002B02D04FF0010321E07B6A03F44003002B11D13B6A4FEA934303F07F0303F1010266
S32D00011B187B6A4FEA132303F0030303F1FF3302FA03F23B681A604FF0000387F82F3003E04FF0040387F82F30F6
S32D00011B4097F82F30184607F13007BD4680BD00BF80B483B000AF0346FB71FB79002B02D04FF0010305E040F266
S32D00011B680043C1F6FF731B78DBB2184607F10C07BD4680BC704700BF80B483B000AF78604FF4E043C4F2040393
S32D00011B904FF4E042C4F2040202F5805202F13802126842F0010203F5805303F138031A604FF00003C4F20403ED
S32D00011BB87A689A604FF00003C4F204034FF005025A604FF00003C4F204034FF00002C4F20402126842F0010278
S32D00011BE01A6000BF4FF00003C4F204031B6803F08003002B14BF00230123DBB2002BF1D14FF00003C4F20403E7
S32D00011C084FF00002C4F20402126822F001021A6007F10C07BD4680BC704700BF80B582B000AF786039607B687D
S32D00011C30012B0AD13A684FF6FF739A4205D141F28030C1F6FF7000F00FF807F10807BD4680BD00BF80B500AF89
S32D00011C584FF001004FF6FF71FFF7E0FF80BD00BF80B483B000AF78607B684FF000021A707B68184607F10C07AF
S32D00011C80BD4680BC704700BF80B582B000AF78607B681B7883F00103DBB2002B36D04FF4E043C4F2040303F5CC
S32D00011CA8805303F128034FF400621A604FF45043C4F204034FF440721A624FF45043C4F204034FF440725A62B4
S32D00011CD041F28433C1F6FF731B684FEAD372D3184FEA63034FF43040C4F20E0019464FF46142FEF78DF84FF0D2
S32D00011CF8640000F0ADF87B684FF001021A704FF0010301E04FF00003184607F10807BD4680BD00BF80B582B0E4
S32D00011D2000AF7860F970BA707B704FF43040C4F20E004FF07F01FEF78BF94FF43040C4F20E004FF00801FEF72C
S32D00011D4883F9FB784FF43040C4F20E001946FEF77BF9BB784FF43040C4F20E001946FEF773F97B784FF430402E
S32D00011D70C4F20E001946FEF76BF94FF43040C4F20E004FF0FF01FEF763F907F10807BD4680BD00BF80B487B050
S32D00011D9800AFF860B9607A60FA6844F6D353C1F26203A3FB02134FEA9312BB68D3187B61FA6844F6D353C1F258
S32D00011DC06203A3FB02134FEA93134FF47A7101FB03F3D31AFB60FB684FEAC33244F6D353C1F26203A3FB0213D9
S32D00011DE84FEA93127B68D3183B613B694FEAD3337A69D3187B613B694FEA43434FEA53433B614FF45043C4F29D
S32D00011E1003031B681A467B699A4211D34FF45043C4F203031B681A467B699A420BD14FF45043C4F203035B68B0
S32D00011E381A463B699A4202D24FF0010301E04FF00003002BDDD107F11C07BD4680BC704780B584B000AF786087
S32D00011E604FF45043C4F203031B68FB604FF45043C4F203035B68BB607B681846F968BA68FFF788FF07F1100723
S32D00011E88BD4680BD0000000080B584B000AFC7E900014FF45043C4F203031B68FB604FF45043C4F203035B685D
S32D00011EB0BB60D7E900010AA3D3E90023FAF760FC02460B4610461946FAF71CFF03461846F968BA68FFF75EFF77
S32D00011ED807F11007BD4680BD0000000000408F4080B584B000AF4FF45043C4F203031B68FB604FF45043C4F269
S32D00011F0003035B68BB60F868FAF7C4FB02460B46C7E90023B868FAF7BDFB02460B46104619464FF000024FF0BB
S32D00011F28804303F56003FAF751FD02460B46D7E90001FAF76FFA02460B46C7E90023D7E900231046194607F17D
S32D00011F501007BD4680BD00BF80B483B000AF4FF45043C4F203031B684FF47A7202FB03F37B604FF45043C4F298
S32D00011F7803035B684FF47A7202FB03F34FEAD3337A68D3187B607B68184607F10C07BD4680BC704780B584B0BD
S32D00011FA000AF78600B46FB704FF00B03FB73FA78FB7B786811461A4600F0ECF87B68184607F11007BD4680BD31
S32D00011FC880B485B000AF78607B68A3F11003002B01DA03F11F034FEA6313FB60FB68012B48D0022B00F089807D
S32D00011FF0002B40F0C9804FF46142CEF200024FF46143CEF20003D3F8803119467B68A3F110004FF01F03C8F24F
S32D0001201800030340002B05DA03F1FF3363F01F0303F101034FF0010000FA03F30B43C2F880314FF46142CEF227
S32D0001204000024FF46143CEF200031B6819467B68A3F110004FF01F03C8F200030340002B05DA03F1FF3363F078
S32D000120681F0303F101034FF0010000FA03F30B43136085E04FF46142CEF200024FF46143CEF20003D3F8843107
S32D0001209019467B68A3F110004FF01F03C8F200030340002B05DA03F1FF3363F01F0303F101034FF0010000FA03
S32D000120B803F30B43C2F884314FF46142CEF200024FF46143CEF200035B6819467B68A3F110004FF01F03C8F230
S32D000120E000030340002B05DA03F1FF3363F01F0303F101034FF0010000FA03F30B43536042E04FF46142CEF2F5
S32D0001210800024FF46143CEF20003D3F8883119467B68A3F110004FF01F03C8F200030340002B05DA03F1FF3301
S32D0001213063F01F0303F101034FF0010000FA03F30B43C2F888314FF46142CEF200024FF46143CEF200039B68CD
S32D0001215819467B68A3F110004FF01F03C8F200030340002B05DA03F1FF3363F01F0303F101034FF0010000FA3A
S32D0001218003F30B43936000BF07F11407BD4680BC704700BF80B584B000AF786013460A46FA70BB707B68FA78EF
S32D000121A81A70BB78FB737B681B781A4649F22073C0F201039B5C042B00F2F68001A252F823F000BFE121010033
S32D000121D055220100C9220100B12301003D2301004FF41043C4F204037A681278114649F26472C0F2010252F820
S32D000121F82110FA7B4FEA024202F4702242F4887242F0030243F821204FF47043C4F20F034FF47042C4F20F02B0
S32D00012220526911467A681278104649F26472C0F2010252F8202002F01F024FF0010000FA02F26FEA02020A4083
S32D000122485A614FF06700FFF7BBFEADE04FF42043C4F204037A681278114649F26472C0F2010252F82110FA7BEE
S32D000122704FEA024202F4702242F4887242F0030243F821204FF24003C4F20F034FF24002C4F20F0252691146AF
S32D000122987A681278104649F26472C0F2010252F8202002F01F024FF0010000FA02F26FEA02020A405A614FF023
S32D000122C06800FFF781FE73E04FF43043C4F204037A681278114649F26472C0F2010252F82110FA7B4FEA024256
S32D000122E802F4702242F4887242F0030243F821204FF28003C4F20F034FF28002C4F20F02526911467A681278C8
S32D00012310104649F26472C0F2010252F8202002F01F024FF0010000FA02F26FEA02020A405A614FF06900FFF7B7
S32D0001233847FE39E04FF45043C4F204037A681278114649F26472C0F2010252F82110FA7B4FEA024202F4702207
S32D0001236042F4887242F0030243F821204FF47143C4F20F034FF47142C4F20F02526911467A681278104649F2E0
S32D000123886472C0F2010252F8202002F01F024FF0010000FA02F26FEA02020A405A614FF06B00FFF70DFE00BF04
S32D000123B007F11007BD4680BDB0B48BB000AF49F24833C0F2010307F104041D460FCD0FC495E80F0084E80F00DC
S32D000123D84FF000037B6248E04FF42043C4F20403D3F8A0301A467B6A4FEA830307F12800C31853F8243C4FF0A8
S32D00012400010101FA03F31340002B0CBF00230123DBB2002B29D041F2B033C1F6FF737A6A53F8223003F10101C3
S32D0001242841F2B033C1F6FF737A6A43F822104FF42043C4F204034FF42042C4F20402D2F8A02011467A6A4FEA33
S32D00012450820207F12800821852F8242C4FF0010000FA02F20A40C3F8A0207B6A03F101037B627B6A072BCCBF36
S32D0001247800230123DBB2002BAED107F12C07BD46B0BC7047B0B489B000AF49F26833C0F2010307F104041D462B
S32D000124A00FCD0FC495E8030084E803004FF00003FB6149E04FF43043C4F20403D3F8A0301A46FB694FEA830317
S32D000124C807F12000C31853F81C3C4FF0010101FA03F31340002B0CBF00230123DBB2002B2AD0FB6903F1080279
S32D000124F041F2B033C1F6FF7353F8223003F1010141F2B033C1F6FF7343F822104FF43043C4F204034FF4304217
S32D00012518C4F20402D2F8A0201146FA694FEA820207F12000821852F81C2C4FF0010000FA02F20A40C3F8A020A0
S32D00012540FB6903F10103FB61FB69052BCCBF00230123DBB2002BADD107F12407BD46B0BC704700BFB0B48DB06F
S32D0001256800AF49F28033C0F201033C461D460FCD0FC40FCD0FC495E8070084E807004FF00003FB6249E04FF4AC
S32D000125901043C4F20403D3F8A0301A46FB6A4FEA830307F13000C31853F8303C4FF0010101FA03F31340002B83
S32D000125B80CBF00230123DBB2002B2AD0FB6A03F10E0241F2B033C1F6FF7353F8223003F1010141F2B033C1F628
S32D000125E0FF7343F822104FF41043C4F204034FF41042C4F20402D2F8A0201146FA6A4FEA820207F13000821885
S32D0001260852F8302C4FF0010000FA02F20A40C3F8A020FB6A03F10103FB62FB6A0A2BCCBF00230123DBB2002B2C
S32D00012630ADD107F13407BD46B0BC7047B0B487B000AF49F2AC33C0F201033C461D460FCD0FC42B6823604FF0A1
S32D0001265800037B6149E04FF45043C4F20403D3F8A0301A467B694FEA830307F11800C31853F8183C4FF001014F
S32D0001268001FA03F31340002B0CBF00230123DBB2002B2AD07B6903F1190241F2B033C1F6FF7353F8223003F135
S32D000126A8010141F2B033C1F6FF7343F822104FF45043C4F204034FF45042C4F20402D2F8A02011467A694FEA34
S32D000126D0820207F11800821852F8182C4FF0010000FA02F20A40C3F8A0207B6903F101037B617B69042BCCBFD6
S32D000126F800230123DBB2002BADD107F11C07BD46B0BC704780B483B000AF78607B681B781A4641F2B033C1F664
S32D00012720FF7353F82230184607F10C07BD4680BC704700BF80B483B000AF78607B681B781A4641F2B033C1F6CC
S32D00012748FF734FF0000143F8221007F10C07BD4680BC704780B483B000AF78600B46FB707B68FA781A707B68D6
S32D00012770184607F10C07BD4680BC70470000000080B586B000AF78607B681B781A4649F2E473C0F2010353F880
S32D0001279822303B617B681B781A4649F24073C0F201039B5CFB733B69DBB203F01F03DAB241F29033C1F6FF7354
S32D000127C01A723B69DBB203F01F03DAB241F29033C1F6FF735A724FF46143CEF200034FF01002C3F88820FB7BCD
S32D000127E8002B1ED14FF43040C4F2030041F29031C1F6FF7100F004FB4FF43043C4F203031B6803F08003002B9C
S32D0001281014BF00230123DBB2002BF1D14FF43043C4F203031B697B611DE04FF43040C4F20B0041F29031C1F617
S32D00012838FF7100F0E5FA4FF43043C4F20B031B6803F08003002B14BF00230123DBB2002BF1D14FF43043C4F294
S32D000128600B031B697B614FF46143CEF200034FF46142CEF20002D2F8882142F01002C3F888214FF46143CEF2C7
S32D0001288800034FF46142CEF20002926842F010029A607B694FEA03434FEA13431846F9F7F5FE02460B4610461C
S32D000128B019460FA3D3E90023F9F762FF02460B46104619460CA3D3E90023FAF783F802460B4610461946FAF731
S32D000128D835FA0346BB60BB68184607F11807BD4680BD00BFAFF30080A4703D0AD7A30A4000000000E0FFEF4058
S32D0001290080B586B000AF78607B681B781A4649F2E473C0F2010353F822303B617B681B781A4649F24073C0F2E9
S32D0001292801039B5CFB733B69DBB203F01F03DAB241F2A033C1F6FF731A723B69DBB203F01F03DAB241F2A033B2
S32D00012950C1F6FF735A72FB7B002B1ED14FF43040C4F2030041F2A031C1F6FF7100F04CFA4FF43043C4F2030394
S32D000129781B6803F08003002B14BF00230123DBB2002BF1D14FF43043C4F203031B697B611DE04FF43040C4F240
S32D000129A00B0041F2A031C1F6FF7100F02DFA4FF43043C4F20B031B6803F08003002B14BF00230123DBB2002B4B
S32D000129C8F1D14FF43043C4F20B031B697B617B69184607F11807BD4680BD00BF98B500AF41F29033C1F6FF73D1
S32D000129F04FF05C021A7041F29033C1F6FF734FF010025A7041F29033C1F6FF7341F234225A8041F29033C1F628
S32D00012A18FF7345F278629A8041F29033C1F6FF734FF010029A7141F29033C1F6FF734FF00702DA7141F29033CF
S32D00012A40C1F6FF734FF4C022DA6041F29033C1F6FF734FF01F021A7241F29033C1F6FF734FF01F025A724FF446
S32D00012A683040C4F2030041F29031C1F6FF7100F0C7F94FF43040C4F20B0041F29031C1F6FF7100F0BDF94FF4D3
S32D00012A903040C4F20B0000F011F94FF43040C4F2030000F00BF94FF43040C4F20B0041F29031C1F6FF7100F00D
S32D00012AB8A7F94FF43040C4F2030041F29031C1F6FF7100F09DF941F2A032C1F6FF7241F29033C1F6FF7314469C
S32D00012AE00FCB84E80F0041F2A033C1F6FF734FF05C021A7041F2A033C1F6FF734FF00402DA7198BD80B500AF24
S32D00012B0841F23443C1F6FF731B6803F1010241F23443C1F6FF731A6000F04CF84FF4E043C4F203034FF001026C
S32D00012B30C3F80C2180BD00BF80B500AF4FF4E043C4F203034FF001021A6048F2A060C0F2010000F023F84FF495
